{
  "_format": "hh3-artifact-1",
  "contractName": "AMMLiquidity",
  "sourceName": "contracts/AMMLiquidity.sol",
  "abi": [
    {
      "inputs": [
        {
          "internalType": "address",
          "name": "_stable",
          "type": "address"
        },
        {
          "internalType": "address",
          "name": "_usdc",
          "type": "address"
        },
        {
          "internalType": "string",
          "name": "_lpName",
          "type": "string"
        },
        {
          "internalType": "string",
          "name": "_lpSymbol",
          "type": "string"
        }
      ],
      "stateMutability": "nonpayable",
      "type": "constructor"
    },
    {
      "inputs": [
        {
          "internalType": "address",
          "name": "owner",
          "type": "address"
        }
      ],
      "name": "OwnableInvalidOwner",
      "type": "error"
    },
    {
      "inputs": [
        {
          "internalType": "address",
          "name": "account",
          "type": "address"
        }
      ],
      "name": "OwnableUnauthorizedAccount",
      "type": "error"
    },
    {
      "inputs": [],
      "name": "ReentrancyGuardReentrantCall",
      "type": "error"
    },
    {
      "anonymous": false,
      "inputs": [
        {
          "indexed": true,
          "internalType": "address",
          "name": "feeCollector",
          "type": "address"
        }
      ],
      "name": "FeeCollectorSet",
      "type": "event"
    },
    {
      "anonymous": false,
      "inputs": [
        {
          "indexed": true,
          "internalType": "address",
          "name": "feeCollector",
          "type": "address"
        },
        {
          "indexed": false,
          "internalType": "uint256",
          "name": "stableAmount",
          "type": "uint256"
        },
        {
          "indexed": false,
          "internalType": "uint256",
          "name": "usdcAmount",
          "type": "uint256"
        }
      ],
      "name": "FeeWithdrawn",
      "type": "event"
    },
    {
      "anonymous": false,
      "inputs": [
        {
          "indexed": true,
          "internalType": "address",
          "name": "provider",
          "type": "address"
        },
        {
          "indexed": false,
          "internalType": "uint256",
          "name": "stableAmount",
          "type": "uint256"
        },
        {
          "indexed": false,
          "internalType": "uint256",
          "name": "usdcAmount",
          "type": "uint256"
        },
        {
          "indexed": false,
          "internalType": "uint256",
          "name": "lpTokensMinted",
          "type": "uint256"
        }
      ],
      "name": "LiquidityAdded",
      "type": "event"
    },
    {
      "anonymous": false,
      "inputs": [
        {
          "indexed": true,
          "internalType": "address",
          "name": "provider",
          "type": "address"
        },
        {
          "indexed": false,
          "internalType": "uint256",
          "name": "stableAmount",
          "type": "uint256"
        },
        {
          "indexed": false,
          "internalType": "uint256",
          "name": "usdcAmount",
          "type": "uint256"
        },
        {
          "indexed": false,
          "internalType": "uint256",
          "name": "lpTokensBurned",
          "type": "uint256"
        }
      ],
      "name": "LiquidityRemoved",
      "type": "event"
    },
    {
      "anonymous": false,
      "inputs": [
        {
          "indexed": true,
          "internalType": "address",
          "name": "previousOwner",
          "type": "address"
        },
        {
          "indexed": true,
          "internalType": "address",
          "name": "newOwner",
          "type": "address"
        }
      ],
      "name": "OwnershipTransferred",
      "type": "event"
    },
    {
      "anonymous": false,
      "inputs": [
        {
          "indexed": false,
          "internalType": "uint256",
          "name": "reserveStable",
          "type": "uint256"
        },
        {
          "indexed": false,
          "internalType": "uint256",
          "name": "reserveUsdc",
          "type": "uint256"
        }
      ],
      "name": "ReservesSynced",
      "type": "event"
    },
    {
      "anonymous": false,
      "inputs": [
        {
          "indexed": true,
          "internalType": "address",
          "name": "swapContract",
          "type": "address"
        }
      ],
      "name": "SwapContractSet",
      "type": "event"
    },
    {
      "anonymous": false,
      "inputs": [
        {
          "indexed": true,
          "internalType": "address",
          "name": "user",
          "type": "address"
        },
        {
          "indexed": false,
          "internalType": "uint256",
          "name": "inAmount",
          "type": "uint256"
        },
        {
          "indexed": false,
          "internalType": "uint256",
          "name": "outAmount",
          "type": "uint256"
        },
        {
          "indexed": true,
          "internalType": "address",
          "name": "inToken",
          "type": "address"
        },
        {
          "indexed": true,
          "internalType": "address",
          "name": "outToken",
          "type": "address"
        }
      ],
      "name": "SwapExecuted",
      "type": "event"
    },
    {
      "inputs": [],
      "name": "PRECISION",
      "outputs": [
        {
          "internalType": "uint256",
          "name": "",
          "type": "uint256"
        }
      ],
      "stateMutability": "view",
      "type": "function"
    },
    {
      "inputs": [
        {
          "internalType": "uint256",
          "name": "stableFee",
          "type": "uint256"
        },
        {
          "internalType": "uint256",
          "name": "usdcFee",
          "type": "uint256"
        }
      ],
      "name": "addAdminFee",
      "outputs": [],
      "stateMutability": "nonpayable",
      "type": "function"
    },
    {
      "inputs": [
        {
          "internalType": "uint256",
          "name": "stableAmount",
          "type": "uint256"
        }
      ],
      "name": "addLiquidityStable",
      "outputs": [
        {
          "internalType": "uint256",
          "name": "lpTokens",
          "type": "uint256"
        },
        {
          "internalType": "uint256",
          "name": "actualStableAmount",
          "type": "uint256"
        },
        {
          "internalType": "uint256",
          "name": "actualUsdcAmount",
          "type": "uint256"
        }
      ],
      "stateMutability": "nonpayable",
      "type": "function"
    },
    {
      "inputs": [
        {
          "internalType": "uint256",
          "name": "stableAmount",
          "type": "uint256"
        }
      ],
      "name": "addLiquidityStablePreview",
      "outputs": [
        {
          "internalType": "uint256",
          "name": "requiredUsdcAmount",
          "type": "uint256"
        },
        {
          "internalType": "uint256",
          "name": "expectedLpTokens",
          "type": "uint256"
        }
      ],
      "stateMutability": "view",
      "type": "function"
    },
    {
      "inputs": [
        {
          "internalType": "uint256",
          "name": "usdcAmount",
          "type": "uint256"
        }
      ],
      "name": "addLiquidityUSDC",
      "outputs": [
        {
          "internalType": "uint256",
          "name": "lpTokens",
          "type": "uint256"
        },
        {
          "internalType": "uint256",
          "name": "actualStableAmount",
          "type": "uint256"
        },
        {
          "internalType": "uint256",
          "name": "actualUsdcAmount",
          "type": "uint256"
        }
      ],
      "stateMutability": "nonpayable",
      "type": "function"
    },
    {
      "inputs": [
        {
          "internalType": "uint256",
          "name": "usdcAmount",
          "type": "uint256"
        }
      ],
      "name": "addLiquidityUSDCPreview",
      "outputs": [
        {
          "internalType": "uint256",
          "name": "requiredStableAmount",
          "type": "uint256"
        },
        {
          "internalType": "uint256",
          "name": "expectedLpTokens",
          "type": "uint256"
        }
      ],
      "stateMutability": "view",
      "type": "function"
    },
    {
      "inputs": [],
      "name": "adminStableBalance",
      "outputs": [
        {
          "internalType": "uint256",
          "name": "",
          "type": "uint256"
        }
      ],
      "stateMutability": "view",
      "type": "function"
    },
    {
      "inputs": [],
      "name": "adminUsdcBalance",
      "outputs": [
        {
          "internalType": "uint256",
          "name": "",
          "type": "uint256"
        }
      ],
      "stateMutability": "view",
      "type": "function"
    },
    {
      "inputs": [],
      "name": "feeCollector",
      "outputs": [
        {
          "internalType": "address",
          "name": "",
          "type": "address"
        }
      ],
      "stateMutability": "view",
      "type": "function"
    },
    {
      "inputs": [],
      "name": "getReserves",
      "outputs": [
        {
          "internalType": "uint256",
          "name": "",
          "type": "uint256"
        },
        {
          "internalType": "uint256",
          "name": "",
          "type": "uint256"
        }
      ],
      "stateMutability": "view",
      "type": "function"
    },
    {
      "inputs": [
        {
          "internalType": "address",
          "name": "_swapContract",
          "type": "address"
        },
        {
          "internalType": "address",
          "name": "_feeCollector",
          "type": "address"
        }
      ],
      "name": "initialize",
      "outputs": [],
      "stateMutability": "nonpayable",
      "type": "function"
    },
    {
      "inputs": [],
      "name": "lpToken",
      "outputs": [
        {
          "internalType": "contract LPToken",
          "name": "",
          "type": "address"
        }
      ],
      "stateMutability": "view",
      "type": "function"
    },
    {
      "inputs": [],
      "name": "owner",
      "outputs": [
        {
          "internalType": "address",
          "name": "",
          "type": "address"
        }
      ],
      "stateMutability": "view",
      "type": "function"
    },
    {
      "inputs": [
        {
          "internalType": "uint256",
          "name": "lpTokens",
          "type": "uint256"
        }
      ],
      "name": "removeLiquidity",
      "outputs": [
        {
          "internalType": "uint256",
          "name": "amountStable",
          "type": "uint256"
        },
        {
          "internalType": "uint256",
          "name": "amountUsdc",
          "type": "uint256"
        }
      ],
      "stateMutability": "nonpayable",
      "type": "function"
    },
    {
      "inputs": [
        {
          "internalType": "uint256",
          "name": "lpTokens",
          "type": "uint256"
        }
      ],
      "name": "removeLiquidityPreview",
      "outputs": [
        {
          "internalType": "uint256",
          "name": "amountStable",
          "type": "uint256"
        },
        {
          "internalType": "uint256",
          "name": "amountUsdc",
          "type": "uint256"
        }
      ],
      "stateMutability": "view",
      "type": "function"
    },
    {
      "inputs": [],
      "name": "renounceOwnership",
      "outputs": [],
      "stateMutability": "nonpayable",
      "type": "function"
    },
    {
      "inputs": [],
      "name": "reserveStable",
      "outputs": [
        {
          "internalType": "uint256",
          "name": "",
          "type": "uint256"
        }
      ],
      "stateMutability": "view",
      "type": "function"
    },
    {
      "inputs": [],
      "name": "reserveUsdc",
      "outputs": [
        {
          "internalType": "uint256",
          "name": "",
          "type": "uint256"
        }
      ],
      "stateMutability": "view",
      "type": "function"
    },
    {
      "inputs": [],
      "name": "stableDecimals",
      "outputs": [
        {
          "internalType": "uint8",
          "name": "",
          "type": "uint8"
        }
      ],
      "stateMutability": "view",
      "type": "function"
    },
    {
      "inputs": [],
      "name": "stableToken",
      "outputs": [
        {
          "internalType": "contract IERC20",
          "name": "",
          "type": "address"
        }
      ],
      "stateMutability": "view",
      "type": "function"
    },
    {
      "inputs": [],
      "name": "swapContract",
      "outputs": [
        {
          "internalType": "address",
          "name": "",
          "type": "address"
        }
      ],
      "stateMutability": "view",
      "type": "function"
    },
    {
      "inputs": [
        {
          "internalType": "address",
          "name": "user",
          "type": "address"
        },
        {
          "internalType": "uint256",
          "name": "stableAmountIn",
          "type": "uint256"
        },
        {
          "internalType": "uint256",
          "name": "usdcAmountOut",
          "type": "uint256"
        }
      ],
      "name": "swapStableToUsdc",
      "outputs": [],
      "stateMutability": "nonpayable",
      "type": "function"
    },
    {
      "inputs": [
        {
          "internalType": "address",
          "name": "user",
          "type": "address"
        },
        {
          "internalType": "uint256",
          "name": "usdcAmountIn",
          "type": "uint256"
        },
        {
          "internalType": "uint256",
          "name": "stableAmountOut",
          "type": "uint256"
        }
      ],
      "name": "swapUsdcToStable",
      "outputs": [],
      "stateMutability": "nonpayable",
      "type": "function"
    },
    {
      "inputs": [
        {
          "internalType": "uint256",
          "name": "newReserveStable",
          "type": "uint256"
        },
        {
          "internalType": "uint256",
          "name": "newReserveUsdc",
          "type": "uint256"
        }
      ],
      "name": "syncReserves",
      "outputs": [],
      "stateMutability": "nonpayable",
      "type": "function"
    },
    {
      "inputs": [
        {
          "internalType": "address",
          "name": "newOwner",
          "type": "address"
        }
      ],
      "name": "transferOwnership",
      "outputs": [],
      "stateMutability": "nonpayable",
      "type": "function"
    },
    {
      "inputs": [
        {
          "internalType": "uint256",
          "name": "usdcAmount",
          "type": "uint256"
        }
      ],
      "name": "transferUsdcToSwap",
      "outputs": [],
      "stateMutability": "nonpayable",
      "type": "function"
    },
    {
      "inputs": [],
      "name": "usdcDecimals",
      "outputs": [
        {
          "internalType": "uint8",
          "name": "",
          "type": "uint8"
        }
      ],
      "stateMutability": "view",
      "type": "function"
    },
    {
      "inputs": [],
      "name": "usdcToken",
      "outputs": [
        {
          "internalType": "contract IERC20",
          "name": "",
          "type": "address"
        }
      ],
      "stateMutability": "view",
      "type": "function"
    },
    {
      "inputs": [],
      "name": "withdrawFee",
      "outputs": [
        {
          "internalType": "uint256",
          "name": "stableAmount",
          "type": "uint256"
        },
        {
          "internalType": "uint256",
          "name": "usdcAmount",
          "type": "uint256"
        }
      ],
      "stateMutability": "nonpayable",
      "type": "function"
    }
  ],
  "bytecode": "0x6101208060405234610361576136b5803803809161001d8285610365565b83398101906080818303126103615761003581610388565b61004160208301610388565b60408301519092906001600160401b038111610361578461006391830161039c565b60608201519094906001600160401b03811161036157610083920161039c565b91331561034e575f8054336001600160a01b0319821681178355604051949290916001600160a01b0316907f8be0079c531659141344cd1fd0a4f28419497f9722a3daafe3b4186f6b6457e09080a3600180556001600160a01b0316918215158061033c575b156102fa575060a08290526001600160a01b031660c081905260405163313ce56760e01b81529091602090829060049082905afa91821561028f576004926020925f916102dd575b5060e05260405163313ce56760e01b815292839182905afa90811561028f575f916102ae575b506101005260405191610e9d91828401906001600160401b0382118583101761029a576101966101a4938695612818873960408452604084019061040a565b91602081840391015261040a565b03905ff0801561028f576080526040516123e9908161042f82396080518181816107f401528181610d180152818161116e0152818161147f015281816116c201528181611ce401526121d3015260a051818181610358015281816104b00152818161062701528181610c1e01528181610e46015281816112b2015261177f015260c05181818161029b015281816104480152818161068901528181610b5501528181610ea901528181611314015281816117e70152611a85015260e051818181611a4c01528181611d27015261221601526101005181818161111501528181611d4c015261223b0152f35b6040513d5f823e3d90fd5b634e487b7160e01b5f52604160045260245ffd5b6102d0915060203d6020116102d6575b6102c88183610365565b8101906103f1565b5f610157565b503d6102be565b6102f49150833d85116102d6576102c88183610365565b5f610131565b62461bcd60e51b815260206004820152601560248201527f496e76616c696420746f6b656e206164647265737300000000000000000000006044820152606490fd5b506001600160a01b03821615156100e9565b631e4fbdf760e01b5f525f60045260245ffd5b5f80fd5b601f909101601f19168101906001600160401b0382119082101761029a57604052565b51906001600160a01b038216820361036157565b81601f82011215610361578051906001600160401b03821161029a57604051926103d0601f8401601f191660200185610365565b8284526020838301011161036157815f9260208093018386015e8301015290565b90816020910312610361575160ff811681036103615790565b805180835260209291819084018484015e5f828201840152601f01601f191601019056fe60806040526004361015610011575f80fd5b5f5f3560e01c80630182750314611ad85780630902f1ac14611ab457806311eac85514611a705780632104d3fa14611a3357806344d01afb14611a15578063485cc955146118cb578063493bf4ce1461170e5780635eb94d2a146116f15780635fcbd285146116ad5780636b85615b14611265578063715018a61461120b5780637228dde5146111395780637bf42165146110fb5780638d341c0c146110dd5780638da5cb5b146110b65780638ea830311461108d5780639c8f9f2314610cdb5780639ea6946814610cb0578063a300f6d014610c92578063a9b3dcae14610c4d578063a9d75b2b14610c08578063aaf5eb6814610be5578063ab5bc0ea14610aeb578063adf0b21a146105db578063c415b95c146105b2578063cd416ea7146103db578063da18b695146103bd578063e941fa78146101e15763f2fde38b14610159575f80fd5b346101de5760203660031901126101de57610172611b49565b61017a61236d565b6001600160a01b031680156101ca5781546001600160a01b03198116821783556001600160a01b03167f8be0079c531659141344cd1fd0a4f28419497f9722a3daafe3b4186f6b6457e08380a380f35b631e4fbdf760e01b82526004829052602482fd5b80fd5b50346101de57806003193601126101de5761020760018060a01b03600254163314611b89565b6006546007548161031f575b80610262575b6040925060018060a01b03600354167fb69e29a46d63092cadaa0577b63f2df489a350647b283ea59c6e84d70668f87a848051858152846020820152a282519182526020820152f35b600783905560035460405163a9059cbb60e01b81526001600160a01b0390911660048201526024810182905260208180604481010381877f00000000000000000000000000000000000000000000000000000000000000006001600160a01b03165af190811561031457906102e091604095916102e5575b50611f8f565b610219565b610307915060203d60201161030d575b6102ff8183611c15565b810190611f32565b5f6102da565b503d6102f5565b6040513d86823e3d90fd5b600683905560035460405163a9059cbb60e01b81526001600160a01b0390911660048201526024810183905260208180604481010381877f00000000000000000000000000000000000000000000000000000000000000006001600160a01b03165af180156103145761039991859161039e575b50611f4a565b610213565b6103b7915060203d60201161030d576102ff8183611c15565b5f610393565b50346101de57806003193601126101de576020600754604051908152f35b50346101de576103ea36611b5f565b919061040160018060a01b03600254163314611b89565b801515806105a9575b61041390611e9a565b8260045410610564576040516323b872dd60e01b81526001600160a01b038381166004830152306024830152604482018390527f000000000000000000000000000000000000000000000000000000000000000016929060208160648189885af180156105595761048a9187916102e55750611f8f565b60405163a9059cbb60e01b81526001600160a01b038281166004830152602482018690527f0000000000000000000000000000000000000000000000000000000000000000169490916020836044818a8a5af191821561054e576105186040937fce746d2f1cec50eeda4dd25640e14842858d89794d8a9e4dff61769f5a0e63ad958a9161039e5750611f4a565b61052481600454611fd2565b60045561053385600554611cb5565b600555825194855260208501526001600160a01b031692a480f35b6040513d89823e3d90fd5b6040513d88823e3d90fd5b60405162461bcd60e51b815260206004820152601b60248201527f496e73756666696369656e7420537461626c65207265736572766500000000006044820152606490fd5b5082151561040a565b50346101de57806003193601126101de576003546040516001600160a01b039091168152602090f35b50346101de5760203660031901126101de57600435906105f9612393565b610604821515611bc9565b61060d82611cc2565b6040516370a0823160e01b815233600482015290929083907f00000000000000000000000000000000000000000000000000000000000000006001600160a01b031690602081602481855afa80156103145787908590610ab5575b6106749250101561202b565b6040516370a0823160e01b81523360048201527f00000000000000000000000000000000000000000000000000000000000000006001600160a01b03169190602081602481865afa8015610a3e5786908690610a7f575b6106d792501015612076565b604051636eb1769f60e11b8152336004820152306024820152602081604481855afa8015610a3e5788908690610a49575b610714925010156120c2565b604051636eb1769f60e11b8152336004820152306024820152602081604481865afa8015610a3e5786908690610a08575b61075192501015612119565b6040516323b872dd60e01b815233600482015230602482015260448101889052906020908290606490829088905af18015610314576109eb575b506040516323b872dd60e01b815233600482015230602482015260448101859052906020908290606490829087905af1801561098d576109ce575b506107d385600454611cb5565b6004556107e283600554611cb5565b6005556040516318160ddd60e01b81527f00000000000000000000000000000000000000000000000000000000000000006001600160a01b03169190602081600481865afa908115610314578491610998575b5015610910575b50803b1561090c576040516340c10f1960e01b8152336004820152602481018590529082908290818381604481015b03925af18015610901576108ec575b50506108e8906040517f64b83944e79c3ce8d4c297411de637c3e102d064677aac0c163976ebdcd6f50e3391806108c487868a846040919493926060820195825260208201520152565b0390a260018055604051938493846040919493926060820195825260208201520152565b0390f35b6108f7828092611c15565b6101de578061087a565b6040513d84823e3d90fd5b5080fd5b908094503b1561090c576040516340c10f1960e01b815261dead60048201526103e86024820152828160448183895af1801561098d57908391610978575b50506103e719810190811161096457925f61083c565b634e487b7160e01b82526011600452602482fd5b8161098291611c15565b61090c57815f61094e565b6040513d85823e3d90fd5b90506020813d6020116109c6575b816109b360209383611c15565b810103126109c257515f610835565b5f80fd5b3d91506109a6565b6109e69060203d60201161030d576102ff8183611c15565b6107c6565b610a039060203d60201161030d576102ff8183611c15565b61078b565b50506020813d602011610a36575b81610a2360209383611c15565b810103126109c257856107519151610745565b3d9150610a16565b6040513d87823e3d90fd5b50506020813d602011610a77575b81610a6460209383611c15565b810103126109c257876107149151610708565b3d9150610a57565b50506020813d602011610aad575b81610a9a60209383611c15565b810103126109c257856106d791516106cb565b3d9150610a8d565b50506020813d602011610ae3575b81610ad060209383611c15565b810103126109c257866106749151610668565b3d9150610ac3565b50346101de5760203660031901126101de57600435610b1560018060a01b03600254163314611b89565b8015610ba057610b29816005541015611ee6565b60405163a9059cbb60e01b81523360048201526024810182905290602082604481866001600160a01b037f0000000000000000000000000000000000000000000000000000000000000000165af191821561098d57610b9a92610b929185916102e55750611f8f565b600554611fd2565b60055580f35b60405162461bcd60e51b815260206004820152601760248201527f416d6f756e74206d75737420626520706f7369746976650000000000000000006044820152606490fd5b50346101de57806003193601126101de576020604051670de0b6b3a76400008152f35b50346101de57806003193601126101de576040517f00000000000000000000000000000000000000000000000000000000000000006001600160a01b03168152602090f35b50346101de57610c8c610c81610c6236611b33565b9190610c7960018060a01b03600254163314611b89565b600654611cb5565b600655600754611cb5565b60075580f35b50346101de57806003193601126101de576020600654604051908152f35b50346101de5760203660031901126101de576040610ccf6004356121b1565b82519182526020820152f35b50346101de5760203660031901126101de57600435610cf8612393565b610d03811515612165565b6040516370a0823160e01b81523360048201527f00000000000000000000000000000000000000000000000000000000000000006001600160a01b031690602081602481855afa80156103145783918591611058575b5010611013576040516318160ddd60e01b815291602083600481855afa928315610314578493610fdf575b508215610fa157610db0610da384610d9e60045485611c84565b611c97565b93610d9e60055484611c84565b9183151580610f98575b15610f53578085913b1561090c57604051632770a7eb60e21b8152336004820152602481018490529082908290604490829084905af1801561090157610f3a575b5050610e0983600454611fd2565b600455610e1882600554611fd2565b60055560405163a9059cbb60e01b815233600482015260248101849052602081604481886001600160a01b037f0000000000000000000000000000000000000000000000000000000000000000165af18015610a3e57610e7e91869161039e5750611f4a565b60405163a9059cbb60e01b815233600482015260248101839052602081604481886001600160a01b037f0000000000000000000000000000000000000000000000000000000000000000165af1908115610a3e5790610ee591604096916102e55750611f8f565b7f1dc8bb69df2b8e91fbdcbfcf93d951b3f0000f085a95fe3f7946d6161439245d845180610f2733948688846040919493926060820195825260208201520152565b0390a26001805582519182526020820152f35b81610f4491611c15565b610f4f57835f610dfb565b8380fd5b60405162461bcd60e51b815260206004820152601860248201527f416d6f756e7473206d75737420626520706f73697469766500000000000000006044820152606490fd5b50821515610dba565b60405162461bcd60e51b81526020600482015260166024820152754e6f206c697175696469747920617661696c61626c6560501b6044820152606490fd5b9092506020813d60201161100b575b81610ffb60209383611c15565b810103126109c25751915f610d84565b3d9150610fee565b60405162461bcd60e51b815260206004820152601760248201527f496e73756666696369656e74204c502062616c616e63650000000000000000006044820152606490fd5b9150506020813d602011611085575b8161107460209383611c15565b810103126109c2578290515f610d59565b3d9150611067565b50346101de57806003193601126101de576002546040516001600160a01b039091168152602090f35b50346101de57806003193601126101de57546040516001600160a01b039091168152602090f35b50346101de57806003193601126101de576020600454604051908152f35b50346101de57806003193601126101de57602060405160ff7f0000000000000000000000000000000000000000000000000000000000000000168152f35b50346101de5760203660031901126101de57600435611159811515612165565b6040516318160ddd60e01b81526020816004817f00000000000000000000000000000000000000000000000000000000000000006001600160a01b03165afa9283156111ff57926111c9575b50610ccf82610d9e6111bf604095610d9e60045487611c84565b9360055490611c84565b91506020823d6020116111f7575b816111e460209383611c15565b810103126109c257905190610ccf6111a5565b3d91506111d7565b604051903d90823e3d90fd5b50346101de57806003193601126101de5761122461236d565b80546001600160a01b03198116825581906001600160a01b03167f8be0079c531659141344cd1fd0a4f28419497f9722a3daafe3b4186f6b6457e08280a380f35b50346109c25760203660031901126109c257600435611282612393565b61128d811515611fdf565b611296816121b1565b6040516370a0823160e01b8152336004820152919390929183907f00000000000000000000000000000000000000000000000000000000000000006001600160a01b031690602081602481855afa801561155e5787905f90611677575b6112ff9250101561202b565b6040516370a0823160e01b81523360048201527f00000000000000000000000000000000000000000000000000000000000000006001600160a01b03169190602081602481865afa801561155e5786905f90611641575b61136292501015612076565b604051636eb1769f60e11b8152336004820152306024820152602081604481855afa801561155e5788905f9061160b575b61139f925010156120c2565b604051636eb1769f60e11b8152336004820152306024820152602081604481865afa801561155e5786905f906115d5575b6113dc92501015612119565b6040516323b872dd60e01b81523360048201523060248201526044810188905290602090829060649082905f905af1801561155e576115b8575b506040516323b872dd60e01b81523360048201523060248201526044810185905290602090829060649082905f905af1801561155e5761159b575b5061145e85600454611cb5565b60045561146d83600554611cb5565b6005556040516318160ddd60e01b81527f00000000000000000000000000000000000000000000000000000000000000006001600160a01b03169190602081600481865afa90811561155e575f91611569575b50156114f95750803b1561090c576040516340c10f1960e01b81523360048201526024810185905290829082908183816044810161086b565b908094503b156109c2576040516340c10f1960e01b815261dead60048201526103e860248201525f8160448183895af1801561155e57611549575b506103e719810190811161096457925f61083c565b6115569192505f90611c15565b5f905f611534565b6040513d5f823e3d90fd5b90506020813d602011611593575b8161158460209383611c15565b810103126109c257515f6114c0565b3d9150611577565b6115b39060203d60201161030d576102ff8183611c15565b611451565b6115d09060203d60201161030d576102ff8183611c15565b611416565b50506020813d602011611603575b816115f060209383611c15565b810103126109c257856113dc91516113d0565b3d91506115e3565b50506020813d602011611639575b8161162660209383611c15565b810103126109c2578761139f9151611393565b3d9150611619565b50506020813d60201161166f575b8161165c60209383611c15565b810103126109c257856113629151611356565b3d915061164f565b50506020813d6020116116a5575b8161169260209383611c15565b810103126109c257866112ff91516112f3565b3d9150611685565b346109c2575f3660031901126109c2576040517f00000000000000000000000000000000000000000000000000000000000000006001600160a01b03168152602090f35b346109c2575f3660031901126109c2576020600554604051908152f35b346109c25761171c36611b5f565b919061173360018060a01b03600254163314611b89565b801515806118c2575b61174590611e9a565b611753836005541015611ee6565b6040516323b872dd60e01b81526001600160a01b038381166004830152306024830152604482018390527f00000000000000000000000000000000000000000000000000000000000000001692906020816064815f885af1801561155e576117c1915f916118a35750611f4a565b60405163a9059cbb60e01b81526001600160a01b038281166004830152602482018690527f0000000000000000000000000000000000000000000000000000000000000000169490916020836044815f8a5af191821561155e5761184f6040937fce746d2f1cec50eeda4dd25640e14842858d89794d8a9e4dff61769f5a0e63ad955f916118845750611f8f565b61185b85600454611cb5565b60045561186a81600554611fd2565b600555825194855260208501526001600160a01b031692a4005b61189d915060203d60201161030d576102ff8183611c15565b896102da565b6118bc915060203d60201161030d576102ff8183611c15565b86610393565b5082151561173c565b346109c25760403660031901126109c2576118e4611b49565b6024356001600160a01b03811691908290036109c25761190261236d565b6001600160a01b031680156119d857811561199357806bffffffffffffffffffffffff60a01b6002541617600255816bffffffffffffffffffffffff60a01b60035416176003557f28b391a24b72c7667d9943c57713e3ad6ce8ccc1ba3369030f6b72b3dfb4d0ed5f80a27f12e1d17016b94668449f97876f4a8d5cc2c19f314db337418894734037cc19d45f80a2005b60405162461bcd60e51b815260206004820152601d60248201527f496e76616c69642066656520636f6c6c6563746f7220616464726573730000006044820152606490fd5b60405162461bcd60e51b8152602060048201526015602482015274125b9d985b1a59081cddd85c0818dbdb9d1c9858dd605a1b6044820152606490fd5b346109c25760203660031901126109c2576040610ccf600435611cc2565b346109c2575f3660031901126109c257602060405160ff7f0000000000000000000000000000000000000000000000000000000000000000168152f35b346109c2575f3660031901126109c2576040517f00000000000000000000000000000000000000000000000000000000000000006001600160a01b03168152602090f35b346109c2575f3660031901126109c257604060045460055482519182526020820152f35b346109c2577fc90720fdca21f23b0552fccf13f0086bba935ef40b267a22b5c4ab30ecc66f1a6040611b0936611b33565b611b1e60018060a01b03600254163314611b89565b816004558060055582519182526020820152a1005b60409060031901126109c2576004359060243590565b600435906001600160a01b03821682036109c257565b60609060031901126109c2576004356001600160a01b03811681036109c257906024359060443590565b15611b9057565b60405162461bcd60e51b8152602060048201526011602482015270139bdd081cddd85c0818dbdb9d1c9858dd607a1b6044820152606490fd5b15611bd057565b60405162461bcd60e51b815260206004820152601e60248201527f537461626c6520616d6f756e74206d75737420626520706f73697469766500006044820152606490fd5b90601f8019910116810190811067ffffffffffffffff821117611c3757604052565b634e487b7160e01b5f52604160045260245ffd5b9060ff8091169116039060ff8211611c5f57565b634e487b7160e01b5f52601160045260245ffd5b60ff16604d8111611c5f57600a0a90565b81810292918115918404141715611c5f57565b8115611ca1570490565b634e487b7160e01b5f52601260045260245ffd5b91908201809211611c5f57565b908115611ccf8115611bc9565b6040516318160ddd60e01b81526020816004817f00000000000000000000000000000000000000000000000000000000000000006001600160a01b03165afa90811561155e575f91611e68575b5060045491600554927f000000000000000000000000000000000000000000000000000000000000000092611d847f000000000000000000000000000000000000000000000000000000000000000095611d7e611d798888611c4b565b611c73565b90611c84565b6103e88211801590611e47575b8015611e26575b15611dc45750505050611db4611d79611dc193611dba93611c4b565b84611c97565b9280611cb5565b90565b611d798896611de185610d9e611de795611ded989a97999d611c84565b93611c4b565b90611c97565b94670de0b6b3a76400008402938404670de0b6b3a7640000141715611c5f57611d7e611e2292670de0b6b3a764000094611c97565b0490565b50611e3085611c73565b806103e802906103e8820403611c5f578110611d98565b50611e5185611c73565b806103e802906103e8820403611c5f578310611d91565b90506020813d602011611e92575b81611e8360209383611c15565b810103126109c257515f611d1c565b3d9150611e76565b15611ea157565b60405162461bcd60e51b815260206004820152601d60248201527f426f746820616d6f756e7473206d75737420626520706f7369746976650000006044820152606490fd5b15611eed57565b60405162461bcd60e51b815260206004820152601960248201527f496e73756666696369656e7420555344432072657365727665000000000000006044820152606490fd5b908160209103126109c2575180151581036109c25790565b15611f5157565b60405162461bcd60e51b815260206004820152601660248201527514dd18589b19481d1c985b9cd9995c8819985a5b195960521b6044820152606490fd5b15611f9657565b60405162461bcd60e51b81526020600482015260146024820152731554d110c81d1c985b9cd9995c8819985a5b195960621b6044820152606490fd5b91908203918211611c5f57565b15611fe657565b60405162461bcd60e51b815260206004820152601c60248201527f5553444320616d6f756e74206d75737420626520706f736974697665000000006044820152606490fd5b1561203257565b606460405162461bcd60e51b815260206004820152602060248201527f496e73756666696369656e7420537461626c65546f6b656e2062616c616e63656044820152fd5b1561207d57565b60405162461bcd60e51b815260206004820152601960248201527f496e73756666696369656e7420555344432062616c616e6365000000000000006044820152606490fd5b156120c957565b60405162461bcd60e51b815260206004820152602260248201527f496e73756666696369656e7420537461626c65546f6b656e20616c6c6f77616e604482015261636560f01b6064820152608490fd5b1561212057565b60405162461bcd60e51b815260206004820152601b60248201527f496e73756666696369656e74205553444320616c6c6f77616e636500000000006044820152606490fd5b1561216c57565b60405162461bcd60e51b815260206004820152601a60248201527f4c5020746f6b656e73206d75737420626520706f7369746976650000000000006044820152606490fd5b906121bd821515611fdf565b6040516318160ddd60e01b8152916020836004817f00000000000000000000000000000000000000000000000000000000000000006001600160a01b03165afa92831561155e575f93612339575b5060045492600554937f0000000000000000000000000000000000000000000000000000000000000000916122687f000000000000000000000000000000000000000000000000000000000000000096611d7e611d798987611c4b565b6103e88211801590612318575b80156122f7575b156122a057505050611d796122959394611d7e92611c4b565b90611dc18280611cb5565b916122ba610d9e9295611d7e611d79849a6122bf98611c4b565b611c84565b92670de0b6b3a7640000840291848304670de0b6b3a76400001485151715611c5f57611d7e611e2292670de0b6b3a764000094611c97565b5061230184611c73565b806103e802906103e8820403611c5f57811061227c565b5061232284611c73565b806103e802906103e8820403611c5f578310612275565b9092506020813d602011612365575b8161235560209383611c15565b810103126109c25751915f61220b565b3d9150612348565b5f546001600160a01b0316330361238057565b63118cdaa760e01b5f523360045260245ffd5b6002600154146123a4576002600155565b633ee5aeb560e01b5f5260045ffdfea2646970667358221220ed8055e8ff9aa906012348aa38641a53e3e5762a6f8031b10a7a36f4ff4d307264736f6c634300081c003360a06040523461033957610e9d803803806100198161033d565b9283398101906040818303126103395780516001600160401b0381116103395782610045918301610362565b60208201519092906001600160401b038111610339576100659201610362565b81516001600160401b03811161024c57600354600181811c9116801561032f575b602082101461022e57601f81116102cc575b50602092601f821160011461026b57928192935f92610260575b50508160011b915f199060031b1c1916176003555b80516001600160401b03811161024c57600454600181811c91168015610242575b602082101461022e57601f81116101cb575b50602091601f821160011461016b579181925f92610160575b50508160011b915f199060031b1c1916176004555b33608052604051610ae990816103b48239608051818181610127015281816101b80152818161023d0152818161049d01526105a20152f35b015190505f80610113565b601f1982169260045f52805f20915f5b8581106101b35750836001951061019b575b505050811b01600455610128565b01515f1960f88460031b161c191690555f808061018d565b9192602060018192868501518155019401920161017b565b60045f527f8a35acfbc15ff81a39ae7d344fd709f28e8600b4aa8c65c6b64bfe7fe36bd19b601f830160051c81019160208410610224575b601f0160051c01905b81811061021957506100fa565b5f815560010161020c565b9091508190610203565b634e487b7160e01b5f52602260045260245ffd5b90607f16906100e8565b634e487b7160e01b5f52604160045260245ffd5b015190505f806100b2565b601f1982169360035f52805f20915f5b8681106102b4575083600195961061029c575b505050811b016003556100c7565b01515f1960f88460031b161c191690555f808061028e565b9192602060018192868501518155019401920161027b565b60035f527fc2575a0e9e593c00f959f8c92f12db2869c3395a3b0502d05e2516446f71f85b601f830160051c81019160208410610325575b601f0160051c01905b81811061031a5750610098565b5f815560010161030d565b9091508190610304565b90607f1690610086565b5f80fd5b6040519190601f01601f191682016001600160401b0381118382101761024c57604052565b81601f82011215610339578051906001600160401b03821161024c57610391601f8301601f191660200161033d565b928284526020838301011161033957815f9260208093018386015e830101529056fe60806040526004361015610011575f80fd5b5f3560e01c806306fdde031461074f578063095ea7b3146106cd57806318160ddd146106b057806323b872dd146105d15780632a9439451461058d578063313ce5671461057257806340c10f191461047a57806370a082311461044357806395d89b41146104105780639dc29fac1461021a578063a9059cbb146101e9578063abb1dc441461015b578063c05ee4fe146101075763dd62ed3e146100b3575f80fd5b34610103576040366003190112610103576100cc61078e565b6100d46107a4565b6001600160a01b039182165f908152600160209081526040808320949093168252928352819020549051908152f35b5f80fd5b3461010357602036600319011261010357602061012261078e565b6040517f00000000000000000000000000000000000000000000000000000000000000006001600160a01b039081169216919091148152f35b34610103575f366003190112610103576101996101766107ba565b61017e6108b8565b6101a76002549160405194859460a0865260a086019061076a565b90848203602086015261076a565b6012604084015260608301919091527f00000000000000000000000000000000000000000000000000000000000000006001600160a01b031660808301520390f35b346101035760403660031901126101035761020f61020561078e565b6024359033610a22565b602060405160018152f35b346101035760403660031901126101035761023361078e565b6024359061026b337f00000000000000000000000000000000000000000000000000000000000000006001600160a01b031614610971565b6001600160a01b03169081156103cb576102868115156109d7565b815f525f6020528060405f20541061038657816103235760025481810180911161030f577f696de425f79f4a40bc6d2122ca50507f0efbeabbff86a84871b7196ab8ea8df7916020916002555b80600254036002555f847fddf252ad1be2c89b69c2b068fc378daa952ba7f163c4a11628f55a4df523b3ef84604051858152a3604051908152a2005b634e487b7160e01b5f52601160045260245ffd5b815f525f60205260405f205481811061036d57817f696de425f79f4a40bc6d2122ca50507f0efbeabbff86a84871b7196ab8ea8df792602092855f525f84520360405f20556102d3565b8263391434e360e21b5f5260045260245260445260645ffd5b60405162461bcd60e51b815260206004820152601d60248201527f4c50546f6b656e3a20696e73756666696369656e742062616c616e63650000006044820152606490fd5b60405162461bcd60e51b815260206004820152601f60248201527f4c50546f6b656e3a206275726e2066726f6d207a65726f2061646472657373006044820152606490fd5b34610103575f3660031901126101035761043f61042b6108b8565b60405191829160208352602083019061076a565b0390f35b34610103576020366003190112610103576001600160a01b0361046461078e565b165f525f602052602060405f2054604051908152f35b346101035760403660031901126101035761049361078e565b602435906104cb337f00000000000000000000000000000000000000000000000000000000000000006001600160a01b031614610971565b6104d68215156109d7565b6001600160a01b031690811561055f5760025481810180911161030f577f30385c845b448a36257a6a1716e6ad2e1bc2cbe333cde1e69fe849ad6511adfe91602091600255835f525f825260405f20818154019055835f7fddf252ad1be2c89b69c2b068fc378daa952ba7f163c4a11628f55a4df523b3ef84604051858152a3604051908152a2005b63ec442f0560e01b5f525f60045260245ffd5b34610103575f36600319011261010357602060405160128152f35b34610103575f366003190112610103576040517f00000000000000000000000000000000000000000000000000000000000000006001600160a01b03168152602090f35b34610103576060366003190112610103576105ea61078e565b6105f26107a4565b6001600160a01b0382165f818152600160209081526040808320338452909152902054909260443592915f198110610630575b5061020f9350610a22565b83811061069557841561068257331561066f5761020f945f52600160205260405f2060018060a01b0333165f526020528360405f209103905584610625565b634a1406b160e11b5f525f60045260245ffd5b63e602df0560e01b5f525f60045260245ffd5b8390637dc7a0d960e11b5f523360045260245260445260645ffd5b34610103575f366003190112610103576020600254604051908152f35b34610103576040366003190112610103576106e661078e565b602435903315610682576001600160a01b031690811561066f57335f52600160205260405f20825f526020528060405f20556040519081527f8c5be1e5ebec7d5bd14f71427d1e84f3dd0314c0f7b2291e5b200ac8c7c3b92560203392a3602060405160018152f35b34610103575f3660031901126101035761043f61042b6107ba565b805180835260209291819084018484015e5f828201840152601f01601f1916010190565b600435906001600160a01b038216820361010357565b602435906001600160a01b038216820361010357565b604051905f6003548060011c906001811680156108ae575b60208310811461089a5782865290811561087e5750600114610828575b50829003601f01601f1916820167ffffffffffffffff81118382101761081457604052565b634e487b7160e01b5f52604160045260245ffd5b60035f9081529091507fc2575a0e9e593c00f959f8c92f12db2869c3395a3b0502d05e2516446f71f85b5b8282106108685750602091508301015f6107ef565b6001816020925483858901015201910190610853565b90506020925060ff191682850152151560051b8301015f6107ef565b634e487b7160e01b5f52602260045260245ffd5b91607f16916107d2565b604051905f6004548060011c90600181168015610967575b60208310811461089a5782865290811561087e57506001146109115750829003601f01601f1916820167ffffffffffffffff81118382101761081457604052565b60045f9081529091507f8a35acfbc15ff81a39ae7d344fd709f28e8600b4aa8c65c6b64bfe7fe36bd19b5b8282106109515750602091508301015f6107ef565b600181602092548385890101520191019061093c565b91607f16916108d0565b1561097857565b60405162461bcd60e51b815260206004820152603160248201527f4c50546f6b656e3a204f6e6c7920414d4d20636f6e74726163742063616e206360448201527030b636103a3434b990333ab731ba34b7b760791b6064820152608490fd5b156109de57565b606460405162461bcd60e51b815260206004820152602060248201527f4c50546f6b656e3a20616d6f756e74206d75737420626520706f7369746976656044820152fd5b6001600160a01b0316908115610aa0576001600160a01b031691821561055f57815f525f60205260405f205481811061036d57817fddf252ad1be2c89b69c2b068fc378daa952ba7f163c4a11628f55a4df523b3ef92602092855f525f84520360405f2055845f525f825260405f20818154019055604051908152a3565b634b637e8f60e11b5f525f60045260245ffdfea2646970667358221220d83bd57ab1db327de4b130b59e549e069ad5b1e2b6fa8414407431e2b5eb802a64736f6c634300081c0033",
  "linkReferences": {},
  "deployedLinkReferences": {},
  "immutableReferences": {
    "1017": [
      {
        "length": 32,
        "start": 2036
      },
      {
        "length": 32,
        "start": 3352
      },
      {
        "length": 32,
        "start": 4462
      },
      {
        "length": 32,
        "start": 5247
      },
      {
        "length": 32,
        "start": 5826
      },
      {
        "length": 32,
        "start": 7396
      },
      {
        "length": 32,
        "start": 8659
      }
    ],
    "1020": [
      {
        "length": 32,
        "start": 856
      },
      {
        "length": 32,
        "start": 1200
      },
      {
        "length": 32,
        "start": 1575
      },
      {
        "length": 32,
        "start": 3102
      },
      {
        "length": 32,
        "start": 3654
      },
      {
        "length": 32,
        "start": 4786
      },
      {
        "length": 32,
        "start": 6015
      }
    ],
    "1023": [
      {
        "length": 32,
        "start": 667
      },
      {
        "length": 32,
        "start": 1096
      },
      {
        "length": 32,
        "start": 1673
      },
      {
        "length": 32,
        "start": 2901
      },
      {
        "length": 32,
        "start": 3753
      },
      {
        "length": 32,
        "start": 4884
      },
      {
        "length": 32,
        "start": 6119
      },
      {
        "length": 32,
        "start": 6789
      }
    ],
    "1025": [
      {
        "length": 32,
        "start": 6732
      },
      {
        "length": 32,
        "start": 7463
      },
      {
        "length": 32,
        "start": 8726
      }
    ],
    "1027": [
      {
        "length": 32,
        "start": 4373
      },
      {
        "length": 32,
        "start": 7500
      },
      {
        "length": 32,
        "start": 8763
      }
    ]
  },
  "inputSourceName": "project/contracts/AMMLiquidity.sol",
  "buildInfoId": "solc-0_8_28-291f557c9b67678de36e6c50a2106921361de72e"
}