{
  "_format": "hh3-artifact-1",
  "contractName": "AMMSwap",
  "sourceName": "contracts/AMMSwap.sol",
  "abi": [
    {
      "inputs": [
        {
          "internalType": "address",
          "name": "_underlyingToken",
          "type": "address"
        },
        {
          "internalType": "address",
          "name": "_usdc",
          "type": "address"
        },
        {
          "internalType": "address",
          "name": "_stableToken",
          "type": "address"
        },
        {
          "internalType": "address",
          "name": "_leverageToken",
          "type": "address"
        },
        {
          "internalType": "address",
          "name": "_dexRouter",
          "type": "address"
        },
        {
          "internalType": "address",
          "name": "_quoter",
          "type": "address"
        },
        {
          "internalType": "address",
          "name": "_usdcUnderlyingPool",
          "type": "address"
        },
        {
          "internalType": "uint24",
          "name": "_poolFee",
          "type": "uint24"
        }
      ],
      "stateMutability": "nonpayable",
      "type": "constructor"
    },
    {
      "inputs": [
        {
          "internalType": "address",
          "name": "owner",
          "type": "address"
        }
      ],
      "name": "OwnableInvalidOwner",
      "type": "error"
    },
    {
      "inputs": [
        {
          "internalType": "address",
          "name": "account",
          "type": "address"
        }
      ],
      "name": "OwnableUnauthorizedAccount",
      "type": "error"
    },
    {
      "inputs": [],
      "name": "ReentrancyGuardReentrantCall",
      "type": "error"
    },
    {
      "anonymous": false,
      "inputs": [
        {
          "indexed": false,
          "internalType": "uint256",
          "name": "newA",
          "type": "uint256"
        }
      ],
      "name": "AUpdated",
      "type": "event"
    },
    {
      "anonymous": false,
      "inputs": [
        {
          "indexed": false,
          "internalType": "uint256",
          "name": "stableAmount",
          "type": "uint256"
        },
        {
          "indexed": false,
          "internalType": "uint256",
          "name": "usdcAmount",
          "type": "uint256"
        }
      ],
      "name": "AutoFeeWithdraw",
      "type": "event"
    },
    {
      "anonymous": false,
      "inputs": [
        {
          "indexed": false,
          "internalType": "bool",
          "name": "isBuy",
          "type": "bool"
        },
        {
          "indexed": false,
          "internalType": "uint256",
          "name": "amountIn",
          "type": "uint256"
        },
        {
          "indexed": false,
          "internalType": "uint256",
          "name": "amountOut",
          "type": "uint256"
        },
        {
          "indexed": false,
          "internalType": "uint256",
          "name": "slippage",
          "type": "uint256"
        }
      ],
      "name": "DEXTradeExecuted",
      "type": "event"
    },
    {
      "anonymous": false,
      "inputs": [
        {
          "indexed": false,
          "internalType": "uint256",
          "name": "allowance",
          "type": "uint256"
        }
      ],
      "name": "DebugAllowance",
      "type": "event"
    },
    {
      "anonymous": false,
      "inputs": [
        {
          "indexed": false,
          "internalType": "uint256",
          "name": "balance",
          "type": "uint256"
        }
      ],
      "name": "DebugBalance",
      "type": "event"
    },
    {
      "anonymous": false,
      "inputs": [
        {
          "indexed": false,
          "internalType": "uint256",
          "name": "expectedUsdcIn",
          "type": "uint256"
        },
        {
          "indexed": false,
          "internalType": "uint256",
          "name": "maxUsdcIn",
          "type": "uint256"
        },
        {
          "indexed": false,
          "internalType": "uint256",
          "name": "contractBalance",
          "type": "uint256"
        },
        {
          "indexed": false,
          "internalType": "uint256",
          "name": "routerBalanceAfter",
          "type": "uint256"
        }
      ],
      "name": "DebugBuyUnderlying",
      "type": "event"
    },
    {
      "anonymous": false,
      "inputs": [
        {
          "indexed": false,
          "internalType": "uint256",
          "name": "lpFee",
          "type": "uint256"
        },
        {
          "indexed": false,
          "internalType": "uint256",
          "name": "adminFee",
          "type": "uint256"
        }
      ],
      "name": "FeeDistribution",
      "type": "event"
    },
    {
      "anonymous": false,
      "inputs": [
        {
          "indexed": false,
          "internalType": "uint256",
          "name": "newFee",
          "type": "uint256"
        },
        {
          "indexed": false,
          "internalType": "uint256",
          "name": "newAdminFee",
          "type": "uint256"
        }
      ],
      "name": "FeeUpdated",
      "type": "event"
    },
    {
      "anonymous": false,
      "inputs": [
        {
          "indexed": true,
          "internalType": "address",
          "name": "previousOwner",
          "type": "address"
        },
        {
          "indexed": true,
          "internalType": "address",
          "name": "newOwner",
          "type": "address"
        }
      ],
      "name": "OwnershipTransferred",
      "type": "event"
    },
    {
      "anonymous": false,
      "inputs": [
        {
          "indexed": false,
          "internalType": "uint256",
          "name": "initialA",
          "type": "uint256"
        },
        {
          "indexed": false,
          "internalType": "uint256",
          "name": "futureA",
          "type": "uint256"
        },
        {
          "indexed": false,
          "internalType": "uint256",
          "name": "initialTime",
          "type": "uint256"
        },
        {
          "indexed": false,
          "internalType": "uint256",
          "name": "futureTime",
          "type": "uint256"
        }
      ],
      "name": "RampA",
      "type": "event"
    },
    {
      "anonymous": false,
      "inputs": [
        {
          "indexed": true,
          "internalType": "address",
          "name": "user",
          "type": "address"
        },
        {
          "indexed": false,
          "internalType": "uint256",
          "name": "leverageTokenId",
          "type": "uint256"
        },
        {
          "indexed": false,
          "internalType": "uint256",
          "name": "lAmountPercentage",
          "type": "uint256"
        },
        {
          "indexed": false,
          "internalType": "uint256",
          "name": "usdcAmountOut",
          "type": "uint256"
        }
      ],
      "name": "SwapLeverageToUsdc",
      "type": "event"
    },
    {
      "anonymous": false,
      "inputs": [
        {
          "indexed": true,
          "internalType": "address",
          "name": "user",
          "type": "address"
        },
        {
          "indexed": false,
          "internalType": "uint256",
          "name": "stableAmountIn",
          "type": "uint256"
        },
        {
          "indexed": false,
          "internalType": "uint256",
          "name": "usdcAmountOut",
          "type": "uint256"
        }
      ],
      "name": "SwapStableToUsdc",
      "type": "event"
    },
    {
      "anonymous": false,
      "inputs": [
        {
          "indexed": true,
          "internalType": "address",
          "name": "user",
          "type": "address"
        },
        {
          "indexed": false,
          "internalType": "uint256",
          "name": "usdcAmountIn",
          "type": "uint256"
        },
        {
          "indexed": false,
          "internalType": "uint256",
          "name": "leverageTokenId",
          "type": "uint256"
        },
        {
          "indexed": false,
          "internalType": "uint256",
          "name": "lAmountOut",
          "type": "uint256"
        }
      ],
      "name": "SwapUsdcToLeverage",
      "type": "event"
    },
    {
      "anonymous": false,
      "inputs": [
        {
          "indexed": true,
          "internalType": "address",
          "name": "user",
          "type": "address"
        },
        {
          "indexed": false,
          "internalType": "uint256",
          "name": "usdcAmountIn",
          "type": "uint256"
        },
        {
          "indexed": false,
          "internalType": "uint256",
          "name": "stableAmountOut",
          "type": "uint256"
        }
      ],
      "name": "SwapUsdcToStable",
      "type": "event"
    },
    {
      "inputs": [],
      "name": "A",
      "outputs": [
        {
          "internalType": "uint256",
          "name": "",
          "type": "uint256"
        }
      ],
      "stateMutability": "view",
      "type": "function"
    },
    {
      "inputs": [],
      "name": "AUTO_WITHDRAW_THRESHOLD",
      "outputs": [
        {
          "internalType": "uint256",
          "name": "",
          "type": "uint256"
        }
      ],
      "stateMutability": "view",
      "type": "function"
    },
    {
      "inputs": [],
      "name": "A_PRECISION",
      "outputs": [
        {
          "internalType": "uint256",
          "name": "",
          "type": "uint256"
        }
      ],
      "stateMutability": "view",
      "type": "function"
    },
    {
      "inputs": [],
      "name": "BASISPOINT",
      "outputs": [
        {
          "internalType": "uint256",
          "name": "",
          "type": "uint256"
        }
      ],
      "stateMutability": "view",
      "type": "function"
    },
    {
      "inputs": [],
      "name": "MAX_A",
      "outputs": [
        {
          "internalType": "uint256",
          "name": "",
          "type": "uint256"
        }
      ],
      "stateMutability": "view",
      "type": "function"
    },
    {
      "inputs": [],
      "name": "MAX_FEE",
      "outputs": [
        {
          "internalType": "uint256",
          "name": "",
          "type": "uint256"
        }
      ],
      "stateMutability": "view",
      "type": "function"
    },
    {
      "inputs": [],
      "name": "MAX_SLIPPAGE",
      "outputs": [
        {
          "internalType": "uint256",
          "name": "",
          "type": "uint256"
        }
      ],
      "stateMutability": "view",
      "type": "function"
    },
    {
      "inputs": [],
      "name": "MAX_SQRT_RATIO",
      "outputs": [
        {
          "internalType": "uint160",
          "name": "",
          "type": "uint160"
        }
      ],
      "stateMutability": "view",
      "type": "function"
    },
    {
      "inputs": [],
      "name": "MIN_A",
      "outputs": [
        {
          "internalType": "uint256",
          "name": "",
          "type": "uint256"
        }
      ],
      "stateMutability": "view",
      "type": "function"
    },
    {
      "inputs": [],
      "name": "MIN_RAMP_TIME",
      "outputs": [
        {
          "internalType": "uint256",
          "name": "",
          "type": "uint256"
        }
      ],
      "stateMutability": "view",
      "type": "function"
    },
    {
      "inputs": [],
      "name": "MIN_SQRT_RATIO",
      "outputs": [
        {
          "internalType": "uint160",
          "name": "",
          "type": "uint160"
        }
      ],
      "stateMutability": "view",
      "type": "function"
    },
    {
      "inputs": [],
      "name": "PRECISION",
      "outputs": [
        {
          "internalType": "uint256",
          "name": "",
          "type": "uint256"
        }
      ],
      "stateMutability": "view",
      "type": "function"
    },
    {
      "inputs": [],
      "name": "adminFee",
      "outputs": [
        {
          "internalType": "uint256",
          "name": "",
          "type": "uint256"
        }
      ],
      "stateMutability": "view",
      "type": "function"
    },
    {
      "inputs": [],
      "name": "ammliquidity",
      "outputs": [
        {
          "internalType": "contract AMMLiquidity",
          "name": "",
          "type": "address"
        }
      ],
      "stateMutability": "view",
      "type": "function"
    },
    {
      "inputs": [],
      "name": "custodian",
      "outputs": [
        {
          "internalType": "contract CustodianFixed",
          "name": "",
          "type": "address"
        }
      ],
      "stateMutability": "view",
      "type": "function"
    },
    {
      "inputs": [],
      "name": "dexRouter",
      "outputs": [
        {
          "internalType": "address",
          "name": "",
          "type": "address"
        }
      ],
      "stateMutability": "view",
      "type": "function"
    },
    {
      "inputs": [],
      "name": "fee",
      "outputs": [
        {
          "internalType": "uint256",
          "name": "",
          "type": "uint256"
        }
      ],
      "stateMutability": "view",
      "type": "function"
    },
    {
      "inputs": [],
      "name": "futureA",
      "outputs": [
        {
          "internalType": "uint256",
          "name": "",
          "type": "uint256"
        }
      ],
      "stateMutability": "view",
      "type": "function"
    },
    {
      "inputs": [],
      "name": "futureATime",
      "outputs": [
        {
          "internalType": "uint256",
          "name": "",
          "type": "uint256"
        }
      ],
      "stateMutability": "view",
      "type": "function"
    },
    {
      "inputs": [],
      "name": "getA",
      "outputs": [
        {
          "internalType": "uint256",
          "name": "",
          "type": "uint256"
        }
      ],
      "stateMutability": "view",
      "type": "function"
    },
    {
      "inputs": [
        {
          "internalType": "uint256",
          "name": "stableBalance",
          "type": "uint256"
        },
        {
          "internalType": "uint256",
          "name": "usdcBalance",
          "type": "uint256"
        }
      ],
      "name": "getD",
      "outputs": [
        {
          "internalType": "uint256",
          "name": "",
          "type": "uint256"
        }
      ],
      "stateMutability": "view",
      "type": "function"
    },
    {
      "inputs": [],
      "name": "getPoolReserves",
      "outputs": [
        {
          "internalType": "uint256",
          "name": "underlyingReserve",
          "type": "uint256"
        },
        {
          "internalType": "uint256",
          "name": "usdcReserve",
          "type": "uint256"
        }
      ],
      "stateMutability": "view",
      "type": "function"
    },
    {
      "inputs": [
        {
          "internalType": "uint256",
          "name": "underlyingAmount",
          "type": "uint256"
        }
      ],
      "name": "getUsdcRequiredForUnderlying",
      "outputs": [
        {
          "internalType": "uint256",
          "name": "usdcRequired",
          "type": "uint256"
        },
        {
          "internalType": "uint256",
          "name": "priceImpact",
          "type": "uint256"
        }
      ],
      "stateMutability": "nonpayable",
      "type": "function"
    },
    {
      "inputs": [],
      "name": "initialA",
      "outputs": [
        {
          "internalType": "uint256",
          "name": "",
          "type": "uint256"
        }
      ],
      "stateMutability": "view",
      "type": "function"
    },
    {
      "inputs": [],
      "name": "initialATime",
      "outputs": [
        {
          "internalType": "uint256",
          "name": "",
          "type": "uint256"
        }
      ],
      "stateMutability": "view",
      "type": "function"
    },
    {
      "inputs": [
        {
          "internalType": "address",
          "name": "_custodian",
          "type": "address"
        },
        {
          "internalType": "address",
          "name": "_AMMLiquidity",
          "type": "address"
        }
      ],
      "name": "initialize",
      "outputs": [],
      "stateMutability": "nonpayable",
      "type": "function"
    },
    {
      "inputs": [],
      "name": "leverageSlippageTolerance",
      "outputs": [
        {
          "internalType": "uint256",
          "name": "",
          "type": "uint256"
        }
      ],
      "stateMutability": "view",
      "type": "function"
    },
    {
      "inputs": [],
      "name": "leverageToken",
      "outputs": [
        {
          "internalType": "contract MultiLeverageToken",
          "name": "",
          "type": "address"
        }
      ],
      "stateMutability": "view",
      "type": "function"
    },
    {
      "inputs": [],
      "name": "owner",
      "outputs": [
        {
          "internalType": "address",
          "name": "",
          "type": "address"
        }
      ],
      "stateMutability": "view",
      "type": "function"
    },
    {
      "inputs": [],
      "name": "poolFee",
      "outputs": [
        {
          "internalType": "uint24",
          "name": "",
          "type": "uint24"
        }
      ],
      "stateMutability": "view",
      "type": "function"
    },
    {
      "inputs": [
        {
          "internalType": "uint256",
          "name": "stableAmountIn",
          "type": "uint256"
        }
      ],
      "name": "previewSwapStableToUsdc",
      "outputs": [
        {
          "internalType": "uint256",
          "name": "usdcAmountOut",
          "type": "uint256"
        },
        {
          "internalType": "uint256",
          "name": "tradingFee",
          "type": "uint256"
        },
        {
          "internalType": "uint256",
          "name": "adminFeeUsdcAmount",
          "type": "uint256"
        },
        {
          "internalType": "uint256",
          "name": "lpFeeUsdcAmount",
          "type": "uint256"
        },
        {
          "internalType": "uint256",
          "name": "priceImpact",
          "type": "uint256"
        },
        {
          "internalType": "bool",
          "name": "isValid",
          "type": "bool"
        }
      ],
      "stateMutability": "view",
      "type": "function"
    },
    {
      "inputs": [
        {
          "internalType": "uint256",
          "name": "LAmountInWei",
          "type": "uint256"
        },
        {
          "internalType": "uint256",
          "name": "mintPrice",
          "type": "uint256"
        },
        {
          "internalType": "enum LeverageType",
          "name": "leverage",
          "type": "uint8"
        },
        {
          "internalType": "uint256",
          "name": "slippageTolerance",
          "type": "uint256"
        }
      ],
      "name": "previewSwapUsdcToLeverage",
      "outputs": [
        {
          "internalType": "uint256",
          "name": "maxUsdcRequired",
          "type": "uint256"
        },
        {
          "internalType": "uint256",
          "name": "underlyingAmount",
          "type": "uint256"
        },
        {
          "internalType": "uint256",
          "name": "dexQuote",
          "type": "uint256"
        }
      ],
      "stateMutability": "nonpayable",
      "type": "function"
    },
    {
      "inputs": [
        {
          "internalType": "uint256",
          "name": "usdcAmountIn",
          "type": "uint256"
        }
      ],
      "name": "previewSwapUsdcToStable",
      "outputs": [
        {
          "internalType": "uint256",
          "name": "stableAmountOut",
          "type": "uint256"
        },
        {
          "internalType": "uint256",
          "name": "tradingFee",
          "type": "uint256"
        },
        {
          "internalType": "uint256",
          "name": "adminFeeAmount",
          "type": "uint256"
        },
        {
          "internalType": "uint256",
          "name": "lpFeeAmount",
          "type": "uint256"
        },
        {
          "internalType": "uint256",
          "name": "priceImpact",
          "type": "uint256"
        },
        {
          "internalType": "bool",
          "name": "isValid",
          "type": "bool"
        }
      ],
      "stateMutability": "view",
      "type": "function"
    },
    {
      "inputs": [],
      "name": "quoter",
      "outputs": [
        {
          "internalType": "address",
          "name": "",
          "type": "address"
        }
      ],
      "stateMutability": "view",
      "type": "function"
    },
    {
      "inputs": [
        {
          "internalType": "uint256",
          "name": "futureAValue",
          "type": "uint256"
        },
        {
          "internalType": "uint256",
          "name": "futureTime",
          "type": "uint256"
        }
      ],
      "name": "rampA",
      "outputs": [],
      "stateMutability": "nonpayable",
      "type": "function"
    },
    {
      "inputs": [],
      "name": "renounceOwnership",
      "outputs": [],
      "stateMutability": "nonpayable",
      "type": "function"
    },
    {
      "inputs": [
        {
          "internalType": "uint256",
          "name": "newA",
          "type": "uint256"
        }
      ],
      "name": "setA",
      "outputs": [],
      "stateMutability": "nonpayable",
      "type": "function"
    },
    {
      "inputs": [
        {
          "internalType": "uint256",
          "name": "newFee",
          "type": "uint256"
        },
        {
          "internalType": "uint256",
          "name": "newAdminFee",
          "type": "uint256"
        }
      ],
      "name": "setFee",
      "outputs": [],
      "stateMutability": "nonpayable",
      "type": "function"
    },
    {
      "inputs": [],
      "name": "stableDecimals",
      "outputs": [
        {
          "internalType": "uint8",
          "name": "",
          "type": "uint8"
        }
      ],
      "stateMutability": "view",
      "type": "function"
    },
    {
      "inputs": [],
      "name": "stableToken",
      "outputs": [
        {
          "internalType": "contract StableToken",
          "name": "",
          "type": "address"
        }
      ],
      "stateMutability": "view",
      "type": "function"
    },
    {
      "inputs": [
        {
          "internalType": "uint256",
          "name": "leverageTokenId",
          "type": "uint256"
        },
        {
          "internalType": "uint256",
          "name": "lAmountPercentage",
          "type": "uint256"
        }
      ],
      "name": "swapLeverageToUsdc",
      "outputs": [
        {
          "internalType": "uint256",
          "name": "usdcAmountToUser",
          "type": "uint256"
        }
      ],
      "stateMutability": "nonpayable",
      "type": "function"
    },
    {
      "inputs": [
        {
          "internalType": "uint256",
          "name": "stableAmountIn",
          "type": "uint256"
        }
      ],
      "name": "swapStableToUsdc",
      "outputs": [
        {
          "internalType": "uint256",
          "name": "usdcAmountOut",
          "type": "uint256"
        }
      ],
      "stateMutability": "nonpayable",
      "type": "function"
    },
    {
      "inputs": [
        {
          "internalType": "uint256",
          "name": "usdcAmountIn",
          "type": "uint256"
        }
      ],
      "name": "swapUsdcToStable",
      "outputs": [
        {
          "internalType": "uint256",
          "name": "stableAmountOut",
          "type": "uint256"
        }
      ],
      "stateMutability": "nonpayable",
      "type": "function"
    },
    {
      "inputs": [
        {
          "internalType": "address",
          "name": "newOwner",
          "type": "address"
        }
      ],
      "name": "transferOwnership",
      "outputs": [],
      "stateMutability": "nonpayable",
      "type": "function"
    },
    {
      "inputs": [],
      "name": "underlyingToken",
      "outputs": [
        {
          "internalType": "contract IERC20",
          "name": "",
          "type": "address"
        }
      ],
      "stateMutability": "view",
      "type": "function"
    },
    {
      "inputs": [],
      "name": "usdcDecimals",
      "outputs": [
        {
          "internalType": "uint8",
          "name": "",
          "type": "uint8"
        }
      ],
      "stateMutability": "view",
      "type": "function"
    },
    {
      "inputs": [],
      "name": "usdcToken",
      "outputs": [
        {
          "internalType": "contract IERC20",
          "name": "",
          "type": "address"
        }
      ],
      "stateMutability": "view",
      "type": "function"
    },
    {
      "inputs": [],
      "name": "usdcUnderlyingPool",
      "outputs": [
        {
          "internalType": "address",
          "name": "",
          "type": "address"
        }
      ],
      "stateMutability": "view",
      "type": "function"
    },
    {
      "inputs": [],
      "name": "withdrawAdminFees",
      "outputs": [
        {
          "internalType": "uint256",
          "name": "stableAmount",
          "type": "uint256"
        },
        {
          "internalType": "uint256",
          "name": "usdcAmount",
          "type": "uint256"
        }
      ],
      "stateMutability": "nonpayable",
      "type": "function"
    }
  ],
  "bytecode": "0x61010080604052346104d85761010081614cd9803803809161002182856104dc565b8339810103126104d85761003481610513565b9061004160208201610513565b61004d60408301610513565b61005960608401610513565b9261006660808201610513565b61007260a08301610513565b60e061008060c08501610513565b9301519162ffffff83168084036104d85733156104c5575f8054336001600160a01b03198216811783556040519b9290916001600160a01b0316907f8be0079c531659141344cd1fd0a4f28419497f9722a3daafe3b4186f6b6457e09080a36001805560046009556101f4600a5561012c600e556001600160a01b03168015999097908a61048357506001600160a01b0316978815968761043e576001600160a01b0316968715159081610435575b50156103f0576001600160a01b03169889151590816103e7575b50156103a2576101f48114908115610396575b811561038a575b50156103525760c09590955260e0869052608084905260a0968752600b80546001600160a01b03199081166001600160a01b0397881617909155600c8054909116918616919091179055600d80546001600160b81b0319169290941691909117941b62ffffff60a01b1693909317905560405163313ce56760e01b815291602090839060049082905afa918215610326575f92610331575b50600460206008549360ff60a01b9060a01b16928360ff60a01b198616176008556040519283809263313ce56760e01b82525afa908115610326575f916102f7575b5060ff60a81b9060a81b169161ffff60a01b19161717600855614e20600655614e20600255614e2060035542600455426005556040516147989081610541823960805181818161046e01528181610c7a01526119a2015260a05181610ad4015260c051818181610a9001528181612c54015281816130b0015281816139bd01526144ee015260e0518181816105590152818161080101528181610bab01528181612c270152818161310901528181613187015261398f0152f35b610319915060203d60201161031f575b61031181836104dc565b810190610527565b5f61023d565b503d610307565b6040513d5f823e3d90fd5b61034b91925060203d60201161031f5761031181836104dc565b905f6101fb565b60405162461bcd60e51b815260206004820152601060248201526f496e76616c696420706f6f6c2066656560801b6044820152606490fd5b6127109150145f610163565b610bb88114915061015c565b60405162461bcd60e51b815260206004820152601760248201527f496e76616c6964206c6576657261676520746f6b656e730000000000000000006044820152606490fd5b9050155f610149565b60405162461bcd60e51b815260206004820152601760248201527f496e76616c696420746f6b656e206164647265737365730000000000000000006044820152606490fd5b9050155f61012f565b60405162461bcd60e51b815260206004820152601460248201527f496e76616c6964205553444320616464726573730000000000000000000000006044820152606490fd5b62461bcd60e51b815260206004820152601860248201527f496e76616c696420756e6465726c79696e6720746f6b656e00000000000000006044820152606490fd5b631e4fbdf760e01b5f525f60045260245ffd5b5f80fd5b601f909101601f19168101906001600160401b038211908210176104ff57604052565b634e487b7160e01b5f52604160045260245ffd5b51906001600160a01b03821682036104d857565b908160209103126104d8575160ff811681036104d8579056fe60806040526004361015610011575f80fd5b5f3560e01c80630419b45a1461031f57806306e9481c1461031a5780630733211a146103155780630758d92414610310578063089fe6aa1461030b57806311eac855146103065780631fd5731b146103015780632104d3fa146102fc5780632495a599146102f7578063355af607146102f2578063375b74c3146102ed57806338f56433146102e857806339698415146102e35780633ee6aa60146102e35780634354d01e146102de578063485cc955146102d95780634f6abbcb146102d457806352f7c988146102cf578063593d132c146102ca5780635a86bb2e146102c5578063612853d1146102c05780636704bb0e146102bb5780636d2cc304146102b65780636e9fe670146102b1578063715018a6146102ac5780637543548e146102a75780637bf42165146102a25780638d913e091461029d5780638da5cb5b14610298578063a0be06f914610293578063a3b8e0b41461028e578063a9d75b2b14610289578063aaf5eb6814610284578063b065c31c1461027f578063b20040811461027a578063b54b88c314610275578063bc063e1a14610270578063be61dbe61461026b578063c6bbd5a714610266578063d011f91814610261578063d46300fd1461025c578063ddca3f4314610257578063eb02241414610252578063ee8847ff1461024d578063ee919d5014610248578063eed0966314610243578063f2fde38b1461023e578063f446c1d0146102395763f975951814610234575f80fd5b611cf2565b611cd5565b611c4c565b611c2d565b611b7b565b611b5c565b611b44565b611b27565b611b0d565b611af2565b611aca565b611aad565b611a8e565b611a71565b611a21565b6119f3565b6119d1565b61198d565b611965565b611948565b611921565b6118f9565b6118d6565b6118b3565b61185c565b611841565b611813565b6117ea565b6117cd565b6117b0565b611693565b6115e9565b611041565b610f19565b610eeb565b610ecf565b610b2b565b610b03565b610abf565b610a7b565b610a58565b610830565b6107ec565b6107c7565b61079f565b6103ee565b6103d1565b610332565b5f91031261032e57565b5f80fd5b3461032e575f36600319011261032e5761034a613418565b60085460408051631d283f4f60e31b815291829060049082905f906001600160a01b03165af19081156103cc575f905f9261039a575b5060408051918252602082019290925290819081015b0390f35b90506103be915060403d6040116103c5575b6103b68183611d22565b810190611d49565b905f610380565b503d6103ac565b611d5f565b3461032e575f36600319011261032e576020604051620151808152f35b3461032e57602036600319011261032e5760043561040a61343e565b610415811515611d6a565b60405163b200408160e01b8152600481018290529060c082602481305afa9081156103cc575f915f905f945f9161075d575b5061045190611df8565b6040516370a0823160e01b81523360048201526001600160a01b037f00000000000000000000000000000000000000000000000000000000000000001690602081602481855afa9081156103cc576104b49185915f9161073e575b501015611e53565b6008546104d1906001600160a01b03165b6001600160a01b031690565b604051636eb1769f60e11b81523360048201526001600160a01b03821660248201529091602090829060449082905afa9081156103cc5761051d9185915f9161071f575b501015611e9f565b6105308561052b8487611f3c565b611f3c565b6040516370a0823160e01b81526001600160a01b038316600482015290602082806024810103817f00000000000000000000000000000000000000000000000000000000000000006001600160a01b03165afa80156103cc5761059c925f916106f0575b501015611f49565b803b1561032e5760405163249dfa6760e11b81523360048201526024810184905260448101859052905f908290606490829084905af180156103cc576106dc575b506008546105f3906001600160a01b03166104c5565b93843b1561032e576040516354d9ee5760e11b81525f600482018190526024820184905290958690604490829084905af19283156103cc57610396957f40bfd90980f01aa563431478b1d2d4e3b3d83fb59262fcfc395a24682d55aa6c946106c2575b5061065f61345e565b604080519182526020820186905233917f63f66e17659e7cc9f46e26f2528881fe1d75cf8706c702f4c664a47746acbdef91819081015b0390a2604080519182526020820192909252a16106b260018055565b6040519081529081906020820190565b806106d05f6106d693611d22565b80610324565b5f610656565b806106d05f6106ea93611d22565b5f6105dd565b610712915060203d602011610718575b61070a8183611d22565b810190611e44565b5f610594565b503d610700565b610738915060203d6020116107185761070a8183611d22565b5f610515565b610757915060203d6020116107185761070a8183611d22565b5f6104ac565b915050610788919350610451925060c03d60c011610798575b6107808183611d22565b810190611dc3565b9694919350509390919490610447565b503d610776565b3461032e575f36600319011261032e57600b546040516001600160a01b039091168152602090f35b3461032e575f36600319011261032e57602062ffffff600d5460a01c16604051908152f35b3461032e575f36600319011261032e576040517f00000000000000000000000000000000000000000000000000000000000000006001600160a01b03168152602090f35b3461032e57608036600319011261032e57602435604435600435600382101561032e5760643591610862821515611f94565b61086d841515611fe0565b61087b6103e884111561202c565b61088481612078565b6108916002821115612096565b61089a81612078565b806109ab57506108d36108b06108dc9260031c90565b936108ce6108c98261052b6108c489612127565b6120f2565b612201565b61224e565b925b151561225d565b6108e78215156122a8565b60408051632c1970c760e21b8152600481018490529190826024815f305af180156103cc575f925f9161096d575b506109476109416103969361093c6103e861094f95610935891515612300565b111561234c565b611eff565b846121ee565b612710900490565b91604051938493846040919493926060820195825260208201520152565b6103e8935061094f91506109416103969361093c61099c6109479460403d6040116103c5576103b68183611d22565b97909795505050935050610915565b6109b481612078565b600181036109e757506109e16109cd6108dc9260021c90565b936108ce6108c98261052b6108c489612116565b926108d5565b806109f6600292959395612078565b03610a15576109e1816108ce6108c96108dc9461052b6108c4896120da565b60405162461bcd60e51b8152602060048201526016602482015275125b9d985b1a59081b195d995c9859d9481b195d995b60521b604482015280606481015b0390fd5b3461032e575f36600319011261032e57602060ff60085460a01c16604051908152f35b3461032e575f36600319011261032e576040517f00000000000000000000000000000000000000000000000000000000000000006001600160a01b03168152602090f35b3461032e575f36600319011261032e576040517f00000000000000000000000000000000000000000000000000000000000000006001600160a01b03168152602090f35b3461032e575f36600319011261032e576007546040516001600160a01b039091168152602090f35b3461032e57602036600319011261032e57600435610b4761343e565b610b52811515612398565b60405163eed0966360e01b8152600481018290529060c082602481305afa9081156103cc575f915f905f945f91610e9d575b50610b8e90611df8565b6040516370a0823160e01b81523360048201526001600160a01b037f00000000000000000000000000000000000000000000000000000000000000001690602081602481855afa9081156103cc57610bf19185915f91610e7e575b5010156123e4565b600854610c06906001600160a01b03166104c5565b604051636eb1769f60e11b81523360048201526001600160a01b03821660248201529091602090829060449082905afa9081156103cc57610c529185915f91610e5f575b501015612430565b6040516370a0823160e01b81526001600160a01b0382166004820152602081806024810103817f00000000000000000000000000000000000000000000000000000000000000006001600160a01b03165afa9081156103cc575f91610e40575b50604051630a300f6d60e41b8152602081600481865afa80156103cc57610cf992610ce4925f92610e1f575b5061222d565b610cf28761052b8689611f3c565b1115611e53565b803b1561032e5760405163cd416ea760e01b81523360048201526024810184905260448101859052905f908290606490829084905af180156103cc57610e0b575b50600854610d50906001600160a01b03166104c5565b93843b1561032e576040516354d9ee5760e11b8152600481018390525f6024820181905290958690604490829084905af19283156103cc57610396957f40bfd90980f01aa563431478b1d2d4e3b3d83fb59262fcfc395a24682d55aa6c94610df7575b50610dbc61345e565b604080519182526020820186905233917f13e41f6ba7a204cac1ba6ad985f3b85731a480061263793c64878dddcfc0d7409181908101610696565b806106d05f610e0593611d22565b5f610db3565b806106d05f610e1993611d22565b5f610d3a565b610e3991925060203d6020116107185761070a8183611d22565b905f610cde565b610e59915060203d6020116107185761070a8183611d22565b5f610cb2565b610e78915060203d6020116107185761070a8183611d22565b5f610c4a565b610e97915060203d6020116107185761070a8183611d22565b5f610be9565b915050610ebf919350610b8e925060c03d60c011610798576107808183611d22565b9694919350509390919490610b84565b3461032e575f36600319011261032e5760206040516127108152f35b3461032e575f36600319011261032e576020600454604051908152f35b6001600160a01b0381160361032e57565b3461032e57604036600319011261032e57600435610f3681610f08565b60243590610f4382610f08565b610f4b613418565b6001600160a01b0316908115610ffc576001600160a01b03168015610fb757610f93610fb59260018060a01b03166bffffffffffffffffffffffff60a01b6007541617600755565b60018060a01b03166bffffffffffffffffffffffff60a01b6008541617600855565b005b60405162461bcd60e51b815260206004820152601d60248201527f496e76616c696420414d4d206c697175696469747920616464726573730000006044820152606490fd5b60405162461bcd60e51b815260206004820152601960248201527f496e76616c696420637573746f6469616e2061646472657373000000000000006044820152606490fd5b3461032e57604036600319011261032e5760043560243561106061343e565b61106d600182101561247c565b600754611082906001600160a01b03166104c5565b906040516350d5041d60e01b8152606081600481865afa80156103cc576110f49160c0915f915f916115b6575b50806115ad575b6110bf906124e7565b604051631638c97560e21b81523360048201526024810187905260448101859052606481019190915291829081906084820190565b0381865afa80156103cc576020915f9161157e575b50019161111883511515612597565b60085461112d6001600160a01b0382166104c5565b60408051630240bc6b60e21b815291929082600481865afa9081156103cc57865f935f93611538575b5061119a6111ee6111a1846111e8886111d86111f4976111d36111c06111ac8d6111a66111a16112649f61118e9060ff9060a01c1690565b9d8e9b60a81c60ff1690565b809b6125e8565b6125fc565b906121ee565b80956111bb855182101561260d565b612a08565b916111cc831515612665565b518d61222d565b613599565b6111e38282116126a3565b61222d565b936125e8565b9061224e565b611203610947600954836121ee565b606088611215610947600a54856121ee565b988c5f6112228c8761222d565b60405163700e8cf960e11b81526001600160a01b03909c1660048d01523360248d015260448c019290925260648b019390935298958692839182906084820190565b03925af191825f945f94611500575b506113645761128061270a565b6308c379a0146112e4575b60405162461bcd60e51b815260206004820152602b60248201527f637573746f6469616e2e6275726e46726f6d414d4d206661696c65643a20556e60448201526a35b737bbb71032b93937b960a91b6064820152608490fd5b6112ec612725565b806112f7575061128b565b61133e61134c610a5492604051928391611338602084016020907f637573746f6469616e2e6275726e46726f6d414d4d2072657665727465643a2081520190565b90612799565b03601f198101835282611d22565b60405162461bcd60e51b8152918291600483016127cf565b61138b6113d5926113ad9261052b6113db9796809e6113848915156127e0565b511461282c565b600854909333918591906113a7906001600160a01b03166104c5565b9061394c565b986113ba8187101561286f565b6008546113cf906001600160a01b03166104c5565b9561222d565b92611f3c565b823b1561032e57604051630182750360e01b815260048101929092526024820152905f908290604490829084905af180156103cc576114ec575b5060085461142b906001600160a01b03166104c5565b94853b1561032e576040516354d9ee5760e11b81525f600482018190526024820185905290968790604490829084905af19586156103cc57857f40bfd90980f01aa563431478b1d2d4e3b3d83fb59262fcfc395a24682d55aa6c957fd17f42e41cf2fb8361080e5866314c41ba70188400842edfb3ae778e88338e6392610396996114d8575b506114ba61345e565b60408051948552602085019190915283015233918060608101610696565b806106d05f6114e693611d22565b5f6114b1565b806106d05f6114fa93611d22565b5f611415565b90935061152691945060603d606011611531575b61151e8183611d22565b8101906126ef565b50939093925f611273565b503d611514565b6111d894506111f49193506111ee6111a1611264946111e861156b61119a9560403d6040116103c5576103b68183611d22565b90998a9199975050505094505050611156565b6115a0915060c03d60c0116115a6575b6115988183611d22565b810190612534565b5f611109565b503d61158e565b508015156110b6565b90506115da915060603d6060116115e2575b6115d28183611d22565b8101906124c8565b90505f6110af565b503d6115c8565b3461032e57604036600319011261032e57600435602435611608613418565b64012a05f200821161165f57817f528d9479e9f9889a87a3c30c7f7ba537e5e59c4c85a37733b16e57c62df613029260095581600a5561165a6040519283928360209093929193604081019481520152565b0390a1005b60405162461bcd60e51b815260206004820152600c60248201526b08ccaca40e8dede40d0d2ced60a31b6044820152606490fd5b3461032e57604036600319011261032e577fa2b71ec6df949300b59aab36b55e189697b750119dd349fcfa8c0f779e83c2546004356024356116d3613418565b6116e96116e1600454611f0f565b4210156128ca565b6116fd6116f542611f0f565b821015612905565b6001821015806117a4575b61171190612945565b61165a61172561171f612e7a565b93612138565b918383101561178b576117428461173b8561214e565b10156129c5565b61174b84600255565b61175483600355565b61175d42600455565b61176681600555565b6040519384934291859094939260609260808301968352602083015260408201520152565b61179f6117978561214e565b841115612982565b611742565b50612710821115611708565b3461032e575f36600319011261032e576020600254604051908152f35b3461032e575f36600319011261032e576020600e54604051908152f35b3461032e57604036600319011261032e57602061180b602435600435612a08565b604051908152f35b3461032e575f36600319011261032e57602060405173fffd8963efd1fc6a506488495d951d5263988d268152f35b3461032e575f36600319011261032e57602060405160018152f35b3461032e575f36600319011261032e57611874613418565b5f80546001600160a01b0319811682556001600160a01b03167f8be0079c531659141344cd1fd0a4f28419497f9722a3daafe3b4186f6b6457e08280a3005b3461032e575f36600319011261032e576020604051683635c9adc5dea000008152f35b3461032e575f36600319011261032e57602060ff60085460a81c16604051908152f35b3461032e575f36600319011261032e57600d546040516001600160a01b039091168152602090f35b3461032e575f36600319011261032e575f546040516001600160a01b039091168152602090f35b3461032e575f36600319011261032e576020600a54604051908152f35b3461032e575f36600319011261032e576008546040516001600160a01b039091168152602090f35b3461032e575f36600319011261032e576040517f00000000000000000000000000000000000000000000000000000000000000006001600160a01b03168152602090f35b3461032e575f36600319011261032e576020604051670de0b6b3a76400008152f35b3461032e57602036600319011261032e57611a0f600435612bd5565b60408051928352602083019190915290f35b3461032e57602036600319011261032e57610396611a40600435612d14565b6040805196875260208701959095529385019290925260608401526080830152151560a082015290819060c0820190565b3461032e575f36600319011261032e576020600354604051908152f35b3461032e575f36600319011261032e57602060405164012a05f2008152f35b3461032e575f36600319011261032e576020600554604051908152f35b3461032e575f36600319011261032e57600c546040516001600160a01b039091168152602090f35b3461032e575f36600319011261032e57602060405160648152f35b3461032e575f36600319011261032e57602061180b612e7a565b3461032e575f36600319011261032e576020600954604051908152f35b3461032e575f36600319011261032e57611a0f612fa8565b3461032e575f36600319011261032e5760206040516401000276a38152f35b3461032e57602036600319011261032e57600435611b97613418565b8015801580611c21575b15611bea5760648202908282046064141715611be5577f46698dca0e7913dfc4452ef7819f14e489f4b9e86875857be0243cca3499697a916106b261165a92600655565b611eeb565b60405162461bcd60e51b815260206004820152600f60248201526e496e76616c696420412076616c756560881b6044820152606490fd5b50612710821115611ba1565b3461032e57602036600319011261032e57610396611a40600435613296565b3461032e57602036600319011261032e57600435611c6981610f08565b611c71613418565b6001600160a01b03168015611cc2575f80546001600160a01b03198116831782556001600160a01b0316907f8be0079c531659141344cd1fd0a4f28419497f9722a3daafe3b4186f6b6457e09080a3005b631e4fbdf760e01b5f525f60045260245ffd5b3461032e575f36600319011261032e576020600654604051908152f35b3461032e575f36600319011261032e5760206040516103e88152f35b634e487b7160e01b5f52604160045260245ffd5b90601f8019910116810190811067ffffffffffffffff821117611d4457604052565b611d0e565b919082604091031261032e576020825192015190565b6040513d5f823e3d90fd5b15611d7157565b60405162461bcd60e51b815260206004820152601e60248201527f537461626c6520616d6f756e74206d75737420626520706f73697469766500006044820152606490fd5b5190811515820361032e57565b91908260c091031261032e57815191602081015191604082015191606081015191611df560a060808401519301611db6565b90565b15611dff57565b60405162461bcd60e51b815260206004820152601760248201527f496e76616c6964207377617020706172616d65746572730000000000000000006044820152606490fd5b9081602091031261032e575190565b15611e5a57565b60405162461bcd60e51b815260206004820152601b60248201527f496e73756666696369656e7420537461626c652062616c616e636500000000006044820152606490fd5b15611ea657565b60405162461bcd60e51b815260206004820152601d60248201527f496e73756666696369656e7420537461626c6520616c6c6f77616e63650000006044820152606490fd5b634e487b7160e01b5f52601160045260245ffd5b61271001908161271011611be557565b90620151808201809211611be557565b906102588201809211611be557565b9060018201809211611be557565b91908201809211611be557565b15611f5057565b606460405162461bcd60e51b815260206004820152602060248201527f496e73756666696369656e7420555344432062616c616e636520696e20414d4d6044820152fd5b15611f9b57565b60405162461bcd60e51b815260206004820152601f60248201527f4c20746f6b656e20616d6f756e74206d75737420626520706f736974697665006044820152606490fd5b15611fe757565b60405162461bcd60e51b815260206004820152601b60248201527f4d696e74207072696365206d75737420626520706f73697469766500000000006044820152606490fd5b1561203357565b60405162461bcd60e51b815260206004820152601b60248201527f536c69707061676520746f6c6572616e636520746f6f206869676800000000006044820152606490fd5b6003111561208257565b634e487b7160e01b5f52602160045260245ffd5b1561209d57565b60405162461bcd60e51b8152602060048201526015602482015274496e76616c6964206c65766572616765207479706560581b6044820152606490fd5b600181901b91906001600160ff1b03811603611be557565b90670de0b6b3a7640000820291808304670de0b6b3a76400001490151715611be557565b9081600502916005830403611be557565b9081600902916009830403611be557565b90606482029180830460641490151715611be557565b908160011b9180830460021490151715611be557565b908160021b9180830460041490151715611be557565b600281901b91906001600160fe1b03811603611be557565b9081600302916003830403611be557565b908160601b91808304600160601b1490151715611be557565b906127108202918083046127101490151715611be557565b90620f4240820291808304620f42401490151715611be557565b81810292918115918404141715611be557565b5f19810191908211611be557565b61271003906127108211611be557565b6002039060028211611be557565b91908203918211611be557565b634e487b7160e01b5f52601260045260245ffd5b8115612258570490565b61223a565b1561226457565b606460405162461bcd60e51b815260206004820152602060248201527f496e76616c696420737461626c6520616d6f756e742063616c63756c617465646044820152fd5b156122af57565b60405162461bcd60e51b8152602060048201526024808201527f496e76616c696420756e6465726c79696e6720616d6f756e742063616c63756c604482015263185d195960e21b6064820152608490fd5b1561230757565b60405162461bcd60e51b815260206004820152601760248201527f4661696c656420746f20676574204445582071756f74650000000000000000006044820152606490fd5b1561235357565b60405162461bcd60e51b815260206004820152601960248201527f44455820707269636520696d7061637420746f6f2068696768000000000000006044820152606490fd5b1561239f57565b60405162461bcd60e51b815260206004820152601760248201527f416d6f756e74206d75737420626520706f7369746976650000000000000000006044820152606490fd5b156123eb57565b60405162461bcd60e51b815260206004820152601960248201527f496e73756666696369656e7420555344432062616c616e6365000000000000006044820152606490fd5b1561243757565b60405162461bcd60e51b815260206004820152601b60248201527f496e73756666696369656e74205553444320616c6c6f77616e636500000000006044820152606490fd5b1561248357565b60405162461bcd60e51b815260206004820152601e60248201527f50657263656e74616765206d757374206265206174206c6561737420312500006044820152606490fd5b9081606091031261032e57805191611df5604060208401519301611db6565b156124ee57565b60405162461bcd60e51b815260206004820152600d60248201526c496e76616c696420707269636560981b6044820152606490fd5b6040519061253260a083611d22565b565b908160c091031261032e576040519060c082019082821067ffffffffffffffff831117611d445760a0916040528051835260208101516020840152604081015160408401526060810151606084015260808101516080840152015160a082015290565b1561259e57565b60405162461bcd60e51b8152602060048201526011602482015270139bc814c81d1bdad95b881b9959591959607a1b6044820152606490fd5b60ff166012039060ff8211611be557565b9060ff8091169116039060ff8211611be557565b60ff16604d8111611be557600a0a90565b1561261457565b60405162461bcd60e51b815260206004820152602360248201527f496e73756666696369656e7420737461626c652062616c616e636520696e20706044820152621bdbdb60ea1b6064820152608490fd5b1561266c57565b60405162461bcd60e51b815260206004820152600f60248201526e496e76616c696420442076616c756560881b6044820152606490fd5b156126aa57565b60405162461bcd60e51b815260206004820152601b60248201527f496e76616c69642062616c616e63652063616c63756c6174696f6e00000000006044820152606490fd5b9081606091031261032e578051916040602083015192015190565b5f9060033d1161271657565b905060045f803e5f5160e01c90565b5f60443d10611df5576040513d600319016004823e8051913d602484011167ffffffffffffffff841117612793578282019283519167ffffffffffffffff831161278b573d8401600319018584016020011161278b5750611df592910160200190611d22565b949350505050565b92915050565b805191908290602001825e015f815290565b805180835260209291819084018484015e5f828201840152601f01601f1916010190565b906020611df59281815201906127ab565b156127e757565b60405162461bcd60e51b815260206004820152601760248201527f4e6f20756e6465726c79696e6720746f2072656465656d0000000000000000006044820152606490fd5b1561283357565b60405162461bcd60e51b8152602060048201526014602482015273084eae4dc40c2dadeeadce840dad2e6dac2e8c6d60631b6044820152606490fd5b1561287657565b60405162461bcd60e51b815260206004820152602660248201527f5265736572766520737461626c65206c657373207468616e206275726e656420604482015265185b5bdd5b9d60d21b6064820152608490fd5b156128d157565b60405162461bcd60e51b815260206004820152600c60248201526b151bdbc8199c995c5d595b9d60a21b6044820152606490fd5b1561290c57565b60405162461bcd60e51b8152602060048201526011602482015270496e73756666696369656e742074696d6560781b6044820152606490fd5b1561294c57565b60405162461bcd60e51b815260206004820152600e60248201526d41206f7574206f662072616e676560901b6044820152606490fd5b1561298957565b60405162461bcd60e51b81526020600482015260146024820152734120696e63726561736520746f6f206c6172676560601b6044820152606490fd5b156129cc57565b60405162461bcd60e51b81526020600482015260146024820152734120646563726561736520746f6f206c6172676560601b6044820152606490fd5b90612a11612e7a565b91612a1c8282611f3c565b908115612b0f57612a2d8294612164565b905f5b60ff8110612a41575b505050505090565b85612a4c81806121ee565b90612a56916121ee565b85612a608461217a565b90612a6a916121ee565b612a739161224e565b869081612a8087876121ee565b612a89836120da565b612a9291611f3c565b90612a9c916121ee565b91612aa686612201565b90612ab0916121ee565b90612aba90612192565b612ac391611f3c565b612acc9161224e565b956001908781811115612af85790612ae39161222d565b1115612af3576001905b01612a30565b612a39565b612b019161222d565b1115612af357600190612aed565b505050505f90565b15612b1e57565b60405162461bcd60e51b815260206004820152600e60248201526d145d5bdd195c881b9bdd081cd95d60921b6044820152606490fd5b919082608091031261032e578151916020810151612b7181610f08565b91604082015163ffffffff8116810361032e5760609092015190565b81516001600160a01b0390811682526020808401518216908301526040808401519083015260608084015162ffffff1690830152608092830151169181019190915260a00190565b600c546001600160a01b03169190612bee831515612b17565b8015612d0c575f92608090612cb590612c0f906001600160a01b03166104c5565b600d5460a01c62ffffff16612c94612c25612523565b7f00000000000000000000000000000000000000000000000000000000000000006001600160a01b03168152917f00000000000000000000000000000000000000000000000000000000000000006001600160a01b031660208401526040830187905262ffffff166060830152565b8684820152604051968780948193635e90b82560e11b835260048301612b8d565b03925af15f9381612cd8575b50612cce57505f91508190565b611df590836140c3565b612cfb91945060803d608011612d05575b612cf38183611d22565b810190612b54565b505050925f612cc1565b503d612ce9565b505f91508190565b908115612e6b576008546004916040612d356001600160a01b0384166104c5565b8151630240bc6b60e21b815294859182905afa9081156103cc575f935f92612e47575b50612d7f612d7160a085901c60ff169460a81c60ff1690565b926111a66111a185876125e8565b918215612e3457612d908386612a08565b8015612e1657612da4906111d38888611f3c565b80158015612e2a575b612e1657612dce6111a1612e0f93612dc8612dd4948861222d565b976125e8565b8561224e565b92612de4610947600954866121ee565b95612df4610947600a54896121ee565b95612e0988612e03898261222d565b9761222d565b9861417c565b9085151590565b505f95508594508493508392508291829150565b5083811015612dad565b505f945084935083925082915081908190565b909350612e63915060403d6040116103c5576103b68183611d22565b90925f612d58565b5f915081908190819081908190565b600554600354908042105f14612ef75760025490600454928281115f14612ec957906111ee611df594612ebd612eb386612ec39661222d565b6111a6834261222d565b9261222d565b90611f3c565b820390828211611be557834203428111611be557611df594612ebd6111ee92612ef1956121ee565b9061222d565b5090565b9081602091031261032e5751611df581610f08565b9081602091031261032e57516001600160801b038116810361032e5790565b519061ffff8216820361032e57565b908160e091031261032e578051612f5481610f08565b9160208201518060020b810361032e5791612f7160408201612f2f565b91612f7e60608301612f2f565b91612f8b60808201612f2f565b9160a082015160ff8116810361032e5760c0611df5919301611db6565b600d546001600160a01b0316801561328f57612fcc906001600160a01b03166104c5565b604051630dfe168160e01b81529190602083600481845afa9283156103cc575f9361326e575b5060405163d21220a760e01b8152602081600481855afa9081156103cc575f9161323f575b50604051630d34328160e11b815291602083600481845afa9081156103cc576004935f9261320b575b5060e09060405194858092633850c7bd851b82525afa9283156103cc575f936131cb575b506001600160801b031691821580156131ba575b6131af576130a5906001600160a01b03166108ce61309f61309983876121ee565b60601c90565b946121a3565b936001600160a01b037f00000000000000000000000000000000000000000000000000000000000000008116911680821480613179575b1561310457505050611df590926111ee6111a16130ff60085460ff9060a81c1690565b6125d7565b9394937f00000000000000000000000000000000000000000000000000000000000000006001600160a01b0316149182613166575b50501561315e5761315a906111ee6111a16130ff60085460ff9060a81c1690565b9091565b50505f905f90565b6001600160a01b03161490505f80613139565b506001600160a01b038381167f0000000000000000000000000000000000000000000000000000000000000000909116146130dc565b50505090505f905f90565b506001600160a01b03811615613078565b6001600160801b039193506131f79060e03d60e011613204575b6131ef8183611d22565b810190612f3e565b5050505050509290613064565b503d6131e5565b60e09192506132319060203d602011613238575b6132298183611d22565b810190612f10565b9190613040565b503d61321f565b613261915060203d602011613267575b6132598183611d22565b810190612efb565b5f613017565b503d61324f565b61328891935060203d602011613267576132598183611d22565b915f612ff2565b505f905f90565b801561340957600854916004919060406132b86001600160a01b0386166104c5565b8151630240bc6b60e21b815294859182905afa9182156103cc575f935f936133e2575b506133026132f460a087901c60ff169660a81c60ff1690565b936111a66111a186896125e8565b9284156133cf576133138486612a08565b9586156133bb57916111a66111a161332e93613339956125e8565b946111d38685611f3c565b801580156133b1575b61339f57613350908461222d565b90613389613363610947600954856121ee565b94613373610947600a54886121ee565b9461337e868861222d565b94612e09888261222d565b90851515806133955790565b5061138882111590565b505f9350839250829150819081908190565b5083811015613342565b505f95508594508493508392839250829150565b505f945084935083925082918291508190565b9092506133ff91935060403d6040116103c5576103b68183611d22565b929092915f6132db565b505f905f905f905f905f905f90565b5f546001600160a01b0316330361342b57565b63118cdaa760e01b5f523360045260245ffd5b60026001541461344f576002600155565b633ee5aeb560e01b5f5260045ffd5b6008546134736001600160a01b0382166104c5565b604051630a300f6d60e41b81529190602083600481845afa9081156103cc576004935f92613536575b506020906040519485809263da18b69560e01b82525afa9283156103cc57683635c9adc5dea00000936134fd93612ec3925f9261350d575b506111a1816134f76134ed6111a69460ff9060a01c1690565b9160a81c60ff1690565b906125e8565b101561350557565b61253261421b565b6111a691925061352e6111a19160203d6020116107185761070a8183611d22565b9291506134d4565b602091925061355190823d84116107185761070a8183611d22565b919061349c565b1561355f57565b60405162461bcd60e51b8152602060048201526012602482015271496e76616c696420706172616d657465727360701b6044820152606490fd5b80151580613665575b6135ab90613558565b6135ec6135be6135b9612e7a565b612164565b91612ec36135e56135d8866135d381806121ee565b6121ee565b6111ee846135d38861217a565b938561224e565b90825f5b60ff8110613600575b5050505090565b6001613625866111ee856111e38961052b61361f8b61052b88806121ee565b956120da565b95868181111561364e57906136399161222d565b1115613649576001905b016135f0565b6135f9565b6136579161222d565b111561364957600190613643565b508115156135a2565b1561367557565b60405162461bcd60e51b815260206004820152601960248201527f496e76616c696420756e6465726c79696e6720616d6f756e74000000000000006044820152606490fd5b156136c157565b60405162461bcd60e51b8152602060048201526012602482015271111156081c9bdd5d195c881b9bdd081cd95d60721b6044820152606490fd5b1561370257565b60405162461bcd60e51b815260206004820152601060248201526f496e76616c69642056332071756f746560801b6044820152606490fd5b9081602091031261032e57611df590611db6565b1561375557565b60405162461bcd60e51b8152602060048201526024808201527f526f7574657220646964206e6f74207265636569766520657870656374656420604482015263574c544360e01b6064820152608490fd5b94935f936080936137d69360018060a01b031688526020880152604087015260a0606087015260a08601906127ab565b930152565b604080519091906137ec8382611d22565b6001815291601f1901825f5b82811061380457505050565b8060606020809385010152016137f8565b634e487b7160e01b5f52603260045260245ffd5b8051156138365760200190565b613815565b93929190613851906060865260608601906127ab565b908482036020860152805180835260208301926020808360051b8301019301935f915b838310613888575050505060409150930152565b909192936020806138a5600193601f1986820301875289516127ab565b9701930193019194939290613874565b67ffffffffffffffff8111611d4457601f01601f191660200190565b3d156138fb573d906138e2826138b5565b916138f06040519384611d22565b82523d5f602084013e565b606090565b1561390757565b60405162461bcd60e51b815260206004820152601c60248201527f496e73756666696369656e7420746f6b656e73207265636569766564000000006044820152606490fd5b939291909361395c81151561366e565b600b54613973906001600160a01b031615156136ba565b600c5461398a906104c5906001600160a01b031681565b600d547f00000000000000000000000000000000000000000000000000000000000000006001600160a01b0390811694927f0000000000000000000000000000000000000000000000000000000000000000909116915f91608091613a4d919060a01c62ffffff16613a2c6139fd612523565b6001600160a01b0388168152916001600160a01b038b166020840152604083018a905262ffffff166060830152565b8484820152604051948580948193636352813560e11b835260048301612b8d565b03925af15f918161409f575b50613a9c5760405162461bcd60e51b81526020600482015260166024820152754661696c656420746f206765742056332071756f746560501b6044820152606490fd5b93613aa88515156136fb565b613abf610947613ab9600e5461220f565b876121ee565b94613b08602086613ad7600b5460018060a01b031690565b60405163a9059cbb60e01b81526001600160a01b039091166004820152602481019190915291829081906044820190565b03815f885af180156103cc57614082575b50600b546040516370a0823160e01b81526001600160a01b039091166004820181905290602081602481885afa9081156103cc57613b629188915f91614063575b50101561374e565b6040516370a0823160e01b815230600482015293602085602481875afa9485156103cc575f95614038575b5090613c12613c0492613bf2613bab600d5462ffffff9060a01c1690565b604051606093841b6bffffffffffffffffffffffff19908116602083015260e89290921b6001600160e81b03191660348201529288901b16603783015281604b810161133e565b6040519384918b8b30602086016137a6565b03601f198101845283611d22565b613c1a6137db565b91613c2483613829565b52613c2e82613829565b50613c5c6104c5604051926104c584613c4e602082016001905f81520190565b03601f198101865285611d22565b613c6542611f1f565b90803b1561032e57613c91935f809460405196879586948593630d64d59360e21b85526004850161383b565b03925af19081614024575b50613e5f57613ca961270a565b6308c379a014613e0c575b613cbc6138d1565b805180613d255760405162461bcd60e51b815260206004820152603460248201527f556e6976657273616c526f757465722073776170206661696c65643a20556e6b6044820152736e6f776e206572726f7220286e6f20646174612960601b6064820152608490fd5b602414613dac57613d9f61134c613d3f610a549351614398565b61133e604051938492611338602085016039907f556e6976657273616c526f757465722073776170206661696c65643a20556e6b81527f6e6f776e206572726f72202864617461206c656e6774683a200000000000000060208201520190565b602960f81b815260010190565b61133e61134c613dc26024610a5494015161431e565b60405192839161133860208401602a907f556e6976657273616c526f757465722073776170206661696c65643a2050616e8152690d2c640c6dec8ca4060f60b31b60208201520190565b613e14612725565b80613e1f5750613cb4565b6040517f556e6976657273616c526f757465722073776170206661696c65643a200000006020820152610a549161134c90829061133e90603d8301611338565b6040516370a0823160e01b8152306004820152602081602481865afa9081156103cc57613f0194613ea392613e9a925f91614005575061222d565b96871015613900565b85811115613ffb57613ec3816108ce613ebe8960209561222d565b6121bc565b935b613ecf818861222d565b60405163a9059cbb60e01b81526001600160a01b03909b1660048c015260248b01919091529892839081906044820190565b03815f855af19081156103cc57613f54966020938a93613fe0575b5060405163a9059cbb60e01b81526001600160a01b0390911660048201526024810192909252909586919082905f9082906044820190565b03925af19081156103cc577fd795957f829b12c14ba746de1c2fbafa730c9e3d714741092fd518cbfc20bc8494613fae92613fb3575b506040519384938460609194939260808201955f8352602083015260408201520152565b0390a1565b613fd49060203d602011613fd9575b613fcc8183611d22565b81019061373a565b613f8a565b503d613fc2565b613ff690853d8711613fd957613fcc8183611d22565b613f1c565b5060205f93613ec5565b61401e915060203d6020116107185761070a8183611d22565b5f610cde565b806106d05f61403293611d22565b5f613c9c565b613c049291955061405a613c129160203d6020116107185761070a8183611d22565b95919250613b8d565b61407c915060203d6020116107185761070a8183611d22565b5f613b5a565b61409a9060203d602011613fd957613fcc8183611d22565b613b19565b6140b991925060803d608011612d0557612cf38183611d22565b505050905f613a59565b600d545f9392906001600160a01b031680156141745760049060e0906140f1906001600160a01b03166104c5565b60405192838092633850c7bd851b82525afa5f918161414d575b5061411857505f93505050565b906108ce61412861412e9361447d565b916121d4565b9081811161413a575050565b611df5929350613ebe826108ce9261222d565b61416791925060e03d60e011613204576131ef8183611d22565b505050505050905f61410b565b505f93505050565b919290928015808015614213575b801561420b575b61420257670de0b6b3a7640000830292808404670de0b6b3a76400001490151715611be557612258576141c59104926120f2565b8115612258570490818111156141f9576108ce613ebe6141e5938361222d565b905b61271082116141f257565b6127109150565b50505f906141e7565b50505050505f90565b508315614191565b50821561418a565b60085460408051631d283f4f60e31b815291829060049082905f906001600160a01b03165af180156103cc577ff836a1a045f661200b801575978eb36b98c375f0a6022abbd43c94713d17277e915f905f9261428c575b506040805191825260208201929092529081908101613fae565b90506142a7915060403d6040116103c5576103b68183611d22565b905f614272565b604051906142bd604083611d22565b60018252600360fc1b6020830152565b5f198114611be55760010190565b906142e5826138b5565b6142f26040519182611d22565b8281528092614303601f19916138b5565b0190602036910137565b908151811015613836570160200190565b801561438f5780815f925b61437b5750614337826142db565b9190815b61434457505090565b614350600f8216614584565b61436661435c84612201565b915f1a918561430d565b5360041c908015611be5575f1901908161433b565b91614385906142cd565b9160041c80614329565b50611df56142ae565b801561438f57805f81805b61441457506143b1816142db565b925b6143bc57505090565b5f198101908111611be5578091600a81066030019182603011611be5576144056143fc6143ec61440d9560ff1690565b60f81b6001600160f81b03191690565b5f1a918661430d565b53600a900490565b90816143b3565b9150614421600a916142cd565b9104808392916143a3565b1561443357565b60405162461bcd60e51b815260206004820152601460248201527324b73b30b634b21039b8b93a283934b1b2ac1c9b60611b6044820152606490fd5b604d8111611be557600a0a90565b6004906001600160a01b031661449481151561442c565b600d546020906144ae906104c5906001600160a01b031681565b604051630dfe168160e01b815293849182905afa9182156103cc575f92614557575b506144ec6144e182614539936121ee565b600160c01b90614643565b7f00000000000000000000000000000000000000000000000000000000000000006001600160a01b03908116931692909214918215614548576111a66145346006601261222d565b61446f565b9015611df557611df59061473d565b6111a66145346012600661222d565b6145399192506144e161457b6144ec9260203d602011613267576132598183611d22565b939250506144d0565b60ff16600a8110156145ab5760300160ff8111611be55760f81b6001600160f81b03191690565b60570160ff8111611be55760f81b6001600160f81b03191690565b156145cd57565b60405162461bcd60e51b815260206004820152601060248201526f4469766973696f6e206279207a65726f60801b6044820152606490fd5b1561460c57565b60405162461bcd60e51b815260206004820152600f60248201526e4d756c446976206f766572666c6f7760881b6044820152606490fd5b9061464f8115156145c6565b5f19670de0b6b3a7640000830990670de0b6b3a764000083029283808410930392808403931461473157928180670de0b6b3a7640000611df5966146976111a6968810614605565b096146be6146a58319611f2e565b831680930495600184805f0304019085841190036121ee565b92030417916111a66146f161472a61471d6147106147036146f660026146e389612192565b186111a66146f1828b6121ee565b61221f565b6111a66146f1828a6121ee565b6111a66146f182896121ee565b6111a66146f182886121ee565b6111a66146f182876121ee565b80936121ee565b509050611df59161224e565b6147488115156145c6565b8015612258576ec097ce7bc90715b34b9f1000000000049056fea264697066735822122082f4be0560318b5a7c59db88879c954aa160c9d5c31ccf6cfb38b8e4e747bb9064736f6c634300081c0033",
  "linkReferences": {},
  "deployedLinkReferences": {},
  "immutableReferences": {
    "10892": [
      {
        "length": 32,
        "start": 1134
      },
      {
        "length": 32,
        "start": 3194
      },
      {
        "length": 32,
        "start": 6562
      }
    ],
    "10895": [
      {
        "length": 32,
        "start": 2772
      }
    ],
    "10898": [
      {
        "length": 32,
        "start": 2704
      },
      {
        "length": 32,
        "start": 11348
      },
      {
        "length": 32,
        "start": 12464
      },
      {
        "length": 32,
        "start": 14781
      },
      {
        "length": 32,
        "start": 17646
      }
    ],
    "10901": [
      {
        "length": 32,
        "start": 1369
      },
      {
        "length": 32,
        "start": 2049
      },
      {
        "length": 32,
        "start": 2987
      },
      {
        "length": 32,
        "start": 11303
      },
      {
        "length": 32,
        "start": 12553
      },
      {
        "length": 32,
        "start": 12679
      },
      {
        "length": 32,
        "start": 14735
      }
    ]
  },
  "inputSourceName": "project/contracts/AMMSwap.sol",
  "buildInfoId": "solc-0_8_28-331288d7feefd83ce4bff76b773e7567571176e8"
}