{
  "_format": "hh3-artifact-1",
  "contractName": "AuctionManager",
  "sourceName": "contracts/auctions/AuctionManager.sol",
  "abi": [
    {
      "inputs": [
        {
          "internalType": "address",
          "name": "stableToken_",
          "type": "address"
        },
        {
          "internalType": "address",
          "name": "custodian_",
          "type": "address"
        }
      ],
      "stateMutability": "nonpayable",
      "type": "constructor"
    },
    {
      "inputs": [],
      "name": "AccessControlBadConfirmation",
      "type": "error"
    },
    {
      "inputs": [
        {
          "internalType": "address",
          "name": "account",
          "type": "address"
        },
        {
          "internalType": "bytes32",
          "name": "neededRole",
          "type": "bytes32"
        }
      ],
      "name": "AccessControlUnauthorizedAccount",
      "type": "error"
    },
    {
      "inputs": [],
      "name": "ReentrancyGuardReentrantCall",
      "type": "error"
    },
    {
      "anonymous": false,
      "inputs": [
        {
          "indexed": true,
          "internalType": "bytes32",
          "name": "parameter",
          "type": "bytes32"
        },
        {
          "indexed": false,
          "internalType": "address",
          "name": "addr",
          "type": "address"
        }
      ],
      "name": "AddressChanged",
      "type": "event"
    },
    {
      "anonymous": false,
      "inputs": [
        {
          "indexed": true,
          "internalType": "address",
          "name": "user",
          "type": "address"
        }
      ],
      "name": "AdminAccessGranted",
      "type": "event"
    },
    {
      "anonymous": false,
      "inputs": [
        {
          "indexed": true,
          "internalType": "address",
          "name": "user",
          "type": "address"
        }
      ],
      "name": "AdminAccessRevoked",
      "type": "event"
    },
    {
      "anonymous": false,
      "inputs": [
        {
          "indexed": false,
          "internalType": "uint256",
          "name": "auctionId",
          "type": "uint256"
        }
      ],
      "name": "AuctionCancelled",
      "type": "event"
    },
    {
      "anonymous": false,
      "inputs": [
        {
          "indexed": false,
          "internalType": "uint256",
          "name": "auctionId",
          "type": "uint256"
        }
      ],
      "name": "AuctionRemoved",
      "type": "event"
    },
    {
      "anonymous": false,
      "inputs": [
        {
          "indexed": true,
          "internalType": "uint256",
          "name": "auctionId",
          "type": "uint256"
        },
        {
          "indexed": false,
          "internalType": "uint256",
          "name": "valueToBeBurned",
          "type": "uint256"
        },
        {
          "indexed": false,
          "internalType": "uint256",
          "name": "newStartingPrice",
          "type": "uint256"
        },
        {
          "indexed": false,
          "internalType": "address",
          "name": "originalOwner",
          "type": "address"
        },
        {
          "indexed": true,
          "internalType": "uint256",
          "name": "tokenId",
          "type": "uint256"
        },
        {
          "indexed": true,
          "internalType": "address",
          "name": "triggerer",
          "type": "address"
        },
        {
          "indexed": false,
          "internalType": "uint256",
          "name": "rewardValue",
          "type": "uint256"
        }
      ],
      "name": "AuctionReset",
      "type": "event"
    },
    {
      "anonymous": false,
      "inputs": [
        {
          "indexed": true,
          "internalType": "uint256",
          "name": "auctionId",
          "type": "uint256"
        },
        {
          "indexed": false,
          "internalType": "uint256",
          "name": "valueToBeBurned",
          "type": "uint256"
        },
        {
          "indexed": false,
          "internalType": "uint256",
          "name": "startingPrice",
          "type": "uint256"
        },
        {
          "indexed": false,
          "internalType": "address",
          "name": "originalOwner",
          "type": "address"
        },
        {
          "indexed": true,
          "internalType": "uint256",
          "name": "tokenId",
          "type": "uint256"
        },
        {
          "indexed": true,
          "internalType": "address",
          "name": "triggerer",
          "type": "address"
        },
        {
          "indexed": false,
          "internalType": "uint256",
          "name": "rewardValue",
          "type": "uint256"
        }
      ],
      "name": "AuctionStarted",
      "type": "event"
    },
    {
      "anonymous": false,
      "inputs": [
        {
          "indexed": true,
          "internalType": "address",
          "name": "user",
          "type": "address"
        }
      ],
      "name": "CallerAccessGranted",
      "type": "event"
    },
    {
      "anonymous": false,
      "inputs": [
        {
          "indexed": true,
          "internalType": "address",
          "name": "user",
          "type": "address"
        }
      ],
      "name": "CallerAccessRevoked",
      "type": "event"
    },
    {
      "anonymous": false,
      "inputs": [
        {
          "indexed": true,
          "internalType": "bytes32",
          "name": "parameter",
          "type": "bytes32"
        },
        {
          "indexed": false,
          "internalType": "uint256",
          "name": "value",
          "type": "uint256"
        }
      ],
      "name": "ParameterChanged",
      "type": "event"
    },
    {
      "anonymous": false,
      "inputs": [
        {
          "indexed": true,
          "internalType": "uint256",
          "name": "auctionId",
          "type": "uint256"
        },
        {
          "indexed": false,
          "internalType": "uint256",
          "name": "currentPrice",
          "type": "uint256"
        },
        {
          "indexed": false,
          "internalType": "uint256",
          "name": "purchaseSlice",
          "type": "uint256"
        },
        {
          "indexed": false,
          "internalType": "uint256",
          "name": "remainingValueToBeBurned",
          "type": "uint256"
        },
        {
          "indexed": true,
          "internalType": "address",
          "name": "kpr",
          "type": "address"
        },
        {
          "indexed": true,
          "internalType": "address",
          "name": "originalOwner",
          "type": "address"
        }
      ],
      "name": "PurchaseMade",
      "type": "event"
    },
    {
      "anonymous": false,
      "inputs": [],
      "name": "ResetAccounting",
      "type": "event"
    },
    {
      "anonymous": false,
      "inputs": [
        {
          "indexed": true,
          "internalType": "bytes32",
          "name": "role",
          "type": "bytes32"
        },
        {
          "indexed": true,
          "internalType": "bytes32",
          "name": "previousAdminRole",
          "type": "bytes32"
        },
        {
          "indexed": true,
          "internalType": "bytes32",
          "name": "newAdminRole",
          "type": "bytes32"
        }
      ],
      "name": "RoleAdminChanged",
      "type": "event"
    },
    {
      "anonymous": false,
      "inputs": [
        {
          "indexed": true,
          "internalType": "bytes32",
          "name": "role",
          "type": "bytes32"
        },
        {
          "indexed": true,
          "internalType": "address",
          "name": "account",
          "type": "address"
        },
        {
          "indexed": true,
          "internalType": "address",
          "name": "sender",
          "type": "address"
        }
      ],
      "name": "RoleGranted",
      "type": "event"
    },
    {
      "anonymous": false,
      "inputs": [
        {
          "indexed": true,
          "internalType": "bytes32",
          "name": "role",
          "type": "bytes32"
        },
        {
          "indexed": true,
          "internalType": "address",
          "name": "account",
          "type": "address"
        },
        {
          "indexed": true,
          "internalType": "address",
          "name": "sender",
          "type": "address"
        }
      ],
      "name": "RoleRevoked",
      "type": "event"
    },
    {
      "inputs": [],
      "name": "ADMIN_ROLE",
      "outputs": [
        {
          "internalType": "bytes32",
          "name": "",
          "type": "bytes32"
        }
      ],
      "stateMutability": "view",
      "type": "function"
    },
    {
      "inputs": [],
      "name": "CALLER_ROLE",
      "outputs": [
        {
          "internalType": "bytes32",
          "name": "",
          "type": "bytes32"
        }
      ],
      "stateMutability": "view",
      "type": "function"
    },
    {
      "inputs": [],
      "name": "DEFAULT_ADMIN_ROLE",
      "outputs": [
        {
          "internalType": "bytes32",
          "name": "",
          "type": "bytes32"
        }
      ],
      "stateMutability": "view",
      "type": "function"
    },
    {
      "inputs": [],
      "name": "PRECISION_DECIMALS",
      "outputs": [
        {
          "internalType": "uint8",
          "name": "",
          "type": "uint8"
        }
      ],
      "stateMutability": "view",
      "type": "function"
    },
    {
      "inputs": [],
      "name": "PRECISION_UNIT",
      "outputs": [
        {
          "internalType": "uint256",
          "name": "",
          "type": "uint256"
        }
      ],
      "stateMutability": "view",
      "type": "function"
    },
    {
      "inputs": [],
      "name": "accumulatedReceivedInAuction",
      "outputs": [
        {
          "internalType": "uint256",
          "name": "",
          "type": "uint256"
        }
      ],
      "stateMutability": "view",
      "type": "function"
    },
    {
      "inputs": [],
      "name": "accumulatedRewardInStable",
      "outputs": [
        {
          "internalType": "uint256",
          "name": "",
          "type": "uint256"
        }
      ],
      "stateMutability": "view",
      "type": "function"
    },
    {
      "inputs": [],
      "name": "accumulatedUnderlyingSoldInAuction",
      "outputs": [
        {
          "internalType": "uint256",
          "name": "",
          "type": "uint256"
        }
      ],
      "stateMutability": "view",
      "type": "function"
    },
    {
      "inputs": [],
      "name": "activeAuctionCount",
      "outputs": [
        {
          "internalType": "uint256",
          "name": "",
          "type": "uint256"
        }
      ],
      "stateMutability": "view",
      "type": "function"
    },
    {
      "inputs": [
        {
          "internalType": "uint256",
          "name": "auctionId",
          "type": "uint256"
        }
      ],
      "name": "auctionIsActive",
      "outputs": [
        {
          "internalType": "bool",
          "name": "",
          "type": "bool"
        }
      ],
      "stateMutability": "view",
      "type": "function"
    },
    {
      "inputs": [],
      "name": "auctionParams",
      "outputs": [
        {
          "internalType": "uint256",
          "name": "priceMultiplier",
          "type": "uint256"
        },
        {
          "internalType": "uint256",
          "name": "resetTime",
          "type": "uint256"
        },
        {
          "internalType": "uint256",
          "name": "priceDropThreshold",
          "type": "uint256"
        },
        {
          "internalType": "uint256",
          "name": "percentageReward",
          "type": "uint256"
        },
        {
          "internalType": "uint256",
          "name": "fixedReward",
          "type": "uint256"
        },
        {
          "internalType": "uint256",
          "name": "minAuctionAmount",
          "type": "uint256"
        }
      ],
      "stateMutability": "view",
      "type": "function"
    },
    {
      "inputs": [
        {
          "internalType": "uint256",
          "name": "",
          "type": "uint256"
        }
      ],
      "name": "auctions",
      "outputs": [
        {
          "internalType": "uint256",
          "name": "valueToBeBurned",
          "type": "uint256"
        },
        {
          "internalType": "int256",
          "name": "underlyingAmount",
          "type": "int256"
        },
        {
          "internalType": "uint256",
          "name": "soldUnderlyingAmount",
          "type": "uint256"
        },
        {
          "internalType": "address",
          "name": "originalOwner",
          "type": "address"
        },
        {
          "internalType": "uint256",
          "name": "tokenId",
          "type": "uint256"
        },
        {
          "internalType": "uint96",
          "name": "startTime",
          "type": "uint96"
        },
        {
          "internalType": "uint256",
          "name": "startingPrice",
          "type": "uint256"
        },
        {
          "internalType": "uint256",
          "name": "currentPrice",
          "type": "uint256"
        },
        {
          "internalType": "uint256",
          "name": "totalPayment",
          "type": "uint256"
        }
      ],
      "stateMutability": "view",
      "type": "function"
    },
    {
      "inputs": [
        {
          "internalType": "uint256",
          "name": "auctionId",
          "type": "uint256"
        }
      ],
      "name": "cancelAuction",
      "outputs": [],
      "stateMutability": "nonpayable",
      "type": "function"
    },
    {
      "inputs": [],
      "name": "circuitBreaker",
      "outputs": [
        {
          "internalType": "uint256",
          "name": "",
          "type": "uint256"
        }
      ],
      "stateMutability": "view",
      "type": "function"
    },
    {
      "inputs": [],
      "name": "custodian",
      "outputs": [
        {
          "internalType": "contract CustodianFixed",
          "name": "",
          "type": "address"
        }
      ],
      "stateMutability": "view",
      "type": "function"
    },
    {
      "inputs": [],
      "name": "getActiveAuctionCount",
      "outputs": [
        {
          "internalType": "uint256",
          "name": "",
          "type": "uint256"
        }
      ],
      "stateMutability": "view",
      "type": "function"
    },
    {
      "inputs": [
        {
          "internalType": "uint256",
          "name": "auctionId",
          "type": "uint256"
        }
      ],
      "name": "getAuctionStatus",
      "outputs": [
        {
          "internalType": "bool",
          "name": "needsReset",
          "type": "bool"
        },
        {
          "internalType": "uint256",
          "name": "currentPrice",
          "type": "uint256"
        },
        {
          "internalType": "uint256",
          "name": "valueToBeBurned",
          "type": "uint256"
        }
      ],
      "stateMutability": "view",
      "type": "function"
    },
    {
      "inputs": [
        {
          "internalType": "bytes32",
          "name": "role",
          "type": "bytes32"
        }
      ],
      "name": "getRoleAdmin",
      "outputs": [
        {
          "internalType": "bytes32",
          "name": "",
          "type": "bytes32"
        }
      ],
      "stateMutability": "view",
      "type": "function"
    },
    {
      "inputs": [
        {
          "internalType": "address",
          "name": "account",
          "type": "address"
        }
      ],
      "name": "grantAdminRole",
      "outputs": [],
      "stateMutability": "nonpayable",
      "type": "function"
    },
    {
      "inputs": [
        {
          "internalType": "address",
          "name": "account",
          "type": "address"
        }
      ],
      "name": "grantCallerRole",
      "outputs": [],
      "stateMutability": "nonpayable",
      "type": "function"
    },
    {
      "inputs": [
        {
          "internalType": "bytes32",
          "name": "role",
          "type": "bytes32"
        },
        {
          "internalType": "address",
          "name": "account",
          "type": "address"
        }
      ],
      "name": "grantRole",
      "outputs": [],
      "stateMutability": "nonpayable",
      "type": "function"
    },
    {
      "inputs": [
        {
          "internalType": "bytes32",
          "name": "role",
          "type": "bytes32"
        },
        {
          "internalType": "address",
          "name": "account",
          "type": "address"
        }
      ],
      "name": "hasRole",
      "outputs": [
        {
          "internalType": "bool",
          "name": "",
          "type": "bool"
        }
      ],
      "stateMutability": "view",
      "type": "function"
    },
    {
      "inputs": [
        {
          "internalType": "address",
          "name": "liquidationManager_",
          "type": "address"
        },
        {
          "internalType": "address",
          "name": "priceCalculator_",
          "type": "address"
        },
        {
          "internalType": "uint256",
          "name": "priceMultiplier_",
          "type": "uint256"
        },
        {
          "internalType": "uint256",
          "name": "resetTime_",
          "type": "uint256"
        },
        {
          "internalType": "uint256",
          "name": "priceDropThreshold_",
          "type": "uint256"
        },
        {
          "internalType": "uint256",
          "name": "percentageReward_",
          "type": "uint256"
        },
        {
          "internalType": "uint256",
          "name": "fixedReward_",
          "type": "uint256"
        },
        {
          "internalType": "uint256",
          "name": "minAuctionAmount_",
          "type": "uint256"
        }
      ],
      "name": "initialize",
      "outputs": [],
      "stateMutability": "nonpayable",
      "type": "function"
    },
    {
      "inputs": [
        {
          "internalType": "uint256",
          "name": "",
          "type": "uint256"
        }
      ],
      "name": "isActiveAuction",
      "outputs": [
        {
          "internalType": "bool",
          "name": "",
          "type": "bool"
        }
      ],
      "stateMutability": "view",
      "type": "function"
    },
    {
      "inputs": [],
      "name": "liquidationManager",
      "outputs": [
        {
          "internalType": "contract LiquidationManager",
          "name": "",
          "type": "address"
        }
      ],
      "stateMutability": "view",
      "type": "function"
    },
    {
      "inputs": [],
      "name": "priceCalculator",
      "outputs": [
        {
          "internalType": "contract LinearDecrease",
          "name": "",
          "type": "address"
        }
      ],
      "stateMutability": "view",
      "type": "function"
    },
    {
      "inputs": [
        {
          "internalType": "uint256",
          "name": "auctionId",
          "type": "uint256"
        },
        {
          "internalType": "uint256",
          "name": "maxPurchaseAmount",
          "type": "uint256"
        },
        {
          "internalType": "uint256",
          "name": "maxAcceptablePrice",
          "type": "uint256"
        },
        {
          "internalType": "address",
          "name": "receiver",
          "type": "address"
        },
        {
          "internalType": "bytes",
          "name": "callData",
          "type": "bytes"
        }
      ],
      "name": "purchaseUnderlying",
      "outputs": [],
      "stateMutability": "nonpayable",
      "type": "function"
    },
    {
      "inputs": [
        {
          "internalType": "bytes32",
          "name": "role",
          "type": "bytes32"
        },
        {
          "internalType": "address",
          "name": "callerConfirmation",
          "type": "address"
        }
      ],
      "name": "renounceRole",
      "outputs": [],
      "stateMutability": "nonpayable",
      "type": "function"
    },
    {
      "inputs": [
        {
          "internalType": "uint256",
          "name": "auctionId",
          "type": "uint256"
        },
        {
          "internalType": "address",
          "name": "triggerer",
          "type": "address"
        }
      ],
      "name": "resetAuction",
      "outputs": [],
      "stateMutability": "nonpayable",
      "type": "function"
    },
    {
      "inputs": [
        {
          "internalType": "address",
          "name": "account",
          "type": "address"
        }
      ],
      "name": "revokeAdminRole",
      "outputs": [],
      "stateMutability": "nonpayable",
      "type": "function"
    },
    {
      "inputs": [
        {
          "internalType": "address",
          "name": "account",
          "type": "address"
        }
      ],
      "name": "revokeCallerRole",
      "outputs": [],
      "stateMutability": "nonpayable",
      "type": "function"
    },
    {
      "inputs": [
        {
          "internalType": "bytes32",
          "name": "role",
          "type": "bytes32"
        },
        {
          "internalType": "address",
          "name": "account",
          "type": "address"
        }
      ],
      "name": "revokeRole",
      "outputs": [],
      "stateMutability": "nonpayable",
      "type": "function"
    },
    {
      "inputs": [
        {
          "internalType": "bytes32",
          "name": "parameter",
          "type": "bytes32"
        },
        {
          "internalType": "address",
          "name": "addr",
          "type": "address"
        }
      ],
      "name": "setAddress",
      "outputs": [],
      "stateMutability": "nonpayable",
      "type": "function"
    },
    {
      "inputs": [
        {
          "internalType": "bytes32",
          "name": "parameter",
          "type": "bytes32"
        },
        {
          "internalType": "uint256",
          "name": "value",
          "type": "uint256"
        }
      ],
      "name": "setParameter",
      "outputs": [],
      "stateMutability": "nonpayable",
      "type": "function"
    },
    {
      "inputs": [],
      "name": "stableToken",
      "outputs": [
        {
          "internalType": "contract StableToken",
          "name": "",
          "type": "address"
        }
      ],
      "stateMutability": "view",
      "type": "function"
    },
    {
      "inputs": [
        {
          "internalType": "uint256",
          "name": "valueToBeBurned",
          "type": "uint256"
        },
        {
          "internalType": "uint256",
          "name": "penalty",
          "type": "uint256"
        },
        {
          "internalType": "address",
          "name": "originalOwner",
          "type": "address"
        },
        {
          "internalType": "uint256",
          "name": "tokenId",
          "type": "uint256"
        },
        {
          "internalType": "uint256",
          "name": "underlyingValueToUser",
          "type": "uint256"
        },
        {
          "internalType": "address",
          "name": "triggerer",
          "type": "address"
        }
      ],
      "name": "startAuction",
      "outputs": [
        {
          "internalType": "uint256",
          "name": "auctionId",
          "type": "uint256"
        }
      ],
      "stateMutability": "nonpayable",
      "type": "function"
    },
    {
      "inputs": [
        {
          "internalType": "bytes4",
          "name": "interfaceId",
          "type": "bytes4"
        }
      ],
      "name": "supportsInterface",
      "outputs": [
        {
          "internalType": "bool",
          "name": "",
          "type": "bool"
        }
      ],
      "stateMutability": "view",
      "type": "function"
    },
    {
      "inputs": [],
      "name": "totalAuctions",
      "outputs": [
        {
          "internalType": "uint256",
          "name": "",
          "type": "uint256"
        }
      ],
      "stateMutability": "view",
      "type": "function"
    }
  ],
  "bytecode": "0x60c03461019057601f61295b38819003918201601f19168301916001600160401b0383118484101761019457808492604094855283398101031261019057610052602061004b836101a8565b92016101a8565b90600180555f600a555f600d555f600e555f600f555f60115560018060a01b031690811561014b576001600160a01b03169081156101065760805260a052610099336101bc565b506100a333610232565b50604051337fc36befb96151814c16fe0d20f29a5912794cda96453e57ab00edad0bb21d50fa5f80a261263590816102c682396080518181816106c6015261108f015260a05181818161034901528181610714015281816118c40152611be40152f35b60405162461bcd60e51b815260206004820152601d60248201527f437573746f6469616e20616464726573732063616e6e6f7420626520300000006044820152606490fd5b60405162461bcd60e51b815260206004820152601f60248201527f537461626c65546f6b656e20616464726573732063616e6e6f742062652030006044820152606490fd5b5f80fd5b634e487b7160e01b5f52604160045260245ffd5b51906001600160a01b038216820361019057565b6001600160a01b0381165f9081525f51602061293b5f395f51905f52602052604090205460ff1661022d576001600160a01b03165f8181525f51602061293b5f395f51905f5260205260408120805460ff191660011790553391905f5160206128fb5f395f51905f528180a4600190565b505f90565b6001600160a01b0381165f9081525f51602061291b5f395f51905f52602052604090205460ff1661022d576001600160a01b03165f8181525f51602061291b5f395f51905f5260205260408120805460ff191660011790553391907fa49807205ce4d355092ef5a8a18f56e8913cf4a201fbe287825b095693c21775905f5160206128fb5f395f51905f529080a460019056fe6080806040526004361015610012575f80fd5b5f905f3560e01c90816301ffc9a714611d8f575080630817544e14611d2a57806316002f4a14611d0d57806316efd94114611cf05780631ef3a04c14611cc8578063248a9ca314611c965780632f2ff15d14611c5957806336568abe14611c13578063375b74c314611bcf5780633ff8053514611bb25780634044b1c4146117ff5780634ca3f16914611798578063568f02f814611750578063571a26a0146116bc57806360ebfee6146116a0578063723507be146114b557806372e2867d1461025657806375b238fc1461148d578063774237fc146114655780637765c52c1461136f5780638b95e335146113465780638ba796af1461127857806391d148541461122f57806396b5a755146111765780639a19c7b0146110da578063a217fddf146110be578063a9d75b2b14611079578063acc06cdd1461104a578063af36053d14611027578063b3d44dd814611009578063c634b78e14610f6d578063ca446dd914610deb578063cba6365114610641578063cff3938114610274578063d4873ed814610256578063d547741f1461020f578063eb82a7de146101f15763f9143287146101c0575f80fd5b346101ee5760203660031901126101ee5760ff60406020926004358152600b84522054166040519015158152f35b80fd5b50346101ee57806003193601126101ee576020600d54604051908152f35b50346101ee5760403660031901126101ee5761025260043561022f611df8565b9061024d610248825f525f602052600160405f20015490565b611fc7565b6122d4565b5080f35b50346101ee57806003193601126101ee576020600c54604051908152f35b50346101ee5760403660031901126101ee57600435610291611df8565b9061029a612354565b6102a8600260115410611e48565b808352601060205260018060a01b036003604085200154169080845260106020526001600160601b036005604086200154168185526010602052600660408620015483156105fc576102f9916123d9565b50156105ad57808452601060208181526040808720548488529290915280862060050180546bffffffffffffffffffffffff1916426001600160601b0316179055516350d5041d60e01b815290937f00000000000000000000000000000000000000000000000000000000000000006001600160a01b031690606083600481855afa80156105a2578793889161056b575b5061039f908415159081610563575b50611f08565b866103ac60045485612392565b92858252601060205283600660408420015560085494600754958396811580159061055a575b6104f7575b50506104219087845260106020526104086001604086200154610402836103fd8b61252b565b612374565b90611f66565b888552601060205260016040862001556103fd8761252b565b90803b156104f357604051631289c44760e01b81526001600160a01b0385166004820152602481019290925282908290604490829084905af180156104e8576104cf575b50849052601060209081526040808920600401548151988952918801939093526001600160a01b039586169287019290925260608601929092529216927f89c34766cb09fcf955bdfcca8541c2f4ecea66393f9c2df77e83871b37c6964890608090a46001805580f35b816104d991611eae565b6104e457865f610465565b8680fd5b6040513d84823e3d90fd5b8280fd5b90918097506103fd8b61050f8360095493849361252b565b1061054d579161052e6105286105339361053995612392565b8d611f4c565b612392565b82611f59565b9081106104f35761042190955b905f6103d7565b5050506104219095610546565b508015156103d2565b90505f610399565b61039f9450610592915060603d60601161059b575b61058a8183611eae565b810190611ee4565b9194905061038a565b503d610580565b6040513d89823e3d90fd5b60405162461bcd60e51b815260206004820152602160248201527f41756374696f6e206973206e6f7420726561647920746f2062652072657365746044820152602160f81b6064820152608490fd5b60405162461bcd60e51b815260206004820152601760248201527f496e76616c6964204f726967696e616c204f776e6572210000000000000000006044820152606490fd5b50346101ee5760a03660031901126101ee576044356004356064356024356001600160a01b038216808303610de75760843567ffffffffffffffff81116104e457366023820112156104e45780600401359167ffffffffffffffff8311610a2b573660248484010111610a2b576106b6612354565b6106c4600360115410611e48565b7f00000000000000000000000000000000000000000000000000000000000000006001600160a01b0316948515610da2576106ff8886612392565b604051636eb1769f60e11b81523360048201527f00000000000000000000000000000000000000000000000000000000000000006001600160a01b03166024820181905297602090829060449082905afa908115610d97578b91610d61575b5010610cd957868952601060205260408920600301546001600160a01b0316968715610ca057808a5260106020526107b66001600160601b03600560408d20015416828c526010602052600660408d200154906123d9565b9990610c5b578911610c065760095498898710610b9c578a99828b52601060205260408b2054976107e78382612392565b9189831115610aed575050508698610802826103fd8a61252b565b975b61080e8b82611f4c565b908111610ae95785847f726ddd00c7ad28bf97819f6b8a19b926d98dc6ab3c3ac08e14fb122f1f82305960608f9686958489526010602052604089205583885260106020528d610866600260408b2001918254611f59565b905583885260106020528d60408920549060405192835260208301526040820152a48282526010602052604082205415610a2f575b505050853b15610a2b5760405163dfc9afe360e01b81526001600160a01b03919091166004820152602481018590528781604481838a5af1908115610a20578891610a0b575b5050600254831515906001600160a01b031681610a00575b816109f5575b50610964575b50505050803b156109605760405163ab4fb0a360e01b8152336004820152602481019290925282908290604490829084905af180156104e85761094b575b506001805580f35b8161095591611eae565b6101ee57805f610943565b5050fd5b803b156104e4576024938760a488868397604051998a9889978895634229608760e11b87523360048801528387015260448601526080606486015282608486015201848401378181018301849052601f01601f191681010301925af19081156109ea5784916109d5575b8080610905565b816109df91611eae565b61096057825f6109ce565b6040513d86823e3d90fd5b90508114155f6108ff565b8287141591506108f9565b81610a1591611eae565b6104e457865f6108e1565b6040513d8a823e3d90fd5b8780fd5b60018060a01b036002541683835260106020526004604084200154908484526010602052600160406002818720015495878152601060205220015492813b15610ae5578d6084928195604051978896879563a0d9cc7360e01b875260048701526024860152604485015260648401525af1908115610ada578a91610ac1575b5050610ab99061249d565b5f888161089b565b81610acb91611eae565b610ad657885f610aae565b8880fd5b6040513d8c823e3d90fd5b8d80fd5b8b80fd5b90989b50610afe828d9c939c611f4c565b8c8111610ae557836103fd610b129261252b565b1115610b1f578b9a610804565b60405162461bcd60e51b815260206004820152604960248201527f526573696475616c2076616c75652061726520746f6f20736d616c6c2c20706c60448201527f6561736520696e63726561736520746865206d6178696d756d207075726368616064820152681cd948185b5bdd5b9d60ba1b608482015260a490fd5b608460405162461bcd60e51b815260206004820152604060248201527f5075636861736520616d6f756e742073686f756c64206265206e6f206c65737360448201527f207468616e20746865206d696e696d756d207075726368617365206c696d69746064820152fd5b60405162461bcd60e51b815260206004820152602760248201527f43757272656e742070726963652069732061626f76652061636365707461626c6044820152666520707269636560c81b6064820152608490fd5b60405162461bcd60e51b815260206004820152601960248201527f41756374696f6e206e6565647320746f206265207265736574000000000000006044820152606490fd5b60405162461bcd60e51b815260206004820152601160248201527041756374696f6e206e6f7420726561647960781b6044820152606490fd5b60405162461bcd60e51b815260206004820152605460248201527f496e73756666696369656e7420617070726f76616c2e20506c6561736520617060448201527f70726f766520437573746f6469616e20636f6e747261637420746f207370656e6064820152736420796f757220737461626c6520746f6b656e7360601b608482015260a490fd5b90506020813d602011610d8f575b81610d7c60209383611eae565b81010312610d8b57515f61075e565b5f80fd5b3d9150610d6f565b6040513d8d823e3d90fd5b60405162461bcd60e51b815260206004820152601e60248201527f737461626c65546f6b656e2061646472657373206973206e6f742073657400006044820152606490fd5b8580fd5b50346101ee5760403660031901126101ee57600435610e08611df8565b610e10611f7e565b610e18612354565b713634b8bab4b230ba34b7b726b0b730b3b2b960711b8203610ed157600280546001600160a01b0319166001600160a01b0383169081179091557fce9745511e6b32283e684acf17f26ee2c5d221bf65c95e61c3d6fcfa446462d091602091610e7f611f7e565b610e8a610248611e0e565b610e9382611fff565b507f0fcfc8d72d308a68b4d24573172c3fc2a526bc8ffd9bcc7f099778ff8c4fd9c38680a25b6040516001600160a01b039091168152a26001805580f35b6e383934b1b2a1b0b631bab630ba37b960891b8203610f2f57600380546001600160a01b0319166001600160a01b0383161790557fce9745511e6b32283e684acf17f26ee2c5d221bf65c95e61c3d6fcfa446462d090602090610eb9565b60405162461bcd60e51b81526020600482015260166024820152752ab73932b1b7b3b734bd32b2103830b930b6b2ba32b960511b6044820152606490fd5b50346101ee5760203660031901126101ee57610f87611de2565b610f8f611f7e565b5f5160206125e05f395f51905f525f9081526020527f7d7ffb7a348e1c6a02869081a26547b49160dd3df72d1d75a570eb9b698292ed54610fcf90611fc7565b610fd881612097565b506001600160a01b03167fc36befb96151814c16fe0d20f29a5912794cda96453e57ab00edad0bb21d50fa8280a280f35b50346101ee57806003193601126101ee576020600e54604051908152f35b50346101ee57806003193601126101ee576020604051670de0b6b3a76400008152f35b50346101ee5760203660031901126101ee5760ff60406020926004358152600b84522054166040519015158152f35b50346101ee57806003193601126101ee576040517f00000000000000000000000000000000000000000000000000000000000000006001600160a01b03168152602090f35b50346101ee57806003193601126101ee57602090604051908152f35b50346101ee5760203660031901126101ee576110f4611de2565b6110fc611f7e565b5f5160206125e05f395f51905f525f9081526020527f7d7ffb7a348e1c6a02869081a26547b49160dd3df72d1d75a570eb9b698292ed5461113c90611fc7565b61114581612243565b506001600160a01b03167f998b1c8c2c4e47baeddde4d4152dfae31548fb5e6aa5fc2026808fa365a30e7c8280a280f35b50346101ee5760203660031901126101ee57600435611193611f7e565b61119b612354565b808252601060205260408220600301546001600160a01b0316156111f4576020816111e67f2809c7e17bf978fbc7194c0a694b638c4215e9140cacc6c38ca36010b45697df9361249d565b604051908152a16001805580f35b60405162461bcd60e51b8152602060048201526013602482015272105d58dd1a5bdb881b9bdd081cdd185c9d1959606a1b6044820152606490fd5b50346101ee5760403660031901126101ee57604061124b611df8565b91600435815280602052209060018060a01b03165f52602052602060ff60405f2054166040519015158152f35b50346101ee576101003660031901126101ee57611293611de2565b61129b611df8565b906112a4611f7e565b600280546001600160a01b0319166001600160a01b038316908117909155906112df906112cf611f7e565b6112da610248611e0e565b611fff565b507f0fcfc8d72d308a68b4d24573172c3fc2a526bc8ffd9bcc7f099778ff8c4fd9c38380a260018060a01b03166001600160601b0360a01b600354161760035560443560045560643560055560843560065560a43560075560c43560085560e43560095580f35b50346101ee57806003193601126101ee576003546040516001600160a01b039091168152602090f35b50346101ee5760203660031901126101ee5760043590818152600b60205260ff6040822054161561142057816060928252601060205260018060a01b036003604084200154169181815260106020526113e86001600160601b0360056040842001541683835260106020526006604084200154906123d9565b92909315159384611417575b509060409181526010602052205490604051921515835260208301526040820152f35b935060406113f4565b60405162461bcd60e51b815260206004820152601a60248201527f546865206163756374696f6e206973206e6f74206163746976650000000000006044820152606490fd5b50346101ee57806003193601126101ee5760206040515f5160206125605f395f51905f528152f35b50346101ee57806003193601126101ee5760206040515f5160206125e05f395f51905f528152f35b50346101ee5760403660031901126101ee576004356024356114d5611f7e565b6114dd612354565b6e383934b1b2a6bab63a34b83634b2b960891b820361151a576020815f5160206125a05f395f51905f52926004555b604051908152a26001805580f35b68726573657454696d6560b81b82036115a157600581905560035483906001600160a01b0316803b1561159d57818091602460405180948193630eb55e3760e11b83528860048401525af180156104e857611588575b505060205f5160206125a05f395f51905f529161150c565b8161159291611eae565b6104f357825f611570565b5080fd5b6f1b5a5b905d58dd1a5bdb905b5bdd5b9d60821b82036115d5576020815f5160206125a05f395f51905f529260095561150c565b711c1c9a58d9511c9bdc151a1c995cda1bdb1960721b820361160b576020815f5160206125a05f395f51905f529260065561150c565b6f1c195c98d95b9d1859d954995dd85c9960821b820361163f576020815f5160206125a05f395f51905f529260075561150c565b6a199a5e195914995dd85c9960aa1b820361166e576020815f5160206125a05f395f51905f529260085561150c565b6d31b4b931bab4ba213932b0b5b2b960911b8203610f2f576020815f5160206125a05f395f51905f529260115561150c565b50346101ee57806003193601126101ee57602060405160128152f35b50346101ee5760203660031901126101ee576040610120916004358152601060205220805490600181015490600281015460018060a01b0360038301541660048301546001600160601b03600585015416916006850154936008600787015496015496604051988952602089015260408801526060870152608086015260a085015260c084015260e0830152610100820152f35b50346101ee57806003193601126101ee5760c06004546005546006546007546008549160095493604051958652602086015260408501526060840152608083015260a0820152f35b50346101ee5760203660031901126101ee576117b2611de2565b6117ba611f7e565b6117c5610248611e0e565b6117ce816121b2565b506001600160a01b03167f3d8ac96952c09594f2bd46a75dd349e4c54685eddbc360a657262e17646b36df8280a280f35b5034610d8b5760c0366003190112610d8b576044356001600160a01b0381169190600435838203610d8b5760a435936001600160a01b03851692606435929190848703610d8b57335f9081525f5160206125c05f395f51905f52602052604090205460ff1615611b8e57611871612354565b61187f600160115410611e48565b61188a600a54611e8c565b9586600a55865f52600b60205260405f20600160ff198254161790556118b1600c54611e8c565b600c556040516350d5041d60e01b8152977f00000000000000000000000000000000000000000000000000000000000000006001600160a01b031660608a600481845afa8015611b04575f9a5f91611b67575b50611918908b151590816105635750611f08565b6119246004548b612392565b9960085495600754965f978115801590611b5e575b611b0f575b50505f8b8152601060205260409020600681018d905588905561197f611972836103fd61196d6024358d611f59565b61252b565b610402846103fd8b61252b565b5f8c8152601060205260408120600181019290925560028201556003810180546001600160a01b0319169092179091556004810189905560050180546bffffffffffffffffffffffff1916426001600160601b03161790556119e6816103fd60843561252b565b823b15610d8b576040516318d8f97960e01b81526001600160a01b038716600482015260248101919091525f8160448183875af18015611b0457611aed575b50611a33906103fd8761252b565b91813b15611ae957604051631289c44760e01b81526001600160a01b03919091166004820152602481019290925282908290604490829084905af180156104e857611ad4575b5050604080519384526020808501989098526001600160a01b039190911690830152606082015283907fe594fc5b5d00c48225dd94860ef4354b2728868f56ac3268f4e509052528229690608090a460018055604051908152f35b611adf828092611eae565b6101ee5780611a79565b8380fd5b611afa9194505f90611eae565b5f92611a33611a25565b6040513d5f823e3d90fd5b6009549298509091839181611b27846103fd8e61252b565b10611b555761052e611b3f611b459461053394612392565b8c611f4c565b908110610d8b57955b5f8061193e565b50505095611b4e565b50801515611939565b6119189b50611b85915060603d60601161059b5761058a8183611eae565b919b9050611904565b63e2517d3f60e01b5f52336004525f5160206125605f395f51905f5260245260445ffd5b34610d8b575f366003190112610d8b576020600f54604051908152f35b34610d8b575f366003190112610d8b576040517f00000000000000000000000000000000000000000000000000000000000000006001600160a01b03168152602090f35b34610d8b576040366003190112610d8b57611c2c611df8565b336001600160a01b03821603611c4a57611c48906004356122d4565b005b63334bd91960e11b5f5260045ffd5b34610d8b576040366003190112610d8b57611c48600435611c78611df8565b90611c91610248825f525f602052600160405f20015490565b61212a565b34610d8b576020366003190112610d8b576020611cc06004355f525f602052600160405f20015490565b604051908152f35b34610d8b575f366003190112610d8b576002546040516001600160a01b039091168152602090f35b34610d8b575f366003190112610d8b576020601154604051908152f35b34610d8b575f366003190112610d8b576020600a54604051908152f35b34610d8b576020366003190112610d8b57611d43611de2565b611d4b611f7e565b611d56610248611e0e565b611d5f81611fff565b506001600160a01b03167f0fcfc8d72d308a68b4d24573172c3fc2a526bc8ffd9bcc7f099778ff8c4fd9c35f80a2005b34610d8b576020366003190112610d8b576004359063ffffffff60e01b8216809203610d8b57602091637965db0b60e01b8114908115611dd1575b5015158152f35b6301ffc9a760e01b14905083611dca565b600435906001600160a01b0382168203610d8b57565b602435906001600160a01b0382168203610d8b57565b5f5160206125605f395f51905f525f9081526020527ff11ed99ef1eb7fdaaafd786162d5e36830f2a0e1abc5d101d5a5d2cde3da8bb25490565b15611e4f57565b60405162461bcd60e51b815260206004820152601560248201527443697263756974427265616b6572206572726f722160581b6044820152606490fd5b5f198114611e9a5760010190565b634e487b7160e01b5f52601160045260245ffd5b90601f8019910116810190811067ffffffffffffffff821117611ed057604052565b634e487b7160e01b5f52604160045260245ffd5b90816060910312610d8b57805191604060208301519201518015158103610d8b5790565b15611f0f57565b60405162461bcd60e51b8152602060048201526015602482015274496e76616c6964206f7261636c652070726963652160581b6044820152606490fd5b91908203918211611e9a57565b91908201809211611e9a57565b81810392915f138015828513169184121617611e9a57565b335f9081525f5160206125805f395f51905f52602052604090205460ff1615611fa357565b63e2517d3f60e01b5f52336004525f5160206125e05f395f51905f5260245260445ffd5b5f8181526020818152604080832033845290915290205460ff1615611fe95750565b63e2517d3f60e01b5f523360045260245260445ffd5b6001600160a01b0381165f9081525f5160206125c05f395f51905f52602052604090205460ff16612092576001600160a01b03165f8181525f5160206125c05f395f51905f5260205260408120805460ff191660011790553391905f5160206125605f395f51905f52907f2f8788117e7eff1d82e926ec794901d17c78024a50270940304540a733656f0d9080a4600190565b505f90565b6001600160a01b0381165f9081525f5160206125805f395f51905f52602052604090205460ff16612092576001600160a01b03165f8181525f5160206125805f395f51905f5260205260408120805460ff191660011790553391905f5160206125e05f395f51905f52907f2f8788117e7eff1d82e926ec794901d17c78024a50270940304540a733656f0d9080a4600190565b5f818152602081815260408083206001600160a01b038616845290915290205460ff166121ac575f818152602081815260408083206001600160a01b0395909516808452949091528120805460ff19166001179055339291907f2f8788117e7eff1d82e926ec794901d17c78024a50270940304540a733656f0d9080a4600190565b50505f90565b6001600160a01b0381165f9081525f5160206125c05f395f51905f52602052604090205460ff1615612092576001600160a01b03165f8181525f5160206125c05f395f51905f5260205260408120805460ff191690553391905f5160206125605f395f51905f52907ff6391f5c32d9c69d2a47ea670b442974b53935d1edc7fd64eb21e047a839171b9080a4600190565b6001600160a01b0381165f9081525f5160206125805f395f51905f52602052604090205460ff1615612092576001600160a01b03165f8181525f5160206125805f395f51905f5260205260408120805460ff191690553391905f5160206125e05f395f51905f52907ff6391f5c32d9c69d2a47ea670b442974b53935d1edc7fd64eb21e047a839171b9080a4600190565b5f818152602081815260408083206001600160a01b038616845290915290205460ff16156121ac575f818152602081815260408083206001600160a01b0395909516808452949091528120805460ff19169055339291907ff6391f5c32d9c69d2a47ea670b442974b53935d1edc7fd64eb21e047a839171b9080a4600190565b600260015414612365576002600155565b633ee5aeb560e01b5f5260045ffd5b811561237e570490565b634e487b7160e01b5f52601260045260245ffd5b5f9180159182156123b3575b505015610d8b57670de0b6b3a7640000900490565b80820293509150811582840482141715611e9a576123d19083612374565b145f8061239e565b6001600160601b0360018060a01b03600354169116916123f98342611f4c565b428111610d8b5760209060446040518095819363487a239560e01b835286600484015260248301525afa918215611b04575f92612469575b5061243d829342611f4c565b428111610d8b576005541091821561245457505091565b61246292506103fd9061252b565b6006541191565b9091506020813d602011612495575b8161248560209383611eae565b81010312610d8b5751905f612431565b3d9150612478565b805f52600b60205260405f2060ff198154169055600c548015611e9a577f25cbe9f0164be4cf740d90169f6bd80426fa677319b2179cec6fc154733b3bce916020915f1901600c55805f52601082525f6008604082208281558260018201558260028201558260038201558260048201558260058201558260068201558260078201550155604051908152a1565b90670de0b6b3a7640000820291808304670de0b6b3a76400001481151715611e9a57670de0b6b3a7640000830403610d8b5756fe843c3a00fa95510a35f425371231fd3fe4642e719cb4595160763d6d02594b507d7ffb7a348e1c6a02869081a26547b49160dd3df72d1d75a570eb9b698292ec9b900726daef362ccb7ef4037118922e973973109c4d10b5c19277bddd59e048f11ed99ef1eb7fdaaafd786162d5e36830f2a0e1abc5d101d5a5d2cde3da8bb1a49807205ce4d355092ef5a8a18f56e8913cf4a201fbe287825b095693c21775a2646970667358221220161e35c2ffdc665d2a47589f7babd4fe6d738151109f9b2cde52d332bb6b4a4964736f6c634300081c00332f8788117e7eff1d82e926ec794901d17c78024a50270940304540a733656f0d7d7ffb7a348e1c6a02869081a26547b49160dd3df72d1d75a570eb9b698292ecad3228b676f7d3cd4284a5443f17f1962b36e491b30a40b2405849e597ba5fb5",
  "linkReferences": {},
  "deployedLinkReferences": {},
  "immutableReferences": {
    "12672": [
      {
        "length": 32,
        "start": 1734
      },
      {
        "length": 32,
        "start": 4239
      }
    ],
    "12675": [
      {
        "length": 32,
        "start": 841
      },
      {
        "length": 32,
        "start": 1812
      },
      {
        "length": 32,
        "start": 6340
      },
      {
        "length": 32,
        "start": 7140
      }
    ]
  },
  "inputSourceName": "project/contracts/auctions/AuctionManager.sol",
  "buildInfoId": "solc-0_8_28-52ffd542b654ae7ca75e2f683cc6896a21df351a"
}