{
  "_format": "hh3-artifact-1",
  "contractName": "AuctionManager",
  "sourceName": "contracts/auctions/AuctionManager.sol",
  "abi": [
    {
      "inputs": [
        {
          "internalType": "address",
          "name": "stableToken_",
          "type": "address"
        },
        {
          "internalType": "address",
          "name": "custodian_",
          "type": "address"
        }
      ],
      "stateMutability": "nonpayable",
      "type": "constructor"
    },
    {
      "inputs": [],
      "name": "AccessControlBadConfirmation",
      "type": "error"
    },
    {
      "inputs": [
        {
          "internalType": "address",
          "name": "account",
          "type": "address"
        },
        {
          "internalType": "bytes32",
          "name": "neededRole",
          "type": "bytes32"
        }
      ],
      "name": "AccessControlUnauthorizedAccount",
      "type": "error"
    },
    {
      "inputs": [],
      "name": "ReentrancyGuardReentrantCall",
      "type": "error"
    },
    {
      "anonymous": false,
      "inputs": [
        {
          "indexed": true,
          "internalType": "bytes32",
          "name": "parameter",
          "type": "bytes32"
        },
        {
          "indexed": false,
          "internalType": "address",
          "name": "addr",
          "type": "address"
        }
      ],
      "name": "AddressChanged",
      "type": "event"
    },
    {
      "anonymous": false,
      "inputs": [
        {
          "indexed": true,
          "internalType": "address",
          "name": "user",
          "type": "address"
        }
      ],
      "name": "AdminAccessGranted",
      "type": "event"
    },
    {
      "anonymous": false,
      "inputs": [
        {
          "indexed": true,
          "internalType": "address",
          "name": "user",
          "type": "address"
        }
      ],
      "name": "AdminAccessRevoked",
      "type": "event"
    },
    {
      "anonymous": false,
      "inputs": [
        {
          "indexed": false,
          "internalType": "uint256",
          "name": "auctionId",
          "type": "uint256"
        }
      ],
      "name": "AuctionCancelled",
      "type": "event"
    },
    {
      "anonymous": false,
      "inputs": [
        {
          "indexed": false,
          "internalType": "uint256",
          "name": "auctionId",
          "type": "uint256"
        }
      ],
      "name": "AuctionRemoved",
      "type": "event"
    },
    {
      "anonymous": false,
      "inputs": [
        {
          "indexed": true,
          "internalType": "uint256",
          "name": "auctionId",
          "type": "uint256"
        },
        {
          "indexed": false,
          "internalType": "uint256",
          "name": "newStartingPrice",
          "type": "uint256"
        },
        {
          "indexed": false,
          "internalType": "uint256",
          "name": "underlyingAmount",
          "type": "uint256"
        },
        {
          "indexed": false,
          "internalType": "address",
          "name": "originalOwner",
          "type": "address"
        },
        {
          "indexed": true,
          "internalType": "uint256",
          "name": "tokenId",
          "type": "uint256"
        },
        {
          "indexed": true,
          "internalType": "address",
          "name": "triggerer",
          "type": "address"
        },
        {
          "indexed": false,
          "internalType": "uint256",
          "name": "rewardAmount",
          "type": "uint256"
        }
      ],
      "name": "AuctionReset",
      "type": "event"
    },
    {
      "anonymous": false,
      "inputs": [
        {
          "indexed": true,
          "internalType": "uint256",
          "name": "auctionId",
          "type": "uint256"
        },
        {
          "indexed": false,
          "internalType": "uint256",
          "name": "startingPrice",
          "type": "uint256"
        },
        {
          "indexed": false,
          "internalType": "uint256",
          "name": "underlyinglAmount",
          "type": "uint256"
        },
        {
          "indexed": false,
          "internalType": "address",
          "name": "originalOwner",
          "type": "address"
        },
        {
          "indexed": true,
          "internalType": "uint256",
          "name": "tokenId",
          "type": "uint256"
        },
        {
          "indexed": true,
          "internalType": "address",
          "name": "triggerer",
          "type": "address"
        },
        {
          "indexed": false,
          "internalType": "uint256",
          "name": "rewardAmount",
          "type": "uint256"
        }
      ],
      "name": "AuctionStarted",
      "type": "event"
    },
    {
      "anonymous": false,
      "inputs": [
        {
          "indexed": true,
          "internalType": "address",
          "name": "user",
          "type": "address"
        }
      ],
      "name": "CallerAccessGranted",
      "type": "event"
    },
    {
      "anonymous": false,
      "inputs": [
        {
          "indexed": true,
          "internalType": "address",
          "name": "user",
          "type": "address"
        }
      ],
      "name": "CallerAccessRevoked",
      "type": "event"
    },
    {
      "anonymous": false,
      "inputs": [
        {
          "indexed": true,
          "internalType": "bytes32",
          "name": "parameter",
          "type": "bytes32"
        },
        {
          "indexed": false,
          "internalType": "uint256",
          "name": "value",
          "type": "uint256"
        }
      ],
      "name": "ParameterChanged",
      "type": "event"
    },
    {
      "anonymous": false,
      "inputs": [
        {
          "indexed": true,
          "internalType": "uint256",
          "name": "auctionId",
          "type": "uint256"
        },
        {
          "indexed": false,
          "internalType": "uint256",
          "name": "maxAcceptablePrice",
          "type": "uint256"
        },
        {
          "indexed": false,
          "internalType": "uint256",
          "name": "currentPrice",
          "type": "uint256"
        },
        {
          "indexed": false,
          "internalType": "uint256",
          "name": "paymentAmount",
          "type": "uint256"
        },
        {
          "indexed": false,
          "internalType": "uint256",
          "name": "remainingunderlying",
          "type": "uint256"
        },
        {
          "indexed": true,
          "internalType": "address",
          "name": "kpr",
          "type": "address"
        },
        {
          "indexed": true,
          "internalType": "address",
          "name": "originalOwner",
          "type": "address"
        }
      ],
      "name": "PurchaseMade",
      "type": "event"
    },
    {
      "anonymous": false,
      "inputs": [],
      "name": "ResetAccounting",
      "type": "event"
    },
    {
      "anonymous": false,
      "inputs": [
        {
          "indexed": true,
          "internalType": "bytes32",
          "name": "role",
          "type": "bytes32"
        },
        {
          "indexed": true,
          "internalType": "bytes32",
          "name": "previousAdminRole",
          "type": "bytes32"
        },
        {
          "indexed": true,
          "internalType": "bytes32",
          "name": "newAdminRole",
          "type": "bytes32"
        }
      ],
      "name": "RoleAdminChanged",
      "type": "event"
    },
    {
      "anonymous": false,
      "inputs": [
        {
          "indexed": true,
          "internalType": "bytes32",
          "name": "role",
          "type": "bytes32"
        },
        {
          "indexed": true,
          "internalType": "address",
          "name": "account",
          "type": "address"
        },
        {
          "indexed": true,
          "internalType": "address",
          "name": "sender",
          "type": "address"
        }
      ],
      "name": "RoleGranted",
      "type": "event"
    },
    {
      "anonymous": false,
      "inputs": [
        {
          "indexed": true,
          "internalType": "bytes32",
          "name": "role",
          "type": "bytes32"
        },
        {
          "indexed": true,
          "internalType": "address",
          "name": "account",
          "type": "address"
        },
        {
          "indexed": true,
          "internalType": "address",
          "name": "sender",
          "type": "address"
        }
      ],
      "name": "RoleRevoked",
      "type": "event"
    },
    {
      "inputs": [],
      "name": "ADMIN_ROLE",
      "outputs": [
        {
          "internalType": "bytes32",
          "name": "",
          "type": "bytes32"
        }
      ],
      "stateMutability": "view",
      "type": "function"
    },
    {
      "inputs": [],
      "name": "CALLER_ROLE",
      "outputs": [
        {
          "internalType": "bytes32",
          "name": "",
          "type": "bytes32"
        }
      ],
      "stateMutability": "view",
      "type": "function"
    },
    {
      "inputs": [],
      "name": "DEFAULT_ADMIN_ROLE",
      "outputs": [
        {
          "internalType": "bytes32",
          "name": "",
          "type": "bytes32"
        }
      ],
      "stateMutability": "view",
      "type": "function"
    },
    {
      "inputs": [],
      "name": "PRECISION_DECIMALS",
      "outputs": [
        {
          "internalType": "uint8",
          "name": "",
          "type": "uint8"
        }
      ],
      "stateMutability": "view",
      "type": "function"
    },
    {
      "inputs": [],
      "name": "PRECISION_UNIT",
      "outputs": [
        {
          "internalType": "uint256",
          "name": "",
          "type": "uint256"
        }
      ],
      "stateMutability": "view",
      "type": "function"
    },
    {
      "inputs": [],
      "name": "accumulatedReceivedInAuction",
      "outputs": [
        {
          "internalType": "uint256",
          "name": "",
          "type": "uint256"
        }
      ],
      "stateMutability": "view",
      "type": "function"
    },
    {
      "inputs": [],
      "name": "accumulatedRewardInStable",
      "outputs": [
        {
          "internalType": "uint256",
          "name": "",
          "type": "uint256"
        }
      ],
      "stateMutability": "view",
      "type": "function"
    },
    {
      "inputs": [],
      "name": "accumulatedUnderlyingSoldInAuction",
      "outputs": [
        {
          "internalType": "uint256",
          "name": "",
          "type": "uint256"
        }
      ],
      "stateMutability": "view",
      "type": "function"
    },
    {
      "inputs": [],
      "name": "activeAuctionCount",
      "outputs": [
        {
          "internalType": "uint256",
          "name": "",
          "type": "uint256"
        }
      ],
      "stateMutability": "view",
      "type": "function"
    },
    {
      "inputs": [
        {
          "internalType": "uint256",
          "name": "auctionId",
          "type": "uint256"
        }
      ],
      "name": "auctionIsActive",
      "outputs": [
        {
          "internalType": "bool",
          "name": "",
          "type": "bool"
        }
      ],
      "stateMutability": "view",
      "type": "function"
    },
    {
      "inputs": [],
      "name": "auctionParams",
      "outputs": [
        {
          "internalType": "uint256",
          "name": "priceMultiplier",
          "type": "uint256"
        },
        {
          "internalType": "uint256",
          "name": "resetTime",
          "type": "uint256"
        },
        {
          "internalType": "uint256",
          "name": "priceDropThreshold",
          "type": "uint256"
        },
        {
          "internalType": "uint256",
          "name": "percentageReward",
          "type": "uint256"
        },
        {
          "internalType": "uint256",
          "name": "fixedReward",
          "type": "uint256"
        },
        {
          "internalType": "uint256",
          "name": "minAuctionAmount",
          "type": "uint256"
        }
      ],
      "stateMutability": "view",
      "type": "function"
    },
    {
      "inputs": [
        {
          "internalType": "uint256",
          "name": "",
          "type": "uint256"
        }
      ],
      "name": "auctions",
      "outputs": [
        {
          "internalType": "uint256",
          "name": "arrayIndex",
          "type": "uint256"
        },
        {
          "internalType": "uint256",
          "name": "underlyingAmount",
          "type": "uint256"
        },
        {
          "internalType": "address",
          "name": "originalOwner",
          "type": "address"
        },
        {
          "internalType": "uint256",
          "name": "tokenId",
          "type": "uint256"
        },
        {
          "internalType": "uint96",
          "name": "startTime",
          "type": "uint96"
        },
        {
          "internalType": "uint256",
          "name": "startingPrice",
          "type": "uint256"
        },
        {
          "internalType": "uint256",
          "name": "currentPrice",
          "type": "uint256"
        },
        {
          "internalType": "uint256",
          "name": "totalPayment",
          "type": "uint256"
        }
      ],
      "stateMutability": "view",
      "type": "function"
    },
    {
      "inputs": [
        {
          "internalType": "uint256",
          "name": "auctionId",
          "type": "uint256"
        }
      ],
      "name": "cancelAuction",
      "outputs": [],
      "stateMutability": "nonpayable",
      "type": "function"
    },
    {
      "inputs": [],
      "name": "circuitBreaker",
      "outputs": [
        {
          "internalType": "uint256",
          "name": "",
          "type": "uint256"
        }
      ],
      "stateMutability": "view",
      "type": "function"
    },
    {
      "inputs": [],
      "name": "custodian",
      "outputs": [
        {
          "internalType": "contract CustodianFixed",
          "name": "",
          "type": "address"
        }
      ],
      "stateMutability": "view",
      "type": "function"
    },
    {
      "inputs": [],
      "name": "getActiveAuctionCount",
      "outputs": [
        {
          "internalType": "uint256",
          "name": "",
          "type": "uint256"
        }
      ],
      "stateMutability": "view",
      "type": "function"
    },
    {
      "inputs": [
        {
          "internalType": "uint256",
          "name": "auctionId",
          "type": "uint256"
        }
      ],
      "name": "getAuctionStatus",
      "outputs": [
        {
          "internalType": "bool",
          "name": "needsReset",
          "type": "bool"
        },
        {
          "internalType": "uint256",
          "name": "currentPrice",
          "type": "uint256"
        },
        {
          "internalType": "uint256",
          "name": "underlyingAmount",
          "type": "uint256"
        }
      ],
      "stateMutability": "view",
      "type": "function"
    },
    {
      "inputs": [
        {
          "internalType": "bytes32",
          "name": "role",
          "type": "bytes32"
        }
      ],
      "name": "getRoleAdmin",
      "outputs": [
        {
          "internalType": "bytes32",
          "name": "",
          "type": "bytes32"
        }
      ],
      "stateMutability": "view",
      "type": "function"
    },
    {
      "inputs": [
        {
          "internalType": "address",
          "name": "account",
          "type": "address"
        }
      ],
      "name": "grantAdminRole",
      "outputs": [],
      "stateMutability": "nonpayable",
      "type": "function"
    },
    {
      "inputs": [
        {
          "internalType": "address",
          "name": "account",
          "type": "address"
        }
      ],
      "name": "grantCallerRole",
      "outputs": [],
      "stateMutability": "nonpayable",
      "type": "function"
    },
    {
      "inputs": [
        {
          "internalType": "bytes32",
          "name": "role",
          "type": "bytes32"
        },
        {
          "internalType": "address",
          "name": "account",
          "type": "address"
        }
      ],
      "name": "grantRole",
      "outputs": [],
      "stateMutability": "nonpayable",
      "type": "function"
    },
    {
      "inputs": [
        {
          "internalType": "bytes32",
          "name": "role",
          "type": "bytes32"
        },
        {
          "internalType": "address",
          "name": "account",
          "type": "address"
        }
      ],
      "name": "hasRole",
      "outputs": [
        {
          "internalType": "bool",
          "name": "",
          "type": "bool"
        }
      ],
      "stateMutability": "view",
      "type": "function"
    },
    {
      "inputs": [
        {
          "internalType": "address",
          "name": "liquidationManager_",
          "type": "address"
        },
        {
          "internalType": "address",
          "name": "priceCalculator_",
          "type": "address"
        },
        {
          "internalType": "uint256",
          "name": "priceMultiplier_",
          "type": "uint256"
        },
        {
          "internalType": "uint256",
          "name": "resetTime_",
          "type": "uint256"
        },
        {
          "internalType": "uint256",
          "name": "priceDropThreshold_",
          "type": "uint256"
        },
        {
          "internalType": "uint256",
          "name": "percentageReward_",
          "type": "uint256"
        },
        {
          "internalType": "uint256",
          "name": "fixedReward_",
          "type": "uint256"
        },
        {
          "internalType": "uint256",
          "name": "minAuctionAmount_",
          "type": "uint256"
        }
      ],
      "name": "initialize",
      "outputs": [],
      "stateMutability": "nonpayable",
      "type": "function"
    },
    {
      "inputs": [
        {
          "internalType": "uint256",
          "name": "",
          "type": "uint256"
        }
      ],
      "name": "isActiveAuction",
      "outputs": [
        {
          "internalType": "bool",
          "name": "",
          "type": "bool"
        }
      ],
      "stateMutability": "view",
      "type": "function"
    },
    {
      "inputs": [],
      "name": "liquidationManager",
      "outputs": [
        {
          "internalType": "contract LiquidationManager",
          "name": "",
          "type": "address"
        }
      ],
      "stateMutability": "view",
      "type": "function"
    },
    {
      "inputs": [],
      "name": "priceCalculator",
      "outputs": [
        {
          "internalType": "contract IAbacus",
          "name": "",
          "type": "address"
        }
      ],
      "stateMutability": "view",
      "type": "function"
    },
    {
      "inputs": [
        {
          "internalType": "uint256",
          "name": "auctionId",
          "type": "uint256"
        },
        {
          "internalType": "uint256",
          "name": "maxPurchaseAmount",
          "type": "uint256"
        },
        {
          "internalType": "uint256",
          "name": "maxAcceptablePrice",
          "type": "uint256"
        },
        {
          "internalType": "address",
          "name": "receiver",
          "type": "address"
        },
        {
          "internalType": "bytes",
          "name": "callData",
          "type": "bytes"
        }
      ],
      "name": "purchaseUnderlying",
      "outputs": [],
      "stateMutability": "nonpayable",
      "type": "function"
    },
    {
      "inputs": [
        {
          "internalType": "bytes32",
          "name": "role",
          "type": "bytes32"
        },
        {
          "internalType": "address",
          "name": "callerConfirmation",
          "type": "address"
        }
      ],
      "name": "renounceRole",
      "outputs": [],
      "stateMutability": "nonpayable",
      "type": "function"
    },
    {
      "inputs": [
        {
          "internalType": "uint256",
          "name": "auctionId",
          "type": "uint256"
        },
        {
          "internalType": "address",
          "name": "triggerer",
          "type": "address"
        }
      ],
      "name": "resetAuction",
      "outputs": [],
      "stateMutability": "nonpayable",
      "type": "function"
    },
    {
      "inputs": [
        {
          "internalType": "address",
          "name": "account",
          "type": "address"
        }
      ],
      "name": "revokeAdminRole",
      "outputs": [],
      "stateMutability": "nonpayable",
      "type": "function"
    },
    {
      "inputs": [
        {
          "internalType": "address",
          "name": "account",
          "type": "address"
        }
      ],
      "name": "revokeCallerRole",
      "outputs": [],
      "stateMutability": "nonpayable",
      "type": "function"
    },
    {
      "inputs": [
        {
          "internalType": "bytes32",
          "name": "role",
          "type": "bytes32"
        },
        {
          "internalType": "address",
          "name": "account",
          "type": "address"
        }
      ],
      "name": "revokeRole",
      "outputs": [],
      "stateMutability": "nonpayable",
      "type": "function"
    },
    {
      "inputs": [
        {
          "internalType": "bytes32",
          "name": "parameter",
          "type": "bytes32"
        },
        {
          "internalType": "address",
          "name": "addr",
          "type": "address"
        }
      ],
      "name": "setAddress",
      "outputs": [],
      "stateMutability": "nonpayable",
      "type": "function"
    },
    {
      "inputs": [
        {
          "internalType": "bytes32",
          "name": "parameter",
          "type": "bytes32"
        },
        {
          "internalType": "uint256",
          "name": "value",
          "type": "uint256"
        }
      ],
      "name": "setParameter",
      "outputs": [],
      "stateMutability": "nonpayable",
      "type": "function"
    },
    {
      "inputs": [],
      "name": "stableToken",
      "outputs": [
        {
          "internalType": "contract StableToken",
          "name": "",
          "type": "address"
        }
      ],
      "stateMutability": "view",
      "type": "function"
    },
    {
      "inputs": [
        {
          "internalType": "uint256",
          "name": "underlyingAmount",
          "type": "uint256"
        },
        {
          "internalType": "address",
          "name": "originalOwner",
          "type": "address"
        },
        {
          "internalType": "uint256",
          "name": "tokenId",
          "type": "uint256"
        },
        {
          "internalType": "address",
          "name": "triggerer",
          "type": "address"
        }
      ],
      "name": "startAuction",
      "outputs": [
        {
          "internalType": "uint256",
          "name": "auctionId",
          "type": "uint256"
        }
      ],
      "stateMutability": "nonpayable",
      "type": "function"
    },
    {
      "inputs": [
        {
          "internalType": "bytes4",
          "name": "interfaceId",
          "type": "bytes4"
        }
      ],
      "name": "supportsInterface",
      "outputs": [
        {
          "internalType": "bool",
          "name": "",
          "type": "bool"
        }
      ],
      "stateMutability": "view",
      "type": "function"
    },
    {
      "inputs": [],
      "name": "totalAuctions",
      "outputs": [
        {
          "internalType": "uint256",
          "name": "",
          "type": "uint256"
        }
      ],
      "stateMutability": "view",
      "type": "function"
    }
  ],
  "bytecode": "0x60c03461019057601f61298438819003918201601f19168301916001600160401b0383118484101761019457808492604094855283398101031261019057610052602061004b836101a8565b92016101a8565b90600180555f600a555f600d555f600e555f600f555f60115560018060a01b031690811561014b576001600160a01b03169081156101065760805260a052610099336101bc565b506100a333610232565b50604051337fc36befb96151814c16fe0d20f29a5912794cda96453e57ab00edad0bb21d50fa5f80a261265e90816102c68239608051818181610a790152611437015260a0518181816103300152818161079a01528181610ac70152611b740152f35b60405162461bcd60e51b815260206004820152601d60248201527f437573746f6469616e20616464726573732063616e6e6f7420626520300000006044820152606490fd5b60405162461bcd60e51b815260206004820152601f60248201527f537461626c65546f6b656e20616464726573732063616e6e6f742062652030006044820152606490fd5b5f80fd5b634e487b7160e01b5f52604160045260245ffd5b51906001600160a01b038216820361019057565b6001600160a01b0381165f9081525f5160206129645f395f51905f52602052604090205460ff1661022d576001600160a01b03165f8181525f5160206129645f395f51905f5260205260408120805460ff191660011790553391905f5160206129245f395f51905f528180a4600190565b505f90565b6001600160a01b0381165f9081525f5160206129445f395f51905f52602052604090205460ff1661022d576001600160a01b03165f8181525f5160206129445f395f51905f5260205260408120805460ff191660011790553391907fa49807205ce4d355092ef5a8a18f56e8913cf4a201fbe287825b095693c21775905f5160206129245f395f51905f529080a460019056fe6080806040526004361015610012575f80fd5b5f905f3560e01c90816301ffc9a714611d1f575080630817544e14611cba57806316002f4a14611c9d57806316efd94114611c805780631ef3a04c14611c58578063248a9ca314611c265780632f2ff15d14611be957806336568abe14611ba3578063375b74c314611b5f5780633ff8053514611b425780634ca3f16914611add578063568f02f814611a96578063571a26a014611a0e57806360ebfee6146119f3578063723507be1461186457806372e2867d1461184757806375b238fc14611820578063774237fc146117f95780637765c52c146117135780638b95e335146116eb5780638ba796af1461161a57806391d14854146115d257806396b5a7551461151a5780639a19c7b014611480578063a217fddf14611466578063a9d75b2b14611422578063acc06cdd146113f3578063af36053d146113d1578063b3d44dd8146113b4578063c634b78e1461131a578063ca446dd91461119a578063cba63651146109ff578063cff39381146106bc578063d4873ed81461069e578063d547741f14610657578063eb82a7de14610639578063f1028b50146101f15763f9143287146101c0575f80fd5b346101ee5760203660031901126101ee5760ff60406020926004358152600b84522054166040519015158152f35b80fd5b50346101ee5760803660031901126101ee576004359061020f611d88565b9060443561021b611d9e565b5f5160206125895f395f51905f52835260208381526040808520335f908152925290205460ff16156106155761024f612385565b61025d600160115410611dee565b84156105bd576001600160a01b03841693610279851515611e89565b610284600a54611fa1565b9485600a55851561056c57858552600b60205260408520600160ff198254161790556102b1600c54611fa1565b600c558585526010602081815260408088206001018a905588885282825280882060020180546001600160a01b03191690941790935587875281815282872060030186905587875252808520600490810180546bffffffffffffffffffffffff1916426001600160601b031617905590516350d5041d60e01b815291907f00000000000000000000000000000000000000000000000000000000000000006001600160a01b031690606090849081845afa8015610561578693879161052a575b50610386908415159081610522575b50611ef9565b61039260045484612500565b9561039e871515611f45565b87815260106020528660056040832001556008549060075481958315801590610519575b61042e575b50506040805198895260208981019b909b526001600160a01b03948516908901525050506060850191909152169183907fe594fc5b5d00c48225dd94860ef4354b2728868f56ac3268f4e50905252822969080608081015b0390a460018055604051908152f35b60095461043b828e612500565b106103c75761046192939496509061045661045b928d612500565b612500565b83611e68565b9182106101ee578193803b1561051557604051631289c44760e01b81526001600160a01b0387166004820152602481018490529082908290604490829084905af1801561050a576104f5575b50509261041f7fe594fc5b5d00c48225dd94860ef4354b2728868f56ac3268f4e509052528229693602099936104e68a97600f54611e68565b600f55939983968296506103c7565b610500828092611e32565b6101ee57806104ad565b6040513d84823e3d90fd5b5080fd5b508115156103c2565b90505f610380565b6103869450610551915060603d60601161055a575b6105498183611e32565b810190611ed5565b91949050610371565b503d61053f565b6040513d88823e3d90fd5b60405162461bcd60e51b815260206004820152602360248201527f41756374696f6e2049442073686f756c64206265206c6172676572207468616e60448201526220302160e81b6064820152608490fd5b60405162461bcd60e51b815260206004820152602a60248201527f556e6465726c79696e6720416d6f756e742073686f756c64206265206c6172676044820152696572207468616e20302160b01b6064820152608490fd5b63e2517d3f60e01b8352336004525f5160206125895f395f51905f52602452604483fd5b50346101ee57806003193601126101ee576020600d54604051908152f35b50346101ee5760403660031901126101ee5761069a600435610677611d88565b90610695610690825f525f602052600160405f20015490565b611ff8565b612305565b5080f35b50346101ee57806003193601126101ee576020600c54604051908152f35b50346101ee5760403660031901126101ee576004356106d9611d88565b906106e2612385565b6106f0600260115410611dee565b808352601060205260018060a01b036002604085200154169080845260106020526107466001600160601b036004604087200154168286526010602052600560408720015490610741851515611e89565b6123a5565b50156109b0578084526010602081815260408087206001015484885292909152808620600490810180546bffffffffffffffffffffffff1916426001600160601b031617905590516350d5041d60e01b81527f00000000000000000000000000000000000000000000000000000000000000006001600160a01b031695909291606090849081895afa80156109a5578793889161097e575b506107f29084151590816105225750611ef9565b6107fe60045484612500565b9561080a871515611f45565b848852601060205286600560408a20015560085460075489958215801590610975575b6108a4575b50505084885250601060209081526040808920600301548151988952918801939093526001600160a01b039586169287019290925260608601929092529216927f89c34766cb09fcf955bdfcca8541c2f4ecea66393f9c2df77e83871b37c696489080608081015b0390a46001805580f35b6009546108b18288612500565b10610832576108d192939650906104566108cb9287612500565b82611e68565b90811061097157878194803b1561051557604051631289c44760e01b81526001600160a01b0385166004820152602481018490529082908290604490829084905af1801561050a5761095c575b50507f89c34766cb09fcf955bdfcca8541c2f4ecea66393f9c2df77e83871b37c696489361095161089a92600f54611e68565b600f55935f80610832565b8161096691611e32565b61097157875f61091e565b8780fd5b5081151561082d565b6107f2945061099c915060603d60601161055a576105498183611e32565b919490506107de565b6040513d89823e3d90fd5b60405162461bcd60e51b815260206004820152602160248201527f41756374696f6e206973206e6f7420726561647920746f2062652072657365746044820152602160f81b6064820152608490fd5b5034610eba5760a0366003190112610eba57602435604435600435610a22611d9e565b6084359067ffffffffffffffff8211610eba5736602383011215610eba5781600401359167ffffffffffffffff8311610eba573660248483010111610eba57610a69612385565b610a77600360115410611dee565b7f00000000000000000000000000000000000000000000000000000000000000006001600160a01b031695861561115557610ab28682612500565b604051636eb1769f60e11b81523360048201527f00000000000000000000000000000000000000000000000000000000000000006001600160a01b03166024820181905298602090829060449082905afa908115610eaf575f91611123575b501061109b575f858152601060205260409020600201546001600160a01b0316968715611062575f8681526010602052604090206004810154600590910154610b62916001600160601b03166123a5565b929061101d57828810610fc8575f8781526010602052604090206001015490808211610fc2575080955b869182610b99868a612500565b9882610ba58882612500565b91109081610ebe575b5050610bb991612547565b94833b15610eba5760405163dfc9afe360e01b81526001600160a01b0388166004820152602481018490525f8160448183895af18015610eaf57610e94575b50908291610c0a8d9594600e54611e68565b600e55600254821515906001600160a01b031681610e80575b81610e6c575b50610dce575b505050803b156105155760405163ab4fb0a360e01b8152336004820152602481018790529082908290604490829084905af1801561050a57610db9575b5050610c7a84600d54611e68565b600d5584885260106020526007604089200154610c978582611e68565b908110610db5578589526010602052600760408a2001558760018060a01b036002541686825260106020526003604083200154908783526010602052600760408420015491813b15610db15760848b85809460405196879586946329ab9fcd60e01b86526004860152602485015260448401528960648401525af1801561050a57610d96575b5050907f323b6597d722d7ad8077c780a1bf7b574253ba41faffd0a6f2c9d107bc559794936080939282155f14610d8057610d578761245a565b60408051988952602089019190915287015260608601526001600160a01b031693a46001805580f35b868a52601060205282600160408c200155610d57565b81610da49195949395611e32565b610971579091875f610d1d565b8380fd5b8880fd5b81610dc391611e32565b61097157875f610c6c565b6001600160a01b038816803b15610e68576024938660a48c868397604051998a9889978895634229608760e11b87523360048801528387015260448601526080606486015282608486015201848401378181018301849052601f01601f191681010301925af1908115610e5d578391610e48575b80610c2f565b81610e5291611e32565b61051557815f610e42565b6040513d85823e3d90fd5b8580fd5b6001600160a01b038a16141590505f610c29565b6001600160a01b038a168614159150610c23565b610ea4919493929c505f90611e32565b5f9a9091925f610bf8565b6040513d5f823e3d90fd5b5f80fd5b600954925090828210610f12575b5081610ed88b83612547565b10610ee5575b8491610bae565b90919350610ef4929850612547565b95610bb9610f0a85610f058a612554565b6124e2565b92905f610ede565b610f1c575f610ecc565b60405162461bcd60e51b815260206004820152606c60248201527f43757272656e7420756e6465726c79696e6720616d6f756e7420697320746f6f60448201527f20736d616c6c2c20706c6561736520696e63726561736520796f7572206d617860648201527f696d756d20707572636861736520616d6f756e7420616e642062757920616c6c60848201526b103ab73232b9363cb4b7339760a11b60a482015260c490fd5b95610b8c565b60405162461bcd60e51b815260206004820152602760248201527f43757272656e742070726963652069732061626f76652061636365707461626c6044820152666520707269636560c81b6064820152608490fd5b60405162461bcd60e51b815260206004820152601960248201527f41756374696f6e206e6565647320746f206265207265736574000000000000006044820152606490fd5b60405162461bcd60e51b815260206004820152601160248201527041756374696f6e206e6f7420726561647960781b6044820152606490fd5b60405162461bcd60e51b815260206004820152605460248201527f496e73756666696369656e7420617070726f76616c2e20506c6561736520617060448201527f70726f766520437573746f6469616e20636f6e747261637420746f207370656e6064820152736420796f757220737461626c6520746f6b656e7360601b608482015260a490fd5b90506020813d60201161114d575b8161113e60209383611e32565b81010312610eba57515f610b11565b3d9150611131565b60405162461bcd60e51b815260206004820152601e60248201527f737461626c65546f6b656e2061646472657373206973206e6f742073657400006044820152606490fd5b34610eba576040366003190112610eba576004356111b6611d88565b6111be611faf565b6111c6612385565b713634b8bab4b230ba34b7b726b0b730b3b2b960711b820361127e57600280546001600160a01b0319166001600160a01b0383169081179091557fce9745511e6b32283e684acf17f26ee2c5d221bf65c95e61c3d6fcfa446462d09160209161122d611faf565b611238610690611db4565b61124182612030565b507f0fcfc8d72d308a68b4d24573172c3fc2a526bc8ffd9bcc7f099778ff8c4fd9c35f80a25b6040516001600160a01b039091168152a260018055005b6e383934b1b2a1b0b631bab630ba37b960891b82036112dc57600380546001600160a01b0319166001600160a01b0383161790557fce9745511e6b32283e684acf17f26ee2c5d221bf65c95e61c3d6fcfa446462d090602090611267565b60405162461bcd60e51b81526020600482015260166024820152752ab73932b1b7b3b734bd32b2103830b930b6b2ba32b960511b6044820152606490fd5b34610eba576020366003190112610eba57611333611d72565b61133b611faf565b5f5160206126095f395f51905f525f9081526020527f7d7ffb7a348e1c6a02869081a26547b49160dd3df72d1d75a570eb9b698292ed5461137b90611ff8565b611384816120c8565b506001600160a01b03167fc36befb96151814c16fe0d20f29a5912794cda96453e57ab00edad0bb21d50fa5f80a2005b34610eba575f366003190112610eba576020600e54604051908152f35b34610eba575f366003190112610eba576020604051670de0b6b3a76400008152f35b34610eba576020366003190112610eba576004355f52600b602052602060ff60405f2054166040519015158152f35b34610eba575f366003190112610eba576040517f00000000000000000000000000000000000000000000000000000000000000006001600160a01b03168152602090f35b34610eba575f366003190112610eba5760206040515f8152f35b34610eba576020366003190112610eba57611499611d72565b6114a1611faf565b5f5160206126095f395f51905f525f9081526020527f7d7ffb7a348e1c6a02869081a26547b49160dd3df72d1d75a570eb9b698292ed546114e190611ff8565b6114ea81612274565b506001600160a01b03167f998b1c8c2c4e47baeddde4d4152dfae31548fb5e6aa5fc2026808fa365a30e7c5f80a2005b34610eba576020366003190112610eba57600435611536611faf565b61153e612385565b5f818152601060205260409020600201546001600160a01b0316156115975760208161158a7f2809c7e17bf978fbc7194c0a694b638c4215e9140cacc6c38ca36010b45697df9361245a565b604051908152a160018055005b60405162461bcd60e51b8152602060048201526013602482015272105d58dd1a5bdb881b9bdd081cdd185c9d1959606a1b6044820152606490fd5b34610eba576040366003190112610eba576115eb611d88565b6004355f525f60205260405f209060018060a01b03165f52602052602060ff60405f2054166040519015158152f35b34610eba57610100366003190112610eba57611634611d72565b61163c611d88565b90611645611faf565b600280546001600160a01b0319166001600160a01b0383169081179091559061168090611670611faf565b61167b610690611db4565b612030565b507f0fcfc8d72d308a68b4d24573172c3fc2a526bc8ffd9bcc7f099778ff8c4fd9c35f80a2600380546001600160a01b0319166001600160a01b039290921691909117905560443560045560643560055560843560065560a43560075560c43560085560e435600955005b34610eba575f366003190112610eba576003546040516001600160a01b039091168152602090f35b34610eba576020366003190112610eba57600435805f52600b60205260ff60405f205416156117b4575f818152601060205260409020600281015460048201546005909201546060936001600160a01b039092169261177b91906001600160601b03166123a5565b919092151592836117ac575b505f526010602052600160405f20015490604051921515835260208301526040820152f35b925084611787565b60405162461bcd60e51b815260206004820152601a60248201527f546865206163756374696f6e206973206e6f74206163746976650000000000006044820152606490fd5b34610eba575f366003190112610eba5760206040515f5160206125895f395f51905f528152f35b34610eba575f366003190112610eba5760206040515f5160206126095f395f51905f528152f35b34610eba575f366003190112610eba576020600c54604051908152f35b34610eba576040366003190112610eba57600435602435611883611faf565b61188b612385565b6e383934b1b2a6bab63a34b83634b2b960891b82036118c7576020815f5160206125c95f395f51905f52926004555b604051908152a260018055005b68726573657454696d6560b81b82036118f4576020815f5160206125c95f395f51905f52926005556118ba565b6f1b5a5b905d58dd1a5bdb905b5bdd5b9d60821b8203611928576020815f5160206125c95f395f51905f52926009556118ba565b711c1c9a58d9511c9bdc151a1c995cda1bdb1960721b820361195e576020815f5160206125c95f395f51905f52926006556118ba565b6f1c195c98d95b9d1859d954995dd85c9960821b8203611992576020815f5160206125c95f395f51905f52926007556118ba565b6a199a5e195914995dd85c9960aa1b82036119c1576020815f5160206125c95f395f51905f52926008556118ba565b6d31b4b931bab4ba213932b0b5b2b960911b82036112dc576020815f5160206125c95f395f51905f52926011556118ba565b34610eba575f366003190112610eba57602060405160128152f35b34610eba576020366003190112610eba576004355f52601060205261010060405f2080549060018101549060018060a01b0360028201541660038201546001600160601b03600484015416906005840154926007600686015495015495604051978852602088015260408701526060860152608085015260a084015260c083015260e0820152f35b34610eba575f366003190112610eba5760c06004546005546006546007546008549160095493604051958652602086015260408501526060840152608083015260a0820152f35b34610eba576020366003190112610eba57611af6611d72565b611afe611faf565b611b09610690611db4565b611b12816121e3565b506001600160a01b03167f3d8ac96952c09594f2bd46a75dd349e4c54685eddbc360a657262e17646b36df5f80a2005b34610eba575f366003190112610eba576020600f54604051908152f35b34610eba575f366003190112610eba576040517f00000000000000000000000000000000000000000000000000000000000000006001600160a01b03168152602090f35b34610eba576040366003190112610eba57611bbc611d88565b336001600160a01b03821603611bda57611bd890600435612305565b005b63334bd91960e11b5f5260045ffd5b34610eba576040366003190112610eba57611bd8600435611c08611d88565b90611c21610690825f525f602052600160405f20015490565b61215b565b34610eba576020366003190112610eba576020611c506004355f525f602052600160405f20015490565b604051908152f35b34610eba575f366003190112610eba576002546040516001600160a01b039091168152602090f35b34610eba575f366003190112610eba576020601154604051908152f35b34610eba575f366003190112610eba576020600a54604051908152f35b34610eba576020366003190112610eba57611cd3611d72565b611cdb611faf565b611ce6610690611db4565b611cef81612030565b506001600160a01b03167f0fcfc8d72d308a68b4d24573172c3fc2a526bc8ffd9bcc7f099778ff8c4fd9c35f80a2005b34610eba576020366003190112610eba576004359063ffffffff60e01b8216809203610eba57602091637965db0b60e01b8114908115611d61575b5015158152f35b6301ffc9a760e01b14905083611d5a565b600435906001600160a01b0382168203610eba57565b602435906001600160a01b0382168203610eba57565b606435906001600160a01b0382168203610eba57565b5f5160206125895f395f51905f525f9081526020527ff11ed99ef1eb7fdaaafd786162d5e36830f2a0e1abc5d101d5a5d2cde3da8bb25490565b15611df557565b60405162461bcd60e51b815260206004820152601560248201527443697263756974427265616b6572206572726f722160581b6044820152606490fd5b90601f8019910116810190811067ffffffffffffffff821117611e5457604052565b634e487b7160e01b5f52604160045260245ffd5b91908201809211611e7557565b634e487b7160e01b5f52601160045260245ffd5b15611e9057565b60405162461bcd60e51b815260206004820152601760248201527f496e76616c6964204f726967696e616c204f776e6572210000000000000000006044820152606490fd5b90816060910312610eba57805191604060208301519201518015158103610eba5790565b15611f0057565b60405162461bcd60e51b815260206004820152601b60248201527f496e76616c6964206f7261636c6520707269636520283c3d30292100000000006044820152606490fd5b15611f4c57565b60405162461bcd60e51b815260206004820152602760248201527f5374617274696e672050726963652073686f756c64206265206c6172676572206044820152667468616e20302160c81b6064820152608490fd5b5f198114611e755760010190565b335f9081525f5160206125a95f395f51905f52602052604090205460ff1615611fd457565b63e2517d3f60e01b5f52336004525f5160206126095f395f51905f5260245260445ffd5b5f8181526020818152604080832033845290915290205460ff161561201a5750565b63e2517d3f60e01b5f523360045260245260445ffd5b6001600160a01b0381165f9081525f5160206125e95f395f51905f52602052604090205460ff166120c3576001600160a01b03165f8181525f5160206125e95f395f51905f5260205260408120805460ff191660011790553391905f5160206125895f395f51905f52907f2f8788117e7eff1d82e926ec794901d17c78024a50270940304540a733656f0d9080a4600190565b505f90565b6001600160a01b0381165f9081525f5160206125a95f395f51905f52602052604090205460ff166120c3576001600160a01b03165f8181525f5160206125a95f395f51905f5260205260408120805460ff191660011790553391905f5160206126095f395f51905f52907f2f8788117e7eff1d82e926ec794901d17c78024a50270940304540a733656f0d9080a4600190565b5f818152602081815260408083206001600160a01b038616845290915290205460ff166121dd575f818152602081815260408083206001600160a01b0395909516808452949091528120805460ff19166001179055339291907f2f8788117e7eff1d82e926ec794901d17c78024a50270940304540a733656f0d9080a4600190565b50505f90565b6001600160a01b0381165f9081525f5160206125e95f395f51905f52602052604090205460ff16156120c3576001600160a01b03165f8181525f5160206125e95f395f51905f5260205260408120805460ff191690553391905f5160206125895f395f51905f52907ff6391f5c32d9c69d2a47ea670b442974b53935d1edc7fd64eb21e047a839171b9080a4600190565b6001600160a01b0381165f9081525f5160206125a95f395f51905f52602052604090205460ff16156120c3576001600160a01b03165f8181525f5160206125a95f395f51905f5260205260408120805460ff191690553391905f5160206126095f395f51905f52907ff6391f5c32d9c69d2a47ea670b442974b53935d1edc7fd64eb21e047a839171b9080a4600190565b5f818152602081815260408083206001600160a01b038616845290915290205460ff16156121dd575f818152602081815260408083206001600160a01b0395909516808452949091528120805460ff19169055339291907ff6391f5c32d9c69d2a47ea670b442974b53935d1edc7fd64eb21e047a839171b9080a4600190565b600260015414612396576002600155565b633ee5aeb560e01b5f5260045ffd5b6001600160601b0360018060a01b036003541691169160206123c78442612547565b60446040518095819363487a239560e01b835286600484015260248301525afa918215610eaf575f92612426575b50612401829342612547565b6005541091821561241157505091565b61241f9250610f0590612554565b6006541191565b9091506020813d602011612452575b8161244260209383611e32565b81010312610eba5751905f6123f5565b3d9150612435565b805f52600b60205260405f2060ff198154169055600c548015611e75577f25cbe9f0164be4cf740d90169f6bd80426fa677319b2179cec6fc154733b3bce916020915f1901600c55805f52601082525f6007604082208281558260018201558260028201558260038201558260048201558260058201558260068201550155604051908152a1565b81156124ec570490565b634e487b7160e01b5f52601260045260245ffd5b5f918015918215612521575b505015610eba57670de0b6b3a7640000900490565b80820293509150811582840482141715611e755761253f90836124e2565b145f8061250c565b908103908111611e755790565b90670de0b6b3a7640000820291808304670de0b6b3a76400001481151715611e7557670de0b6b3a7640000830403610eba5756fe843c3a00fa95510a35f425371231fd3fe4642e719cb4595160763d6d02594b507d7ffb7a348e1c6a02869081a26547b49160dd3df72d1d75a570eb9b698292ec9b900726daef362ccb7ef4037118922e973973109c4d10b5c19277bddd59e048f11ed99ef1eb7fdaaafd786162d5e36830f2a0e1abc5d101d5a5d2cde3da8bb1a49807205ce4d355092ef5a8a18f56e8913cf4a201fbe287825b095693c21775a2646970667358221220e121ba3ce5044e6dd1673c7bd17be993230bfa70f07871109b3175116bc8886564736f6c634300081c00332f8788117e7eff1d82e926ec794901d17c78024a50270940304540a733656f0d7d7ffb7a348e1c6a02869081a26547b49160dd3df72d1d75a570eb9b698292ecad3228b676f7d3cd4284a5443f17f1962b36e491b30a40b2405849e597ba5fb5",
  "linkReferences": {},
  "deployedLinkReferences": {},
  "immutableReferences": {
    "12703": [
      {
        "length": 32,
        "start": 2681
      },
      {
        "length": 32,
        "start": 5175
      }
    ],
    "12706": [
      {
        "length": 32,
        "start": 816
      },
      {
        "length": 32,
        "start": 1946
      },
      {
        "length": 32,
        "start": 2759
      },
      {
        "length": 32,
        "start": 7028
      }
    ]
  },
  "inputSourceName": "project/contracts/auctions/AuctionManager.sol",
  "buildInfoId": "solc-0_8_28-02f33b37447d99ad99ab51f6cb052523dda1e246"
}