{
  "_format": "hh3-artifact-1",
  "contractName": "CustodianFixed",
  "sourceName": "contracts/CustodianFixed.sol",
  "abi": [
    {
      "inputs": [
        {
          "internalType": "address",
          "name": "_underlyingTokenAddr",
          "type": "address"
        },
        {
          "internalType": "address",
          "name": "_stableTokenAddr",
          "type": "address"
        },
        {
          "internalType": "address",
          "name": "_leverageTokenAddr",
          "type": "address"
        }
      ],
      "stateMutability": "nonpayable",
      "type": "constructor"
    },
    {
      "inputs": [],
      "name": "AccessControlBadConfirmation",
      "type": "error"
    },
    {
      "inputs": [
        {
          "internalType": "address",
          "name": "account",
          "type": "address"
        },
        {
          "internalType": "bytes32",
          "name": "neededRole",
          "type": "bytes32"
        }
      ],
      "name": "AccessControlUnauthorizedAccount",
      "type": "error"
    },
    {
      "inputs": [
        {
          "internalType": "uint256",
          "name": "allowance",
          "type": "uint256"
        },
        {
          "internalType": "uint256",
          "name": "required",
          "type": "uint256"
        }
      ],
      "name": "InsufficientAllowance",
      "type": "error"
    },
    {
      "inputs": [
        {
          "internalType": "uint256",
          "name": "balance",
          "type": "uint256"
        },
        {
          "internalType": "uint256",
          "name": "required",
          "type": "uint256"
        }
      ],
      "name": "InsufficientBalance",
      "type": "error"
    },
    {
      "inputs": [
        {
          "internalType": "address",
          "name": "owner",
          "type": "address"
        }
      ],
      "name": "OwnableInvalidOwner",
      "type": "error"
    },
    {
      "inputs": [
        {
          "internalType": "address",
          "name": "account",
          "type": "address"
        }
      ],
      "name": "OwnableUnauthorizedAccount",
      "type": "error"
    },
    {
      "inputs": [],
      "name": "ReentrancyGuardReentrantCall",
      "type": "error"
    },
    {
      "anonymous": false,
      "inputs": [
        {
          "indexed": true,
          "internalType": "uint256",
          "name": "priceInWei",
          "type": "uint256"
        },
        {
          "indexed": true,
          "internalType": "uint256",
          "name": "timeInSecond",
          "type": "uint256"
        }
      ],
      "name": "AcceptPrice",
      "type": "event"
    },
    {
      "anonymous": false,
      "inputs": [
        {
          "indexed": true,
          "internalType": "address",
          "name": "user",
          "type": "address"
        }
      ],
      "name": "AdminAccessGranted",
      "type": "event"
    },
    {
      "anonymous": false,
      "inputs": [
        {
          "indexed": true,
          "internalType": "address",
          "name": "user",
          "type": "address"
        }
      ],
      "name": "AdminAccessRevoked",
      "type": "event"
    },
    {
      "anonymous": false,
      "inputs": [
        {
          "indexed": true,
          "internalType": "address",
          "name": "user",
          "type": "address"
        }
      ],
      "name": "AuctionAccessGranted",
      "type": "event"
    },
    {
      "anonymous": false,
      "inputs": [
        {
          "indexed": true,
          "internalType": "address",
          "name": "user",
          "type": "address"
        }
      ],
      "name": "AuctionAccessRevoked",
      "type": "event"
    },
    {
      "anonymous": false,
      "inputs": [
        {
          "indexed": true,
          "internalType": "address",
          "name": "amm",
          "type": "address"
        },
        {
          "indexed": false,
          "internalType": "bool",
          "name": "authorized",
          "type": "bool"
        }
      ],
      "name": "AuthorizedAMMUpdated",
      "type": "event"
    },
    {
      "anonymous": false,
      "inputs": [
        {
          "indexed": true,
          "internalType": "address",
          "name": "user",
          "type": "address"
        },
        {
          "indexed": false,
          "internalType": "uint256",
          "name": "tokenId",
          "type": "uint256"
        },
        {
          "indexed": false,
          "internalType": "uint256",
          "name": "sAmountInWei",
          "type": "uint256"
        },
        {
          "indexed": false,
          "internalType": "uint256",
          "name": "lAmountInWei",
          "type": "uint256"
        },
        {
          "indexed": false,
          "internalType": "uint256",
          "name": "underlyingAmountInWei",
          "type": "uint256"
        }
      ],
      "name": "Burn",
      "type": "event"
    },
    {
      "anonymous": false,
      "inputs": [
        {
          "indexed": true,
          "internalType": "address",
          "name": "user",
          "type": "address"
        },
        {
          "indexed": false,
          "internalType": "uint256",
          "name": "tokenId",
          "type": "uint256"
        },
        {
          "indexed": false,
          "internalType": "uint256",
          "name": "balance",
          "type": "uint256"
        }
      ],
      "name": "BurnLeverageTokenInLiquidation",
      "type": "event"
    },
    {
      "anonymous": false,
      "inputs": [
        {
          "indexed": true,
          "internalType": "address",
          "name": "user",
          "type": "address"
        },
        {
          "indexed": false,
          "internalType": "uint256",
          "name": "tokenID",
          "type": "uint256"
        },
        {
          "indexed": false,
          "internalType": "uint256",
          "name": "stableAmount",
          "type": "uint256"
        }
      ],
      "name": "BurnStableTokenInLiquidation",
      "type": "event"
    },
    {
      "anonymous": false,
      "inputs": [
        {
          "indexed": true,
          "internalType": "address",
          "name": "user",
          "type": "address"
        },
        {
          "indexed": true,
          "internalType": "uint256",
          "name": "tokenId",
          "type": "uint256"
        },
        {
          "indexed": false,
          "internalType": "uint256",
          "name": "underlyingAmountInWei",
          "type": "uint256"
        },
        {
          "indexed": false,
          "internalType": "uint256",
          "name": "leverageLevel",
          "type": "uint256"
        },
        {
          "indexed": false,
          "internalType": "uint256",
          "name": "sAmount",
          "type": "uint256"
        },
        {
          "indexed": false,
          "internalType": "uint256",
          "name": "lAmount",
          "type": "uint256"
        }
      ],
      "name": "DynamicTokenMint",
      "type": "event"
    },
    {
      "anonymous": false,
      "inputs": [
        {
          "indexed": false,
          "internalType": "uint256",
          "name": "interest",
          "type": "uint256"
        }
      ],
      "name": "InterestPaidInAdjustment",
      "type": "event"
    },
    {
      "anonymous": false,
      "inputs": [
        {
          "indexed": true,
          "internalType": "address",
          "name": "user",
          "type": "address"
        }
      ],
      "name": "LiquidationAccessGranted",
      "type": "event"
    },
    {
      "anonymous": false,
      "inputs": [
        {
          "indexed": true,
          "internalType": "address",
          "name": "user",
          "type": "address"
        }
      ],
      "name": "LiquidationAccessRevoked",
      "type": "event"
    },
    {
      "anonymous": false,
      "inputs": [
        {
          "indexed": true,
          "internalType": "address",
          "name": "user",
          "type": "address"
        },
        {
          "indexed": false,
          "internalType": "uint256",
          "name": "underlyingAmountInWei",
          "type": "uint256"
        },
        {
          "indexed": false,
          "internalType": "uint256",
          "name": "leverageLevel",
          "type": "uint256"
        },
        {
          "indexed": false,
          "internalType": "uint256",
          "name": "mintPriceInWei",
          "type": "uint256"
        },
        {
          "indexed": false,
          "internalType": "uint256",
          "name": "sAmountInWei",
          "type": "uint256"
        },
        {
          "indexed": false,
          "internalType": "uint256",
          "name": "lAmountInWei",
          "type": "uint256"
        }
      ],
      "name": "Mint",
      "type": "event"
    },
    {
      "anonymous": false,
      "inputs": [
        {
          "indexed": true,
          "internalType": "address",
          "name": "previousOwner",
          "type": "address"
        },
        {
          "indexed": true,
          "internalType": "address",
          "name": "newOwner",
          "type": "address"
        }
      ],
      "name": "OwnershipTransferred",
      "type": "event"
    },
    {
      "anonymous": false,
      "inputs": [
        {
          "indexed": true,
          "internalType": "address",
          "name": "oldPriceFeed",
          "type": "address"
        },
        {
          "indexed": true,
          "internalType": "address",
          "name": "newPriceFeed",
          "type": "address"
        },
        {
          "indexed": false,
          "internalType": "uint8",
          "name": "decimals",
          "type": "uint8"
        }
      ],
      "name": "PriceFeedUpdated",
      "type": "event"
    },
    {
      "anonymous": false,
      "inputs": [
        {
          "indexed": true,
          "internalType": "address",
          "name": "kpr",
          "type": "address"
        },
        {
          "indexed": false,
          "internalType": "uint256",
          "name": "amount",
          "type": "uint256"
        }
      ],
      "name": "ReceiveStableInAuction",
      "type": "event"
    },
    {
      "anonymous": false,
      "inputs": [],
      "name": "ResetAccounting",
      "type": "event"
    },
    {
      "anonymous": false,
      "inputs": [
        {
          "indexed": true,
          "internalType": "address",
          "name": "kpr",
          "type": "address"
        },
        {
          "indexed": false,
          "internalType": "uint256",
          "name": "amount",
          "type": "uint256"
        }
      ],
      "name": "RewardKpr",
      "type": "event"
    },
    {
      "anonymous": false,
      "inputs": [
        {
          "indexed": true,
          "internalType": "bytes32",
          "name": "role",
          "type": "bytes32"
        },
        {
          "indexed": true,
          "internalType": "bytes32",
          "name": "previousAdminRole",
          "type": "bytes32"
        },
        {
          "indexed": true,
          "internalType": "bytes32",
          "name": "newAdminRole",
          "type": "bytes32"
        }
      ],
      "name": "RoleAdminChanged",
      "type": "event"
    },
    {
      "anonymous": false,
      "inputs": [
        {
          "indexed": true,
          "internalType": "bytes32",
          "name": "role",
          "type": "bytes32"
        },
        {
          "indexed": true,
          "internalType": "address",
          "name": "account",
          "type": "address"
        },
        {
          "indexed": true,
          "internalType": "address",
          "name": "sender",
          "type": "address"
        }
      ],
      "name": "RoleGranted",
      "type": "event"
    },
    {
      "anonymous": false,
      "inputs": [
        {
          "indexed": true,
          "internalType": "bytes32",
          "name": "role",
          "type": "bytes32"
        },
        {
          "indexed": true,
          "internalType": "address",
          "name": "account",
          "type": "address"
        },
        {
          "indexed": true,
          "internalType": "address",
          "name": "sender",
          "type": "address"
        }
      ],
      "name": "RoleRevoked",
      "type": "event"
    },
    {
      "anonymous": false,
      "inputs": [
        {
          "indexed": true,
          "internalType": "address",
          "name": "kpr",
          "type": "address"
        },
        {
          "indexed": false,
          "internalType": "uint256",
          "name": "amount",
          "type": "uint256"
        }
      ],
      "name": "SellUnderlyingInAuction",
      "type": "event"
    },
    {
      "anonymous": false,
      "inputs": [
        {
          "indexed": true,
          "internalType": "address",
          "name": "user",
          "type": "address"
        },
        {
          "indexed": true,
          "internalType": "uint256",
          "name": "tokenId",
          "type": "uint256"
        },
        {
          "indexed": false,
          "internalType": "uint256",
          "name": "underlyingAmountInWei",
          "type": "uint256"
        },
        {
          "indexed": false,
          "internalType": "uint256",
          "name": "leverageLevel",
          "type": "uint256"
        },
        {
          "indexed": false,
          "internalType": "uint256",
          "name": "sAmount",
          "type": "uint256"
        },
        {
          "indexed": false,
          "internalType": "uint256",
          "name": "lAmount",
          "type": "uint256"
        }
      ],
      "name": "StaticTokenMint",
      "type": "event"
    },
    {
      "anonymous": false,
      "inputs": [
        {
          "indexed": true,
          "internalType": "address",
          "name": "interestManager",
          "type": "address"
        },
        {
          "indexed": true,
          "internalType": "address",
          "name": "priceFeed",
          "type": "address"
        }
      ],
      "name": "SystemInitialized",
      "type": "event"
    },
    {
      "anonymous": false,
      "inputs": [
        {
          "indexed": true,
          "internalType": "address",
          "name": "user",
          "type": "address"
        },
        {
          "indexed": false,
          "internalType": "uint256",
          "name": "amountToUser",
          "type": "uint256"
        },
        {
          "indexed": false,
          "internalType": "uint256",
          "name": "penalty",
          "type": "uint256"
        }
      ],
      "name": "WithdrawAfterLiquidation",
      "type": "event"
    },
    {
      "inputs": [],
      "name": "ADMIN_ROLE",
      "outputs": [
        {
          "internalType": "bytes32",
          "name": "",
          "type": "bytes32"
        }
      ],
      "stateMutability": "view",
      "type": "function"
    },
    {
      "inputs": [],
      "name": "AUCTION_ROLE",
      "outputs": [
        {
          "internalType": "bytes32",
          "name": "",
          "type": "bytes32"
        }
      ],
      "stateMutability": "view",
      "type": "function"
    },
    {
      "inputs": [],
      "name": "CollateralInWei",
      "outputs": [
        {
          "internalType": "uint256",
          "name": "",
          "type": "uint256"
        }
      ],
      "stateMutability": "view",
      "type": "function"
    },
    {
      "inputs": [],
      "name": "DEFAULT_ADMIN_ROLE",
      "outputs": [
        {
          "internalType": "bytes32",
          "name": "",
          "type": "bytes32"
        }
      ],
      "stateMutability": "view",
      "type": "function"
    },
    {
      "inputs": [],
      "name": "LIQUIDATION_ROLE",
      "outputs": [
        {
          "internalType": "bytes32",
          "name": "",
          "type": "bytes32"
        }
      ],
      "stateMutability": "view",
      "type": "function"
    },
    {
      "inputs": [],
      "name": "MAX_PRICE_AGE",
      "outputs": [
        {
          "internalType": "uint256",
          "name": "",
          "type": "uint256"
        }
      ],
      "stateMutability": "view",
      "type": "function"
    },
    {
      "inputs": [],
      "name": "PRICE_PRECISION",
      "outputs": [
        {
          "internalType": "uint256",
          "name": "",
          "type": "uint256"
        }
      ],
      "stateMutability": "view",
      "type": "function"
    },
    {
      "inputs": [],
      "name": "accumulatedPenaltyInStable",
      "outputs": [
        {
          "internalType": "uint256",
          "name": "",
          "type": "uint256"
        }
      ],
      "stateMutability": "view",
      "type": "function"
    },
    {
      "inputs": [],
      "name": "accumulatedReceivedInAuction",
      "outputs": [
        {
          "internalType": "uint256",
          "name": "",
          "type": "uint256"
        }
      ],
      "stateMutability": "view",
      "type": "function"
    },
    {
      "inputs": [],
      "name": "accumulatedRewardInStable",
      "outputs": [
        {
          "internalType": "uint256",
          "name": "",
          "type": "uint256"
        }
      ],
      "stateMutability": "view",
      "type": "function"
    },
    {
      "inputs": [],
      "name": "accumulatedUnderlyingSoldInAuction",
      "outputs": [
        {
          "internalType": "uint256",
          "name": "",
          "type": "uint256"
        }
      ],
      "stateMutability": "view",
      "type": "function"
    },
    {
      "inputs": [],
      "name": "auctionManager",
      "outputs": [
        {
          "internalType": "contract AuctionManager",
          "name": "",
          "type": "address"
        }
      ],
      "stateMutability": "view",
      "type": "function"
    },
    {
      "inputs": [
        {
          "internalType": "address",
          "name": "",
          "type": "address"
        }
      ],
      "name": "authorizedAMM",
      "outputs": [
        {
          "internalType": "bool",
          "name": "",
          "type": "bool"
        }
      ],
      "stateMutability": "view",
      "type": "function"
    },
    {
      "inputs": [
        {
          "internalType": "address",
          "name": "StokenFrom",
          "type": "address"
        },
        {
          "internalType": "address",
          "name": "LtokenFrom",
          "type": "address"
        },
        {
          "internalType": "uint256",
          "name": "leverageTokenId",
          "type": "uint256"
        },
        {
          "internalType": "uint256",
          "name": "lAmountPercentage",
          "type": "uint256"
        }
      ],
      "name": "burnFromAMM",
      "outputs": [
        {
          "internalType": "uint256",
          "name": "underlyingAmountRedeemedInWei",
          "type": "uint256"
        },
        {
          "internalType": "uint256",
          "name": "stableTokenBurnedInWei",
          "type": "uint256"
        },
        {
          "internalType": "uint256",
          "name": "leverageTokenBurnedInWei",
          "type": "uint256"
        }
      ],
      "stateMutability": "nonpayable",
      "type": "function"
    },
    {
      "inputs": [
        {
          "internalType": "uint256",
          "name": "leverageTokenId",
          "type": "uint256"
        },
        {
          "internalType": "uint256",
          "name": "lAmountPercentage",
          "type": "uint256"
        }
      ],
      "name": "burnFromUser",
      "outputs": [
        {
          "internalType": "uint256",
          "name": "underlyingAmountRedeemedInWei",
          "type": "uint256"
        },
        {
          "internalType": "uint256",
          "name": "stableTokenBurnedInWei",
          "type": "uint256"
        },
        {
          "internalType": "uint256",
          "name": "leverageTokenBurnedInWei",
          "type": "uint256"
        }
      ],
      "stateMutability": "nonpayable",
      "type": "function"
    },
    {
      "inputs": [
        {
          "internalType": "address",
          "name": "user",
          "type": "address"
        },
        {
          "internalType": "uint256",
          "name": "tokenId",
          "type": "uint256"
        },
        {
          "internalType": "uint256",
          "name": "balance",
          "type": "uint256"
        },
        {
          "internalType": "uint256",
          "name": "underlyingAmountInWei",
          "type": "uint256"
        }
      ],
      "name": "burnToken",
      "outputs": [],
      "stateMutability": "nonpayable",
      "type": "function"
    },
    {
      "inputs": [],
      "name": "getAccumulatedPenaltyInStable",
      "outputs": [
        {
          "internalType": "uint256",
          "name": "",
          "type": "uint256"
        }
      ],
      "stateMutability": "view",
      "type": "function"
    },
    {
      "inputs": [],
      "name": "getAccumulatedRewardInStable",
      "outputs": [
        {
          "internalType": "uint256",
          "name": "",
          "type": "uint256"
        }
      ],
      "stateMutability": "view",
      "type": "function"
    },
    {
      "inputs": [
        {
          "internalType": "address",
          "name": "user",
          "type": "address"
        }
      ],
      "name": "getAllLeverageTokenInfo",
      "outputs": [
        {
          "internalType": "uint256[]",
          "name": "tokenIds",
          "type": "uint256[]"
        },
        {
          "internalType": "uint256[]",
          "name": "balancesInWei",
          "type": "uint256[]"
        },
        {
          "internalType": "enum LeverageType[]",
          "name": "leverages",
          "type": "uint8[]"
        },
        {
          "internalType": "uint256[]",
          "name": "mintPricesInWei",
          "type": "uint256[]"
        },
        {
          "internalType": "uint256[]",
          "name": "accuredInterestsInWei",
          "type": "uint256[]"
        }
      ],
      "stateMutability": "view",
      "type": "function"
    },
    {
      "inputs": [],
      "name": "getLatestPriceView",
      "outputs": [
        {
          "internalType": "uint256",
          "name": "priceInWei",
          "type": "uint256"
        },
        {
          "internalType": "uint256",
          "name": "timeInSecond",
          "type": "uint256"
        },
        {
          "internalType": "bool",
          "name": "isValid",
          "type": "bool"
        }
      ],
      "stateMutability": "view",
      "type": "function"
    },
    {
      "inputs": [
        {
          "internalType": "bytes32",
          "name": "role",
          "type": "bytes32"
        }
      ],
      "name": "getRoleAdmin",
      "outputs": [
        {
          "internalType": "bytes32",
          "name": "",
          "type": "bytes32"
        }
      ],
      "stateMutability": "view",
      "type": "function"
    },
    {
      "inputs": [
        {
          "internalType": "address",
          "name": "user",
          "type": "address"
        },
        {
          "internalType": "uint256",
          "name": "tokenId",
          "type": "uint256"
        }
      ],
      "name": "getSingleLeverageTokenInfo",
      "outputs": [
        {
          "internalType": "uint256",
          "name": "balance",
          "type": "uint256"
        },
        {
          "internalType": "enum LeverageType",
          "name": "leverage",
          "type": "uint8"
        },
        {
          "internalType": "uint256",
          "name": "mintPrice",
          "type": "uint256"
        },
        {
          "internalType": "string",
          "name": "tokenName",
          "type": "string"
        },
        {
          "internalType": "bool",
          "name": "isStatic",
          "type": "bool"
        },
        {
          "internalType": "uint256",
          "name": "accruedInterest",
          "type": "uint256"
        },
        {
          "internalType": "uint256",
          "name": "creationTime",
          "type": "uint256"
        }
      ],
      "stateMutability": "view",
      "type": "function"
    },
    {
      "inputs": [
        {
          "internalType": "address",
          "name": "user",
          "type": "address"
        },
        {
          "internalType": "uint256",
          "name": "tokenId",
          "type": "uint256"
        }
      ],
      "name": "getSingleLeverageTokenNavV2",
      "outputs": [
        {
          "internalType": "uint256",
          "name": "balance",
          "type": "uint256"
        },
        {
          "internalType": "uint256",
          "name": "grossNavInWei",
          "type": "uint256"
        },
        {
          "internalType": "uint256",
          "name": "netNavInWei",
          "type": "uint256"
        },
        {
          "internalType": "uint256",
          "name": "totalValueInWei",
          "type": "uint256"
        },
        {
          "internalType": "uint256",
          "name": "totalNetValueInWei",
          "type": "uint256"
        },
        {
          "internalType": "uint256",
          "name": "accruedInterestInWei",
          "type": "uint256"
        },
        {
          "internalType": "uint256",
          "name": "currentPriceInWei",
          "type": "uint256"
        },
        {
          "internalType": "uint256",
          "name": "priceTimestamp",
          "type": "uint256"
        }
      ],
      "stateMutability": "view",
      "type": "function"
    },
    {
      "inputs": [
        {
          "internalType": "uint256",
          "name": "tokenId",
          "type": "uint256"
        }
      ],
      "name": "getTokenDetails",
      "outputs": [
        {
          "internalType": "enum LeverageType",
          "name": "leverage",
          "type": "uint8"
        },
        {
          "internalType": "uint256",
          "name": "mintPrice",
          "type": "uint256"
        },
        {
          "internalType": "uint256",
          "name": "creationTime",
          "type": "uint256"
        },
        {
          "internalType": "string",
          "name": "tokenName",
          "type": "string"
        },
        {
          "internalType": "bool",
          "name": "isStatic",
          "type": "bool"
        }
      ],
      "stateMutability": "view",
      "type": "function"
    },
    {
      "inputs": [
        {
          "internalType": "address",
          "name": "user",
          "type": "address"
        }
      ],
      "name": "getUserCollateral",
      "outputs": [
        {
          "internalType": "uint256",
          "name": "",
          "type": "uint256"
        }
      ],
      "stateMutability": "view",
      "type": "function"
    },
    {
      "inputs": [
        {
          "internalType": "address",
          "name": "account",
          "type": "address"
        }
      ],
      "name": "grantAdminRole",
      "outputs": [],
      "stateMutability": "nonpayable",
      "type": "function"
    },
    {
      "inputs": [
        {
          "internalType": "address",
          "name": "account",
          "type": "address"
        }
      ],
      "name": "grantAuctionRole",
      "outputs": [],
      "stateMutability": "nonpayable",
      "type": "function"
    },
    {
      "inputs": [
        {
          "internalType": "address",
          "name": "account",
          "type": "address"
        }
      ],
      "name": "grantLiquidationRole",
      "outputs": [],
      "stateMutability": "nonpayable",
      "type": "function"
    },
    {
      "inputs": [
        {
          "internalType": "bytes32",
          "name": "role",
          "type": "bytes32"
        },
        {
          "internalType": "address",
          "name": "account",
          "type": "address"
        }
      ],
      "name": "grantRole",
      "outputs": [],
      "stateMutability": "nonpayable",
      "type": "function"
    },
    {
      "inputs": [
        {
          "internalType": "bytes32",
          "name": "role",
          "type": "bytes32"
        },
        {
          "internalType": "address",
          "name": "account",
          "type": "address"
        }
      ],
      "name": "hasRole",
      "outputs": [
        {
          "internalType": "bool",
          "name": "",
          "type": "bool"
        }
      ],
      "stateMutability": "view",
      "type": "function"
    },
    {
      "inputs": [
        {
          "internalType": "address",
          "name": "_interestManagerAddr",
          "type": "address"
        },
        {
          "internalType": "address",
          "name": "_priceFeedAddr",
          "type": "address"
        },
        {
          "internalType": "address",
          "name": "_auctionManagerAddr",
          "type": "address"
        },
        {
          "internalType": "address",
          "name": "_liquidationManagerAddr",
          "type": "address"
        }
      ],
      "name": "initialize",
      "outputs": [],
      "stateMutability": "nonpayable",
      "type": "function"
    },
    {
      "inputs": [],
      "name": "interestManager",
      "outputs": [
        {
          "internalType": "contract InterestManager",
          "name": "",
          "type": "address"
        }
      ],
      "stateMutability": "view",
      "type": "function"
    },
    {
      "inputs": [],
      "name": "leverageToken",
      "outputs": [
        {
          "internalType": "contract MultiLeverageToken",
          "name": "",
          "type": "address"
        }
      ],
      "stateMutability": "view",
      "type": "function"
    },
    {
      "inputs": [],
      "name": "liquidationManager",
      "outputs": [
        {
          "internalType": "contract LiquidationManager",
          "name": "",
          "type": "address"
        }
      ],
      "stateMutability": "view",
      "type": "function"
    },
    {
      "inputs": [
        {
          "internalType": "uint256",
          "name": "underlyingAmountInWei",
          "type": "uint256"
        },
        {
          "internalType": "uint256",
          "name": "mintPriceInWei",
          "type": "uint256"
        },
        {
          "internalType": "enum LeverageType",
          "name": "leverageLevel",
          "type": "uint8"
        }
      ],
      "name": "mint",
      "outputs": [
        {
          "internalType": "uint256",
          "name": "sAmountInWei",
          "type": "uint256"
        },
        {
          "internalType": "uint256",
          "name": "lAmountInWei",
          "type": "uint256"
        },
        {
          "internalType": "uint256",
          "name": "leverageTokenId",
          "type": "uint256"
        }
      ],
      "stateMutability": "nonpayable",
      "type": "function"
    },
    {
      "inputs": [
        {
          "internalType": "address",
          "name": "StokenTo",
          "type": "address"
        },
        {
          "internalType": "address",
          "name": "LtokenTo",
          "type": "address"
        },
        {
          "internalType": "uint256",
          "name": "underlyingAmountInWei",
          "type": "uint256"
        },
        {
          "internalType": "uint256",
          "name": "mintPriceInWei",
          "type": "uint256"
        },
        {
          "internalType": "enum LeverageType",
          "name": "leverageLevel",
          "type": "uint8"
        }
      ],
      "name": "mintFromAMM",
      "outputs": [
        {
          "internalType": "uint256",
          "name": "sAmountInWei",
          "type": "uint256"
        },
        {
          "internalType": "uint256",
          "name": "lAmountInWei",
          "type": "uint256"
        },
        {
          "internalType": "uint256",
          "name": "leverageTokenId",
          "type": "uint256"
        }
      ],
      "stateMutability": "nonpayable",
      "type": "function"
    },
    {
      "inputs": [],
      "name": "owner",
      "outputs": [
        {
          "internalType": "address",
          "name": "",
          "type": "address"
        }
      ],
      "stateMutability": "view",
      "type": "function"
    },
    {
      "inputs": [
        {
          "internalType": "address",
          "name": "user",
          "type": "address"
        },
        {
          "internalType": "uint256",
          "name": "leverageTokenId",
          "type": "uint256"
        },
        {
          "internalType": "uint256",
          "name": "lAmountPercentage",
          "type": "uint256"
        },
        {
          "internalType": "uint256",
          "name": "currentPriceInWei",
          "type": "uint256"
        }
      ],
      "name": "previewBurn",
      "outputs": [
        {
          "components": [
            {
              "internalType": "uint256",
              "name": "lAmountBurnedInWei",
              "type": "uint256"
            },
            {
              "internalType": "uint256",
              "name": "sAmountNeededInWei",
              "type": "uint256"
            },
            {
              "internalType": "uint256",
              "name": "underlyingAmountInWei",
              "type": "uint256"
            },
            {
              "internalType": "uint256",
              "name": "underlyingAmountToUser",
              "type": "uint256"
            },
            {
              "internalType": "uint256",
              "name": "underlyingAmountToInterestManager",
              "type": "uint256"
            },
            {
              "internalType": "uint256",
              "name": "deductInterestInWei",
              "type": "uint256"
            }
          ],
          "internalType": "struct BurnPreview",
          "name": "result",
          "type": "tuple"
        }
      ],
      "stateMutability": "view",
      "type": "function"
    },
    {
      "inputs": [
        {
          "internalType": "uint256",
          "name": "underlyingAmountInWei",
          "type": "uint256"
        },
        {
          "internalType": "enum LeverageType",
          "name": "leverage",
          "type": "uint8"
        },
        {
          "internalType": "uint256",
          "name": "mintPriceInWei",
          "type": "uint256"
        },
        {
          "internalType": "uint256",
          "name": "currentPriceInWei",
          "type": "uint256"
        }
      ],
      "name": "previewMint",
      "outputs": [
        {
          "internalType": "uint256",
          "name": "sAmountInWei",
          "type": "uint256"
        },
        {
          "internalType": "uint256",
          "name": "lAmountInWei",
          "type": "uint256"
        },
        {
          "internalType": "uint256",
          "name": "grossNavInWei",
          "type": "uint256"
        }
      ],
      "stateMutability": "pure",
      "type": "function"
    },
    {
      "inputs": [],
      "name": "priceFeed",
      "outputs": [
        {
          "internalType": "contract IChainlinkV3",
          "name": "",
          "type": "address"
        }
      ],
      "stateMutability": "view",
      "type": "function"
    },
    {
      "inputs": [],
      "name": "priceFeedDecimals",
      "outputs": [
        {
          "internalType": "uint8",
          "name": "",
          "type": "uint8"
        }
      ],
      "stateMutability": "view",
      "type": "function"
    },
    {
      "inputs": [
        {
          "internalType": "address",
          "name": "kpr",
          "type": "address"
        },
        {
          "internalType": "uint256",
          "name": "stableAmount",
          "type": "uint256"
        }
      ],
      "name": "receiveFromKpr",
      "outputs": [],
      "stateMutability": "nonpayable",
      "type": "function"
    },
    {
      "inputs": [],
      "name": "renounceOwnership",
      "outputs": [],
      "stateMutability": "nonpayable",
      "type": "function"
    },
    {
      "inputs": [
        {
          "internalType": "bytes32",
          "name": "role",
          "type": "bytes32"
        },
        {
          "internalType": "address",
          "name": "callerConfirmation",
          "type": "address"
        }
      ],
      "name": "renounceRole",
      "outputs": [],
      "stateMutability": "nonpayable",
      "type": "function"
    },
    {
      "inputs": [],
      "name": "resetAccounting",
      "outputs": [],
      "stateMutability": "nonpayable",
      "type": "function"
    },
    {
      "inputs": [
        {
          "internalType": "address",
          "name": "account",
          "type": "address"
        }
      ],
      "name": "revokeAdminRole",
      "outputs": [],
      "stateMutability": "nonpayable",
      "type": "function"
    },
    {
      "inputs": [
        {
          "internalType": "address",
          "name": "account",
          "type": "address"
        }
      ],
      "name": "revokeAuctionRole",
      "outputs": [],
      "stateMutability": "nonpayable",
      "type": "function"
    },
    {
      "inputs": [
        {
          "internalType": "address",
          "name": "account",
          "type": "address"
        }
      ],
      "name": "revokeLiquidationRole",
      "outputs": [],
      "stateMutability": "nonpayable",
      "type": "function"
    },
    {
      "inputs": [
        {
          "internalType": "bytes32",
          "name": "role",
          "type": "bytes32"
        },
        {
          "internalType": "address",
          "name": "account",
          "type": "address"
        }
      ],
      "name": "revokeRole",
      "outputs": [],
      "stateMutability": "nonpayable",
      "type": "function"
    },
    {
      "inputs": [
        {
          "internalType": "address",
          "name": "kpr",
          "type": "address"
        },
        {
          "internalType": "uint256",
          "name": "rewardAmount",
          "type": "uint256"
        }
      ],
      "name": "rewardKpr",
      "outputs": [],
      "stateMutability": "nonpayable",
      "type": "function"
    },
    {
      "inputs": [
        {
          "internalType": "address",
          "name": "amm",
          "type": "address"
        },
        {
          "internalType": "bool",
          "name": "authorized",
          "type": "bool"
        }
      ],
      "name": "setAuthorizedAMM",
      "outputs": [],
      "stateMutability": "nonpayable",
      "type": "function"
    },
    {
      "inputs": [],
      "name": "stableToken",
      "outputs": [
        {
          "internalType": "contract StableToken",
          "name": "",
          "type": "address"
        }
      ],
      "stateMutability": "view",
      "type": "function"
    },
    {
      "inputs": [],
      "name": "state",
      "outputs": [
        {
          "internalType": "enum CustodianFixed.State",
          "name": "",
          "type": "uint8"
        }
      ],
      "stateMutability": "view",
      "type": "function"
    },
    {
      "inputs": [
        {
          "internalType": "bytes4",
          "name": "interfaceId",
          "type": "bytes4"
        }
      ],
      "name": "supportsInterface",
      "outputs": [
        {
          "internalType": "bool",
          "name": "",
          "type": "bool"
        }
      ],
      "stateMutability": "view",
      "type": "function"
    },
    {
      "inputs": [],
      "name": "totalSupplyL",
      "outputs": [
        {
          "internalType": "uint256",
          "name": "",
          "type": "uint256"
        }
      ],
      "stateMutability": "view",
      "type": "function"
    },
    {
      "inputs": [],
      "name": "totalSupplyS",
      "outputs": [
        {
          "internalType": "uint256",
          "name": "",
          "type": "uint256"
        }
      ],
      "stateMutability": "view",
      "type": "function"
    },
    {
      "inputs": [
        {
          "internalType": "address",
          "name": "newOwner",
          "type": "address"
        }
      ],
      "name": "transferOwnership",
      "outputs": [],
      "stateMutability": "nonpayable",
      "type": "function"
    },
    {
      "inputs": [
        {
          "internalType": "address",
          "name": "kpr",
          "type": "address"
        },
        {
          "internalType": "uint256",
          "name": "underlyingAmount",
          "type": "uint256"
        }
      ],
      "name": "transferToKpr",
      "outputs": [],
      "stateMutability": "nonpayable",
      "type": "function"
    },
    {
      "inputs": [],
      "name": "underlyingToken",
      "outputs": [
        {
          "internalType": "contract IERC20",
          "name": "",
          "type": "address"
        }
      ],
      "stateMutability": "view",
      "type": "function"
    },
    {
      "inputs": [],
      "name": "underlyingTokenDecimals",
      "outputs": [
        {
          "internalType": "uint8",
          "name": "",
          "type": "uint8"
        }
      ],
      "stateMutability": "view",
      "type": "function"
    },
    {
      "inputs": [
        {
          "internalType": "address",
          "name": "_newPriceFeedAddr",
          "type": "address"
        }
      ],
      "name": "updatePriceFeed",
      "outputs": [],
      "stateMutability": "nonpayable",
      "type": "function"
    },
    {
      "inputs": [
        {
          "internalType": "address",
          "name": "",
          "type": "address"
        }
      ],
      "name": "userCollateral",
      "outputs": [
        {
          "internalType": "uint256",
          "name": "",
          "type": "uint256"
        }
      ],
      "stateMutability": "view",
      "type": "function"
    },
    {
      "inputs": [
        {
          "internalType": "address",
          "name": "",
          "type": "address"
        },
        {
          "internalType": "uint256",
          "name": "",
          "type": "uint256"
        }
      ],
      "name": "userHasToken",
      "outputs": [
        {
          "internalType": "bool",
          "name": "",
          "type": "bool"
        }
      ],
      "stateMutability": "view",
      "type": "function"
    },
    {
      "inputs": [
        {
          "internalType": "address",
          "name": "",
          "type": "address"
        },
        {
          "internalType": "uint256",
          "name": "",
          "type": "uint256"
        }
      ],
      "name": "userTokenIds",
      "outputs": [
        {
          "internalType": "uint256",
          "name": "",
          "type": "uint256"
        }
      ],
      "stateMutability": "view",
      "type": "function"
    },
    {
      "inputs": [
        {
          "internalType": "address",
          "name": "user",
          "type": "address"
        },
        {
          "internalType": "uint256",
          "name": "tokenID",
          "type": "uint256"
        },
        {
          "internalType": "uint256",
          "name": "amountToUser",
          "type": "uint256"
        },
        {
          "internalType": "uint256",
          "name": "penalty",
          "type": "uint256"
        },
        {
          "internalType": "uint256",
          "name": "stableAmountToBeBurned",
          "type": "uint256"
        }
      ],
      "name": "withdrawAfterLiquidation",
      "outputs": [],
      "stateMutability": "nonpayable",
      "type": "function"
    }
  ],
  "bytecode": "0x610100806040523461025d576060816160e680380380916100208285610353565b83398101031261025d576100338161038a565b9061004c60406100456020840161038a565b920161038a565b903315610340575f8054336001600160a01b0319821681178355604051959290916001600160a01b0316907f8be0079c531659141344cd1fd0a4f28419497f9722a3daafe3b4186f6b6457e09080a360018055600d805460ff191690555f600f819055601081905560118190556012556001600160a01b03169283156102fe57506001600160a01b03169081156102b9576001600160a01b0316918215610274576004926020926100fc3361039e565b5061010633610414565b508260805260a05260c0526040519283809263313ce56760e01b82525afa908115610269575f91610229575b5060e05260ff1960065416600655604051615bde90816104a8823960805181818161039201528181610af5015281816113640152818161193701528181613370015281816136770152613999015260a05181818161088b015281816112d801528181611e86015281816120a4015281816126130152818161375c0152614e40015260c05181818161042c015281816109410152818161141a01528181611ced015281816121da01528181612ac8015281816130d00152818161319a01528181613a33015281816142d90152818161473d01528181614eb4015261507a015260e0518181816129e60152818161330901526147fa0152f35b90506020813d602011610261575b8161024460209383610353565b8101031261025d575160ff8116810361025d575f610132565b5f80fd5b3d9150610237565b6040513d5f823e3d90fd5b60405162461bcd60e51b815260206004820152601660248201527f496e76616c6964206c6576657261676520746f6b656e000000000000000000006044820152606490fd5b60405162461bcd60e51b815260206004820152601460248201527f496e76616c696420737461626c6520746f6b656e0000000000000000000000006044820152606490fd5b62461bcd60e51b815260206004820152601860248201527f496e76616c696420756e6465726c79696e6720746f6b656e00000000000000006044820152606490fd5b631e4fbdf760e01b5f525f60045260245ffd5b601f909101601f19168101906001600160401b0382119082101761037657604052565b634e487b7160e01b5f52604160045260245ffd5b51906001600160a01b038216820361025d57565b6001600160a01b0381165f9081525f5160206160a65f395f51905f52602052604090205460ff1661040f576001600160a01b03165f8181525f5160206160a65f395f51905f5260205260408120805460ff191660011790553391905f5160206160865f395f51905f528180a4600190565b505f90565b6001600160a01b0381165f9081525f5160206160c65f395f51905f52602052604090205460ff1661040f576001600160a01b03165f8181525f5160206160c65f395f51905f5260205260408120805460ff191660011790553391907fa49807205ce4d355092ef5a8a18f56e8913cf4a201fbe287825b095693c21775905f5160206160865f395f51905f529080a460019056fe6080806040526004361015610012575f80fd5b5f905f3560e01c90816301ffc9a714613d645750806305b6cb4f1461391a5780630ab464f0146138d15780631289c447146137225780631ef3a04c146136f6578063239bc2ff146136d9578063248a9ca3146136a65780632495a599146136625780632a46018c146135fd5780632ef918621461317d5780632f2ff15d1461313e57806334861b4b146130ff578063355af607146130ba57806336568abe146130755780633ff8053514613057578063430730a31461302f578063432ac92f14612f73578063462c257d14612ef457806350d5041d14612eac578063547d96c314612e8e57806356bcb66614612e2f57806358e325d414612dd75780635ad6fb9314612a825780636c78365314612a64578063715018a614612a0a5780637284168a146129cc578063741bef1a146129a357806375b238fc1461297b5780638d135097146129555780638da5cb5b1461292e57806391d14854146128e4578063927317c61461287d57806392fd7d16146125d157806395082d25146125ae57806395877f781461243f5780639a19c7b0146123a35780639d7f7e86146123865780639ec176c414612198578063a217fddf1461217c578063a25aa00b14612158578063a33dfedc146120f1578063a3c6c68c146120d3578063a9d75b2b1461208e578063ab4fb0a314611e3f578063ae0e012514611e17578063b0192f9a14611dee578063b3d44dd814611dd0578063b6f7132f146110a4578063c19d93fb14611da4578063c1e0372814611cbe578063c634b78e14611c22578063c9d1144214611bbb578063cc17e15d14611b64578063cee7dc6214611b3e578063d547741f14611afb578063dfc9afe3146118fc578063e01d19f2146111fa578063e4fa8a5b146111aa578063eb82a7de1461118c578063ee065e1114611163578063f2fde38b146110dd578063f69f1e4a146110a4578063f8c8765e14610dc7578063fb391a7e146107f75763fde52f63146102e9575f80fd5b346107f45760a03660031901126107f457610302613db7565b9061030b613dcd565b916044356064359160843590600382101593846107f25760ff6006541660058110156107de57600161033d9114613e9e565b338652600560205261035560ff604088205416614bfe565b61035d614d53565b801515806107d5575b61036f90613f10565b604051636eb1769f60e11b81523360048201523060248201526001600160a01b037f00000000000000000000000000000000000000000000000000000000000000001690602081604481855afa80156107ca5786908990610794575b6103d792501015613f82565b6040516323b872dd60e01b81523360048201523060248201526044810186905290602090829060649082908b905af1801561078957879061074a575b61041d9150613fd4565b60405163abb12a2360e01b81527f00000000000000000000000000000000000000000000000000000000000000006001600160a01b031696906104636004820186613e44565b8260248201526020816044818b5afa90811561070d578291610718575b50801561069a579560015b610496848789614d73565b9a90996104a8838d8d8d8d878d614e05565b604051627eeac760e11b81526001600160a01b0383166004820152602481018b905290816044815a93602094fa90811561068f57908a89928792610652575b506104f193615120565b156105fc57806105e8576040805187815260208101879052908101899052606081018a905287906001600160a01b038616907f7f203fdda9f9cb94d7d21f028b6cdda6dd133a38f9ad7b3e455c217fe4294d1a90608090a35b6105d457506040805194855260208501939093529183019190915260608201849052608082018590526105d092916001600160a01b03909116907f6b09923d887ff6b3a7daa9354d80782a148bde233fb233310ebc3a3ad70c3073908060a081015b0390a260018055604051938493846040919493926060820195825260208201520152565b0390f35b634e487b7160e01b81526021600452602490fd5b634e487b7160e01b82526021600452602482fd5b50604080518681526020810186905290810188905260608101899052819087906001600160a01b038616907f179a3bb84f3b9d1f6ea5ef46aadc2b48cc4f50c551092593ffbe2597107ad7ab90608090a361054a565b925050506020813d602011610687575b8161066f60209383613f4c565b81010312610683575187908a6104f16104e7565b5f80fd5b3d9150610662565b6040513d87823e3d90fd5b50604051630b514f3360e41b81526106b56004820186613e44565b826024820152602081604481858c5af190811561070d5782916106db575b50958161048b565b90506020813d602011610705575b816106f660209383613f4c565b8101031261068357515f6106d3565b3d91506106e9565b6040513d84823e3d90fd5b90506020813d602011610742575b8161073360209383613f4c565b8101031261068357515f610480565b3d9150610726565b506020813d602011610781575b8161076460209383613f4c565b8101031261077d5761077861041d91613fc7565b610413565b8680fd5b3d9150610757565b6040513d89823e3d90fd5b50506020813d6020116107c2575b816107af60209383613f4c565b8101031261068357856103d791516103cb565b3d91506107a2565b6040513d8a823e3d90fd5b50831515610366565b634e487b7160e01b87526021600452602487fd5b855b80fd5b50346107f45760403660031901126107f45760043560ff600654166005811015610db35760016108279114613e9e565b61082f614d53565b6040516350d5041d60e01b8152606081600481305afa908115610c86576108739184918591610d80575b5080610d77575b61086990613f10565b60243583336146f9565b6040516370a0823160e01b81523360048201529092907f00000000000000000000000000000000000000000000000000000000000000006001600160a01b0316602082602481845afa918215610c86578392610d43575b506108dc602086019283511115614c3d565b338352600c6020526040832054906108fb604087019283511115614c82565b8251813b15610caa57604051632770a7eb60e21b815233600482015260248101919091529084908290604490829084905af18015610d3857908491610d23575b505084517f00000000000000000000000000000000000000000000000000000000000000006001600160a01b03169190823b15610caa57604051637a94c56560e11b8152336004820152602481018790526044810191909152848160648183875af1801561068f57908591610d0a575b505060405163463d31d760e11b815260048101869052918483602481845afa92831561068f578593610ce2575b50604051627eeac760e11b81523360048201526024810187905290602090829060449082905afa90811561068f578591610cae575b50610a4192610a1d918733615120565b8051338552600c602052610a36604086209182546140f7565b9055516009546140f7565b600955610a5181516007546140f7565b600755610a6184516008546140f7565b60085560045460a08501518551916001600160a01b031690813b15610caa5760405163c76295b160e01b8152336004820152602481018790526044810191909152606481019290925283908290608490829084905af18015610c8657908391610c91575b505060608401805160405163a9059cbb60e01b815233600482015260248101919091529092906001600160a01b037f00000000000000000000000000000000000000000000000000000000000000001660208260448186855af1918215610c86578392610c40575b5060048054608089015160405163a9059cbb60e01b81526001600160a01b03909216928201929092526024810191909152906020908290818681604481015b03925af1928315610c34578093610be5575b50506105d0939291610b92610b9792614cce565b614d11565b519351905160408051948552602085018690528401829052606084018190529233907f4d667732637549615f3cd28023b13380094dd975c0ac7c1b26916a8b1363b7ec9080608081016105ac565b909192506020823d602011610c2c575b81610c0260209383613f4c565b810103126107f457506105d0939291610b92610c20610b9793613fc7565b93949550819250610b7e565b3d9150610bf5565b604051903d90823e3d90fd5b9091506020813d602011610c7e575b81610c5c60209383613f4c565b81010312610c7a576020610c72610b6c92613fc7565b929150610b2d565b8280fd5b3d9150610c4f565b6040513d85823e3d90fd5b81610c9b91613f4c565b610ca657815f610ac5565b5080fd5b8480fd5b90506020813d602011610cda575b81610cc960209383613f4c565b810103126106835751610a41610a0d565b3d9150610cbc565b610cff9193503d8087833e610cf78183613f4c565b8101906141f8565b50505050915f6109d8565b81610d1491613f4c565b610d1f57835f6109ab565b8380fd5b81610d2d91613f4c565b610c7a57825f61093b565b6040513d86823e3d90fd5b9091506020813d602011610d6f575b81610d5f60209383613f4c565b810103126106835751905f6108ca565b3d9150610d52565b50801515610860565b9050610da4915060603d606011610dac575b610d9c8183613f4c565b810190614104565b90505f610859565b503d610d92565b634e487b7160e01b83526021600452602483fd5b50346107f45760803660031901126107f457610de1613db7565b610de9613dcd565b604435916001600160a01b03831690818403610caa57606435936001600160a01b03851680860361077d57610e1c6157a9565b600d549260ff841661105f5760ff60065416600581101561104b57610ff75760018060a01b03169460045490866bffffffffffffffffffffffff60a01b83161760045560018060a01b031696876bffffffffffffffffffffffff60a01b60035416176003556040519463313ce56760e01b86526020866004818c5afa928315610fec5788610f0894610f57988d91610fbd575b506001600160a81b03199092161760a09190911b60ff60a01b1617600455610100600160a81b031916600882901b610100600160a81b031617600d55610ef36152d4565b610f03610efe6140bd565b615366565b615445565b507fce4dc51eb54a1fb30d5642292a758099a420b02c5040b764c25963ee4f8bcef98780a2600e80546001600160a01b03191684179055610f476152d4565b610f52610efe614083565b6153c0565b507f0955f82c07229d6a99f48ddd28fe0036270495ad0976e376cd9fa4f18528fdf58480a2600160ff196006541617600655600160ff19600d541617600d557f14717a4069908f8f5dd3ada5c62bbb2db2dc76f826d79f9dd5960a019e7151798380a380f35b610fdf915060203d602011610fe5575b610fd78183613f4c565b810190614be5565b5f610eaf565b503d610fcd565b6040513d8c823e3d90fd5b60405162461bcd60e51b815260206004820152602660248201527f43616e206f6e6c7920696e697469616c697a6520696e20496e63657074696f6e60448201526520737461746560d01b6064820152608490fd5b634e487b7160e01b89526021600452602489fd5b60405162461bcd60e51b815260206004820152601a60248201527f53797374656d20616c726561647920696e697469616c697a65640000000000006044820152606490fd5b50346107f45760203660031901126107f4576020906040906001600160a01b036110cc613db7565b168152600c83522054604051908152f35b50346107f45760203660031901126107f4576110f7613db7565b6110ff6157a9565b6001600160a01b0316801561114f5781546001600160a01b03198116821783556001600160a01b03167f8be0079c531659141344cd1fd0a4f28419497f9722a3daafe3b4186f6b6457e08380a380f35b631e4fbdf760e01b82526004829052602482fd5b50346107f457806003193601126107f4576004546040516001600160a01b039091168152602090f35b50346107f457806003193601126107f4576020601254604051908152f35b50346107f457806003193601126107f4576111c36152d4565b80600f558060105580601155806012557f4268cdd9d22c1a426c377c28698399a7a2184d8b11fb6474e958dc4b0b30291e8180a180f35b50346107f45760803660031901126107f457611214613db7565b9061121d613dcd565b906044359160643560ff6006541660058110156118e85760016112409114613e9e565b338352600560205261125860ff604085205416614bfe565b611260614d53565b6001811015806118dd575b6112749061469e565b6040516350d5041d60e01b815290606082600481305afa8015610d3857906112b79291859286916118b6575b50806118ad575b6112b090613f10565b85846146f9565b6040516370a0823160e01b81526001600160a01b03808716600483015291957f0000000000000000000000000000000000000000000000000000000000000000909216939091602083602481885afa92831561070d578293611879575b50611326602088019384511115614c3d565b60018060a01b03841693848352600c602052604083205461134e60408a019182511115614c82565b6040516370a0823160e01b8152306004820152967f00000000000000000000000000000000000000000000000000000000000000006001600160a01b03169390602089602481885afa9889156117ee57908b9594939291879a611842575b5060608601996113c460808c51980197885190614062565b116117fd57875191813b156117f957604051632770a7eb60e21b81526001600160a01b03919091166004820152602481019290925286908290604490829084905af180156117ee579086916117d9575b505089517f00000000000000000000000000000000000000000000000000000000000000006001600160a01b03169190823b1561077d57604051637a94c56560e11b81526001600160a01b0385166004820152602481018c90526044810191909152868160648183875af18015610789579087916117c4575b505060405163463d31d760e11b8152600481018b9052918683602481845afa92831561078957908b91889461179b575b50604051627eeac760e11b81526001600160a01b0386166004820152602481019290925260209082908180604481015b03915afa908115610789578791611767575b506115289261150f918c86615120565b8051888752600c602052610a36604088209182546140f7565b60095561153885516007546140f7565b60075561154889516008546140f7565b60085560045460a08a01518a519290916001600160a01b031690813b1561077d5760405163c76295b160e01b81526001600160a01b03919091166004820152602481018b9052604481019290925260648201929092529084908290608490829084905af18015610d3857908491611752575b5050855160405163a9059cbb60e01b81523360048201526024810191909152919060208360448187855af1928315610d3857849361170e575b5060048054925160405163a9059cbb60e01b81526001600160a01b039094169184019190915260248301526020908290818681604481015b03925af1928315610c3457809361169d575b5050916116737f4d667732637549615f3cd28023b13380094dd975c0ac7c1b26916a8b1363b7ec92610b926105d0979695614cce565b519551925160408051968752602087018890528601849052606086018190529480608081016105ac565b909192506020823d602011611706575b816116ba60209383613f4c565b810103126107f45750916116737f4d667732637549615f3cd28023b13380094dd975c0ac7c1b26916a8b1363b7ec92610b926116fa6105d0989796613fc7565b9450509193949561163d565b3d91506116ad565b9092506020813d60201161174a575b8161172a60209383613f4c565b81010312610d1f5761162b91611741602092613fc7565b939150916115f3565b3d915061171d565b8161175c91613f4c565b610c7a57825f6115ba565b90506020813d602011611793575b8161178260209383613f4c565b8101031261068357516115286114ff565b3d9150611775565b6020919450916117b76114ed933d808c833e610cf78183613f4c565b50505050949150916114bd565b816117ce91613f4c565b6107f257855f61148d565b816117e391613f4c565b610caa57845f611414565b6040513d88823e3d90fd5b8780fd5b60405162461bcd60e51b815260206004820152601d60248201527f496e73756666696369656e7420636f6e74726163742062616c616e63650000006044820152606490fd5b955098506020853d602011611871575b8161185f60209383613f4c565b81010312610683578a9451985f6113ac565b3d9150611852565b9092506020813d6020116118a5575b8161189560209383613f4c565b810103126106835751915f611314565b3d9150611888565b508115156112a7565b90506118d291925060603d606011610dac57610d9c8183613f4c565b92919050915f6112a0565b50606481111561126b565b634e487b7160e01b84526021600452602484fd5b50346107f45760403660031901126107f457611916613db7565b6024359061192261528b565b6040516370a0823160e01b81523060048201527f00000000000000000000000000000000000000000000000000000000000000006001600160a01b031690602081602481855afa801561068f5784918691611ac6575b5010611a825760405163a9059cbb60e01b81526001600160a01b038316600482015260248101849052906020908290604490829088905af1908115610d38578491611a1e575b507fb1fd9626a76d2d43227b2b58bc0e4f4fbb3ba2d8dc7d515a58dfb05a7216e7dd916119ec60209261401f565b6119f8846009546140f7565b600955611a0784601154614062565b6011556040519384526001600160a01b031692a280f35b90506020813d602011611a7a575b81611a3960209383613f4c565b81010312610d1f577fb1fd9626a76d2d43227b2b58bc0e4f4fbb3ba2d8dc7d515a58dfb05a7216e7dd916119ec611a71602093613fc7565b925050916119be565b3d9150611a2c565b606460405162461bcd60e51b815260206004820152602060248201527f756e6465726c79696e675479706520616d6f756e74206e6f7420656e6f7567686044820152fd5b9150506020813d602011611af3575b81611ae260209383613f4c565b81010312610683578390515f611978565b3d9150611ad5565b50346107f45760403660031901126107f457611b3a600435611b1b613dcd565b90611b35610efe825f526002602052600160405f20015490565b615738565b5080f35b50346107f457806003193601126107f457611b576152d4565b6020600f54604051908152f35b50346107f45760403660031901126107f457611b7e613db7565b6001600160a01b03168152600a60205260408120805460243592908310156107f4576020611bac8484613e75565b90549060031b1c604051908152f35b50346107f45760203660031901126107f457611bd5613db7565b611bdd6152d4565b611be8610efe614083565b611bf1816156ba565b506001600160a01b03167f680982af7bfb8bdbe6297103b9c7b13afd2eda6ed4fe0e4db5138a05fc68a61c8280a280f35b50346107f45760203660031901126107f457611c3c613db7565b611c446152d4565b5f516020615b895f395f51905f525f5260026020527fe5ebfa64fca8d502a8e50c1edffd2c31ef4dad5b396e65d9f397fb028f74abc654611c8490615366565b611c8d816154c5565b506001600160a01b03167fc36befb96151814c16fe0d20f29a5912794cda96453e57ab00edad0bb21d50fa8280a280f35b50346107f45760203660031901126107f45760405163463d31d760e11b815260048035908201529080826024817f00000000000000000000000000000000000000000000000000000000000000006001600160a01b03165afa918215611d9757611d4492829183849085928694611d6b575b50611d5f9394955060405196878097613e44565b6020860152604085015260a0606085015260a0840190613e51565b90151560808301520390f35b9350505050611d889150611d5f923d8091833e610cf78183613f4c565b9394508493929091905f611d30565b50604051903d90823e3d90fd5b50346107f457806003193601126107f45760ff60065416604051906005811015610db357602092508152f35b50346107f457806003193601126107f4576020601154604051908152f35b50346107f457806003193601126107f457600e546040516001600160a01b039091168152602090f35b50346107f457806003193601126107f45760206040515f516020615ae95f395f51905f528152f35b50346107f45760403660031901126107f457611e59613db7565b602435611e6461528b565b6040516370a0823160e01b81526001600160a01b0383811660048301819052937f000000000000000000000000000000000000000000000000000000000000000090911691602081602481865afa80156117ee5784908790612058575b611ecb92506153a0565b604051636eb1769f60e11b81526001600160a01b0382166004820152306024820152602081604481865afa9081156117ee578691612026575b5083811061200f57506040516323b872dd60e01b81526001600160a01b0391909116600482015230602482015260448101839052906020908290606490829088905af1908115610d38578491611fd5575b5015611f9857602081611f8b7f7237d63681350abad87252ddbffb36b0c9a1500d7d59cb15bfcad6329c52005d93601254614062565b601255604051908152a280f35b60405162461bcd60e51b81526020600482015260156024820152741c9958d95a5d99519c9bdb52dc1c8819985a5b1959605a1b6044820152606490fd5b90506020813d602011612007575b81611ff060209383613f4c565b81010312610d1f5761200190613fc7565b5f611f55565b3d9150611fe3565b63054365bb60e31b86526004526024839052604485fd5b90506020813d602011612050575b8161204160209383613f4c565b8101031261068357515f611f04565b3d9150612034565b50506020813d602011612086575b8161207360209383613f4c565b810103126106835783611ecb9151611ec1565b3d9150612066565b50346107f457806003193601126107f4576040517f00000000000000000000000000000000000000000000000000000000000000006001600160a01b03168152602090f35b50346107f457806003193601126107f4576020600754604051908152f35b50346107f45760203660031901126107f45761210b613db7565b6121136152d4565b61211e610efe6140bd565b6121278161563c565b506001600160a01b03167f1c5bb14b08c8da4ac703077e5422f26a6590ab259cc171a1d53cd790c7bc65188280a280f35b50346107f457806003193601126107f457602060ff60045460a01c16604051908152f35b50346107f457806003193601126107f457602090604051908152f35b50346107f45760403660031901126107f4576121b2613db7565b604051627eeac760e11b81526001600160a01b038281166004830152602480359083018190527f000000000000000000000000000000000000000000000000000000000000000090911693919290602084604481885afa938415610c86578394612350575b5082602495612227861515614b99565b6040519687809263463d31d760e11b82528560048301525afa928315610c34578095819282948392849761231e575b5060048054604051639e35afc960e01b81526001600160a01b03938416928101929092526024820193909352916020918391168180604481015b03915afa928315610c3457926122e8575b506122d291926122bc60405198899889526020890190613e44565b604087015260e0606087015260e0860190613e51565b921515608085015260a084015260c08301520390f35b91506020823d602011612316575b8161230360209383613f4c565b81010312610683576122d29151916122a1565b3d91506122f6565b919450955061229097506020945061234091503d8084833e610cf78183613f4c565b9399939791965091949192612256565b9493506020853d60201161237e575b8161236c60209383613f4c565b81010312610683579351929382612217565b3d915061235f565b50346107f457806003193601126107f4576020604051610e108152f35b50346107f45760203660031901126107f4576123bd613db7565b6123c56152d4565b5f516020615b895f395f51905f525f5260026020527fe5ebfa64fca8d502a8e50c1edffd2c31ef4dad5b396e65d9f397fb028f74abc65461240590615366565b61240e816155be565b506001600160a01b03167f998b1c8c2c4e47baeddde4d4152dfae31548fb5e6aa5fc2026808fa365a30e7c8280a280f35b50346107f45760203660031901126107f457612459613db7565b6124616157a9565b6001600160a01b03168015612569576003546001600160a01b03811690828214612524576001600160a01b031916821760035560405163313ce56760e01b8152602081600481865afa908115610d38577fd03dd51ffcbea74995df602bf6be1a03953e508c61930600b4d5f77038261aa7916020918691612507575b506004805460ff60a01b191660a092831b60ff60a01b161790819055604051911c60ff168152a380f35b61251e9150823d8411610fe557610fd78183613f4c565b5f6124dd565b60405162461bcd60e51b815260206004820152601760248201527f53616d65207072696365206665656420616464726573730000000000000000006044820152606490fd5b60405162461bcd60e51b815260206004820152601a60248201527f496e76616c6964207072696365206665656420616464726573730000000000006044820152606490fd5b50346107f457806003193601126107f4576020604051670de0b6b3a76400008152f35b50346107f45760a03660031901126107f4576125eb613db7565b60443560643591608435916125fe61531d565b6040516370a0823160e01b81523060048201527f00000000000000000000000000000000000000000000000000000000000000006001600160a01b031690602081602481855afa90811561078957879161284b575b5061265e8386614062565b1161280757803b156107f257604051632770a7eb60e21b8152306004820152602481018590528690818160448183875af1801561070d576127f2575b50506126a8846007546140f7565b60075560405163a9059cbb60e01b81526001600160a01b03841660048201526024810183905290602090829060449082908a905af19081156117ee5786916127b8575b501561277357837f4321ab8601720efe0f7eb33654ae9b9ffe7028d0998e241907565d6388de9c51937f8f67561a3452e9bc990a16c76944a6dac35724abbce733d971302d479b859076604096946127468896601054614062565b6010558751602435815260208101939093526001600160a01b0316968792a282519182526020820152a280f35b60405162461bcd60e51b815260206004820152601f60248201527f776974686472617741667465724c69717569646174696f6e206661696c6564006044820152606490fd5b90506020813d6020116127ea575b816127d360209383613f4c565b810103126107f2576127e490613fc7565b5f6126eb565b3d91506127c6565b816127fc91613f4c565b6107f257855f61269a565b606460405162461bcd60e51b815260206004820152602060248201527f776974686472617741667465724c69717569646174696f6e206661696c65642e6044820152fd5b90506020813d602011612875575b8161286660209383613f4c565b8101031261068357515f612653565b3d9150612859565b50346107f45760203660031901126107f457612897613db7565b61289f6152d4565b6128aa610efe6140bd565b6128b381615445565b506001600160a01b03167fce4dc51eb54a1fb30d5642292a758099a420b02c5040b764c25963ee4f8bcef98280a280f35b50346107f45760403660031901126107f4576040612900613dcd565b9160043581526002602052209060018060a01b03165f52602052602060ff60405f2054166040519015158152f35b50346107f457806003193601126107f457546040516001600160a01b039091168152602090f35b50346107f457806003193601126107f45761296e6152d4565b6020601054604051908152f35b50346107f457806003193601126107f45760206040515f516020615b895f395f51905f528152f35b50346107f457806003193601126107f4576003546040516001600160a01b039091168152602090f35b50346107f457806003193601126107f457602060405160ff7f0000000000000000000000000000000000000000000000000000000000000000168152f35b50346107f457806003193601126107f457612a236157a9565b80546001600160a01b03198116825581906001600160a01b03167f8be0079c531659141344cd1fd0a4f28419497f9722a3daafe3b4186f6b6457e08280a380f35b50346107f457806003193601126107f4576020601054604051908152f35b50346107f45760403660031901126107f457612a9c613db7565b604051627eeac760e11b81526001600160a01b03828116600483015260248035908301819052919291907f000000000000000000000000000000000000000000000000000000000000000016602084604481845afa93841561068f578594612da3575b50612b0b841515614b99565b6040516350d5041d60e01b815292606084600481305afa9283156117ee57869387958891612d7a575b5015612d27578315612cd857866024936040519485809263463d31d760e11b82528560048301525afa9182156107895787938893612cab575b5060048054604051639e35afc960e01b81526001600160a01b03938416928101929092526024820193909352916020918391168180604481015b03915afa9182156107895784918893612c72575b50612bc69293615955565b670de0b6b3a7640000612bd98287614126565b04828110612c6657612beb83826140f7565b96670de0b6b3a7640000880297808904670de0b6b3a76400001490151715612c525750612c1b8661010098614139565b612c2584836140f7565b925b604051978852602088015260408701526060860152608085015260a084015260c083015260e0820152f35b634e487b7160e01b81526011600452602490fd5b86610100979092612c27565b915091506020813d602011612ca3575b81612c8f60209383613f4c565b810103126106835751908390612bc6612bbb565b3d9150612c82565b612ba79294506020919350612cc9903d808b833e610cf78183613f4c565b50505094909493915091612b6d565b60405162461bcd60e51b815260206004820152602160248201527f496e76616c69642063757272656e742070726963652066726f6d206f7261636c6044820152606560f81b6064820152608490fd5b60405162461bcd60e51b815260206004820152602560248201527f4f7261636c65207072696365206e6f7420617661696c61626c65206f7220746f6044820152641bc81bdb1960da1b6064820152608490fd5b91945050612d9891945060603d606011610dac57610d9c8183613f4c565b94919390945f612b34565b9093506020813d602011612dcf575b81612dbf60209383613f4c565b810103126106835751925f612aff565b3d9150612db2565b50346107f45760c0612df4612deb36613de3565b929190916146f9565b60a0604051918051835260208101516020840152604081015160408401526060810151606084015260808101516080840152015160a0820152f35b50346107f45760803660031901126107f4576024359060038210156107f457506044356105d0612e71612e658385600435614d73565b94909360643591615955565b604051938493846040919493926060820195825260208201520152565b50346107f457806003193601126107f4576020600954604051908152f35b50346107f457806003193601126107f457600354600454606091612edf9160a01c60ff16906001600160a01b03166157e6565b90604051928352602083015215156040820152f35b50346107f45760403660031901126107f457612f0e613db7565b60243590811515809203610c7a5760207f695f532381c2b1d54ce46886f633d3cd4d9fb397889524ad2c086e360b5ced6291612f486157a9565b6001600160a01b0316808552600582526040808620805460ff191660ff87161790555193845292a280f35b50346107f45760203660031901126107f457612fc4612fb691612f9c612f97613db7565b614291565b94919395909260405197889760a0895260a0890190613e11565b908782036020890152613e11565b8581036040870152602080855192838152019401915b8181106130085750505081612ffa91856105d09594036060870152613e11565b908382036080850152613e11565b9194955091926020808261301f6001948951613e44565b0195019101918695949392612fda565b50346107f457806003193601126107f45760206040515f516020615ac95f395f51905f528152f35b50346107f457806003193601126107f4576020600f54604051908152f35b50346107f45760403660031901126107f45761308f613dcd565b336001600160a01b038216036130ab57611b3a90600435615738565b63334bd91960e11b8252600482fd5b50346107f457806003193601126107f4576040517f00000000000000000000000000000000000000000000000000000000000000006001600160a01b03168152602090f35b50346107f45760203660031901126107f45760209060ff906040906001600160a01b0361312a613db7565b168152600584522054166040519015158152f35b50346107f45760403660031901126107f457611b3a60043561315e613dcd565b90613178610efe825f526002602052600160405f20015490565b615545565b50346106835761318c36613de3565b6131989391929361531d565b7f00000000000000000000000000000000000000000000000000000000000000006001600160a01b0316803b1561068357604051637a94c56560e11b81526001600160a01b03841660048201526024810186905260448101859052905f908290606490829084905af180156135f2576135dd575b50613219836008546140f7565b60085560408051858152602081018590526001600160a01b038416917f65a33988ac2fa12a89c206b4b72c5531cc14ff9d0a36acfd9d64ea60747408b791a260048054604051639e35afc960e01b81526001600160a01b03858116938201939093526024810187905292911690602083604481855afa9283156107895787936135a9575b506040516350d5041d60e01b8152606081600481305afa80156107ca5788918991613586575b508061357d575b1561356e57670de0b6b3a76400008402848104670de0b6b3a7640000148515171561355a57906132f991614139565b9081116134e15761336b916020917f00000000000000000000000000000000000000000000000000000000000000009060ff8216601281036134a457509050905b60405163a9059cbb60e01b81526001600160a01b039091166004820152602481019190915291829081906044820190565b0381897f00000000000000000000000000000000000000000000000000000000000000006001600160a01b03165af19081156117ee57869161346a575b50156134255760045485946001600160a01b0390911690813b156107f25760405163c76295b160e01b81526001600160a01b039490941660048501526024840152604483019190915260648201929092529082908290608490829084905af1801561070d576134145750f35b8161341e91613f4c565b6107f45780f35b60405162461bcd60e51b815260206004820152601860248201527f496e746572657374207472616e73666572206661696c656400000000000000006044820152606490fd5b90506020813d60201161349c575b8161348560209383613f4c565b810103126107f25761349690613fc7565b5f6133a8565b3d9150613478565b601211156134cc576134c06134bb6134c69361416a565b61417b565b90614139565b9061333a565b6134db6134bb6134c693614157565b90614126565b60405162461bcd60e51b815260206004820152604560248201527f54686520756e6465726c79696e6720746f20626520696e2061756374696f6e2060448201527f73686f756c64206265206d6f7265207468616e206163637572656420696e74656064820152643932b9ba1760d91b608482015260a490fd5b634e487b7160e01b89526011600452602489fd5b5050602061336b91879061333a565b508015156132ca565b90506135a1915060603d606011610dac57610d9c8183613f4c565b90505f6132c3565b9092506020813d6020116135d5575b816135c560209383613f4c565b810103126106835751915f61329d565b3d91506135b8565b6135ea9195505f90613f4c565b5f935f61320c565b6040513d5f823e3d90fd5b3461068357602036600319011261068357613616613db7565b61361e6152d4565b613629610efe614083565b613632816153c0565b506001600160a01b03167f0955f82c07229d6a99f48ddd28fe0036270495ad0976e376cd9fa4f18528fdf55f80a2005b34610683575f366003190112610683576040517f00000000000000000000000000000000000000000000000000000000000000006001600160a01b03168152602090f35b346106835760203660031901126106835760206136d16004355f526002602052600160405f20015490565b604051908152f35b34610683575f366003190112610683576020600854604051908152f35b34610683575f36600319011261068357600d5460405160089190911c6001600160a01b03168152602090f35b346106835760403660031901126106835761373b613db7565b6024359061374761528b565b6040516370a0823160e01b81523060048201527f00000000000000000000000000000000000000000000000000000000000000006001600160a01b031690602081602481855afa80156135f25784905f9061389b575b6137a792506153a0565b60405163a9059cbb60e01b81526001600160a01b03831660048201526024810184905290602090829060449082905f905af19081156135f2575f91613837575b507fed16d6dd782c608b61d5c1c0acb1c19a3525a97104c52c147e34cdfafa639a4e9161381560209261401f565b61382184600f54614062565b600f556040519384526001600160a01b031692a2005b90506020813d602011613893575b8161385260209383613f4c565b81010312610683577fed16d6dd782c608b61d5c1c0acb1c19a3525a97104c52c147e34cdfafa639a4e9161381561388a602093613fc7565b925050916137e7565b3d9150613845565b50506020813d6020116138c9575b816138b660209383613f4c565b8101031261068357836137a7915161379d565b3d91506138a9565b34610683576040366003190112610683576001600160a01b036138f2613db7565b165f52600b60205260405f206024355f52602052602060ff60405f2054166040519015158152f35b34610683576060366003190112610683576004356024359060443591600383101592836106835760ff600654166005811015613ba457600161395c9114613e9e565b613964614d53565b81151580613d5b575b61397690613f10565b604051636eb1769f60e11b81523360048201523060248201526001600160a01b037f00000000000000000000000000000000000000000000000000000000000000001690602081604481855afa80156135f25785905f90613d25575b6139de92501015613f82565b6040516323b872dd60e01b81523360048201523060248201526044810185905290602090829060649082905f905af180156135f2575f90613cea575b613a249150613fd4565b60405163abb12a2360e01b81527f00000000000000000000000000000000000000000000000000000000000000006001600160a01b03169390613a6a6004820184613e44565b836024820152602081604481885afa9081156135f2575f91613cb8575b508015613c4457916001955b613a9e858385614d73565b979096613ab0828a8a89893333614e05565b604051627eeac760e11b81523360048201526024810187905290602090829060449082905afa80156135f25784905f90613c0e575b613af192508733615120565b15613bb85780613ba457836040517f7f203fdda9f9cb94d7d21f028b6cdda6dd133a38f9ad7b3e455c217fe4294d1a339180613b478c8c898b859094939260609260808301968352602083015260408201520152565b0390a35b613ba45760408051928352602083019190915281019290925260608201839052608082018490526105d09133907f6b09923d887ff6b3a7daa9354d80782a148bde233fb233310ebc3a3ad70c3073908060a081016105ac565b634e487b7160e01b5f52602160045260245ffd5b505f836040517f179a3bb84f3b9d1f6ea5ef46aadc2b48cc4f50c551092593ffbe2597107ad7ab339180613c068c8c898b859094939260609260808301968352602083015260408201520152565b0390a3613b4b565b50506020813d602011613c3c575b81613c2960209383613f4c565b810103126106835783613af19151613ae5565b3d9150613c1c565b50604051630b514f3360e41b8152613c5f6004820184613e44565b8360248201526020816044815f895af19081156135f2575f91613c86575b50915f95613a93565b90506020813d602011613cb0575b81613ca160209383613f4c565b81010312610683575186613c7d565b3d9150613c94565b90506020813d602011613ce2575b81613cd360209383613f4c565b81010312610683575186613a87565b3d9150613cc6565b506020813d602011613d1d575b81613d0460209383613f4c565b8101031261068357613d18613a2491613fc7565b613a1a565b3d9150613cf7565b50506020813d602011613d53575b81613d4060209383613f4c565b8101031261068357846139de91516139d2565b3d9150613d33565b5082151561396d565b34610683576020366003190112610683576004359063ffffffff60e01b821680920361068357602091637965db0b60e01b8114908115613da6575b5015158152f35b6301ffc9a760e01b14905083613d9f565b600435906001600160a01b038216820361068357565b602435906001600160a01b038216820361068357565b6080906003190112610683576004356001600160a01b03811681036106835790602435906044359060643590565b90602080835192838152019201905f5b818110613e2e5750505090565b8251845260209384019390920191600101613e21565b906003821015613ba45752565b805180835260209291819084018484015e5f828201840152601f01601f1916010190565b8054821015613e8a575f5260205f2001905f90565b634e487b7160e01b5f52603260045260245ffd5b15613ea557565b60405162461bcd60e51b815260206004820152603a60248201527f496e76616c69642073746174653a2043757272656e7420737461746520646f6560448201527f73206e6f74206d617463682072657175697265642073746174650000000000006064820152608490fd5b15613f1757565b60405162461bcd60e51b815260206004820152600d60248201526c496e76616c696420707269636560981b6044820152606490fd5b90601f8019910116810190811067ffffffffffffffff821117613f6e57604052565b634e487b7160e01b5f52604160045260245ffd5b15613f8957565b60405162461bcd60e51b8152602060048201526016602482015275496e73756666696369656e7420616c6c6f77616e636560501b6044820152606490fd5b5190811515820361068357565b15613fdb57565b606460405162461bcd60e51b815260206004820152602060248201527f556e6465726c79696e6720746f6b656e207472616e73666572206661696c65646044820152fd5b1561402657565b60405162461bcd60e51b81526020600482015260146024820152731d1c985b9cd9995c951bd2dc1c8819985a5b195960621b6044820152606490fd5b9190820180921161406f57565b634e487b7160e01b5f52601160045260245ffd5b5f516020615ac95f395f51905f525f5260026020527f2f0949b8d545229c21fbc0522749eb3ef25626b0238be56d98991f55192caf2c5490565b5f516020615ae95f395f51905f525f5260026020527f15b7f7f5b1f9acd416a25aed773685588d9fa1a0964a8414d7af15dce2e397145490565b9190820391821161406f57565b9081606091031261068357805191614123604060208401519301613fc7565b90565b8181029291811591840414171561406f57565b8115614143570490565b634e487b7160e01b5f52601260045260245ffd5b60ff6011199116019060ff821161406f57565b60ff166012039060ff821161406f57565b60ff16604d811161406f57600a0a90565b8051821015613e8a5760209160051b010190565b5f19811461406f5760010190565b67ffffffffffffffff8111613f6e5760051b60200190565b906141d0826141ae565b6141dd6040519182613f4c565b82815280926141ee601f19916141ae565b0190602036910137565b919060a08382031261068357825160038110156106835792602081015192604082015192606083015167ffffffffffffffff811161068357830181601f820112156106835780519167ffffffffffffffff8311613f6e5760405190614267601f8501601f191660200183613f4c565b83825260208484010111610683575f6020846141239582608096018386015e830101529301613fc7565b9060018060a01b0382165f52600a60205260405f20916040519283602082549182815201915f5260205f20905f5b81811061464757505050836142d5910384613f4c565b5f927f00000000000000000000000000000000000000000000000000000000000000006001600160a01b031690845b81518110156143b25761434c602061431c838561418c565b51604051627eeac760e11b81526001600160a01b0388166004820152602481019190915291829081906044820190565b0381875afa9081156135f2575f91614381575b5061436d575b600101614304565b946143796001916141a0565b959050614365565b90506020813d82116143aa575b8161439b60209383613f4c565b8101031261068357515f61435f565b3d915061438e565b509184156145cf576143c3856141c6565b916143cd866141c6565b906143d7876141c6565b916143ea6143e4896141c6565b986141c6565b945f965f5b81518110156145c2576144376020614407838561418c565b51604051627eeac760e11b81526001600160a01b038b166004820152602481019190915291829081906044820190565b0381895afa9081156135f2575f91614591575b508061445a575b506001016143ef565b61446782849b939b61418c565b519081614474848761418c565b5261447f838761418c565b5260405163463d31d760e11b815260048101829052905f826024818a5afa80156135f257838e5f945f93614568575b50906144b99161418c565b526144c4838961418c565b906003831015613ba45791905260048054604051639e35afc960e01b81526001600160a01b038b811693820193909352602481019390935260209183916044918391165afa9081156135f2575f91614536575b508161452f916145296001948c61418c565b526141a0565b9890614451565b90506020813d8211614560575b8161455060209383613f4c565b8101031261068357516001614517565b3d9150614543565b6144b99295506145839193503d805f833e610cf78183613f4c565b5050509490949290916144ae565b90506020813d82116145ba575b816145ab60209383613f4c565b8101031261068357515f61444a565b3d915061459e565b5050979493509591945050565b50505090506020906040516145e48382613f4c565b5f81525f368137604051926145f98185613f4c565b5f84525f3681376040519261460e8285613f4c565b5f84525f368137604051926146238385613f4c565b5f84525f368137604051926146388185613f4c565b5f8452505f3681379493929190565b82548452602090930192600192830192016142bf565b6040519060c0820182811067ffffffffffffffff821117613f6e576040525f60a0838281528260208201528260408201528260608201528260808201520152565b156146a557565b60405162461bcd60e51b815260206004820152602660248201527f50657263656e74616765206d757374206265206265747765656e20312520616e60448201526564203130302560d01b6064820152608490fd5b919261470361465d565b50600184101580614b8e575b6147189061469e565b604051627eeac760e11b81526001600160a01b038481166004830152602482018490527f000000000000000000000000000000000000000000000000000000000000000016949093602085604481895afa9485156135f2575f95614b58575b505f60249495966040519586809263463d31d760e11b82528960048301525afa9081156135f2575f945f92614b29575b5060048054604051639e35afc960e01b81526001600160a01b0393841692810192909252602482019790975294959394936020918591168180604481015b03915afa9283156135f2575f93614af5575b507f000000000000000000000000000000000000000000000000000000000000000094606461482e8461482861465d565b99614126565b0480885215614ab0576003811015613ba457806149cb5750855160031c90816020880152816009029160098304810361406f57677ce66c50e28400000291808304670de0b6b3a7640000149015171561406f5761488a91614139565b60408601525b82156149ae576064916148a291614126565b04908160a0850152670de0b6b3a7640000820291808304670de0b6b3a7640000149015171561406f576148d491614139565b60408301805182116149715760ff83166012810361490657506148fe9250816080850152516140f7565b606082015290565b9091906012111561494557826134c06134bb61492e61493d946134c06134bb6148fe9961416a565b9460808801958652519261416a565b9051906140f7565b826134db6134bb61496261493d946134db6134bb6148fe99614157565b94608088019586525192614157565b60405162461bcd60e51b8152602060048201526015602482015274125b9d985b1a59081919591d58dd08185b5bdd5b9d605a1b6044820152606490fd5b505050505f60a08201525f60808201526040810151606082015290565b60018103614a225750855160021c90816020880152816005029160058304810361406f57674563918244f400000291808304670de0b6b3a7640000149015171561406f57614a1891614139565b6040860152614890565b600203614a7257855160208701819052600181901b91906001600160ff1b0381160361406f57670de0b6b3a7640000820291808304670de0b6b3a7640000149015171561406f57614a1891614139565b60405162461bcd60e51b8152602060048201526016602482015275125b9d985b1a59081b195d995c9859d9481b195d995b60521b6044820152606490fd5b60405162461bcd60e51b815260206004820152601e60248201527f43616c63756c61746564206275726e20616d6f756e74206973207a65726f00006044820152606490fd5b9092506020813d602011614b21575b81614b1160209383613f4c565b810103126106835751915f6147f7565b3d9150614b04565b6147e59495506020919250614b47903d805f833e610cf78183613f4c565b5050509690969291509594936147a7565b9394506020843d602011614b86575b81614b7460209383613f4c565b8101031261068357925193925f614777565b3d9150614b67565b50606484111561470f565b15614ba057565b60405162461bcd60e51b815260206004820152601d60248201527f5573657220646f6573206e6f7420686f6c64207468697320746f6b656e0000006044820152606490fd5b90816020910312610683575160ff811681036106835790565b15614c0557565b60405162461bcd60e51b815260206004820152601060248201526f556e617574686f72697a656420414d4d60801b6044820152606490fd5b15614c4457565b60405162461bcd60e51b8152602060048201526016602482015275496e73756666696369656e7420532062616c616e636560501b6044820152606490fd5b15614c8957565b60405162461bcd60e51b815260206004820152601760248201527f496e73756666696369656e7420636f6c6c61746572616c0000000000000000006044820152606490fd5b15614cd557565b60405162461bcd60e51b8152602060048201526014602482015273155cd95c881d1c985b9cd9995c8819985a5b195960621b6044820152606490fd5b15614d1857565b60405162461bcd60e51b8152602060048201526013602482015272119959481d1c985b9cd9995c8819985a5b1959606a1b6044820152606490fd5b600260015414614d64576002600155565b633ee5aeb560e01b5f5260045ffd5b906003811015613ba45780614db05750677ce66c50e284000091614d9691614126565b0490816001600160fd1b038116810361406f5760031b905b565b60018103614de55750674563918244f4000091614dcc91614126565b0490816001600160fe1b038116810361406f5760021b90565b600203614a7257671bc16d674ec8000091614dff91614126565b04908190565b9492939196955f95614e3b60018060a01b038416998a5f52600c60205260405f20614e31828254614062565b9055600954614062565b6009557f00000000000000000000000000000000000000000000000000000000000000006001600160a01b0316803b15610683576040516340c10f1960e01b81526001600160a01b03929092166004830152602482018590525f908290604490829084905af180156135f25761510b575b5015615078577f00000000000000000000000000000000000000000000000000000000000000006001600160a01b0316803b156107f257604051634f5ed3b560e01b81526001600160a01b038316600482015260248101869052604481018590529086908290606490829084905af180156117ee57908691615063575b50505b6004546001600160a01b031690813b156107f257604051631e67ec1960e31b81526001600160a01b0391909116600482015260248101859052604481018490529085908290606490829084905af1801561068f5790859161504e575b505090614f9a614fa592600754614062565b600755600854614062565b600855838252600b6020526040822081835260205260ff60408320541615614fce575b50509050565b838252600a60205260408220938454946801000000000000000086101561503a578561500291600160409798018155613e75565b81549060031b9084821b915f19901b19161790558252600b60205282822090825260205220600160ff19825416179055805f80614fc8565b634e487b7160e01b84526041600452602484fd5b8161505891613f4c565b610d1f57835f614f88565b8161506d91613f4c565b610caa57845f614f29565b7f00000000000000000000000000000000000000000000000000000000000000006001600160a01b0316803b156107f257604051635b0a931d60e01b81526001600160a01b038316600482015260248101869052604481018590529086908290606490829084905af180156117ee579086916150f6575b5050614f2c565b8161510091613f4c565b610caa57845f6150ef565b6151189196505f90613f4c565b5f945f614eac565b600d5492939260081c6001600160a01b031690811561524657604051630ebf94ab60e41b81526001600160a01b038216600482015260248101849052602081604481865afa9081156135f2575f9161520c575b506151d457813b15610683575f6084926151bb8296604051988997889663585f75af60e01b885260018060a01b03166004880152602487015260448601526064850190613e44565b5af180156135f2576151ca5750565b5f614dae91613f4c565b60405162461bcd60e51b815260206004820152601060248201526f151bdad95b881a5cc8199c99595e995960821b6044820152606490fd5b90506020813d60201161523e575b8161522760209383613f4c565b810103126106835761523890613fc7565b5f615173565b3d915061521a565b60405162461bcd60e51b815260206004820152601a60248201527f6c69717569646174696f6e4d616e61676572206e6f74207365740000000000006044820152606490fd5b335f9081525f516020615b695f395f51905f52602052604090205460ff16156152b057565b63e2517d3f60e01b5f52336004525f516020615ac95f395f51905f5260245260445ffd5b335f9081525f516020615b495f395f51905f52602052604090205460ff16156152f957565b63e2517d3f60e01b5f52336004525f516020615b895f395f51905f5260245260445ffd5b335f9081525f516020615b095f395f51905f52602052604090205460ff161561534257565b63e2517d3f60e01b5f52336004525f516020615ae95f395f51905f5260245260445ffd5b5f81815260026020908152604080832033845290915290205460ff161561538a5750565b63e2517d3f60e01b5f523360045260245260445ffd5b8181106153ab575050565b63cf47918160e01b5f5260045260245260445ffd5b6001600160a01b0381165f9081525f516020615b695f395f51905f52602052604090205460ff16615440576001600160a01b03165f8181525f516020615b695f395f51905f5260205260408120805460ff191660011790553391905f516020615ac95f395f51905f52905f516020615aa95f395f51905f529080a4600190565b505f90565b6001600160a01b0381165f9081525f516020615b095f395f51905f52602052604090205460ff16615440576001600160a01b03165f8181525f516020615b095f395f51905f5260205260408120805460ff191660011790553391905f516020615ae95f395f51905f52905f516020615aa95f395f51905f529080a4600190565b6001600160a01b0381165f9081525f516020615b495f395f51905f52602052604090205460ff16615440576001600160a01b03165f8181525f516020615b495f395f51905f5260205260408120805460ff191660011790553391905f516020615b895f395f51905f52905f516020615aa95f395f51905f529080a4600190565b5f8181526002602090815260408083206001600160a01b038616845290915290205460ff166155b8575f8181526002602090815260408083206001600160a01b0395909516808452949091528120805460ff19166001179055339291905f516020615aa95f395f51905f529080a4600190565b50505f90565b6001600160a01b0381165f9081525f516020615b495f395f51905f52602052604090205460ff1615615440576001600160a01b03165f8181525f516020615b495f395f51905f5260205260408120805460ff191690553391905f516020615b895f395f51905f52905f516020615b295f395f51905f529080a4600190565b6001600160a01b0381165f9081525f516020615b095f395f51905f52602052604090205460ff1615615440576001600160a01b03165f8181525f516020615b095f395f51905f5260205260408120805460ff191690553391905f516020615ae95f395f51905f52905f516020615b295f395f51905f529080a4600190565b6001600160a01b0381165f9081525f516020615b695f395f51905f52602052604090205460ff1615615440576001600160a01b03165f8181525f516020615b695f395f51905f5260205260408120805460ff191690553391905f516020615ac95f395f51905f52905f516020615b295f395f51905f529080a4600190565b5f8181526002602090815260408083206001600160a01b038616845290915290205460ff16156155b8575f8181526002602090815260408083206001600160a01b0395909516808452949091528120805460ff19169055339291905f516020615b295f395f51905f529080a4600190565b5f546001600160a01b031633036157bc57565b63118cdaa760e01b5f523360045260245ffd5b519069ffffffffffffffffffff8216820361068357565b6001600160a01b03169190821561594b5760a060049360405194858092633fabe5a360e21b82525afa5f915f91805f965f926158ef575b50615830575050505090505f905f905f90565b5f831393846158e5575b846158ce575b846158b8575b8461589d575b505082156158935760ff811660128110156158765750906134db6134bb6158729361416a565b9291565b6012101561588e57906134c06134bb61587293614157565b509291565b505091505f915f91565b69ffffffffffffffffffff9081169116101592505f8061584c565b69ffffffffffffffffffff811615159450615846565b9350610e106158dd87426140f7565b111593615840565b861515945061583a565b9350935050935060a0813d60a011615943575b8161590f60a09383613f4c565b8101031261068357615920816157cf565b936020820151926159386080606085015194016157cf565b95939295905f61581d565b3d9150615902565b505f915081908190565b9190916003811015613ba457806159bd57508060090290600982040361406f578161597f916140f7565b6001600160fd1b038216820361406f57670de0b6b3a7640000810290808204670de0b6b3a7640000149015171561406f576141239160031b90614139565b60018103615a1c57508060050290600582040361406f57816159de916140f7565b6001600160fe1b038216820361406f57670de0b6b3a7640000810290808204670de0b6b3a7640000149015171561406f576141239160021b90614139565b600203615a6b576001600160ff1b038116810361406f5781615a409160011b6140f7565b90670de0b6b3a7640000820291808304670de0b6b3a7640000149015171561406f5761412391614139565b60405162461bcd60e51b8152602060048201526015602482015274496e76616c6964206c65766572616765207479706560581b6044820152606490fdfe2f8788117e7eff1d82e926ec794901d17c78024a50270940304540a733656f0dc5e2d1653feba496cf5ce3a744b90ea18acf0df3d036aba9b2f85992a146790678dee7707521b7c9b92b1070cc1d51daeefd47d09898061ee53bff95426cbe5415b7f7f5b1f9acd416a25aed773685588d9fa1a0964a8414d7af15dce2e39713f6391f5c32d9c69d2a47ea670b442974b53935d1edc7fd64eb21e047a839171be5ebfa64fca8d502a8e50c1edffd2c31ef4dad5b396e65d9f397fb028f74abc52f0949b8d545229c21fbc0522749eb3ef25626b0238be56d98991f55192caf2ba49807205ce4d355092ef5a8a18f56e8913cf4a201fbe287825b095693c21775a2646970667358221220794e31105dfbaddd7ff1f95ed34bc7184138440f1c86ab66400dde0aea6d2da564736f6c634300081c00332f8788117e7eff1d82e926ec794901d17c78024a50270940304540a733656f0dac33ff75c19e70fe83507db0d683fd3465c996598dc972688b7ace676c89077be5ebfa64fca8d502a8e50c1edffd2c31ef4dad5b396e65d9f397fb028f74abc5",
  "linkReferences": {},
  "deployedLinkReferences": {},
  "immutableReferences": {
    "8942": [
      {
        "length": 32,
        "start": 914
      },
      {
        "length": 32,
        "start": 2805
      },
      {
        "length": 32,
        "start": 4964
      },
      {
        "length": 32,
        "start": 6455
      },
      {
        "length": 32,
        "start": 13168
      },
      {
        "length": 32,
        "start": 13943
      },
      {
        "length": 32,
        "start": 14745
      }
    ],
    "8945": [
      {
        "length": 32,
        "start": 2187
      },
      {
        "length": 32,
        "start": 4824
      },
      {
        "length": 32,
        "start": 7814
      },
      {
        "length": 32,
        "start": 8356
      },
      {
        "length": 32,
        "start": 9747
      },
      {
        "length": 32,
        "start": 14172
      },
      {
        "length": 32,
        "start": 20032
      }
    ],
    "8948": [
      {
        "length": 32,
        "start": 1068
      },
      {
        "length": 32,
        "start": 2369
      },
      {
        "length": 32,
        "start": 5146
      },
      {
        "length": 32,
        "start": 7405
      },
      {
        "length": 32,
        "start": 8666
      },
      {
        "length": 32,
        "start": 10952
      },
      {
        "length": 32,
        "start": 12496
      },
      {
        "length": 32,
        "start": 12698
      },
      {
        "length": 32,
        "start": 14899
      },
      {
        "length": 32,
        "start": 17113
      },
      {
        "length": 32,
        "start": 18237
      },
      {
        "length": 32,
        "start": 20148
      },
      {
        "length": 32,
        "start": 20602
      }
    ],
    "8956": [
      {
        "length": 32,
        "start": 10726
      },
      {
        "length": 32,
        "start": 13065
      },
      {
        "length": 32,
        "start": 18426
      }
    ]
  },
  "inputSourceName": "project/contracts/CustodianFixed.sol",
  "buildInfoId": "solc-0_8_28-02f33b37447d99ad99ab51f6cb052523dda1e246"
}