{
  "_format": "hh3-artifact-1",
  "contractName": "CustodianFixed",
  "sourceName": "contracts/CustodianFixed.sol",
  "abi": [
    {
      "inputs": [
        {
          "internalType": "address",
          "name": "_underlyingTokenAddr",
          "type": "address"
        },
        {
          "internalType": "address",
          "name": "_stableTokenAddr",
          "type": "address"
        },
        {
          "internalType": "address",
          "name": "_leverageTokenAddr",
          "type": "address"
        }
      ],
      "stateMutability": "nonpayable",
      "type": "constructor"
    },
    {
      "inputs": [],
      "name": "AccessControlBadConfirmation",
      "type": "error"
    },
    {
      "inputs": [
        {
          "internalType": "address",
          "name": "account",
          "type": "address"
        },
        {
          "internalType": "bytes32",
          "name": "neededRole",
          "type": "bytes32"
        }
      ],
      "name": "AccessControlUnauthorizedAccount",
      "type": "error"
    },
    {
      "inputs": [
        {
          "internalType": "uint256",
          "name": "allowance",
          "type": "uint256"
        },
        {
          "internalType": "uint256",
          "name": "required",
          "type": "uint256"
        }
      ],
      "name": "InsufficientAllowance",
      "type": "error"
    },
    {
      "inputs": [
        {
          "internalType": "uint256",
          "name": "balance",
          "type": "uint256"
        },
        {
          "internalType": "uint256",
          "name": "required",
          "type": "uint256"
        }
      ],
      "name": "InsufficientBalance",
      "type": "error"
    },
    {
      "inputs": [
        {
          "internalType": "address",
          "name": "owner",
          "type": "address"
        }
      ],
      "name": "OwnableInvalidOwner",
      "type": "error"
    },
    {
      "inputs": [
        {
          "internalType": "address",
          "name": "account",
          "type": "address"
        }
      ],
      "name": "OwnableUnauthorizedAccount",
      "type": "error"
    },
    {
      "inputs": [],
      "name": "ReentrancyGuardReentrantCall",
      "type": "error"
    },
    {
      "anonymous": false,
      "inputs": [
        {
          "indexed": true,
          "internalType": "uint256",
          "name": "priceInWei",
          "type": "uint256"
        },
        {
          "indexed": true,
          "internalType": "uint256",
          "name": "timeInSecond",
          "type": "uint256"
        }
      ],
      "name": "AcceptPrice",
      "type": "event"
    },
    {
      "anonymous": false,
      "inputs": [
        {
          "indexed": true,
          "internalType": "address",
          "name": "user",
          "type": "address"
        }
      ],
      "name": "AdminAccessGranted",
      "type": "event"
    },
    {
      "anonymous": false,
      "inputs": [
        {
          "indexed": true,
          "internalType": "address",
          "name": "user",
          "type": "address"
        }
      ],
      "name": "AdminAccessRevoked",
      "type": "event"
    },
    {
      "anonymous": false,
      "inputs": [
        {
          "indexed": true,
          "internalType": "address",
          "name": "user",
          "type": "address"
        }
      ],
      "name": "AuctionAccessGranted",
      "type": "event"
    },
    {
      "anonymous": false,
      "inputs": [
        {
          "indexed": true,
          "internalType": "address",
          "name": "user",
          "type": "address"
        }
      ],
      "name": "AuctionAccessRevoked",
      "type": "event"
    },
    {
      "anonymous": false,
      "inputs": [
        {
          "indexed": true,
          "internalType": "address",
          "name": "amm",
          "type": "address"
        },
        {
          "indexed": false,
          "internalType": "bool",
          "name": "authorized",
          "type": "bool"
        }
      ],
      "name": "AuthorizedAMMUpdated",
      "type": "event"
    },
    {
      "anonymous": false,
      "inputs": [
        {
          "indexed": true,
          "internalType": "address",
          "name": "user",
          "type": "address"
        },
        {
          "indexed": false,
          "internalType": "uint256",
          "name": "tokenId",
          "type": "uint256"
        },
        {
          "indexed": false,
          "internalType": "uint256",
          "name": "sAmountInWei",
          "type": "uint256"
        },
        {
          "indexed": false,
          "internalType": "uint256",
          "name": "lAmountInWei",
          "type": "uint256"
        },
        {
          "indexed": false,
          "internalType": "uint256",
          "name": "underlyingAmountInWei",
          "type": "uint256"
        }
      ],
      "name": "Burn",
      "type": "event"
    },
    {
      "anonymous": false,
      "inputs": [
        {
          "indexed": true,
          "internalType": "address",
          "name": "user",
          "type": "address"
        },
        {
          "indexed": false,
          "internalType": "uint256",
          "name": "tokenId",
          "type": "uint256"
        },
        {
          "indexed": false,
          "internalType": "uint256",
          "name": "balance",
          "type": "uint256"
        }
      ],
      "name": "BurnLeverageTokenInLiquidation",
      "type": "event"
    },
    {
      "anonymous": false,
      "inputs": [
        {
          "indexed": true,
          "internalType": "address",
          "name": "user",
          "type": "address"
        },
        {
          "indexed": false,
          "internalType": "uint256",
          "name": "tokenID",
          "type": "uint256"
        },
        {
          "indexed": false,
          "internalType": "uint256",
          "name": "stableAmount",
          "type": "uint256"
        }
      ],
      "name": "BurnStableTokenInLiquidation",
      "type": "event"
    },
    {
      "anonymous": false,
      "inputs": [
        {
          "indexed": true,
          "internalType": "address",
          "name": "user",
          "type": "address"
        },
        {
          "indexed": true,
          "internalType": "uint256",
          "name": "tokenId",
          "type": "uint256"
        },
        {
          "indexed": false,
          "internalType": "uint256",
          "name": "underlyingAmountInWei",
          "type": "uint256"
        },
        {
          "indexed": false,
          "internalType": "uint256",
          "name": "leverageLevel",
          "type": "uint256"
        },
        {
          "indexed": false,
          "internalType": "uint256",
          "name": "sAmount",
          "type": "uint256"
        },
        {
          "indexed": false,
          "internalType": "uint256",
          "name": "lAmount",
          "type": "uint256"
        }
      ],
      "name": "DynamicTokenMint",
      "type": "event"
    },
    {
      "anonymous": false,
      "inputs": [
        {
          "indexed": false,
          "internalType": "uint256",
          "name": "interest",
          "type": "uint256"
        }
      ],
      "name": "InterestPaidInAdjustment",
      "type": "event"
    },
    {
      "anonymous": false,
      "inputs": [
        {
          "indexed": true,
          "internalType": "address",
          "name": "user",
          "type": "address"
        }
      ],
      "name": "LiquidationAccessGranted",
      "type": "event"
    },
    {
      "anonymous": false,
      "inputs": [
        {
          "indexed": true,
          "internalType": "address",
          "name": "user",
          "type": "address"
        }
      ],
      "name": "LiquidationAccessRevoked",
      "type": "event"
    },
    {
      "anonymous": false,
      "inputs": [
        {
          "indexed": true,
          "internalType": "address",
          "name": "user",
          "type": "address"
        },
        {
          "indexed": false,
          "internalType": "uint256",
          "name": "underlyingAmountInWei",
          "type": "uint256"
        },
        {
          "indexed": false,
          "internalType": "uint256",
          "name": "leverageLevel",
          "type": "uint256"
        },
        {
          "indexed": false,
          "internalType": "uint256",
          "name": "mintPriceInWei",
          "type": "uint256"
        },
        {
          "indexed": false,
          "internalType": "uint256",
          "name": "sAmountInWei",
          "type": "uint256"
        },
        {
          "indexed": false,
          "internalType": "uint256",
          "name": "lAmountInWei",
          "type": "uint256"
        }
      ],
      "name": "Mint",
      "type": "event"
    },
    {
      "anonymous": false,
      "inputs": [
        {
          "indexed": true,
          "internalType": "address",
          "name": "previousOwner",
          "type": "address"
        },
        {
          "indexed": true,
          "internalType": "address",
          "name": "newOwner",
          "type": "address"
        }
      ],
      "name": "OwnershipTransferred",
      "type": "event"
    },
    {
      "anonymous": false,
      "inputs": [
        {
          "indexed": true,
          "internalType": "address",
          "name": "oldPriceFeed",
          "type": "address"
        },
        {
          "indexed": true,
          "internalType": "address",
          "name": "newPriceFeed",
          "type": "address"
        },
        {
          "indexed": false,
          "internalType": "uint8",
          "name": "decimals",
          "type": "uint8"
        }
      ],
      "name": "PriceFeedUpdated",
      "type": "event"
    },
    {
      "anonymous": false,
      "inputs": [
        {
          "indexed": true,
          "internalType": "address",
          "name": "kpr",
          "type": "address"
        },
        {
          "indexed": false,
          "internalType": "uint256",
          "name": "amount",
          "type": "uint256"
        }
      ],
      "name": "ReceiveStableInAuction",
      "type": "event"
    },
    {
      "anonymous": false,
      "inputs": [],
      "name": "ResetAccounting",
      "type": "event"
    },
    {
      "anonymous": false,
      "inputs": [
        {
          "indexed": true,
          "internalType": "address",
          "name": "kpr",
          "type": "address"
        },
        {
          "indexed": false,
          "internalType": "uint256",
          "name": "amount",
          "type": "uint256"
        }
      ],
      "name": "RewardKpr",
      "type": "event"
    },
    {
      "anonymous": false,
      "inputs": [
        {
          "indexed": true,
          "internalType": "bytes32",
          "name": "role",
          "type": "bytes32"
        },
        {
          "indexed": true,
          "internalType": "bytes32",
          "name": "previousAdminRole",
          "type": "bytes32"
        },
        {
          "indexed": true,
          "internalType": "bytes32",
          "name": "newAdminRole",
          "type": "bytes32"
        }
      ],
      "name": "RoleAdminChanged",
      "type": "event"
    },
    {
      "anonymous": false,
      "inputs": [
        {
          "indexed": true,
          "internalType": "bytes32",
          "name": "role",
          "type": "bytes32"
        },
        {
          "indexed": true,
          "internalType": "address",
          "name": "account",
          "type": "address"
        },
        {
          "indexed": true,
          "internalType": "address",
          "name": "sender",
          "type": "address"
        }
      ],
      "name": "RoleGranted",
      "type": "event"
    },
    {
      "anonymous": false,
      "inputs": [
        {
          "indexed": true,
          "internalType": "bytes32",
          "name": "role",
          "type": "bytes32"
        },
        {
          "indexed": true,
          "internalType": "address",
          "name": "account",
          "type": "address"
        },
        {
          "indexed": true,
          "internalType": "address",
          "name": "sender",
          "type": "address"
        }
      ],
      "name": "RoleRevoked",
      "type": "event"
    },
    {
      "anonymous": false,
      "inputs": [
        {
          "indexed": true,
          "internalType": "address",
          "name": "kpr",
          "type": "address"
        },
        {
          "indexed": false,
          "internalType": "uint256",
          "name": "amount",
          "type": "uint256"
        }
      ],
      "name": "SellUnderlyingInAuction",
      "type": "event"
    },
    {
      "anonymous": false,
      "inputs": [
        {
          "indexed": true,
          "internalType": "address",
          "name": "user",
          "type": "address"
        },
        {
          "indexed": true,
          "internalType": "uint256",
          "name": "tokenId",
          "type": "uint256"
        },
        {
          "indexed": false,
          "internalType": "uint256",
          "name": "underlyingAmountInWei",
          "type": "uint256"
        },
        {
          "indexed": false,
          "internalType": "uint256",
          "name": "leverageLevel",
          "type": "uint256"
        },
        {
          "indexed": false,
          "internalType": "uint256",
          "name": "sAmount",
          "type": "uint256"
        },
        {
          "indexed": false,
          "internalType": "uint256",
          "name": "lAmount",
          "type": "uint256"
        }
      ],
      "name": "StaticTokenMint",
      "type": "event"
    },
    {
      "anonymous": false,
      "inputs": [
        {
          "indexed": true,
          "internalType": "address",
          "name": "interestManager",
          "type": "address"
        },
        {
          "indexed": true,
          "internalType": "address",
          "name": "priceFeed",
          "type": "address"
        }
      ],
      "name": "SystemInitialized",
      "type": "event"
    },
    {
      "inputs": [],
      "name": "ADMIN_ROLE",
      "outputs": [
        {
          "internalType": "bytes32",
          "name": "",
          "type": "bytes32"
        }
      ],
      "stateMutability": "view",
      "type": "function"
    },
    {
      "inputs": [],
      "name": "AUCTION_ROLE",
      "outputs": [
        {
          "internalType": "bytes32",
          "name": "",
          "type": "bytes32"
        }
      ],
      "stateMutability": "view",
      "type": "function"
    },
    {
      "inputs": [],
      "name": "CollateralInWei",
      "outputs": [
        {
          "internalType": "uint256",
          "name": "",
          "type": "uint256"
        }
      ],
      "stateMutability": "view",
      "type": "function"
    },
    {
      "inputs": [],
      "name": "DEFAULT_ADMIN_ROLE",
      "outputs": [
        {
          "internalType": "bytes32",
          "name": "",
          "type": "bytes32"
        }
      ],
      "stateMutability": "view",
      "type": "function"
    },
    {
      "inputs": [],
      "name": "LIQUIDATION_ROLE",
      "outputs": [
        {
          "internalType": "bytes32",
          "name": "",
          "type": "bytes32"
        }
      ],
      "stateMutability": "view",
      "type": "function"
    },
    {
      "inputs": [],
      "name": "MAX_PRICE_AGE",
      "outputs": [
        {
          "internalType": "uint256",
          "name": "",
          "type": "uint256"
        }
      ],
      "stateMutability": "view",
      "type": "function"
    },
    {
      "inputs": [],
      "name": "PRICE_PRECISION",
      "outputs": [
        {
          "internalType": "uint256",
          "name": "",
          "type": "uint256"
        }
      ],
      "stateMutability": "view",
      "type": "function"
    },
    {
      "inputs": [],
      "name": "accumulatedPenaltyInUnderlying",
      "outputs": [
        {
          "internalType": "uint256",
          "name": "",
          "type": "uint256"
        }
      ],
      "stateMutability": "view",
      "type": "function"
    },
    {
      "inputs": [],
      "name": "accumulatedRewardInUnderlying",
      "outputs": [
        {
          "internalType": "uint256",
          "name": "",
          "type": "uint256"
        }
      ],
      "stateMutability": "view",
      "type": "function"
    },
    {
      "inputs": [],
      "name": "accumulatedUnderlyingSoldInAuction",
      "outputs": [
        {
          "internalType": "uint256",
          "name": "",
          "type": "uint256"
        }
      ],
      "stateMutability": "view",
      "type": "function"
    },
    {
      "inputs": [],
      "name": "auctionManager",
      "outputs": [
        {
          "internalType": "contract AuctionManager",
          "name": "",
          "type": "address"
        }
      ],
      "stateMutability": "view",
      "type": "function"
    },
    {
      "inputs": [
        {
          "internalType": "address",
          "name": "",
          "type": "address"
        }
      ],
      "name": "authorizedAMM",
      "outputs": [
        {
          "internalType": "bool",
          "name": "",
          "type": "bool"
        }
      ],
      "stateMutability": "view",
      "type": "function"
    },
    {
      "inputs": [
        {
          "internalType": "address",
          "name": "user",
          "type": "address"
        },
        {
          "internalType": "uint256",
          "name": "amountToUser",
          "type": "uint256"
        }
      ],
      "name": "backToUser",
      "outputs": [],
      "stateMutability": "nonpayable",
      "type": "function"
    },
    {
      "inputs": [
        {
          "internalType": "address",
          "name": "StokenFrom",
          "type": "address"
        },
        {
          "internalType": "address",
          "name": "LtokenFrom",
          "type": "address"
        },
        {
          "internalType": "uint256",
          "name": "leverageTokenId",
          "type": "uint256"
        },
        {
          "internalType": "uint256",
          "name": "lAmountPercentage",
          "type": "uint256"
        }
      ],
      "name": "burnFromAMM",
      "outputs": [
        {
          "internalType": "uint256",
          "name": "underlyingAmountRedeemedInWei",
          "type": "uint256"
        },
        {
          "internalType": "uint256",
          "name": "stableTokenBurnedInWei",
          "type": "uint256"
        },
        {
          "internalType": "uint256",
          "name": "leverageTokenBurnedInWei",
          "type": "uint256"
        }
      ],
      "stateMutability": "nonpayable",
      "type": "function"
    },
    {
      "inputs": [
        {
          "internalType": "uint256",
          "name": "leverageTokenId",
          "type": "uint256"
        },
        {
          "internalType": "uint256",
          "name": "lAmountPercentage",
          "type": "uint256"
        }
      ],
      "name": "burnFromUser",
      "outputs": [
        {
          "internalType": "uint256",
          "name": "underlyingAmountRedeemedInWei",
          "type": "uint256"
        },
        {
          "internalType": "uint256",
          "name": "stableTokenBurnedInWei",
          "type": "uint256"
        },
        {
          "internalType": "uint256",
          "name": "leverageTokenBurnedInWei",
          "type": "uint256"
        }
      ],
      "stateMutability": "nonpayable",
      "type": "function"
    },
    {
      "inputs": [
        {
          "internalType": "address",
          "name": "user",
          "type": "address"
        },
        {
          "internalType": "uint256",
          "name": "tokenId",
          "type": "uint256"
        },
        {
          "internalType": "uint256",
          "name": "balance",
          "type": "uint256"
        }
      ],
      "name": "burnToken",
      "outputs": [],
      "stateMutability": "nonpayable",
      "type": "function"
    },
    {
      "inputs": [],
      "name": "deficit",
      "outputs": [
        {
          "internalType": "int256",
          "name": "",
          "type": "int256"
        }
      ],
      "stateMutability": "view",
      "type": "function"
    },
    {
      "inputs": [],
      "name": "getAccumulatedPenaltyInUnderlying",
      "outputs": [
        {
          "internalType": "uint256",
          "name": "",
          "type": "uint256"
        }
      ],
      "stateMutability": "view",
      "type": "function"
    },
    {
      "inputs": [],
      "name": "getAccumulatedRewardInUnderlying",
      "outputs": [
        {
          "internalType": "uint256",
          "name": "",
          "type": "uint256"
        }
      ],
      "stateMutability": "view",
      "type": "function"
    },
    {
      "inputs": [
        {
          "internalType": "address",
          "name": "user",
          "type": "address"
        }
      ],
      "name": "getAllLeverageTokenInfo",
      "outputs": [
        {
          "internalType": "uint256[]",
          "name": "tokenIds",
          "type": "uint256[]"
        },
        {
          "internalType": "uint256[]",
          "name": "balancesInWei",
          "type": "uint256[]"
        },
        {
          "internalType": "enum LeverageType[]",
          "name": "leverages",
          "type": "uint8[]"
        },
        {
          "internalType": "uint256[]",
          "name": "mintPricesInWei",
          "type": "uint256[]"
        },
        {
          "internalType": "uint256[]",
          "name": "accuredInterestsInWei",
          "type": "uint256[]"
        }
      ],
      "stateMutability": "view",
      "type": "function"
    },
    {
      "inputs": [],
      "name": "getDeficit",
      "outputs": [
        {
          "internalType": "int256",
          "name": "",
          "type": "int256"
        }
      ],
      "stateMutability": "view",
      "type": "function"
    },
    {
      "inputs": [],
      "name": "getLatestPriceView",
      "outputs": [
        {
          "internalType": "uint256",
          "name": "priceInWei",
          "type": "uint256"
        },
        {
          "internalType": "uint256",
          "name": "timeInSecond",
          "type": "uint256"
        },
        {
          "internalType": "bool",
          "name": "isValid",
          "type": "bool"
        }
      ],
      "stateMutability": "view",
      "type": "function"
    },
    {
      "inputs": [
        {
          "internalType": "bytes32",
          "name": "role",
          "type": "bytes32"
        }
      ],
      "name": "getRoleAdmin",
      "outputs": [
        {
          "internalType": "bytes32",
          "name": "",
          "type": "bytes32"
        }
      ],
      "stateMutability": "view",
      "type": "function"
    },
    {
      "inputs": [
        {
          "internalType": "address",
          "name": "user",
          "type": "address"
        },
        {
          "internalType": "uint256",
          "name": "tokenId",
          "type": "uint256"
        }
      ],
      "name": "getSingleLeverageTokenInfo",
      "outputs": [
        {
          "internalType": "uint256",
          "name": "balance",
          "type": "uint256"
        },
        {
          "internalType": "enum LeverageType",
          "name": "leverage",
          "type": "uint8"
        },
        {
          "internalType": "uint256",
          "name": "mintPrice",
          "type": "uint256"
        },
        {
          "internalType": "string",
          "name": "tokenName",
          "type": "string"
        },
        {
          "internalType": "bool",
          "name": "isStatic",
          "type": "bool"
        },
        {
          "internalType": "uint256",
          "name": "accruedInterest",
          "type": "uint256"
        },
        {
          "internalType": "uint256",
          "name": "creationTime",
          "type": "uint256"
        }
      ],
      "stateMutability": "view",
      "type": "function"
    },
    {
      "inputs": [
        {
          "internalType": "address",
          "name": "user",
          "type": "address"
        },
        {
          "internalType": "uint256",
          "name": "tokenId",
          "type": "uint256"
        }
      ],
      "name": "getSingleLeverageTokenNavV2",
      "outputs": [
        {
          "internalType": "uint256",
          "name": "balance",
          "type": "uint256"
        },
        {
          "internalType": "uint256",
          "name": "grossNavInWei",
          "type": "uint256"
        },
        {
          "internalType": "uint256",
          "name": "netNavInWei",
          "type": "uint256"
        },
        {
          "internalType": "uint256",
          "name": "totalValueInWei",
          "type": "uint256"
        },
        {
          "internalType": "uint256",
          "name": "totalNetValueInWei",
          "type": "uint256"
        },
        {
          "internalType": "uint256",
          "name": "accruedInterestInWei",
          "type": "uint256"
        },
        {
          "internalType": "uint256",
          "name": "currentPriceInWei",
          "type": "uint256"
        },
        {
          "internalType": "uint256",
          "name": "priceTimestamp",
          "type": "uint256"
        }
      ],
      "stateMutability": "view",
      "type": "function"
    },
    {
      "inputs": [
        {
          "internalType": "uint256",
          "name": "tokenId",
          "type": "uint256"
        }
      ],
      "name": "getTokenDetails",
      "outputs": [
        {
          "internalType": "enum LeverageType",
          "name": "leverage",
          "type": "uint8"
        },
        {
          "internalType": "uint256",
          "name": "mintPrice",
          "type": "uint256"
        },
        {
          "internalType": "uint256",
          "name": "creationTime",
          "type": "uint256"
        },
        {
          "internalType": "string",
          "name": "tokenName",
          "type": "string"
        },
        {
          "internalType": "bool",
          "name": "isStatic",
          "type": "bool"
        }
      ],
      "stateMutability": "view",
      "type": "function"
    },
    {
      "inputs": [
        {
          "internalType": "address",
          "name": "user",
          "type": "address"
        }
      ],
      "name": "getUserCollateral",
      "outputs": [
        {
          "internalType": "uint256",
          "name": "",
          "type": "uint256"
        }
      ],
      "stateMutability": "view",
      "type": "function"
    },
    {
      "inputs": [
        {
          "internalType": "address",
          "name": "account",
          "type": "address"
        }
      ],
      "name": "grantAdminRole",
      "outputs": [],
      "stateMutability": "nonpayable",
      "type": "function"
    },
    {
      "inputs": [
        {
          "internalType": "address",
          "name": "account",
          "type": "address"
        }
      ],
      "name": "grantAuctionRole",
      "outputs": [],
      "stateMutability": "nonpayable",
      "type": "function"
    },
    {
      "inputs": [
        {
          "internalType": "address",
          "name": "account",
          "type": "address"
        }
      ],
      "name": "grantLiquidationRole",
      "outputs": [],
      "stateMutability": "nonpayable",
      "type": "function"
    },
    {
      "inputs": [
        {
          "internalType": "bytes32",
          "name": "role",
          "type": "bytes32"
        },
        {
          "internalType": "address",
          "name": "account",
          "type": "address"
        }
      ],
      "name": "grantRole",
      "outputs": [],
      "stateMutability": "nonpayable",
      "type": "function"
    },
    {
      "inputs": [
        {
          "internalType": "bytes32",
          "name": "role",
          "type": "bytes32"
        },
        {
          "internalType": "address",
          "name": "account",
          "type": "address"
        }
      ],
      "name": "hasRole",
      "outputs": [
        {
          "internalType": "bool",
          "name": "",
          "type": "bool"
        }
      ],
      "stateMutability": "view",
      "type": "function"
    },
    {
      "inputs": [
        {
          "internalType": "address",
          "name": "_interestManagerAddr",
          "type": "address"
        },
        {
          "internalType": "address",
          "name": "_priceFeedAddr",
          "type": "address"
        },
        {
          "internalType": "address",
          "name": "_auctionManagerAddr",
          "type": "address"
        },
        {
          "internalType": "address",
          "name": "_liquidationManagerAddr",
          "type": "address"
        }
      ],
      "name": "initialize",
      "outputs": [],
      "stateMutability": "nonpayable",
      "type": "function"
    },
    {
      "inputs": [],
      "name": "interestManager",
      "outputs": [
        {
          "internalType": "contract InterestManager",
          "name": "",
          "type": "address"
        }
      ],
      "stateMutability": "view",
      "type": "function"
    },
    {
      "inputs": [],
      "name": "leverageToken",
      "outputs": [
        {
          "internalType": "contract MultiLeverageToken",
          "name": "",
          "type": "address"
        }
      ],
      "stateMutability": "view",
      "type": "function"
    },
    {
      "inputs": [],
      "name": "liquidationManager",
      "outputs": [
        {
          "internalType": "contract LiquidationManager",
          "name": "",
          "type": "address"
        }
      ],
      "stateMutability": "view",
      "type": "function"
    },
    {
      "inputs": [
        {
          "internalType": "uint256",
          "name": "underlyingAmountInWei",
          "type": "uint256"
        },
        {
          "internalType": "uint256",
          "name": "mintPriceInWei",
          "type": "uint256"
        },
        {
          "internalType": "enum LeverageType",
          "name": "leverageLevel",
          "type": "uint8"
        }
      ],
      "name": "mint",
      "outputs": [
        {
          "internalType": "uint256",
          "name": "sAmountInWei",
          "type": "uint256"
        },
        {
          "internalType": "uint256",
          "name": "lAmountInWei",
          "type": "uint256"
        },
        {
          "internalType": "uint256",
          "name": "leverageTokenId",
          "type": "uint256"
        }
      ],
      "stateMutability": "nonpayable",
      "type": "function"
    },
    {
      "inputs": [
        {
          "internalType": "address",
          "name": "StokenTo",
          "type": "address"
        },
        {
          "internalType": "address",
          "name": "LtokenTo",
          "type": "address"
        },
        {
          "internalType": "uint256",
          "name": "underlyingAmountInWei",
          "type": "uint256"
        },
        {
          "internalType": "uint256",
          "name": "mintPriceInWei",
          "type": "uint256"
        },
        {
          "internalType": "enum LeverageType",
          "name": "leverageLevel",
          "type": "uint8"
        }
      ],
      "name": "mintFromAMM",
      "outputs": [
        {
          "internalType": "uint256",
          "name": "sAmountInWei",
          "type": "uint256"
        },
        {
          "internalType": "uint256",
          "name": "lAmountInWei",
          "type": "uint256"
        },
        {
          "internalType": "uint256",
          "name": "leverageTokenId",
          "type": "uint256"
        }
      ],
      "stateMutability": "nonpayable",
      "type": "function"
    },
    {
      "inputs": [],
      "name": "owner",
      "outputs": [
        {
          "internalType": "address",
          "name": "",
          "type": "address"
        }
      ],
      "stateMutability": "view",
      "type": "function"
    },
    {
      "inputs": [
        {
          "internalType": "address",
          "name": "user",
          "type": "address"
        },
        {
          "internalType": "uint256",
          "name": "leverageTokenId",
          "type": "uint256"
        },
        {
          "internalType": "uint256",
          "name": "lAmountPercentage",
          "type": "uint256"
        },
        {
          "internalType": "uint256",
          "name": "currentPriceInWei",
          "type": "uint256"
        }
      ],
      "name": "previewBurn",
      "outputs": [
        {
          "components": [
            {
              "internalType": "uint256",
              "name": "lAmountBurnedInWei",
              "type": "uint256"
            },
            {
              "internalType": "uint256",
              "name": "sAmountNeededInWei",
              "type": "uint256"
            },
            {
              "internalType": "uint256",
              "name": "underlyingAmountInWei",
              "type": "uint256"
            },
            {
              "internalType": "uint256",
              "name": "underlyingAmountToUser",
              "type": "uint256"
            },
            {
              "internalType": "uint256",
              "name": "underlyingAmountToInterestManager",
              "type": "uint256"
            },
            {
              "internalType": "uint256",
              "name": "deductInterestInWei",
              "type": "uint256"
            }
          ],
          "internalType": "struct BurnPreview",
          "name": "result",
          "type": "tuple"
        }
      ],
      "stateMutability": "view",
      "type": "function"
    },
    {
      "inputs": [
        {
          "internalType": "uint256",
          "name": "underlyingAmountInWei",
          "type": "uint256"
        },
        {
          "internalType": "enum LeverageType",
          "name": "leverage",
          "type": "uint8"
        },
        {
          "internalType": "uint256",
          "name": "mintPriceInWei",
          "type": "uint256"
        },
        {
          "internalType": "uint256",
          "name": "currentPriceInWei",
          "type": "uint256"
        }
      ],
      "name": "previewMint",
      "outputs": [
        {
          "internalType": "uint256",
          "name": "sAmountInWei",
          "type": "uint256"
        },
        {
          "internalType": "uint256",
          "name": "lAmountInWei",
          "type": "uint256"
        },
        {
          "internalType": "uint256",
          "name": "grossNavInWei",
          "type": "uint256"
        }
      ],
      "stateMutability": "pure",
      "type": "function"
    },
    {
      "inputs": [],
      "name": "priceFeed",
      "outputs": [
        {
          "internalType": "contract IChainlinkV3",
          "name": "",
          "type": "address"
        }
      ],
      "stateMutability": "view",
      "type": "function"
    },
    {
      "inputs": [],
      "name": "priceFeedDecimals",
      "outputs": [
        {
          "internalType": "uint8",
          "name": "",
          "type": "uint8"
        }
      ],
      "stateMutability": "view",
      "type": "function"
    },
    {
      "inputs": [
        {
          "internalType": "address",
          "name": "kpr",
          "type": "address"
        },
        {
          "internalType": "uint256",
          "name": "stableAmount",
          "type": "uint256"
        }
      ],
      "name": "receiveFromKpr",
      "outputs": [],
      "stateMutability": "nonpayable",
      "type": "function"
    },
    {
      "inputs": [],
      "name": "renounceOwnership",
      "outputs": [],
      "stateMutability": "nonpayable",
      "type": "function"
    },
    {
      "inputs": [
        {
          "internalType": "bytes32",
          "name": "role",
          "type": "bytes32"
        },
        {
          "internalType": "address",
          "name": "callerConfirmation",
          "type": "address"
        }
      ],
      "name": "renounceRole",
      "outputs": [],
      "stateMutability": "nonpayable",
      "type": "function"
    },
    {
      "inputs": [],
      "name": "resetAccounting",
      "outputs": [],
      "stateMutability": "nonpayable",
      "type": "function"
    },
    {
      "inputs": [
        {
          "internalType": "address",
          "name": "account",
          "type": "address"
        }
      ],
      "name": "revokeAdminRole",
      "outputs": [],
      "stateMutability": "nonpayable",
      "type": "function"
    },
    {
      "inputs": [
        {
          "internalType": "address",
          "name": "account",
          "type": "address"
        }
      ],
      "name": "revokeAuctionRole",
      "outputs": [],
      "stateMutability": "nonpayable",
      "type": "function"
    },
    {
      "inputs": [
        {
          "internalType": "address",
          "name": "account",
          "type": "address"
        }
      ],
      "name": "revokeLiquidationRole",
      "outputs": [],
      "stateMutability": "nonpayable",
      "type": "function"
    },
    {
      "inputs": [
        {
          "internalType": "bytes32",
          "name": "role",
          "type": "bytes32"
        },
        {
          "internalType": "address",
          "name": "account",
          "type": "address"
        }
      ],
      "name": "revokeRole",
      "outputs": [],
      "stateMutability": "nonpayable",
      "type": "function"
    },
    {
      "inputs": [
        {
          "internalType": "address",
          "name": "kpr",
          "type": "address"
        },
        {
          "internalType": "uint256",
          "name": "rewardAmount",
          "type": "uint256"
        }
      ],
      "name": "rewardKpr",
      "outputs": [],
      "stateMutability": "nonpayable",
      "type": "function"
    },
    {
      "inputs": [
        {
          "internalType": "address",
          "name": "amm",
          "type": "address"
        },
        {
          "internalType": "bool",
          "name": "authorized",
          "type": "bool"
        }
      ],
      "name": "setAuthorizedAMM",
      "outputs": [],
      "stateMutability": "nonpayable",
      "type": "function"
    },
    {
      "inputs": [],
      "name": "stableToken",
      "outputs": [
        {
          "internalType": "contract StableToken",
          "name": "",
          "type": "address"
        }
      ],
      "stateMutability": "view",
      "type": "function"
    },
    {
      "inputs": [],
      "name": "state",
      "outputs": [
        {
          "internalType": "enum CustodianFixed.State",
          "name": "",
          "type": "uint8"
        }
      ],
      "stateMutability": "view",
      "type": "function"
    },
    {
      "inputs": [
        {
          "internalType": "bytes4",
          "name": "interfaceId",
          "type": "bytes4"
        }
      ],
      "name": "supportsInterface",
      "outputs": [
        {
          "internalType": "bool",
          "name": "",
          "type": "bool"
        }
      ],
      "stateMutability": "view",
      "type": "function"
    },
    {
      "inputs": [],
      "name": "totalSupplyL",
      "outputs": [
        {
          "internalType": "uint256",
          "name": "",
          "type": "uint256"
        }
      ],
      "stateMutability": "view",
      "type": "function"
    },
    {
      "inputs": [],
      "name": "totalSupplyS",
      "outputs": [
        {
          "internalType": "uint256",
          "name": "",
          "type": "uint256"
        }
      ],
      "stateMutability": "view",
      "type": "function"
    },
    {
      "inputs": [
        {
          "internalType": "address",
          "name": "newOwner",
          "type": "address"
        }
      ],
      "name": "transferOwnership",
      "outputs": [],
      "stateMutability": "nonpayable",
      "type": "function"
    },
    {
      "inputs": [
        {
          "internalType": "address",
          "name": "kpr",
          "type": "address"
        },
        {
          "internalType": "uint256",
          "name": "underlyingAmount",
          "type": "uint256"
        }
      ],
      "name": "transferToKpr",
      "outputs": [],
      "stateMutability": "nonpayable",
      "type": "function"
    },
    {
      "inputs": [],
      "name": "underlyingToken",
      "outputs": [
        {
          "internalType": "contract IERC20",
          "name": "",
          "type": "address"
        }
      ],
      "stateMutability": "view",
      "type": "function"
    },
    {
      "inputs": [],
      "name": "underlyingTokenDecimals",
      "outputs": [
        {
          "internalType": "uint8",
          "name": "",
          "type": "uint8"
        }
      ],
      "stateMutability": "view",
      "type": "function"
    },
    {
      "inputs": [
        {
          "internalType": "uint256",
          "name": "soldUnderlyingAmount",
          "type": "uint256"
        },
        {
          "internalType": "int256",
          "name": "underlyingAmount",
          "type": "int256"
        }
      ],
      "name": "updateDeficit",
      "outputs": [],
      "stateMutability": "nonpayable",
      "type": "function"
    },
    {
      "inputs": [
        {
          "internalType": "address",
          "name": "_newPriceFeedAddr",
          "type": "address"
        }
      ],
      "name": "updatePriceFeed",
      "outputs": [],
      "stateMutability": "nonpayable",
      "type": "function"
    },
    {
      "inputs": [
        {
          "internalType": "address",
          "name": "",
          "type": "address"
        }
      ],
      "name": "userCollateral",
      "outputs": [
        {
          "internalType": "uint256",
          "name": "",
          "type": "uint256"
        }
      ],
      "stateMutability": "view",
      "type": "function"
    },
    {
      "inputs": [
        {
          "internalType": "address",
          "name": "",
          "type": "address"
        },
        {
          "internalType": "uint256",
          "name": "",
          "type": "uint256"
        }
      ],
      "name": "userHasToken",
      "outputs": [
        {
          "internalType": "bool",
          "name": "",
          "type": "bool"
        }
      ],
      "stateMutability": "view",
      "type": "function"
    },
    {
      "inputs": [
        {
          "internalType": "address",
          "name": "",
          "type": "address"
        },
        {
          "internalType": "uint256",
          "name": "",
          "type": "uint256"
        }
      ],
      "name": "userTokenIds",
      "outputs": [
        {
          "internalType": "uint256",
          "name": "",
          "type": "uint256"
        }
      ],
      "stateMutability": "view",
      "type": "function"
    }
  ],
  "bytecode": "0x610100806040523461025d57606081615f9180380380916100208285610353565b83398101031261025d576100338161038a565b9061004c60406100456020840161038a565b920161038a565b903315610340575f8054336001600160a01b0319821681178355604051959290916001600160a01b0316907f8be0079c531659141344cd1fd0a4f28419497f9722a3daafe3b4186f6b6457e09080a360018055600d805460ff191690555f600f819055601081905560118190556012556001600160a01b03169283156102fe57506001600160a01b03169081156102b9576001600160a01b0316918215610274576004926020926100fc3361039e565b5061010633610414565b508260805260a05260c0526040519283809263313ce56760e01b82525afa908115610269575f91610229575b5060e05260ff1960065416600655604051615a8990816104a882396080518181816103a801528181610b0b015281816113c20152818161178f01528181611d570152818161341d015281816135490152818161366801526138af015260a0518181816108a101528181611703015281816123290152818161258e0152614cd1015260c05181818161044201528181610957015281816111f501528181611845015281816120f5015281816126da01528181612ce9015281816132f901528181613949015281816140d80152818161453c01528181614d450152614f0b015260e05181818161135b01528181612c2c01526145f90152f35b90506020813d602011610261575b8161024460209383610353565b8101031261025d575160ff8116810361025d575f610132565b5f80fd5b3d9150610237565b6040513d5f823e3d90fd5b60405162461bcd60e51b815260206004820152601660248201527f496e76616c6964206c6576657261676520746f6b656e000000000000000000006044820152606490fd5b60405162461bcd60e51b815260206004820152601460248201527f496e76616c696420737461626c6520746f6b656e0000000000000000000000006044820152606490fd5b62461bcd60e51b815260206004820152601860248201527f496e76616c696420756e6465726c79696e6720746f6b656e00000000000000006044820152606490fd5b631e4fbdf760e01b5f525f60045260245ffd5b601f909101601f19168101906001600160401b0382119082101761037657604052565b634e487b7160e01b5f52604160045260245ffd5b51906001600160a01b038216820361025d57565b6001600160a01b0381165f9081525f516020615f515f395f51905f52602052604090205460ff1661040f576001600160a01b03165f8181525f516020615f515f395f51905f5260205260408120805460ff191660011790553391905f516020615f315f395f51905f528180a4600190565b505f90565b6001600160a01b0381165f9081525f516020615f715f395f51905f52602052604090205460ff1661040f576001600160a01b03165f8181525f516020615f715f395f51905f5260205260408120805460ff191660011790553391907fa49807205ce4d355092ef5a8a18f56e8913cf4a201fbe287825b095693c21775905f516020615f315f395f51905f529080a460019056fe6080806040526004361015610012575f80fd5b5f905f3560e01c90816301ffc9a714613c7a5750806305b6cb4f146138305780630ab464f0146137e75780631289c4471461362e57806318d8f979146134ed5780631ef3a04c146134c15780631fd6ec041461349c578063239bc2ff1461347f578063248a9ca31461344c5780632495a599146134085780632a46018c146133a35780632f2ff15d1461336557806334861b4b14613328578063355af607146132e457806336568abe1461329e578063430730a314613277578063432ac92f146131bd578063462c257d1461314057806350d5041d146130f95780635426fa8a146130dc578063547d96c3146130bf57806356bcb6661461306357806358e325d414612ff95780635ad6fb9314612ca7578063715018a614612c505780637284168a14612c13578063741bef1a14612beb57806375b238fc14612bc45780638da5cb5b14612b9d57806391cf450114612b7857806391d1485414612b2f578063927317c614612aca57806395082d2514612aa857806395877f781461293b5780639a19c7b0146128a15780639d7f7e86146128855780639ec176c414612699578063a1373ad81461267c578063a217fddf14612662578063a25aa00b1461263f578063a33dfedc146125da578063a3c6c68c146125bd578063a9d75b2b14612579578063ab4fb0a3146122e2578063ae0e0125146122ba578063b0192f9a14612291578063b2e6a27514612273578063b3d44dd814612255578063b6f7132f146110ba578063b88acbfd146121d8578063c19d93fb146121ac578063c1e03728146120c6578063c634b78e1461202a578063c9d1144214611fc3578063cc17e15d14611f6c578063d547741f14611f29578063dfc9afe314611d1c578063e01d19f214611625578063e4fa8a5b146115d5578063ed8c5938146111c8578063ee065e111461119f578063f2fde38b14611119578063f3c6ba6d146110f3578063f69f1e4a146110ba578063f8c8765e14610ddd578063fb391a7e1461080d5763fde52f63146102ff575f80fd5b3461080a5760a036600319011261080a57610318613ccd565b90610321613ce3565b916044356064359160843590600382101593846108085760ff6006541660058110156107f45760016103539114613d86565b338652600560205261036b60ff604088205416614a5a565b610373614be4565b801515806107eb575b61038590613df8565b604051636eb1769f60e11b81523360048201523060248201526001600160a01b037f00000000000000000000000000000000000000000000000000000000000000001690602081604481855afa80156107e057869089906107aa575b6103ed92501015613e6a565b6040516323b872dd60e01b81523360048201523060248201526044810186905290602090829060649082908b905af1801561079f578790610760575b6104339150613ebc565b60405163abb12a2360e01b81527f00000000000000000000000000000000000000000000000000000000000000006001600160a01b031696906104796004820186613d2c565b8260248201526020816044818b5afa90811561072357829161072e575b5080156106b0579560015b6104ac848789614c04565b9a90996104be838d8d8d8d878d614c96565b604051627eeac760e11b81526001600160a01b0383166004820152602481018b905290816044815a93602094fa9081156106a557908a89928792610668575b5061050793614fb1565b1561061257806105fe576040805187815260208101879052908101899052606081018a905287906001600160a01b038616907f7f203fdda9f9cb94d7d21f028b6cdda6dd133a38f9ad7b3e455c217fe4294d1a90608090a35b6105ea57506040805194855260208501939093529183019190915260608201849052608082018590526105e692916001600160a01b03909116907f6b09923d887ff6b3a7daa9354d80782a148bde233fb233310ebc3a3ad70c3073908060a081015b0390a260018055604051938493846040919493926060820195825260208201520152565b0390f35b634e487b7160e01b81526021600452602490fd5b634e487b7160e01b82526021600452602482fd5b50604080518681526020810186905290810188905260608101899052819087906001600160a01b038616907f179a3bb84f3b9d1f6ea5ef46aadc2b48cc4f50c551092593ffbe2597107ad7ab90608090a3610560565b925050506020813d60201161069d575b8161068560209383613e34565b81010312610699575187908a6105076104fd565b5f80fd5b3d9150610678565b6040513d87823e3d90fd5b50604051630b514f3360e41b81526106cb6004820186613d2c565b826024820152602081604481858c5af19081156107235782916106f1575b5095816104a1565b90506020813d60201161071b575b8161070c60209383613e34565b8101031261069957515f6106e9565b3d91506106ff565b6040513d84823e3d90fd5b90506020813d602011610758575b8161074960209383613e34565b8101031261069957515f610496565b3d915061073c565b506020813d602011610797575b8161077a60209383613e34565b810103126107935761078e61043391613eaf565b610429565b8680fd5b3d915061076d565b6040513d89823e3d90fd5b50506020813d6020116107d8575b816107c560209383613e34565b8101031261069957856103ed91516103e1565b3d91506107b8565b6040513d8a823e3d90fd5b5083151561037c565b634e487b7160e01b87526021600452602487fd5b855b80fd5b503461080a57604036600319011261080a5760043560ff600654166005811015610dc957600161083d9114613d86565b610845614be4565b6040516350d5041d60e01b8152606081600481305afa908115610c9c576108899184918591610d96575b5080610d8d575b61087f90613df8565b60243583336144f8565b6040516370a0823160e01b81523360048201529092907f00000000000000000000000000000000000000000000000000000000000000006001600160a01b0316602082602481845afa918215610c9c578392610d59575b506108f2602086019283511115614a99565b338352600c602052604083205490610911604087019283511115614ade565b8251813b15610cc057604051632770a7eb60e21b815233600482015260248101919091529084908290604490829084905af18015610d4e57908491610d39575b505084517f00000000000000000000000000000000000000000000000000000000000000006001600160a01b03169190823b15610cc057604051637a94c56560e11b8152336004820152602481018790526044810191909152848160648183875af180156106a557908591610d20575b505060405163463d31d760e11b815260048101869052918483602481845afa9283156106a5578593610cf8575b50604051627eeac760e11b81523360048201526024810187905290602090829060449082905afa9081156106a5578591610cc4575b50610a5792610a33918733614fb1565b8051338552600c602052610a4c60408620918254614a34565b905551600954614a34565b600955610a678151600754614a34565b600755610a778451600854614a34565b60085560045460a08501518551916001600160a01b031690813b15610cc05760405163c76295b160e01b8152336004820152602481018790526044810191909152606481019290925283908290608490829084905af18015610c9c57908391610ca7575b505060608401805160405163a9059cbb60e01b815233600482015260248101919091529092906001600160a01b037f00000000000000000000000000000000000000000000000000000000000000001660208260448186855af1918215610c9c578392610c56575b5060048054608089015160405163a9059cbb60e01b81526001600160a01b03909216928201929092526024810191909152906020908290818681604481015b03925af1928315610c4a578093610bfb575b50506105e6939291610ba8610bad92614b2a565b614b6d565b519351905160408051948552602085018690528401829052606084018190529233907f4d667732637549615f3cd28023b13380094dd975c0ac7c1b26916a8b1363b7ec9080608081016105c2565b909192506020823d602011610c42575b81610c1860209383613e34565b8101031261080a57506105e6939291610ba8610c36610bad93613eaf565b93949550819250610b94565b3d9150610c0b565b604051903d90823e3d90fd5b9091506020813d602011610c94575b81610c7260209383613e34565b81010312610c90576020610c88610b8292613eaf565b929150610b43565b8280fd5b3d9150610c65565b6040513d85823e3d90fd5b81610cb191613e34565b610cbc57815f610adb565b5080fd5b8480fd5b90506020813d602011610cf0575b81610cdf60209383613e34565b810103126106995751610a57610a23565b3d9150610cd2565b610d159193503d8087833e610d0d8183613e34565b810190613ff4565b50505050915f6109ee565b81610d2a91613e34565b610d3557835f6109c1565b8380fd5b81610d4391613e34565b610c9057825f610951565b6040513d86823e3d90fd5b9091506020813d602011610d85575b81610d7560209383613e34565b810103126106995751905f6108e0565b3d9150610d68565b50801515610876565b9050610dba915060603d606011610dc2575b610db28183613e34565b8101906149e4565b90505f61086f565b503d610da8565b634e487b7160e01b83526021600452602483fd5b503461080a57608036600319011261080a57610df7613ccd565b610dff613ce3565b604435916001600160a01b03831690818403610cc057606435936001600160a01b03851680860361079357610e3261563a565b600d549260ff84166110755760ff6006541660058110156110615761100d5760018060a01b03169460045490866bffffffffffffffffffffffff60a01b83161760045560018060a01b031696876bffffffffffffffffffffffff60a01b60035416176003556040519463313ce56760e01b86526020866004818c5afa9283156110025788610f1e94610f6d988d91610fd3575b506001600160a81b03199092161760a09190911b60ff60a01b1617600455610100600160a81b031916600882901b610100600160a81b031617600d55610f09615165565b610f19610f14613f4e565b6151f7565b6152d6565b507fce4dc51eb54a1fb30d5642292a758099a420b02c5040b764c25963ee4f8bcef98780a2600e80546001600160a01b03191684179055610f5d615165565b610f68610f14613f14565b615251565b507f0955f82c07229d6a99f48ddd28fe0036270495ad0976e376cd9fa4f18528fdf58480a2600160ff196006541617600655600160ff19600d541617600d557f14717a4069908f8f5dd3ada5c62bbb2db2dc76f826d79f9dd5960a019e7151798380a380f35b610ff5915060203d602011610ffb575b610fed8183613e34565b810190614a41565b5f610ec5565b503d610fe3565b6040513d8c823e3d90fd5b60405162461bcd60e51b815260206004820152602660248201527f43616e206f6e6c7920696e697469616c697a6520696e20496e63657074696f6e60448201526520737461746560d01b6064820152608490fd5b634e487b7160e01b89526021600452602489fd5b60405162461bcd60e51b815260206004820152601a60248201527f53797374656d20616c726561647920696e697469616c697a65640000000000006044820152606490fd5b503461080a57602036600319011261080a576020906040906001600160a01b036110e2613ccd565b168152600c83522054604051908152f35b503461080a578060031936011261080a5761110c615165565b6020600f54604051908152f35b503461080a57602036600319011261080a57611133613ccd565b61113b61563a565b6001600160a01b0316801561118b5781546001600160a01b03198116821783556001600160a01b03167f8be0079c531659141344cd1fd0a4f28419497f9722a3daafe3b4186f6b6457e08380a380f35b631e4fbdf760e01b82526004829052602482fd5b503461080a578060031936011261080a576004546040516001600160a01b039091168152602090f35b503461080a57606036600319011261080a576111e2613ccd565b60243590604435906111f26151ae565b837f00000000000000000000000000000000000000000000000000000000000000006001600160a01b0316803b15610cbc57604051637a94c56560e11b81526001600160a01b038416600482015260248101869052604481018590529082908290606490829084905af18015610723576115c0575b505061127582600854614a34565b60085560408051848152602081018490526001600160a01b038316917f65a33988ac2fa12a89c206b4b72c5531cc14ff9d0a36acfd9d64ea60747408b791a260048054604051639e35afc960e01b81526001600160a01b0384811693820193909352602481018690529116602082604481845afa9182156114f657869261158c575b506040516350d5041d60e01b8152606081600481305afa801561079f5787918891611569575b5080611560575b1561155257670de0b6b3a76400008302838104670de0b6b3a7640000148415171561153e57916113596020926113bd94614a16565b7f00000000000000000000000000000000000000000000000000000000000000009060ff82166012810361150157509050905b60405163a9059cbb60e01b81526001600160a01b039091166004820152602481019190915291829081906044820190565b0381897f00000000000000000000000000000000000000000000000000000000000000006001600160a01b03165af19081156114f65786916114bc575b50156114775760045485946001600160a01b0390911690813b156108085760405163c76295b160e01b81526001600160a01b039490941660048501526024840152604483019190915260648201929092529082908290608490829084905af18015610723576114665750f35b8161147091613e34565b61080a5780f35b60405162461bcd60e51b815260206004820152601860248201527f496e746572657374207472616e73666572206661696c656400000000000000006044820152606490fd5b90506020813d6020116114ee575b816114d760209383613e34565b81010312610808576114e890613eaf565b5f6113fa565b3d91506114ca565b6040513d88823e3d90fd5b601211156115295761151d61151861152393614bc2565b614bd3565b90614a16565b9061138c565b61153861151861152393614baf565b90614a03565b634e487b7160e01b88526011600452602488fd5b5060206113bd91879061138c565b50801515611324565b9050611584915060603d606011610dc257610db28183613e34565b90505f61131d565b9091506020813d6020116115b8575b816115a860209383613e34565b810103126106995751905f6112f7565b3d915061159b565b816115ca91613e34565b610d3557835f611267565b503461080a578060031936011261080a576115ee615165565b80600f558060105580601155806012557f4268cdd9d22c1a426c377c28698399a7a2184d8b11fb6474e958dc4b0b30291e8180a180f35b503461080a57608036600319011261080a5761163f613ccd565b90611648613ce3565b906044359160643560ff600654166005811015611d0857600161166b9114613d86565b338352600560205261168360ff604085205416614a5a565b61168b614be4565b600181101580611cfd575b61169f9061449d565b6040516350d5041d60e01b815290606082600481305afa8015610d4e57906116e2929185928691611cd6575b5080611ccd575b6116db90613df8565b85846144f8565b6040516370a0823160e01b81526001600160a01b03808716600483015291957f0000000000000000000000000000000000000000000000000000000000000000909216939091602083602481885afa928315610723578293611c99575b50611751602088019384511115614a99565b60018060a01b03841693848352600c602052604083205461177960408a019182511115614ade565b6040516370a0823160e01b8152306004820152967f00000000000000000000000000000000000000000000000000000000000000006001600160a01b03169390602089602481885afa9889156114f657908b9594939291879a611c62575b5060608601996117ef60808c51980197885190613f07565b11611c1d57875191813b15611c1957604051632770a7eb60e21b81526001600160a01b03919091166004820152602481019290925286908290604490829084905af180156114f657908691611c04575b505089517f00000000000000000000000000000000000000000000000000000000000000006001600160a01b03169190823b1561079357604051637a94c56560e11b81526001600160a01b0385166004820152602481018c90526044810191909152868160648183875af1801561079f57908791611bef575b505060405163463d31d760e11b8152600481018b9052918683602481845afa92831561079f57908b918894611bc6575b50604051627eeac760e11b81526001600160a01b0386166004820152602481019290925260209082908180604481015b03915afa90811561079f578791611b92575b506119539261193a918c86614fb1565b8051888752600c602052610a4c60408820918254614a34565b6009556119638551600754614a34565b6007556119738951600854614a34565b60085560045460a08a01518a519290916001600160a01b031690813b156107935760405163c76295b160e01b81526001600160a01b03919091166004820152602481018b9052604481019290925260648201929092529084908290608490829084905af18015610d4e57908491611b7d575b5050855160405163a9059cbb60e01b81523360048201526024810191909152919060208360448187855af1928315610d4e578493611b39575b5060048054925160405163a9059cbb60e01b81526001600160a01b039094169184019190915260248301526020908290818681604481015b03925af1928315610c4a578093611ac8575b505091611a9e7f4d667732637549615f3cd28023b13380094dd975c0ac7c1b26916a8b1363b7ec92610ba86105e6979695614b2a565b519551925160408051968752602087018890528601849052606086018190529480608081016105c2565b909192506020823d602011611b31575b81611ae560209383613e34565b8101031261080a575091611a9e7f4d667732637549615f3cd28023b13380094dd975c0ac7c1b26916a8b1363b7ec92610ba8611b256105e6989796613eaf565b94505091939495611a68565b3d9150611ad8565b9092506020813d602011611b75575b81611b5560209383613e34565b81010312610d3557611a5691611b6c602092613eaf565b93915091611a1e565b3d9150611b48565b81611b8791613e34565b610c9057825f6119e5565b90506020813d602011611bbe575b81611bad60209383613e34565b81010312610699575161195361192a565b3d9150611ba0565b602091945091611be2611918933d808c833e610d0d8183613e34565b50505050949150916118e8565b81611bf991613e34565b61080857855f6118b8565b81611c0e91613e34565b610cc057845f61183f565b8780fd5b60405162461bcd60e51b815260206004820152601d60248201527f496e73756666696369656e7420636f6e74726163742062616c616e63650000006044820152606490fd5b955098506020853d602011611c91575b81611c7f60209383613e34565b81010312610699578a9451985f6117d7565b3d9150611c72565b9092506020813d602011611cc5575b81611cb560209383613e34565b810103126106995751915f61173f565b3d9150611ca8565b508115156116d2565b9050611cf291925060603d606011610dc257610db28183613e34565b92919050915f6116cb565b506064811115611696565b634e487b7160e01b84526021600452602484fd5b503461080a57604036600319011261080a57611d36613ccd565b60243590611d4261511c565b6040516370a0823160e01b81523060048201527f00000000000000000000000000000000000000000000000000000000000000006001600160a01b031690602081602481855afa80156106a55784918691611ef4575b5010611eb05760405163a9059cbb60e01b81526001600160a01b038316600482015260248101849052906020908290604490829088905af1908115610d4e578491611e76575b5015611e3a5760207fb1fd9626a76d2d43227b2b58bc0e4f4fbb3ba2d8dc7d515a58dfb05a7216e7dd91611e1484600954614a34565b600955611e2384601154613f07565b6011556040519384526001600160a01b031692a280f35b60405162461bcd60e51b81526020600482015260146024820152731d1c985b9cd9995c951bd2dc1c8819985a5b195960621b6044820152606490fd5b90506020813d602011611ea8575b81611e9160209383613e34565b81010312610d3557611ea290613eaf565b5f611dde565b3d9150611e84565b606460405162461bcd60e51b815260206004820152602060248201527f756e6465726c79696e675479706520616d6f756e74206e6f7420656e6f7567686044820152fd5b9150506020813d602011611f21575b81611f1060209383613e34565b81010312610699578390515f611d98565b3d9150611f03565b503461080a57604036600319011261080a57611f68600435611f49613ce3565b90611f63610f14825f526002602052600160405f20015490565b6155c9565b5080f35b503461080a57604036600319011261080a57611f86613ccd565b6001600160a01b03168152600a602052604081208054602435929083101561080a576020611fb48484613d5d565b90549060031b1c604051908152f35b503461080a57602036600319011261080a57611fdd613ccd565b611fe5615165565b611ff0610f14613f14565b611ff98161554b565b506001600160a01b03167f680982af7bfb8bdbe6297103b9c7b13afd2eda6ed4fe0e4db5138a05fc68a61c8280a280f35b503461080a57602036600319011261080a57612044613ccd565b61204c615165565b5f516020615a345f395f51905f525f5260026020527fe5ebfa64fca8d502a8e50c1edffd2c31ef4dad5b396e65d9f397fb028f74abc65461208c906151f7565b61209581615356565b506001600160a01b03167fc36befb96151814c16fe0d20f29a5912794cda96453e57ab00edad0bb21d50fa8280a280f35b503461080a57602036600319011261080a5760405163463d31d760e11b815260048035908201529080826024817f00000000000000000000000000000000000000000000000000000000000000006001600160a01b03165afa91821561219f5761214c92829183849085928694612173575b506121679394955060405196878097613d2c565b6020860152604085015260a0606085015260a0840190613d39565b90151560808301520390f35b93505050506121909150612167923d8091833e610d0d8183613e34565b9394508493929091905f612138565b50604051903d90823e3d90fd5b503461080a578060031936011261080a5760ff60065416604051906005811015610dc957602092508152f35b503461080a57604036600319011261080a576024356004356121f86151ae565b6012548382820192831291129080158216911516176122415782828203921281831281169183139015161761222d5760125580f35b634e487b7160e01b82526011600452602482fd5b634e487b7160e01b83526011600452602483fd5b503461080a578060031936011261080a576020601154604051908152f35b503461080a578060031936011261080a576020600f54604051908152f35b503461080a578060031936011261080a57600e546040516001600160a01b039091168152602090f35b503461080a578060031936011261080a5760206040515f5160206159945f395f51905f528152f35b5034610699576040366003190112610699576122fc613ccd565b60243561230761511c565b6040516370a0823160e01b81526001600160a01b0383811660048301819052937f000000000000000000000000000000000000000000000000000000000000000090911691602081602481865afa80156124785784905f90612543575b61236e9250615231565b604051636eb1769f60e11b81526001600160a01b0382166004820152306024820152602081604481865afa908115612478575f91612511575b508381106124fa57506040516323b872dd60e01b81526001600160a01b03919091166004820152306024820152604481018390526020816064815f865af1908115612478575f916124c0575b501561248357803b1561069957604051632770a7eb60e21b815230600482015260248101839052905f908290604490829084905af1801561247857612462575b5060207f7237d63681350abad87252ddbffb36b0c9a1500d7d59cb15bfcad6329c52005d91604051908152a280f35b61246f9193505f90613e34565b5f916020612433565b6040513d5f823e3d90fd5b60405162461bcd60e51b81526020600482015260156024820152741c9958d95a5d99519c9bdb52dc1c8819985a5b1959605a1b6044820152606490fd5b90506020813d6020116124f2575b816124db60209383613e34565b81010312610699576124ec90613eaf565b5f6123f3565b3d91506124ce565b839063054365bb60e31b5f5260045260245260445ffd5b90506020813d60201161253b575b8161252c60209383613e34565b8101031261069957515f6123a7565b3d915061251f565b50506020813d602011612571575b8161255e60209383613e34565b81010312610699578361236e9151612364565b3d9150612551565b34610699575f366003190112610699576040517f00000000000000000000000000000000000000000000000000000000000000006001600160a01b03168152602090f35b34610699575f366003190112610699576020600754604051908152f35b34610699576020366003190112610699576125f3613ccd565b6125fb615165565b612606610f14613f4e565b61260f816154cd565b506001600160a01b03167f1c5bb14b08c8da4ac703077e5422f26a6590ab259cc171a1d53cd790c7bc65185f80a2005b34610699575f36600319011261069957602060ff60045460a01c16604051908152f35b34610699575f3660031901126106995760206040515f8152f35b34610699575f366003190112610699576020601054604051908152f35b34610699576040366003190112610699576126b2613ccd565b604051627eeac760e11b81526001600160a01b038281166004830152602480359083018190527f000000000000000000000000000000000000000000000000000000000000000090911692602083604481875afa928315612478575f9361284f575b505f602494612724851515614998565b6040519586809263463d31d760e11b82528660048301525afa918215612478575f945f915f935f925f9661281d575b5060048054604051639e35afc960e01b81526001600160a01b0393841692810192909252602482019390935292916020918491168180604481015b03915afa918215612478575f926127e7575b506127d191926127bb60405198899889526020890190613d2c565b604087015260e0606087015260e0860190613d39565b921515608085015260a084015260c08301520390f35b91506020823d602011612815575b8161280260209383613e34565b81010312610699576127d19151916127a0565b3d91506127f5565b919350945061278e96506020935061283f91503d805f833e610d0d8183613e34565b9398939691955091939192612753565b9392506020843d60201161287d575b8161286b60209383613e34565b8101031261069957925191925f612714565b3d915061285e565b34610699575f366003190112610699576020604051610e108152f35b34610699576020366003190112610699576128ba613ccd565b6128c2615165565b5f516020615a345f395f51905f525f5260026020527fe5ebfa64fca8d502a8e50c1edffd2c31ef4dad5b396e65d9f397fb028f74abc654612902906151f7565b61290b8161544f565b506001600160a01b03167f998b1c8c2c4e47baeddde4d4152dfae31548fb5e6aa5fc2026808fa365a30e7c5f80a2005b3461069957602036600319011261069957612954613ccd565b61295c61563a565b6001600160a01b03168015612a63576003546001600160a01b03811690828214612a1e576001600160a01b031916821760035560405163313ce56760e01b8152602081600481865afa908115612478577fd03dd51ffcbea74995df602bf6be1a03953e508c61930600b4d5f77038261aa7916020915f91612a01575b506004805460ff60a01b191660a092831b60ff60a01b161790819055604051911c60ff168152a3005b612a189150823d8411610ffb57610fed8183613e34565b856129d8565b60405162461bcd60e51b815260206004820152601760248201527f53616d65207072696365206665656420616464726573730000000000000000006044820152606490fd5b60405162461bcd60e51b815260206004820152601a60248201527f496e76616c6964207072696365206665656420616464726573730000000000006044820152606490fd5b34610699575f366003190112610699576020604051670de0b6b3a76400008152f35b3461069957602036600319011261069957612ae3613ccd565b612aeb615165565b612af6610f14613f4e565b612aff816152d6565b506001600160a01b03167fce4dc51eb54a1fb30d5642292a758099a420b02c5040b764c25963ee4f8bcef95f80a2005b3461069957604036600319011261069957612b48613ce3565b6004355f52600260205260405f209060018060a01b03165f52602052602060ff60405f2054166040519015158152f35b34610699575f36600319011261069957612b90615165565b6020601254604051908152f35b34610699575f366003190112610699575f546040516001600160a01b039091168152602090f35b34610699575f3660031901126106995760206040515f516020615a345f395f51905f528152f35b34610699575f366003190112610699576003546040516001600160a01b039091168152602090f35b34610699575f36600319011261069957602060405160ff7f0000000000000000000000000000000000000000000000000000000000000000168152f35b34610699575f36600319011261069957612c6861563a565b5f80546001600160a01b0319811682556001600160a01b03167f8be0079c531659141344cd1fd0a4f28419497f9722a3daafe3b4186f6b6457e08280a3005b3461069957604036600319011261069957612cc0613ccd565b604051627eeac760e11b81526001600160a01b03828116600483015260248035908301819052907f000000000000000000000000000000000000000000000000000000000000000016602083604481845afa928315612478575f93612fc5575b50612d2c831515614998565b6040516350d5041d60e01b815291606083600481305afa918215612478575f925f945f91612f9c575b5015612f49578215612efa575f6024916040519283809263463d31d760e11b82528660048301525afa91821561247857612dd1965f925f94612ed2575b5060048054604051639e35afc960e01b81526001600160a01b039384169281019290925260248201939093529760209289921690829081906044820190565b03915afa958615612478575f96612e9c575b50612def9183916157e6565b93670de0b6b3a7640000612e038686614a03565b0494818610612e9057612e168287614a34565b95670de0b6b3a7640000870296808804670de0b6b3a76400001490151715612e7c57612e458661010098614a16565b612e4f8483614a34565b925b604051978852602088015260408701526060860152608085015260a084015260c083015260e0820152f35b634e487b7160e01b5f52601160045260245ffd5b610100955f5f92612e51565b9095506020813d602011612eca575b81612eb860209383613e34565b81010312610699575194612def612de3565b3d9150612eab565b612eec91945060209293503d805f833e610d0d8183613e34565b505050929092939091612d92565b60405162461bcd60e51b815260206004820152602160248201527f496e76616c69642063757272656e742070726963652066726f6d206f7261636c6044820152606560f81b6064820152608490fd5b60405162461bcd60e51b815260206004820152602560248201527f4f7261636c65207072696365206e6f7420617661696c61626c65206f7220746f6044820152641bc81bdb1960da1b6064820152608490fd5b91935050612fba91935060603d606011610dc257610db28183613e34565b939192909387612d55565b9092506020813d602011612ff1575b81612fe160209383613e34565b8101031261069957519184612d20565b3d9150612fd4565b346106995760803660031901126106995760c0613028613017613ccd565b6064359060443590602435906144f8565b60a0604051918051835260208101516020840152604081015160408401526060810151606084015260808101516080840152015160a0820152f35b34610699576080366003190112610699576024356003811015610699576044356105e66130a26130968385600435614c04565b949093606435916157e6565b604051938493846040919493926060820195825260208201520152565b34610699575f366003190112610699576020600954604051908152f35b34610699575f366003190112610699576020601254604051908152f35b34610699575f3660031901126106995760035460045460609161312b9160a01c60ff16906001600160a01b0316615677565b90604051928352602083015215156040820152f35b3461069957604036600319011261069957613159613ccd565b602435908115158092036106995760207f695f532381c2b1d54ce46886f633d3cd4d9fb397889524ad2c086e360b5ced629161319361563a565b60018060a01b031692835f526005825260405f2060ff1981541660ff8316179055604051908152a2005b34610699576020366003190112610699576131fd61320b6131e46131df613ccd565b614090565b939490919260405196879660a0885260a0880190613cf9565b908682036020880152613cf9565b8481036040860152602080845192838152019301905f5b818110613250575050508161324291856105e69594036060870152613cf9565b908382036080850152613cf9565b919495509192602080826132676001948951613d2c565b0195019101918695949392613222565b34610699575f3660031901126106995760206040515f5160206159745f395f51905f528152f35b34610699576040366003190112610699576132b7613ce3565b336001600160a01b038216036132d5576132d3906004356155c9565b005b63334bd91960e11b5f5260045ffd5b34610699575f366003190112610699576040517f00000000000000000000000000000000000000000000000000000000000000006001600160a01b03168152602090f35b34610699576020366003190112610699576001600160a01b03613349613ccd565b165f526005602052602060ff60405f2054166040519015158152f35b34610699576040366003190112610699576132d3600435613384613ce3565b9061339e610f14825f526002602052600160405f20015490565b6153d6565b34610699576020366003190112610699576133bc613ccd565b6133c4615165565b6133cf610f14613f14565b6133d881615251565b506001600160a01b03167f0955f82c07229d6a99f48ddd28fe0036270495ad0976e376cd9fa4f18528fdf55f80a2005b34610699575f366003190112610699576040517f00000000000000000000000000000000000000000000000000000000000000006001600160a01b03168152602090f35b346106995760203660031901126106995760206134776004355f526002602052600160405f20015490565b604051908152f35b34610699575f366003190112610699576020600854604051908152f35b34610699575f366003190112610699576134b4615165565b6020601054604051908152f35b34610699575f36600319011261069957600d5460405160089190911c6001600160a01b03168152602090f35b3461069957604036600319011261069957613544602061350b613ccd565b61351361511c565b60405163a9059cbb60e01b81526001600160a01b039091166004820152602480359082015291829081906044820190565b03815f7f00000000000000000000000000000000000000000000000000000000000000006001600160a01b03165af1908115612478575f916135f4575b501561358957005b60405162461bcd60e51b815260206004820152603860248201527f4261726b206661696c65643a204661696c6564207472616e736665722074686560448201527f207265737420746f206c697175696461746564207573657200000000000000006064820152608490fd5b90506020813d602011613626575b8161360f60209383613e34565b810103126106995761362090613eaf565b81613581565b3d9150613602565b3461069957604036600319011261069957613647613ccd565b6024359061365361511c565b6040516370a0823160e01b81523060048201527f00000000000000000000000000000000000000000000000000000000000000006001600160a01b031690602081602481855afa80156124785784905f906137b1575b6136b39250615231565b60405163a9059cbb60e01b81526001600160a01b03831660048201526024810184905290602090829060449082905f905af1908115612478575f91613777575b501561373f5760207fed16d6dd782c608b61d5c1c0acb1c19a3525a97104c52c147e34cdfafa639a4e9161372984600f54613f07565b600f556040519384526001600160a01b031692a2005b60405162461bcd60e51b815260206004820152601060248201526f1c995dd85c9912dc1c8819985a5b195960821b6044820152606490fd5b90506020813d6020116137a9575b8161379260209383613e34565b81010312610699576137a390613eaf565b836136f3565b3d9150613785565b50506020813d6020116137df575b816137cc60209383613e34565b8101031261069957836136b391516136a9565b3d91506137bf565b34610699576040366003190112610699576001600160a01b03613808613ccd565b165f52600b60205260405f206024355f52602052602060ff60405f2054166040519015158152f35b34610699576060366003190112610699576004356024359060443591600383101592836106995760ff600654166005811015613aba5760016138729114613d86565b61387a614be4565b81151580613c71575b61388c90613df8565b604051636eb1769f60e11b81523360048201523060248201526001600160a01b037f00000000000000000000000000000000000000000000000000000000000000001690602081604481855afa80156124785785905f90613c3b575b6138f492501015613e6a565b6040516323b872dd60e01b81523360048201523060248201526044810185905290602090829060649082905f905af18015612478575f90613c00575b61393a9150613ebc565b60405163abb12a2360e01b81527f00000000000000000000000000000000000000000000000000000000000000006001600160a01b031693906139806004820184613d2c565b836024820152602081604481885afa908115612478575f91613bce575b508015613b5a57916001955b6139b4858385614c04565b9790966139c6828a8a89893333614c96565b604051627eeac760e11b81523360048201526024810187905290602090829060449082905afa80156124785784905f90613b24575b613a0792508733614fb1565b15613ace5780613aba57836040517f7f203fdda9f9cb94d7d21f028b6cdda6dd133a38f9ad7b3e455c217fe4294d1a339180613a5d8c8c898b859094939260609260808301968352602083015260408201520152565b0390a35b613aba5760408051928352602083019190915281019290925260608201839052608082018490526105e69133907f6b09923d887ff6b3a7daa9354d80782a148bde233fb233310ebc3a3ad70c3073908060a081016105c2565b634e487b7160e01b5f52602160045260245ffd5b505f836040517f179a3bb84f3b9d1f6ea5ef46aadc2b48cc4f50c551092593ffbe2597107ad7ab339180613b1c8c8c898b859094939260609260808301968352602083015260408201520152565b0390a3613a61565b50506020813d602011613b52575b81613b3f60209383613e34565b810103126106995783613a0791516139fb565b3d9150613b32565b50604051630b514f3360e41b8152613b756004820184613d2c565b8360248201526020816044815f895af1908115612478575f91613b9c575b50915f956139a9565b90506020813d602011613bc6575b81613bb760209383613e34565b81010312610699575186613b93565b3d9150613baa565b90506020813d602011613bf8575b81613be960209383613e34565b8101031261069957518661399d565b3d9150613bdc565b506020813d602011613c33575b81613c1a60209383613e34565b8101031261069957613c2e61393a91613eaf565b613930565b3d9150613c0d565b50506020813d602011613c69575b81613c5660209383613e34565b8101031261069957846138f491516138e8565b3d9150613c49565b50821515613883565b34610699576020366003190112610699576004359063ffffffff60e01b821680920361069957602091637965db0b60e01b8114908115613cbc575b5015158152f35b6301ffc9a760e01b14905083613cb5565b600435906001600160a01b038216820361069957565b602435906001600160a01b038216820361069957565b90602080835192838152019201905f5b818110613d165750505090565b8251845260209384019390920191600101613d09565b906003821015613aba5752565b805180835260209291819084018484015e5f828201840152601f01601f1916010190565b8054821015613d72575f5260205f2001905f90565b634e487b7160e01b5f52603260045260245ffd5b15613d8d57565b60405162461bcd60e51b815260206004820152603a60248201527f496e76616c69642073746174653a2043757272656e7420737461746520646f6560448201527f73206e6f74206d617463682072657175697265642073746174650000000000006064820152608490fd5b15613dff57565b60405162461bcd60e51b815260206004820152600d60248201526c496e76616c696420707269636560981b6044820152606490fd5b90601f8019910116810190811067ffffffffffffffff821117613e5657604052565b634e487b7160e01b5f52604160045260245ffd5b15613e7157565b60405162461bcd60e51b8152602060048201526016602482015275496e73756666696369656e7420616c6c6f77616e636560501b6044820152606490fd5b5190811515820361069957565b15613ec357565b606460405162461bcd60e51b815260206004820152602060248201527f556e6465726c79696e6720746f6b656e207472616e73666572206661696c65646044820152fd5b91908201809211612e7c57565b5f5160206159745f395f51905f525f5260026020527f2f0949b8d545229c21fbc0522749eb3ef25626b0238be56d98991f55192caf2c5490565b5f5160206159945f395f51905f525f5260026020527f15b7f7f5b1f9acd416a25aed773685588d9fa1a0964a8414d7af15dce2e397145490565b8051821015613d725760209160051b010190565b5f198114612e7c5760010190565b67ffffffffffffffff8111613e565760051b60200190565b90613fcc82613faa565b613fd96040519182613e34565b8281528092613fea601f1991613faa565b0190602036910137565b919060a08382031261069957825160038110156106995792602081015192604082015192606083015167ffffffffffffffff811161069957830181601f820112156106995780519167ffffffffffffffff8311613e565760405190614063601f8501601f191660200183613e34565b83825260208484010111610699575f60208461408d9582608096018386015e830101529301613eaf565b90565b9060018060a01b0382165f52600a60205260405f20916040519283602082549182815201915f5260205f20905f5b81811061444657505050836140d4910384613e34565b5f927f00000000000000000000000000000000000000000000000000000000000000006001600160a01b031690845b81518110156141b15761414b602061411b8385613f88565b51604051627eeac760e11b81526001600160a01b0388166004820152602481019190915291829081906044820190565b0381875afa908115612478575f91614180575b5061416c575b600101614103565b94614178600191613f9c565b959050614164565b90506020813d82116141a9575b8161419a60209383613e34565b8101031261069957515f61415e565b3d915061418d565b509184156143ce576141c285613fc2565b916141cc86613fc2565b906141d687613fc2565b916141e96141e389613fc2565b98613fc2565b945f965f5b81518110156143c15761423660206142068385613f88565b51604051627eeac760e11b81526001600160a01b038b166004820152602481019190915291829081906044820190565b0381895afa908115612478575f91614390575b5080614259575b506001016141ee565b61426682849b939b613f88565b5190816142738487613f88565b5261427e8387613f88565b5260405163463d31d760e11b815260048101829052905f826024818a5afa801561247857838e5f945f93614367575b50906142b891613f88565b526142c38389613f88565b906003831015613aba5791905260048054604051639e35afc960e01b81526001600160a01b038b811693820193909352602481019390935260209183916044918391165afa908115612478575f91614335575b508161432e916143286001948c613f88565b52613f9c565b9890614250565b90506020813d821161435f575b8161434f60209383613e34565b8101031261069957516001614316565b3d9150614342565b6142b89295506143829193503d805f833e610d0d8183613e34565b5050509490949290916142ad565b90506020813d82116143b9575b816143aa60209383613e34565b8101031261069957515f614249565b3d915061439d565b5050979493509591945050565b50505090506020906040516143e38382613e34565b5f81525f368137604051926143f88185613e34565b5f84525f3681376040519261440d8285613e34565b5f84525f368137604051926144228385613e34565b5f84525f368137604051926144378185613e34565b5f8452505f3681379493929190565b82548452602090930192600192830192016140be565b6040519060c0820182811067ffffffffffffffff821117613e56576040525f60a0838281528260208201528260408201528260608201528260808201520152565b156144a457565b60405162461bcd60e51b815260206004820152602660248201527f50657263656e74616765206d757374206265206265747765656e20312520616e60448201526564203130302560d01b6064820152608490fd5b919261450261445c565b5060018410158061498d575b6145179061449d565b604051627eeac760e11b81526001600160a01b038481166004830152602482018490527f000000000000000000000000000000000000000000000000000000000000000016949093602085604481895afa948515612478575f95614957575b505f60249495966040519586809263463d31d760e11b82528960048301525afa908115612478575f945f92614928575b5060048054604051639e35afc960e01b81526001600160a01b0393841692810192909252602482019790975294959394936020918591168180604481015b03915afa928315612478575f936148f4575b507f000000000000000000000000000000000000000000000000000000000000000094606461462d8461462761445c565b99614a03565b04808852156148af576003811015613aba57806147ca5750855160031c908160208801528160090291600983048103612e7c57677ce66c50e28400000291808304670de0b6b3a76400001490151715612e7c5761468991614a16565b60408601525b82156147ad576064916146a191614a03565b04908160a0850152670de0b6b3a7640000820291808304670de0b6b3a76400001490151715612e7c576146d391614a16565b60408301805182116147705760ff83166012810361470557506146fd925081608085015251614a34565b606082015290565b90919060121115614744578261151d61151861472d61473c9461151d6115186146fd99614bc2565b94608088019586525192614bc2565b905190614a34565b8261153861151861476161473c946115386115186146fd99614baf565b94608088019586525192614baf565b60405162461bcd60e51b8152602060048201526015602482015274125b9d985b1a59081919591d58dd08185b5bdd5b9d605a1b6044820152606490fd5b505050505f60a08201525f60808201526040810151606082015290565b600181036148215750855160021c908160208801528160050291600583048103612e7c57674563918244f400000291808304670de0b6b3a76400001490151715612e7c5761481791614a16565b604086015261468f565b60020361487157855160208701819052600181901b91906001600160ff1b03811603612e7c57670de0b6b3a7640000820291808304670de0b6b3a76400001490151715612e7c5761481791614a16565b60405162461bcd60e51b8152602060048201526016602482015275125b9d985b1a59081b195d995c9859d9481b195d995b60521b6044820152606490fd5b60405162461bcd60e51b815260206004820152601e60248201527f43616c63756c61746564206275726e20616d6f756e74206973207a65726f00006044820152606490fd5b9092506020813d602011614920575b8161491060209383613e34565b810103126106995751915f6145f6565b3d9150614903565b6145e49495506020919250614946903d805f833e610d0d8183613e34565b5050509690969291509594936145a6565b9394506020843d602011614985575b8161497360209383613e34565b8101031261069957925193925f614576565b3d9150614966565b50606484111561450e565b1561499f57565b60405162461bcd60e51b815260206004820152601d60248201527f5573657220646f6573206e6f7420686f6c64207468697320746f6b656e0000006044820152606490fd5b908160609103126106995780519161408d604060208401519301613eaf565b81810292918115918404141715612e7c57565b8115614a20570490565b634e487b7160e01b5f52601260045260245ffd5b91908203918211612e7c57565b90816020910312610699575160ff811681036106995790565b15614a6157565b60405162461bcd60e51b815260206004820152601060248201526f556e617574686f72697a656420414d4d60801b6044820152606490fd5b15614aa057565b60405162461bcd60e51b8152602060048201526016602482015275496e73756666696369656e7420532062616c616e636560501b6044820152606490fd5b15614ae557565b60405162461bcd60e51b815260206004820152601760248201527f496e73756666696369656e7420636f6c6c61746572616c0000000000000000006044820152606490fd5b15614b3157565b60405162461bcd60e51b8152602060048201526014602482015273155cd95c881d1c985b9cd9995c8819985a5b195960621b6044820152606490fd5b15614b7457565b60405162461bcd60e51b8152602060048201526013602482015272119959481d1c985b9cd9995c8819985a5b1959606a1b6044820152606490fd5b60ff6011199116019060ff8211612e7c57565b60ff166012039060ff8211612e7c57565b60ff16604d8111612e7c57600a0a90565b600260015414614bf5576002600155565b633ee5aeb560e01b5f5260045ffd5b906003811015613aba5780614c415750677ce66c50e284000091614c2791614a03565b0490816001600160fd1b0381168103612e7c5760031b905b565b60018103614c765750674563918244f4000091614c5d91614a03565b0490816001600160fe1b0381168103612e7c5760021b90565b60020361487157671bc16d674ec8000091614c9091614a03565b04908190565b9492939196955f95614ccc60018060a01b038416998a5f52600c60205260405f20614cc2828254613f07565b9055600954613f07565b6009557f00000000000000000000000000000000000000000000000000000000000000006001600160a01b0316803b15610699576040516340c10f1960e01b81526001600160a01b03929092166004830152602482018590525f908290604490829084905af1801561247857614f9c575b5015614f09577f00000000000000000000000000000000000000000000000000000000000000006001600160a01b0316803b1561080857604051634f5ed3b560e01b81526001600160a01b038316600482015260248101869052604481018590529086908290606490829084905af180156114f657908691614ef4575b50505b6004546001600160a01b031690813b1561080857604051631e67ec1960e31b81526001600160a01b0391909116600482015260248101859052604481018490529085908290606490829084905af180156106a557908591614edf575b505090614e2b614e3692600754613f07565b600755600854613f07565b600855838252600b6020526040822081835260205260ff60408320541615614e5f575b50509050565b838252600a602052604082209384549468010000000000000000861015614ecb5785614e9391600160409798018155613d5d565b81549060031b9084821b915f19901b19161790558252600b60205282822090825260205220600160ff19825416179055805f80614e59565b634e487b7160e01b84526041600452602484fd5b81614ee991613e34565b610d3557835f614e19565b81614efe91613e34565b610cc057845f614dba565b7f00000000000000000000000000000000000000000000000000000000000000006001600160a01b0316803b1561080857604051635b0a931d60e01b81526001600160a01b038316600482015260248101869052604481018590529086908290606490829084905af180156114f657908691614f87575b5050614dbd565b81614f9191613e34565b610cc057845f614f80565b614fa99196505f90613e34565b5f945f614d3d565b600d5492939260081c6001600160a01b03169081156150d757604051630ebf94ab60e41b81526001600160a01b038216600482015260248101849052602081604481865afa908115612478575f9161509d575b5061506557813b15610699575f60849261504c8296604051988997889663585f75af60e01b885260018060a01b03166004880152602487015260448601526064850190613d2c565b5af180156124785761505b5750565b5f614c3f91613e34565b60405162461bcd60e51b815260206004820152601060248201526f151bdad95b881a5cc8199c99595e995960821b6044820152606490fd5b90506020813d6020116150cf575b816150b860209383613e34565b81010312610699576150c990613eaf565b5f615004565b3d91506150ab565b60405162461bcd60e51b815260206004820152601a60248201527f6c69717569646174696f6e4d616e61676572206e6f74207365740000000000006044820152606490fd5b335f9081525f516020615a145f395f51905f52602052604090205460ff161561514157565b63e2517d3f60e01b5f52336004525f5160206159745f395f51905f5260245260445ffd5b335f9081525f5160206159f45f395f51905f52602052604090205460ff161561518a57565b63e2517d3f60e01b5f52336004525f516020615a345f395f51905f5260245260445ffd5b335f9081525f5160206159b45f395f51905f52602052604090205460ff16156151d357565b63e2517d3f60e01b5f52336004525f5160206159945f395f51905f5260245260445ffd5b5f81815260026020908152604080832033845290915290205460ff161561521b5750565b63e2517d3f60e01b5f523360045260245260445ffd5b81811061523c575050565b63cf47918160e01b5f5260045260245260445ffd5b6001600160a01b0381165f9081525f516020615a145f395f51905f52602052604090205460ff166152d1576001600160a01b03165f8181525f516020615a145f395f51905f5260205260408120805460ff191660011790553391905f5160206159745f395f51905f52905f5160206159545f395f51905f529080a4600190565b505f90565b6001600160a01b0381165f9081525f5160206159b45f395f51905f52602052604090205460ff166152d1576001600160a01b03165f8181525f5160206159b45f395f51905f5260205260408120805460ff191660011790553391905f5160206159945f395f51905f52905f5160206159545f395f51905f529080a4600190565b6001600160a01b0381165f9081525f5160206159f45f395f51905f52602052604090205460ff166152d1576001600160a01b03165f8181525f5160206159f45f395f51905f5260205260408120805460ff191660011790553391905f516020615a345f395f51905f52905f5160206159545f395f51905f529080a4600190565b5f8181526002602090815260408083206001600160a01b038616845290915290205460ff16615449575f8181526002602090815260408083206001600160a01b0395909516808452949091528120805460ff19166001179055339291905f5160206159545f395f51905f529080a4600190565b50505f90565b6001600160a01b0381165f9081525f5160206159f45f395f51905f52602052604090205460ff16156152d1576001600160a01b03165f8181525f5160206159f45f395f51905f5260205260408120805460ff191690553391905f516020615a345f395f51905f52905f5160206159d45f395f51905f529080a4600190565b6001600160a01b0381165f9081525f5160206159b45f395f51905f52602052604090205460ff16156152d1576001600160a01b03165f8181525f5160206159b45f395f51905f5260205260408120805460ff191690553391905f5160206159945f395f51905f52905f5160206159d45f395f51905f529080a4600190565b6001600160a01b0381165f9081525f516020615a145f395f51905f52602052604090205460ff16156152d1576001600160a01b03165f8181525f516020615a145f395f51905f5260205260408120805460ff191690553391905f5160206159745f395f51905f52905f5160206159d45f395f51905f529080a4600190565b5f8181526002602090815260408083206001600160a01b038616845290915290205460ff1615615449575f8181526002602090815260408083206001600160a01b0395909516808452949091528120805460ff19169055339291905f5160206159d45f395f51905f529080a4600190565b5f546001600160a01b0316330361564d57565b63118cdaa760e01b5f523360045260245ffd5b519069ffffffffffffffffffff8216820361069957565b6001600160a01b0316919082156157dc5760a060049360405194858092633fabe5a360e21b82525afa5f915f91805f965f92615780575b506156c1575050505090505f905f905f90565b5f83139384615776575b8461575f575b84615749575b8461572e575b505082156157245760ff8116601281101561570757509061153861151861570393614bc2565b9291565b6012101561571f579061151d61151861570393614baf565b509291565b505091505f915f91565b69ffffffffffffffffffff9081169116101592505f806156dd565b69ffffffffffffffffffff8116151594506156d7565b9350610e1061576e8742614a34565b1115936156d1565b86151594506156cb565b9350935050935060a0813d60a0116157d4575b816157a060a09383613e34565b81010312610699576157b181615660565b936020820151926157c9608060608501519401615660565b95939295905f6156ae565b3d9150615793565b505f915081908190565b9190916003811015613aba5780615856575080600902906009820403612e7c5781811115615449578161581891614a34565b6001600160fd1b0382168203612e7c57670de0b6b3a7640000810290808204670de0b6b3a76400001490151715612e7c5761408d9160031b90614a16565b600181036158bd575080600502906005820403612e7c5781811115615449578161587f91614a34565b6001600160fe1b0382168203612e7c57670de0b6b3a7640000810290808204670de0b6b3a76400001490151715612e7c5761408d9160021b90614a16565b60020361591657600181901b906001600160ff1b03811603612e7c578181111561544957816158eb91614a34565b90670de0b6b3a7640000820291808304670de0b6b3a76400001490151715612e7c5761408d91614a16565b60405162461bcd60e51b8152602060048201526015602482015274496e76616c6964206c65766572616765207479706560581b6044820152606490fdfe2f8788117e7eff1d82e926ec794901d17c78024a50270940304540a733656f0dc5e2d1653feba496cf5ce3a744b90ea18acf0df3d036aba9b2f85992a146790678dee7707521b7c9b92b1070cc1d51daeefd47d09898061ee53bff95426cbe5415b7f7f5b1f9acd416a25aed773685588d9fa1a0964a8414d7af15dce2e39713f6391f5c32d9c69d2a47ea670b442974b53935d1edc7fd64eb21e047a839171be5ebfa64fca8d502a8e50c1edffd2c31ef4dad5b396e65d9f397fb028f74abc52f0949b8d545229c21fbc0522749eb3ef25626b0238be56d98991f55192caf2ba49807205ce4d355092ef5a8a18f56e8913cf4a201fbe287825b095693c21775a2646970667358221220c2f667aa92603d5603057e08d2f8b42cb5aba6c2814adb95aa39f90cfabfaa8b64736f6c634300081c00332f8788117e7eff1d82e926ec794901d17c78024a50270940304540a733656f0dac33ff75c19e70fe83507db0d683fd3465c996598dc972688b7ace676c89077be5ebfa64fca8d502a8e50c1edffd2c31ef4dad5b396e65d9f397fb028f74abc5",
  "linkReferences": {},
  "deployedLinkReferences": {},
  "immutableReferences": {
    "8942": [
      {
        "length": 32,
        "start": 936
      },
      {
        "length": 32,
        "start": 2827
      },
      {
        "length": 32,
        "start": 5058
      },
      {
        "length": 32,
        "start": 6031
      },
      {
        "length": 32,
        "start": 7511
      },
      {
        "length": 32,
        "start": 13341
      },
      {
        "length": 32,
        "start": 13641
      },
      {
        "length": 32,
        "start": 13928
      },
      {
        "length": 32,
        "start": 14511
      }
    ],
    "8945": [
      {
        "length": 32,
        "start": 2209
      },
      {
        "length": 32,
        "start": 5891
      },
      {
        "length": 32,
        "start": 9001
      },
      {
        "length": 32,
        "start": 9614
      },
      {
        "length": 32,
        "start": 19665
      }
    ],
    "8948": [
      {
        "length": 32,
        "start": 1090
      },
      {
        "length": 32,
        "start": 2391
      },
      {
        "length": 32,
        "start": 4597
      },
      {
        "length": 32,
        "start": 6213
      },
      {
        "length": 32,
        "start": 8437
      },
      {
        "length": 32,
        "start": 9946
      },
      {
        "length": 32,
        "start": 11497
      },
      {
        "length": 32,
        "start": 13049
      },
      {
        "length": 32,
        "start": 14665
      },
      {
        "length": 32,
        "start": 16600
      },
      {
        "length": 32,
        "start": 17724
      },
      {
        "length": 32,
        "start": 19781
      },
      {
        "length": 32,
        "start": 20235
      }
    ],
    "8956": [
      {
        "length": 32,
        "start": 4955
      },
      {
        "length": 32,
        "start": 11308
      },
      {
        "length": 32,
        "start": 17913
      }
    ]
  },
  "inputSourceName": "project/contracts/CustodianFixed.sol",
  "buildInfoId": "solc-0_8_28-52ffd542b654ae7ca75e2f683cc6896a21df351a"
}