{
  "_format": "hh3-artifact-1",
  "contractName": "LinearDecrease",
  "sourceName": "contracts/auctions/abaci.sol",
  "abi": [
    {
      "inputs": [
        {
          "internalType": "uint256",
          "name": "_tau",
          "type": "uint256"
        }
      ],
      "stateMutability": "nonpayable",
      "type": "constructor"
    },
    {
      "anonymous": false,
      "inputs": [
        {
          "indexed": true,
          "internalType": "address",
          "name": "usr",
          "type": "address"
        }
      ],
      "name": "Deny",
      "type": "event"
    },
    {
      "anonymous": false,
      "inputs": [
        {
          "indexed": true,
          "internalType": "bytes32",
          "name": "what",
          "type": "bytes32"
        },
        {
          "indexed": false,
          "internalType": "uint256",
          "name": "data",
          "type": "uint256"
        }
      ],
      "name": "File",
      "type": "event"
    },
    {
      "anonymous": false,
      "inputs": [
        {
          "indexed": true,
          "internalType": "address",
          "name": "usr",
          "type": "address"
        }
      ],
      "name": "Rely",
      "type": "event"
    },
    {
      "inputs": [
        {
          "internalType": "address",
          "name": "usr",
          "type": "address"
        }
      ],
      "name": "deny",
      "outputs": [],
      "stateMutability": "nonpayable",
      "type": "function"
    },
    {
      "inputs": [
        {
          "internalType": "bytes32",
          "name": "what",
          "type": "bytes32"
        },
        {
          "internalType": "uint256",
          "name": "data",
          "type": "uint256"
        }
      ],
      "name": "file",
      "outputs": [],
      "stateMutability": "nonpayable",
      "type": "function"
    },
    {
      "inputs": [
        {
          "internalType": "uint256",
          "name": "top",
          "type": "uint256"
        },
        {
          "internalType": "uint256",
          "name": "dur",
          "type": "uint256"
        }
      ],
      "name": "price",
      "outputs": [
        {
          "internalType": "uint256",
          "name": "",
          "type": "uint256"
        }
      ],
      "stateMutability": "view",
      "type": "function"
    },
    {
      "inputs": [
        {
          "internalType": "address",
          "name": "usr",
          "type": "address"
        }
      ],
      "name": "rely",
      "outputs": [],
      "stateMutability": "nonpayable",
      "type": "function"
    },
    {
      "inputs": [],
      "name": "tau",
      "outputs": [
        {
          "internalType": "uint256",
          "name": "",
          "type": "uint256"
        }
      ],
      "stateMutability": "view",
      "type": "function"
    },
    {
      "inputs": [
        {
          "internalType": "address",
          "name": "",
          "type": "address"
        }
      ],
      "name": "wards",
      "outputs": [
        {
          "internalType": "uint256",
          "name": "",
          "type": "uint256"
        }
      ],
      "stateMutability": "view",
      "type": "function"
    }
  ],
  "bytecode": "0x608034608157601f61046b38819003918201601f19168301916001600160401b0383118484101760855780849260209460405283398101031260815751600155335f525f602052600160405f2055604051337fdd0e34038ac38b2a1ce960229778ac48a8719bc900b6c4f8d0475c6e8b385a605f80a26103d1908161009a8239f35b5f80fd5b634e487b7160e01b5f52604160045260245ffdfe60806040526004361015610011575f80fd5b5f3560e01c806329ae8114146101c1578063487a23951461019857806365fae35e146101275780639c52a7f1146100b7578063bf353dbb1461007c5763cfc4af551461005b575f80fd5b34610078575f366003190112610078576020600154604051908152f35b5f80fd5b34610078576020366003190112610078576004356001600160a01b03811690819003610078575f525f602052602060405f2054604051908152f35b34610078576020366003190112610078576004356001600160a01b0381169081900361007857335f525f6020526100f4600160405f205414610281565b805f525f6020525f60408120557f184450df2e323acec0ed3b5c7531b81f9b4cdef7914dfd4c0a4317416bb5251b5f80a2005b34610078576020366003190112610078576004356001600160a01b0381169081900361007857335f525f602052610164600160405f205414610281565b805f525f602052600160405f20557fdd0e34038ac38b2a1ce960229778ac48a8719bc900b6c4f8d0475c6e8b385a605f80a2005b346100785760403660031901126100785760206101b96024356004356102eb565b604051908152f35b3461007857604036600319011261007857600435602435335f525f6020526101ef600160405f205414610281565b6274617560e81b820361022d576020817fe986e40cc8c151830d4f61050f4fb2e4add8567caad2d5f5496f9158e91fe4c792600155604051908152a2005b60405162461bcd60e51b815260206004820152602660248201527f4c696e65617244656372656173652f66696c652d756e7265636f676e697a65646044820152652d706172616d60d01b6064820152608490fd5b1561028857565b60405162461bcd60e51b815260206004820152601d60248201527f4c696e65617244656372656173652f6e6f742d617574686f72697a65640000006044820152606490fd5b81156102d7570490565b634e487b7160e01b5f52601260045260245ffd5b90600154808210156103945781810381811161038057670de0b6b3a7640000810292818404670de0b6b3a764000014908314171561038057670de0b6b3a76400008304036100785761033c916102cd565b8082029180830482148115171561038057811591821561036c575b50501561007857670de0b6b3a7640000900490565b610378919250836102cd565b145f80610357565b634e487b7160e01b5f52601160045260245ffd5b5050505f9056fea2646970667358221220817b1163197e65a0028c958705a4bc509bf482c0cb15019a67b16978eb5815d164736f6c634300081c0033",
  "linkReferences": {},
  "deployedLinkReferences": {},
  "immutableReferences": {},
  "inputSourceName": "project/contracts/auctions/abaci.sol",
  "buildInfoId": "solc-0_8_28-dda00a22b5942a362bf05d82d897389ddcf4098a"
}