{
  "_format": "hh3-artifact-1",
  "contractName": "LinearDecrease",
  "sourceName": "contracts/auctions/abaci.sol",
  "abi": [
    {
      "inputs": [
        {
          "internalType": "uint256",
          "name": "_tau",
          "type": "uint256"
        },
        {
          "internalType": "address",
          "name": "auctionAddr",
          "type": "address"
        }
      ],
      "stateMutability": "nonpayable",
      "type": "constructor"
    },
    {
      "inputs": [],
      "name": "AccessControlBadConfirmation",
      "type": "error"
    },
    {
      "inputs": [
        {
          "internalType": "address",
          "name": "account",
          "type": "address"
        },
        {
          "internalType": "bytes32",
          "name": "neededRole",
          "type": "bytes32"
        }
      ],
      "name": "AccessControlUnauthorizedAccount",
      "type": "error"
    },
    {
      "anonymous": false,
      "inputs": [
        {
          "indexed": true,
          "internalType": "address",
          "name": "user",
          "type": "address"
        }
      ],
      "name": "AdminAccessGranted",
      "type": "event"
    },
    {
      "anonymous": false,
      "inputs": [
        {
          "indexed": true,
          "internalType": "address",
          "name": "user",
          "type": "address"
        }
      ],
      "name": "AdminAccessRevoked",
      "type": "event"
    },
    {
      "anonymous": false,
      "inputs": [
        {
          "indexed": true,
          "internalType": "address",
          "name": "user",
          "type": "address"
        }
      ],
      "name": "CallerAccessGranted",
      "type": "event"
    },
    {
      "anonymous": false,
      "inputs": [
        {
          "indexed": true,
          "internalType": "address",
          "name": "user",
          "type": "address"
        }
      ],
      "name": "CallerAccessRevoked",
      "type": "event"
    },
    {
      "anonymous": false,
      "inputs": [
        {
          "indexed": true,
          "internalType": "bytes32",
          "name": "role",
          "type": "bytes32"
        },
        {
          "indexed": true,
          "internalType": "bytes32",
          "name": "previousAdminRole",
          "type": "bytes32"
        },
        {
          "indexed": true,
          "internalType": "bytes32",
          "name": "newAdminRole",
          "type": "bytes32"
        }
      ],
      "name": "RoleAdminChanged",
      "type": "event"
    },
    {
      "anonymous": false,
      "inputs": [
        {
          "indexed": true,
          "internalType": "bytes32",
          "name": "role",
          "type": "bytes32"
        },
        {
          "indexed": true,
          "internalType": "address",
          "name": "account",
          "type": "address"
        },
        {
          "indexed": true,
          "internalType": "address",
          "name": "sender",
          "type": "address"
        }
      ],
      "name": "RoleGranted",
      "type": "event"
    },
    {
      "anonymous": false,
      "inputs": [
        {
          "indexed": true,
          "internalType": "bytes32",
          "name": "role",
          "type": "bytes32"
        },
        {
          "indexed": true,
          "internalType": "address",
          "name": "account",
          "type": "address"
        },
        {
          "indexed": true,
          "internalType": "address",
          "name": "sender",
          "type": "address"
        }
      ],
      "name": "RoleRevoked",
      "type": "event"
    },
    {
      "inputs": [],
      "name": "ADMIN_ROLE",
      "outputs": [
        {
          "internalType": "bytes32",
          "name": "",
          "type": "bytes32"
        }
      ],
      "stateMutability": "view",
      "type": "function"
    },
    {
      "inputs": [],
      "name": "CALLER_ROLE",
      "outputs": [
        {
          "internalType": "bytes32",
          "name": "",
          "type": "bytes32"
        }
      ],
      "stateMutability": "view",
      "type": "function"
    },
    {
      "inputs": [],
      "name": "DEFAULT_ADMIN_ROLE",
      "outputs": [
        {
          "internalType": "bytes32",
          "name": "",
          "type": "bytes32"
        }
      ],
      "stateMutability": "view",
      "type": "function"
    },
    {
      "inputs": [
        {
          "internalType": "uint256",
          "name": "data",
          "type": "uint256"
        }
      ],
      "name": "file",
      "outputs": [],
      "stateMutability": "nonpayable",
      "type": "function"
    },
    {
      "inputs": [
        {
          "internalType": "bytes32",
          "name": "role",
          "type": "bytes32"
        }
      ],
      "name": "getRoleAdmin",
      "outputs": [
        {
          "internalType": "bytes32",
          "name": "",
          "type": "bytes32"
        }
      ],
      "stateMutability": "view",
      "type": "function"
    },
    {
      "inputs": [
        {
          "internalType": "address",
          "name": "account",
          "type": "address"
        }
      ],
      "name": "grantAdminRole",
      "outputs": [],
      "stateMutability": "nonpayable",
      "type": "function"
    },
    {
      "inputs": [
        {
          "internalType": "address",
          "name": "account",
          "type": "address"
        }
      ],
      "name": "grantCallerRole",
      "outputs": [],
      "stateMutability": "nonpayable",
      "type": "function"
    },
    {
      "inputs": [
        {
          "internalType": "bytes32",
          "name": "role",
          "type": "bytes32"
        },
        {
          "internalType": "address",
          "name": "account",
          "type": "address"
        }
      ],
      "name": "grantRole",
      "outputs": [],
      "stateMutability": "nonpayable",
      "type": "function"
    },
    {
      "inputs": [
        {
          "internalType": "bytes32",
          "name": "role",
          "type": "bytes32"
        },
        {
          "internalType": "address",
          "name": "account",
          "type": "address"
        }
      ],
      "name": "hasRole",
      "outputs": [
        {
          "internalType": "bool",
          "name": "",
          "type": "bool"
        }
      ],
      "stateMutability": "view",
      "type": "function"
    },
    {
      "inputs": [
        {
          "internalType": "uint256",
          "name": "top",
          "type": "uint256"
        },
        {
          "internalType": "uint256",
          "name": "dur",
          "type": "uint256"
        }
      ],
      "name": "price",
      "outputs": [
        {
          "internalType": "uint256",
          "name": "",
          "type": "uint256"
        }
      ],
      "stateMutability": "view",
      "type": "function"
    },
    {
      "inputs": [
        {
          "internalType": "bytes32",
          "name": "role",
          "type": "bytes32"
        },
        {
          "internalType": "address",
          "name": "callerConfirmation",
          "type": "address"
        }
      ],
      "name": "renounceRole",
      "outputs": [],
      "stateMutability": "nonpayable",
      "type": "function"
    },
    {
      "inputs": [
        {
          "internalType": "address",
          "name": "account",
          "type": "address"
        }
      ],
      "name": "revokeAdminRole",
      "outputs": [],
      "stateMutability": "nonpayable",
      "type": "function"
    },
    {
      "inputs": [
        {
          "internalType": "address",
          "name": "account",
          "type": "address"
        }
      ],
      "name": "revokeCallerRole",
      "outputs": [],
      "stateMutability": "nonpayable",
      "type": "function"
    },
    {
      "inputs": [
        {
          "internalType": "bytes32",
          "name": "role",
          "type": "bytes32"
        },
        {
          "internalType": "address",
          "name": "account",
          "type": "address"
        }
      ],
      "name": "revokeRole",
      "outputs": [],
      "stateMutability": "nonpayable",
      "type": "function"
    },
    {
      "inputs": [
        {
          "internalType": "bytes4",
          "name": "interfaceId",
          "type": "bytes4"
        }
      ],
      "name": "supportsInterface",
      "outputs": [
        {
          "internalType": "bool",
          "name": "",
          "type": "bool"
        }
      ],
      "stateMutability": "view",
      "type": "function"
    },
    {
      "inputs": [],
      "name": "tau",
      "outputs": [
        {
          "internalType": "uint256",
          "name": "",
          "type": "uint256"
        }
      ],
      "stateMutability": "view",
      "type": "function"
    }
  ],
  "bytecode": "0x60803461017057601f610f0838819003918201601f19168301916001600160401b038311848410176101745780849260409485528339810103126101705780516020909101516001600160a01b038116918282036101705760015561006333610188565b5061006d336101fe565b50335f9081525f516020610e885f395f51905f52602052604090205460ff161561014c575f60208181527ff11ed99ef1eb7fdaaafd786162d5e36830f2a0e1abc5d101d5a5d2cde3da8bb254808352604080842033855290925291205460ff161561013657506100dc9061027e565b50604051907f0fcfc8d72d308a68b4d24573172c3fc2a526bc8ffd9bcc7f099778ff8c4fd9c35f80a2337fc36befb96151814c16fe0d20f29a5912794cda96453e57ab00edad0bb21d50fa5f80a2610b5690816103128239f35b63e2517d3f60e01b5f523360045260245260445ffd5b63e2517d3f60e01b5f52336004525f516020610ec85f395f51905f5260245260445ffd5b5f80fd5b634e487b7160e01b5f52604160045260245ffd5b6001600160a01b0381165f9081525f516020610ee85f395f51905f52602052604090205460ff166101f9576001600160a01b03165f8181525f516020610ee85f395f51905f5260205260408120805460ff191660011790553391905f516020610e685f395f51905f528180a4600190565b505f90565b6001600160a01b0381165f9081525f516020610e885f395f51905f52602052604090205460ff166101f9576001600160a01b03165f8181525f516020610e885f395f51905f5260205260408120805460ff191660011790553391905f516020610ec85f395f51905f52905f516020610e685f395f51905f529080a4600190565b6001600160a01b0381165f9081525f516020610ea85f395f51905f52602052604090205460ff166101f9576001600160a01b03165f8181525f516020610ea85f395f51905f5260205260408120805460ff191660011790553391907f843c3a00fa95510a35f425371231fd3fe4642e719cb4595160763d6d02594b50905f516020610e685f395f51905f529080a460019056fe6080806040526004361015610012575f80fd5b5f3560e01c90816301ffc9a71461057d575080630817544e146104e35780631d6abc6e14610483578063248a9ca3146104595780632f2ff15d1461041c57806336568abe146103d8578063487a2395146103af5780634ca3f1691461031557806375b238fc146102ee578063774237fc146102c757806391d148541461027f5780639a19c7b0146101e5578063a217fddf146101cb578063c634b78e14610131578063cfc4af55146101145763d547741f146100cc575f80fd5b346101105760403660031901126101105761010e6004356100eb6105e6565b90610109610104825f525f602052600160405f20015490565b610713565b610a20565b005b5f80fd5b34610110575f366003190112610110576020600154604051908152f35b346101105760203660031901126101105761014a6105d0565b6101526106ca565b5f516020610b015f395f51905f525f9081526020527f7d7ffb7a348e1c6a02869081a26547b49160dd3df72d1d75a570eb9b698292ed5461019290610713565b61019b816107e3565b506001600160a01b03167fc36befb96151814c16fe0d20f29a5912794cda96453e57ab00edad0bb21d50fa5f80a2005b34610110575f3660031901126101105760206040515f8152f35b34610110576020366003190112610110576101fe6105d0565b6102066106ca565b5f516020610b015f395f51905f525f9081526020527f7d7ffb7a348e1c6a02869081a26547b49160dd3df72d1d75a570eb9b698292ed5461024690610713565b61024f8161098f565b506001600160a01b03167f998b1c8c2c4e47baeddde4d4152dfae31548fb5e6aa5fc2026808fa365a30e7c5f80a2005b34610110576040366003190112610110576102986105e6565b6004355f525f60205260405f209060018060a01b03165f52602052602060ff60405f2054166040519015158152f35b34610110575f3660031901126101105760206040515f516020610aa15f395f51905f528152f35b34610110575f3660031901126101105760206040515f516020610b015f395f51905f528152f35b346101105760203660031901126101105761032e6105d0565b6103366106ca565b5f516020610aa15f395f51905f525f9081526020527ff11ed99ef1eb7fdaaafd786162d5e36830f2a0e1abc5d101d5a5d2cde3da8bb25461037690610713565b61037f816108fe565b506001600160a01b03167f3d8ac96952c09594f2bd46a75dd349e4c54685eddbc360a657262e17646b36df5f80a2005b346101105760403660031901126101105760206103d060243560043561061a565b604051908152f35b34610110576040366003190112610110576103f16105e6565b336001600160a01b0382160361040d5761010e90600435610a20565b63334bd91960e11b5f5260045ffd5b346101105760403660031901126101105761010e60043561043b6105e6565b90610454610104825f525f602052600160405f20015490565b610876565b346101105760203660031901126101105760206103d06004355f525f602052600160405f20015490565b3461011057602036600319011261011057335f9081525f516020610ae15f395f51905f52602052604090205460ff16156104bf57600435600155005b63e2517d3f60e01b5f52336004525f516020610aa15f395f51905f5260245260445ffd5b34610110576020366003190112610110576104fc6105d0565b6105046106ca565b5f516020610aa15f395f51905f525f9081526020527ff11ed99ef1eb7fdaaafd786162d5e36830f2a0e1abc5d101d5a5d2cde3da8bb25461054490610713565b61054d8161074b565b506001600160a01b03167f0fcfc8d72d308a68b4d24573172c3fc2a526bc8ffd9bcc7f099778ff8c4fd9c35f80a2005b34610110576020366003190112610110576004359063ffffffff60e01b821680920361011057602091637965db0b60e01b81149081156105bf575b5015158152f35b6301ffc9a760e01b149050836105b8565b600435906001600160a01b038216820361011057565b602435906001600160a01b038216820361011057565b8115610606570490565b634e487b7160e01b5f52601260045260245ffd5b90600154808210156106c3578181038181116106af57670de0b6b3a7640000810292818404670de0b6b3a76400001490831417156106af57670de0b6b3a76400008304036101105761066b916105fc565b808202918083048214811517156106af57811591821561069b575b50501561011057670de0b6b3a7640000900490565b6106a7919250836105fc565b145f80610686565b634e487b7160e01b5f52601160045260245ffd5b5050505f90565b335f9081525f516020610ac15f395f51905f52602052604090205460ff16156106ef57565b63e2517d3f60e01b5f52336004525f516020610b015f395f51905f5260245260445ffd5b5f8181526020818152604080832033845290915290205460ff16156107355750565b63e2517d3f60e01b5f523360045260245260445ffd5b6001600160a01b0381165f9081525f516020610ae15f395f51905f52602052604090205460ff166107de576001600160a01b03165f8181525f516020610ae15f395f51905f5260205260408120805460ff191660011790553391905f516020610aa15f395f51905f52907f2f8788117e7eff1d82e926ec794901d17c78024a50270940304540a733656f0d9080a4600190565b505f90565b6001600160a01b0381165f9081525f516020610ac15f395f51905f52602052604090205460ff166107de576001600160a01b03165f8181525f516020610ac15f395f51905f5260205260408120805460ff191660011790553391905f516020610b015f395f51905f52907f2f8788117e7eff1d82e926ec794901d17c78024a50270940304540a733656f0d9080a4600190565b5f818152602081815260408083206001600160a01b038616845290915290205460ff166108f8575f818152602081815260408083206001600160a01b0395909516808452949091528120805460ff19166001179055339291907f2f8788117e7eff1d82e926ec794901d17c78024a50270940304540a733656f0d9080a4600190565b50505f90565b6001600160a01b0381165f9081525f516020610ae15f395f51905f52602052604090205460ff16156107de576001600160a01b03165f8181525f516020610ae15f395f51905f5260205260408120805460ff191690553391905f516020610aa15f395f51905f52907ff6391f5c32d9c69d2a47ea670b442974b53935d1edc7fd64eb21e047a839171b9080a4600190565b6001600160a01b0381165f9081525f516020610ac15f395f51905f52602052604090205460ff16156107de576001600160a01b03165f8181525f516020610ac15f395f51905f5260205260408120805460ff191690553391905f516020610b015f395f51905f52907ff6391f5c32d9c69d2a47ea670b442974b53935d1edc7fd64eb21e047a839171b9080a4600190565b5f818152602081815260408083206001600160a01b038616845290915290205460ff16156108f8575f818152602081815260408083206001600160a01b0395909516808452949091528120805460ff19169055339291907ff6391f5c32d9c69d2a47ea670b442974b53935d1edc7fd64eb21e047a839171b9080a460019056fe843c3a00fa95510a35f425371231fd3fe4642e719cb4595160763d6d02594b507d7ffb7a348e1c6a02869081a26547b49160dd3df72d1d75a570eb9b698292ecf11ed99ef1eb7fdaaafd786162d5e36830f2a0e1abc5d101d5a5d2cde3da8bb1a49807205ce4d355092ef5a8a18f56e8913cf4a201fbe287825b095693c21775a26469706673582212209d64c734b57095462a47ddfdc73d1e8d858345080ce0b621d4a49fbfa67983cb64736f6c634300081c00332f8788117e7eff1d82e926ec794901d17c78024a50270940304540a733656f0d7d7ffb7a348e1c6a02869081a26547b49160dd3df72d1d75a570eb9b698292ecf11ed99ef1eb7fdaaafd786162d5e36830f2a0e1abc5d101d5a5d2cde3da8bb1a49807205ce4d355092ef5a8a18f56e8913cf4a201fbe287825b095693c21775ad3228b676f7d3cd4284a5443f17f1962b36e491b30a40b2405849e597ba5fb5",
  "linkReferences": {},
  "deployedLinkReferences": {},
  "immutableReferences": {},
  "inputSourceName": "project/contracts/auctions/abaci.sol",
  "buildInfoId": "solc-0_8_28-fb9f9cecf7f9b5654817e77aa267f2fa1f1e486a"
}