{
  "_format": "hh3-artifact-1",
  "contractName": "LiquidationManager",
  "sourceName": "contracts/auctions/LiquidationManager.sol",
  "abi": [
    {
      "inputs": [
        {
          "internalType": "address",
          "name": "_leverageToken",
          "type": "address"
        },
        {
          "internalType": "address",
          "name": "_custodian",
          "type": "address"
        }
      ],
      "stateMutability": "nonpayable",
      "type": "constructor"
    },
    {
      "inputs": [],
      "name": "AccessControlBadConfirmation",
      "type": "error"
    },
    {
      "inputs": [
        {
          "internalType": "address",
          "name": "account",
          "type": "address"
        },
        {
          "internalType": "bytes32",
          "name": "neededRole",
          "type": "bytes32"
        }
      ],
      "name": "AccessControlUnauthorizedAccount",
      "type": "error"
    },
    {
      "inputs": [],
      "name": "ReentrancyGuardReentrantCall",
      "type": "error"
    },
    {
      "anonymous": false,
      "inputs": [
        {
          "indexed": true,
          "internalType": "bytes32",
          "name": "parameter",
          "type": "bytes32"
        },
        {
          "indexed": false,
          "internalType": "address",
          "name": "addr",
          "type": "address"
        }
      ],
      "name": "AddressChanged",
      "type": "event"
    },
    {
      "anonymous": false,
      "inputs": [
        {
          "indexed": true,
          "internalType": "address",
          "name": "user",
          "type": "address"
        }
      ],
      "name": "AdminAccessGranted",
      "type": "event"
    },
    {
      "anonymous": false,
      "inputs": [
        {
          "indexed": true,
          "internalType": "address",
          "name": "user",
          "type": "address"
        }
      ],
      "name": "AdminAccessRevoked",
      "type": "event"
    },
    {
      "anonymous": false,
      "inputs": [
        {
          "indexed": true,
          "internalType": "address",
          "name": "user",
          "type": "address"
        }
      ],
      "name": "AuctionAccessGranted",
      "type": "event"
    },
    {
      "anonymous": false,
      "inputs": [
        {
          "indexed": true,
          "internalType": "address",
          "name": "user",
          "type": "address"
        }
      ],
      "name": "AuctionAccessRevoked",
      "type": "event"
    },
    {
      "anonymous": false,
      "inputs": [
        {
          "indexed": true,
          "internalType": "address",
          "name": "user",
          "type": "address"
        }
      ],
      "name": "CustodianAccessGranted",
      "type": "event"
    },
    {
      "anonymous": false,
      "inputs": [
        {
          "indexed": true,
          "internalType": "address",
          "name": "user",
          "type": "address"
        }
      ],
      "name": "CustodianAccessRevoked",
      "type": "event"
    },
    {
      "anonymous": false,
      "inputs": [
        {
          "indexed": false,
          "internalType": "uint256",
          "name": "value",
          "type": "uint256"
        }
      ],
      "name": "DEFICIT",
      "type": "event"
    },
    {
      "anonymous": false,
      "inputs": [
        {
          "indexed": false,
          "internalType": "bool",
          "name": "liquidationSwitch",
          "type": "bool"
        }
      ],
      "name": "LiquidateSwitch",
      "type": "event"
    },
    {
      "anonymous": false,
      "inputs": [
        {
          "indexed": true,
          "internalType": "address",
          "name": "user",
          "type": "address"
        },
        {
          "indexed": true,
          "internalType": "uint256",
          "name": "fromTokenId",
          "type": "uint256"
        },
        {
          "indexed": true,
          "internalType": "uint256",
          "name": "toTokenId",
          "type": "uint256"
        },
        {
          "indexed": false,
          "internalType": "uint256",
          "name": "adjustAmountInWei",
          "type": "uint256"
        },
        {
          "indexed": false,
          "internalType": "uint256",
          "name": "underlyingAmountInWei",
          "type": "uint256"
        }
      ],
      "name": "NetValueAdjusted",
      "type": "event"
    },
    {
      "anonymous": false,
      "inputs": [
        {
          "indexed": false,
          "internalType": "string",
          "name": "message",
          "type": "string"
        }
      ],
      "name": "NoLeftAfterLiquidation",
      "type": "event"
    },
    {
      "anonymous": false,
      "inputs": [
        {
          "indexed": true,
          "internalType": "bytes32",
          "name": "parameter",
          "type": "bytes32"
        },
        {
          "indexed": false,
          "internalType": "uint256",
          "name": "value",
          "type": "uint256"
        }
      ],
      "name": "ParameterChanged",
      "type": "event"
    },
    {
      "anonymous": false,
      "inputs": [
        {
          "indexed": true,
          "internalType": "address",
          "name": "user",
          "type": "address"
        },
        {
          "indexed": true,
          "internalType": "uint256",
          "name": "tokenId",
          "type": "uint256"
        },
        {
          "indexed": false,
          "internalType": "uint8",
          "name": "riskLevel",
          "type": "uint8"
        }
      ],
      "name": "RiskLevelUpdated",
      "type": "event"
    },
    {
      "anonymous": false,
      "inputs": [
        {
          "indexed": true,
          "internalType": "bytes32",
          "name": "role",
          "type": "bytes32"
        },
        {
          "indexed": true,
          "internalType": "bytes32",
          "name": "previousAdminRole",
          "type": "bytes32"
        },
        {
          "indexed": true,
          "internalType": "bytes32",
          "name": "newAdminRole",
          "type": "bytes32"
        }
      ],
      "name": "RoleAdminChanged",
      "type": "event"
    },
    {
      "anonymous": false,
      "inputs": [
        {
          "indexed": true,
          "internalType": "bytes32",
          "name": "role",
          "type": "bytes32"
        },
        {
          "indexed": true,
          "internalType": "address",
          "name": "account",
          "type": "address"
        },
        {
          "indexed": true,
          "internalType": "address",
          "name": "sender",
          "type": "address"
        }
      ],
      "name": "RoleGranted",
      "type": "event"
    },
    {
      "anonymous": false,
      "inputs": [
        {
          "indexed": true,
          "internalType": "bytes32",
          "name": "role",
          "type": "bytes32"
        },
        {
          "indexed": true,
          "internalType": "address",
          "name": "account",
          "type": "address"
        },
        {
          "indexed": true,
          "internalType": "address",
          "name": "sender",
          "type": "address"
        }
      ],
      "name": "RoleRevoked",
      "type": "event"
    },
    {
      "inputs": [],
      "name": "ADMIN_ROLE",
      "outputs": [
        {
          "internalType": "bytes32",
          "name": "",
          "type": "bytes32"
        }
      ],
      "stateMutability": "view",
      "type": "function"
    },
    {
      "inputs": [],
      "name": "AUCTION_ROLE",
      "outputs": [
        {
          "internalType": "bytes32",
          "name": "",
          "type": "bytes32"
        }
      ],
      "stateMutability": "view",
      "type": "function"
    },
    {
      "inputs": [],
      "name": "CUSTODIAN_ROLE",
      "outputs": [
        {
          "internalType": "bytes32",
          "name": "",
          "type": "bytes32"
        }
      ],
      "stateMutability": "view",
      "type": "function"
    },
    {
      "inputs": [],
      "name": "DEFAULT_ADMIN_ROLE",
      "outputs": [
        {
          "internalType": "bytes32",
          "name": "",
          "type": "bytes32"
        }
      ],
      "stateMutability": "view",
      "type": "function"
    },
    {
      "inputs": [
        {
          "internalType": "bool",
          "name": "liquidationSwitch",
          "type": "bool"
        }
      ],
      "name": "LiquidationSwitch",
      "outputs": [],
      "stateMutability": "nonpayable",
      "type": "function"
    },
    {
      "inputs": [],
      "name": "PRECISION_DECIMALS",
      "outputs": [
        {
          "internalType": "uint8",
          "name": "",
          "type": "uint8"
        }
      ],
      "stateMutability": "view",
      "type": "function"
    },
    {
      "inputs": [],
      "name": "PRECISION_UNIT",
      "outputs": [
        {
          "internalType": "uint256",
          "name": "",
          "type": "uint256"
        }
      ],
      "stateMutability": "view",
      "type": "function"
    },
    {
      "inputs": [
        {
          "internalType": "address",
          "name": "usr",
          "type": "address"
        },
        {
          "internalType": "uint256",
          "name": "tokenID",
          "type": "uint256"
        },
        {
          "internalType": "uint256",
          "name": "numStable",
          "type": "uint256"
        },
        {
          "internalType": "uint256",
          "name": "underlyingAmount",
          "type": "uint256"
        }
      ],
      "name": "_afterEachBid",
      "outputs": [],
      "stateMutability": "nonpayable",
      "type": "function"
    },
    {
      "inputs": [
        {
          "internalType": "address",
          "name": "user",
          "type": "address"
        },
        {
          "internalType": "uint256",
          "name": "tokenId",
          "type": "uint256"
        },
        {
          "internalType": "uint256",
          "name": "balance",
          "type": "uint256"
        },
        {
          "internalType": "enum LeverageType",
          "name": "leverageType",
          "type": "uint8"
        }
      ],
      "name": "_updateLiquidationStatus",
      "outputs": [],
      "stateMutability": "nonpayable",
      "type": "function"
    },
    {
      "inputs": [],
      "name": "auction",
      "outputs": [
        {
          "internalType": "contract AuctionManager",
          "name": "",
          "type": "address"
        }
      ],
      "stateMutability": "view",
      "type": "function"
    },
    {
      "inputs": [
        {
          "internalType": "address",
          "name": "user",
          "type": "address"
        },
        {
          "internalType": "uint256",
          "name": "tokenId",
          "type": "uint256"
        },
        {
          "internalType": "address",
          "name": "kpr",
          "type": "address"
        }
      ],
      "name": "bark",
      "outputs": [
        {
          "internalType": "uint256",
          "name": "auctionId",
          "type": "uint256"
        }
      ],
      "stateMutability": "nonpayable",
      "type": "function"
    },
    {
      "inputs": [
        {
          "internalType": "address",
          "name": "user",
          "type": "address"
        },
        {
          "internalType": "uint256",
          "name": "tokenId",
          "type": "uint256"
        }
      ],
      "name": "checkFreezeStatus",
      "outputs": [
        {
          "internalType": "bool",
          "name": "isFreezed",
          "type": "bool"
        }
      ],
      "stateMutability": "view",
      "type": "function"
    },
    {
      "inputs": [],
      "name": "custodian",
      "outputs": [
        {
          "internalType": "contract CustodianFixed",
          "name": "",
          "type": "address"
        }
      ],
      "stateMutability": "view",
      "type": "function"
    },
    {
      "inputs": [
        {
          "internalType": "bytes32",
          "name": "role",
          "type": "bytes32"
        }
      ],
      "name": "getRoleAdmin",
      "outputs": [
        {
          "internalType": "bytes32",
          "name": "",
          "type": "bytes32"
        }
      ],
      "stateMutability": "view",
      "type": "function"
    },
    {
      "inputs": [],
      "name": "globalConfig",
      "outputs": [
        {
          "internalType": "uint256",
          "name": "adjustmentThreshold",
          "type": "uint256"
        },
        {
          "internalType": "uint256",
          "name": "liquidationThreshold",
          "type": "uint256"
        },
        {
          "internalType": "uint256",
          "name": "penalty",
          "type": "uint256"
        },
        {
          "internalType": "bool",
          "name": "enabled",
          "type": "bool"
        }
      ],
      "stateMutability": "view",
      "type": "function"
    },
    {
      "inputs": [
        {
          "internalType": "address",
          "name": "account",
          "type": "address"
        }
      ],
      "name": "grantAdminRole",
      "outputs": [],
      "stateMutability": "nonpayable",
      "type": "function"
    },
    {
      "inputs": [
        {
          "internalType": "address",
          "name": "account",
          "type": "address"
        }
      ],
      "name": "grantAuctionRole",
      "outputs": [],
      "stateMutability": "nonpayable",
      "type": "function"
    },
    {
      "inputs": [
        {
          "internalType": "address",
          "name": "account",
          "type": "address"
        }
      ],
      "name": "grantCustodianRole",
      "outputs": [],
      "stateMutability": "nonpayable",
      "type": "function"
    },
    {
      "inputs": [
        {
          "internalType": "bytes32",
          "name": "role",
          "type": "bytes32"
        },
        {
          "internalType": "address",
          "name": "account",
          "type": "address"
        }
      ],
      "name": "grantRole",
      "outputs": [],
      "stateMutability": "nonpayable",
      "type": "function"
    },
    {
      "inputs": [
        {
          "internalType": "bytes32",
          "name": "role",
          "type": "bytes32"
        },
        {
          "internalType": "address",
          "name": "account",
          "type": "address"
        }
      ],
      "name": "hasRole",
      "outputs": [
        {
          "internalType": "bool",
          "name": "",
          "type": "bool"
        }
      ],
      "stateMutability": "view",
      "type": "function"
    },
    {
      "inputs": [
        {
          "internalType": "address",
          "name": "_auction",
          "type": "address"
        },
        {
          "internalType": "uint256",
          "name": "_adjustmentThreshold",
          "type": "uint256"
        },
        {
          "internalType": "uint256",
          "name": "_liquidationThreshold",
          "type": "uint256"
        },
        {
          "internalType": "uint256",
          "name": "_penalty",
          "type": "uint256"
        }
      ],
      "name": "initialize",
      "outputs": [],
      "stateMutability": "nonpayable",
      "type": "function"
    },
    {
      "inputs": [],
      "name": "leverageToken",
      "outputs": [
        {
          "internalType": "contract MultiLeverageToken",
          "name": "",
          "type": "address"
        }
      ],
      "stateMutability": "view",
      "type": "function"
    },
    {
      "inputs": [
        {
          "internalType": "bytes32",
          "name": "role",
          "type": "bytes32"
        },
        {
          "internalType": "address",
          "name": "callerConfirmation",
          "type": "address"
        }
      ],
      "name": "renounceRole",
      "outputs": [],
      "stateMutability": "nonpayable",
      "type": "function"
    },
    {
      "inputs": [
        {
          "internalType": "address",
          "name": "account",
          "type": "address"
        }
      ],
      "name": "revokeAdminRole",
      "outputs": [],
      "stateMutability": "nonpayable",
      "type": "function"
    },
    {
      "inputs": [
        {
          "internalType": "address",
          "name": "account",
          "type": "address"
        }
      ],
      "name": "revokeAuctionRole",
      "outputs": [],
      "stateMutability": "nonpayable",
      "type": "function"
    },
    {
      "inputs": [
        {
          "internalType": "address",
          "name": "account",
          "type": "address"
        }
      ],
      "name": "revokeCustodianRole",
      "outputs": [],
      "stateMutability": "nonpayable",
      "type": "function"
    },
    {
      "inputs": [
        {
          "internalType": "bytes32",
          "name": "role",
          "type": "bytes32"
        },
        {
          "internalType": "address",
          "name": "account",
          "type": "address"
        }
      ],
      "name": "revokeRole",
      "outputs": [],
      "stateMutability": "nonpayable",
      "type": "function"
    },
    {
      "inputs": [
        {
          "internalType": "bytes32",
          "name": "parameter",
          "type": "bytes32"
        },
        {
          "internalType": "address",
          "name": "addr",
          "type": "address"
        }
      ],
      "name": "setAddress",
      "outputs": [],
      "stateMutability": "nonpayable",
      "type": "function"
    },
    {
      "inputs": [
        {
          "internalType": "bytes32",
          "name": "parameter",
          "type": "bytes32"
        },
        {
          "internalType": "uint256",
          "name": "value",
          "type": "uint256"
        }
      ],
      "name": "setParameter",
      "outputs": [],
      "stateMutability": "nonpayable",
      "type": "function"
    },
    {
      "inputs": [
        {
          "internalType": "bytes4",
          "name": "interfaceId",
          "type": "bytes4"
        }
      ],
      "name": "supportsInterface",
      "outputs": [
        {
          "internalType": "bool",
          "name": "",
          "type": "bool"
        }
      ],
      "stateMutability": "view",
      "type": "function"
    },
    {
      "inputs": [
        {
          "internalType": "address",
          "name": "user",
          "type": "address"
        }
      ],
      "name": "updateAllTokensRiskLevel",
      "outputs": [
        {
          "internalType": "uint256[]",
          "name": "tokenIds",
          "type": "uint256[]"
        },
        {
          "internalType": "uint256[]",
          "name": "netValues",
          "type": "uint256[]"
        },
        {
          "internalType": "uint8[]",
          "name": "riskLevels",
          "type": "uint8[]"
        }
      ],
      "stateMutability": "nonpayable",
      "type": "function"
    },
    {
      "inputs": [
        {
          "internalType": "address",
          "name": "user",
          "type": "address"
        },
        {
          "internalType": "uint256",
          "name": "tokenId",
          "type": "uint256"
        }
      ],
      "name": "updateSingleTokensRiskLevel",
      "outputs": [
        {
          "internalType": "uint256",
          "name": "netValue",
          "type": "uint256"
        },
        {
          "internalType": "uint8",
          "name": "riskLevel",
          "type": "uint8"
        }
      ],
      "stateMutability": "nonpayable",
      "type": "function"
    },
    {
      "inputs": [
        {
          "internalType": "address",
          "name": "",
          "type": "address"
        },
        {
          "internalType": "uint256",
          "name": "",
          "type": "uint256"
        }
      ],
      "name": "userLiquidationStatus",
      "outputs": [
        {
          "internalType": "uint256",
          "name": "balance",
          "type": "uint256"
        },
        {
          "internalType": "enum LeverageType",
          "name": "leverageType",
          "type": "uint8"
        },
        {
          "internalType": "uint8",
          "name": "riskLevel",
          "type": "uint8"
        },
        {
          "internalType": "bool",
          "name": "isLiquidated",
          "type": "bool"
        },
        {
          "internalType": "bool",
          "name": "isUnderLiquidation",
          "type": "bool"
        },
        {
          "internalType": "bool",
          "name": "isFreezed",
          "type": "bool"
        },
        {
          "internalType": "uint256",
          "name": "stableNums",
          "type": "uint256"
        },
        {
          "internalType": "uint256",
          "name": "auctionId",
          "type": "uint256"
        }
      ],
      "stateMutability": "view",
      "type": "function"
    },
    {
      "inputs": [
        {
          "internalType": "address",
          "name": "usr",
          "type": "address"
        },
        {
          "internalType": "uint256",
          "name": "tokenID",
          "type": "uint256"
        }
      ],
      "name": "withdrawStable",
      "outputs": [],
      "stateMutability": "nonpayable",
      "type": "function"
    }
  ],
  "bytecode": "0x60c06040523461024f57604051601f612fe538819003918201601f19168301916001600160401b038311848410176101a657808492604094855283398101031261024f57610058602061005183610253565b9201610253565b600180556001600160a01b03811691821561020b576001600160a01b031680156101ba5761009f9260a05260805261008f33610267565b50610099336102dd565b50610370565b50604051608081016001600160401b038111828210176101a6576001916060916040526706f05b59d3b200008152670429d069189e00006020820152666a94d74f430000604082015201526706f05b59d3b20000600355670429d069189e0000600455666a94d74f430000600555600160ff196006541617600655604051337fc36befb96151814c16fe0d20f29a5912794cda96453e57ab00edad0bb21d50fa5f80a2612b61908161040482396080518181816102b9015281816118c801528181611c9b0152611faf015260a0518181816102880152818161111b0152818161128101528181611375015281816116670152818161180701528181611c110152611f4d0152f35b634e487b7160e01b5f52604160045260245ffd5b60405162461bcd60e51b8152602060048201526024808201527f4c65766572616765546f6b656e2063616e6e6f74206265207a65726f206164646044820152637265737360e01b6064820152608490fd5b606460405162461bcd60e51b815260206004820152602060248201527f437573746f6469616e2063616e6e6f74206265207a65726f20616464726573736044820152fd5b5f80fd5b51906001600160a01b038216820361024f57565b6001600160a01b0381165f9081525f516020612fc55f395f51905f52602052604090205460ff166102d8576001600160a01b03165f8181525f516020612fc55f395f51905f5260205260408120805460ff191660011790553391905f516020612f655f395f51905f528180a4600190565b505f90565b6001600160a01b0381165f9081525f516020612f855f395f51905f52602052604090205460ff166102d8576001600160a01b03165f8181525f516020612f855f395f51905f5260205260408120805460ff191660011790553391907fa49807205ce4d355092ef5a8a18f56e8913cf4a201fbe287825b095693c21775905f516020612f655f395f51905f529080a4600190565b6001600160a01b0381165f9081525f516020612fa55f395f51905f52602052604090205460ff166102d8576001600160a01b03165f8181525f516020612fa55f395f51905f5260205260408120805460ff191660011790553391907fe28434228950b641dbbc0178de89daa359a87c6ee0d8399aeace52a98fe902b9905f516020612f655f395f51905f529080a460019056fe6080806040526004361015610012575f80fd5b5f905f3560e01c90816301ffc9a71461218b5750806303c21ce71461211d5780630639d4fe14611f1a5780631e5e7d5a14611e80578063248a9ca314611e4e57806329ab9fcd14611d6c5780632a46018c14611d075780632f2ff15d14611cca578063355af60714611c8657806336568abe14611c40578063375b74c314611bfc5780633d505630146117d6578063430730a3146117af5780634ec81af11461172a578063585f75af1461160e57806360ebfee6146115f3578063723507be146114f057806375b238fc146114c95780637d9f6db5146114a15780638d3645321461101057806391d1485414610fc75780639a19c7b014610f2b578063a217fddf14610f0f578063a7c1abe014610ed3578063af36053d14610eb0578063c634b78e14610e14578063c79445d014610dec578063c9d1144214610d85578063ca446dd914610c6d578063ca8a5e1214610bd1578063cb846f9814610b12578063d1ef00321461022c578063d547741f146101e55763ebf94ab014610194575f80fd5b346101e25760403660031901126101e25760209060ff906001906040906001600160a01b036101c16121de565b1681526007855281812060243582528552200154821c166040519015158152f35b80fd5b50346101e25760403660031901126101e2576102286004356102056121f4565b9061022361021e825f525f602052600160405f20015490565b612546565b61297d565b5080f35b50346101e25760603660031901126101e2576102466121de565b6044356001600160a01b0381169290602435908490036107235760ff6006541615610acd5761027361257e565b6002546001600160a01b0316928315610a88577f00000000000000000000000000000000000000000000000000000000000000006001600160a01b0316908115610a43577f00000000000000000000000000000000000000000000000000000000000000006001600160a01b03169586156109ff576001600160a01b038216916102fe83151561226b565b81156109c15760405162491fcf60e11b8152600481018690526020816024818c5afa9081156109b6578791610978575b501561093c5760405163e82ffbb160e01b81526001600160a01b03821660048201526024810186905297602090899060449082905afa978815610835578698610908575b5087156108ca5782865260076020526040862085875260205260ff600160408820015460201c166108855782865260076020526040862085875260205260ff600160408820015460181c1661084057604051635ad6fb9360e01b81526001600160a01b039190911660048201526024810185905261010081604481875afa9081156108355786916107fe575b5080156107c45760045481101561077f5782865260076020526040862085875260205260ff6001604088200154168690600381101561076b579161045e918361046494155f1461073a57505061045860ff60085b16612455565b90612486565b886129ea565b946040516350d5041d60e01b8152606081600481885afa801561072f57829183916106eb575b5081151590816106e3575b501561069e57670de0b6b3a76400008088029288840482148915171561068a5780610676575087908304036105cc576104cd9161247c565b94851561064257600160ff1b101580610634575b15610604575f9560846020926040519889938492630f1028b560e41b84528a600485015287602485015289604485015260648401525af19485156105c1575f956105d0575b505f8181526007602090815260408083208684529091529020600181018054600390920187905564ffff00ff0019909116640101000400179055813b156105cc575f6084928195604051988996879563177c8c3160e11b875260048701526024860152604485015260648401525af19182156105c1576020926105b1575b5060018055604051908152f35b5f6105bb916122fa565b5f6105a4565b6040513d5f823e3d90fd5b5f80fd5b9094506020813d6020116105fc575b816105ec602093836122fa565b810103126105cc5751935f610526565b3d91506105df565b60405162461bcd60e51b81526020600482015260086024820152674f766572666c6f7760c01b6044820152606490fd5b50600160ff1b8511156104e1565b60405162461bcd60e51b815260206004820152600c60248201526b273ab6361030bab1ba34b7b760a11b6044820152606490fd5b634e487b7160e01b81526012600452602490fd5b634e487b7160e01b5f52601160045260245ffd5b60405162461bcd60e51b815260206004820152601b60248201527f496e76616c6964206f7261636c6520707269636520283c3d30292100000000006044820152606490fd5b90505f610495565b9150506060813d606011610727575b81610707606093836122fa565b810103126107235761071d6040825192016124f0565b5f61048a565b5080fd5b3d91506106fa565b6040513d84823e3d90fd5b6001810361075057505061045860ff6004610452565b600214610763575b60ff61045891610452565b506001610758565b634e487b7160e01b88526021600452602488fd5b60405162461bcd60e51b815260206004820152601f60248201527f4e41562061626f7665206c69717569646174696f6e207468726573686f6c64006044820152606490fd5b60405162461bcd60e51b8152602060048201526012602482015271496e76616c6964204e65742056616c75652160701b6044820152606490fd5b61082091506101003d811161082e575b61081881836122fa565b810190612330565b50505050509150505f6103fe565b503d61080e565b6040513d88823e3d90fd5b60405162461bcd60e51b815260206004820152601960248201527f416c726561647920756e646572206c69717569646174696f6e000000000000006044820152606490fd5b60405162461bcd60e51b815260206004820152601c60248201527f54686520546f6b656e732068617665206265656e20667265657a6564000000006044820152606490fd5b60405162461bcd60e51b81526020600482015260166024820152754e6f20746f6b656e7320746f206c697175696461746560501b6044820152606490fd5b9097506020813d602011610934575b81610924602093836122fa565b810103126105cc5751965f610372565b3d9150610917565b60405162461bcd60e51b8152602060048201526014602482015273151bdad95b88191bd95cc81b9bdd08195e1a5cdd60621b6044820152606490fd5b90506020813d6020116109ae575b81610993602093836122fa565b810103126109aa576109a4906124f0565b5f61032e565b8680fd5b3d9150610986565b6040513d89823e3d90fd5b60405162461bcd60e51b8152602060048201526016602482015275496e76616c6964206b6565706572206164647265737360501b6044820152606490fd5b606460405162461bcd60e51b815260206004820152602060248201527f536574206c65766572616765546f6b656e2061646472657373206669727374216044820152fd5b60405162461bcd60e51b815260206004820152601c60248201527f53657420637573746f6469616e206164647265737320666972737421000000006044820152606490fd5b60405162461bcd60e51b815260206004820152601a60248201527f5365742061756374696f6e2061646472657373206669727374210000000000006044820152606490fd5b60405162461bcd60e51b815260206004820152601760248201527f4c69717569646174696f6e206e6f7420656e61626c65640000000000000000006044820152606490fd5b50346101e25760403660031901126101e2576001600160a01b03610b346121de565b1681526007602052604081206024358252602052604081209081549060018301549260ff841660036002830154920154926040519485526003821015610bbd57506101009460ff916020860152818160081c166040860152818160101c1615156060860152818160181c161515608086015260201c16151560a084015260c083015260e0820152f35b634e487b7160e01b81526021600452602490fd5b50346101e25760203660031901126101e257610beb6121de565b610bf36124fd565b5f516020612aac5f395f51905f525f9081526020527f743ba43598e4e97429683c7739c35500cae7b09b5afdf7135b85b54a773e67d354610c3390612546565b610c3c8161270e565b506001600160a01b03167fd65bcd4e6f77e2244660b49cfc8c9df567ce817137e8c0ac6558b054dbb339218280a280f35b50346101e25760403660031901126101e257600435610c8a6121f4565b610c926124fd565b610c9a61257e565b6630bab1ba34b7b760c91b8203610d4757600280546001600160a01b0319166001600160a01b0383169081179091557fce9745511e6b32283e684acf17f26ee2c5d221bf65c95e61c3d6fcfa446462d091602091610cf66124fd565b610d0161021e61236b565b610d0a82612609565b507f0955f82c07229d6a99f48ddd28fe0036270495ad0976e376cd9fa4f18528fdf58680a26040516001600160a01b039091168152a26001805580f35b60405162461bcd60e51b81526020600482015260166024820152752ab73932b1b7b3b734bd32b2103830b930b6b2ba32b960511b6044820152606490fd5b50346101e25760203660031901126101e257610d9f6121de565b610da76124fd565b610db261021e61236b565b610dbb816128ff565b506001600160a01b03167f680982af7bfb8bdbe6297103b9c7b13afd2eda6ed4fe0e4db5138a05fc68a61c8280a280f35b50346101e257806003193601126101e25760206040515f516020612aac5f395f51905f528152f35b50346101e25760203660031901126101e257610e2e6121de565b610e366124fd565b5f516020612b0c5f395f51905f525f9081526020527f7d7ffb7a348e1c6a02869081a26547b49160dd3df72d1d75a570eb9b698292ed54610e7690612546565b610e7f8161268e565b506001600160a01b03167fc36befb96151814c16fe0d20f29a5912794cda96453e57ab00edad0bb21d50fa8280a280f35b50346101e257806003193601126101e2576020604051670de0b6b3a76400008152f35b50346101e257806003193601126101e257608060035460045460055460ff60065416916040519384526020840152604083015215156060820152f35b50346101e257806003193601126101e257602090604051908152f35b50346101e25760203660031901126101e257610f456121de565b610f4d6124fd565b5f516020612b0c5f395f51905f525f9081526020527f7d7ffb7a348e1c6a02869081a26547b49160dd3df72d1d75a570eb9b698292ed54610f8d90612546565b610f9681612881565b506001600160a01b03167f998b1c8c2c4e47baeddde4d4152dfae31548fb5e6aa5fc2026808fa365a30e7c8280a280f35b50346101e25760403660031901126101e2576040610fe36121f4565b91600435815280602052209060018060a01b03165f52602052602060ff60405f2054166040519015158152f35b50346105cc5760403660031901126105cc5761102a6121de565b6024359060018060a01b0316805f52600760205260405f20825f52602052600160ff8160405f20015460101c161515148061147a575b1561144057805f52600760205260405f20825f5260205260ff600160405f200154165f600382101561142c5784918061140c57505060085b825f52600760205260405f20845f526020526110bb60405f2054600554906129ea565b5f84815260076020908152604080832088845290915290206002810154905490926110f391906110ed9060ff16612455565b906129ea565b916110fe8383612486565b811115611241578261111383611118936124e3565b6124e3565b907f00000000000000000000000000000000000000000000000000000000000000006001600160a01b0316803b1561123d5784928360a492604051968795869463497ebe8b60e11b86528b60048701528c60248701526044860152606485015260848401525af1801561072f57611224575b50505b8083526007602052604083208284526020526001604084200164ff000000001981541690558083526007602052604083208284526020528260026040822001558083526007602052604083208284526020528260036040822001558083526007602052604083208284526020526001604084200161ff00198154169055825260076020526040822090825260205280604081205580f35b8161122e916122fa565b61123957825f61118a565b8280fd5b8480fd5b9192505081811015611341577fa20e9e12ff256452922f90b3f2145aaf3d0cfd1801446451e4c4dec62c2d058e6040518061127b81612493565b0390a1847f00000000000000000000000000000000000000000000000000000000000000006001600160a01b0316803b156107235781809160a46040518094819363497ebe8b60e11b83528a60048401528b60248401528160448401528160648401528960848401525af1801561072f5761132c575b50506113206020917f93b10108009b44150cc10746cdbfb141016aa81886b0a209ff5bb37be020f7f7936124e3565b604051908152a161118d565b81611336916122fa565b61123d57845f6112f1565b907fa20e9e12ff256452922f90b3f2145aaf3d0cfd1801446451e4c4dec62c2d058e6040518061137081612493565b0390a17f00000000000000000000000000000000000000000000000000000000000000006001600160a01b0316916113a99082906124e3565b90823b156105cc5760a45f9283604051958694859363497ebe8b60e11b85528960048601528a6024860152836044860152606485015260848401525af180156105c1576113f7575b5061118d565b6114049193505f906122fa565b5f915f6113f1565b6001810361141d5750506004611098565b60020361109857506001611098565b634e487b7160e01b5f52602160045260245ffd5b60405162461bcd60e51b81526020600482015260126024820152715769746864726177206e6f7420726561647960701b6044820152606490fd5b50805f52600760205260405f20825f5260205260ff600160405f20015460181c1615611060565b346105cc575f3660031901126105cc576002546040516001600160a01b039091168152602090f35b346105cc575f3660031901126105cc5760206040515f516020612b0c5f395f51905f528152f35b346105cc5760403660031901126105cc5760043560243561150f6124fd565b61151761257e565b7218591a9d5cdd1b595b9d151a1c995cda1bdb19606a1b820361156a576020817f9b900726daef362ccb7ef4037118922e973973109c4d10b5c19277bddd59e048926003555b604051908152a260018055005b731b1a5c5d5a59185d1a5bdb951a1c995cda1bdb1960621b82036115b5576020817f9b900726daef362ccb7ef4037118922e973973109c4d10b5c19277bddd59e0489260045561155d565b6670656e616c747960c81b8203610d47576020817f9b900726daef362ccb7ef4037118922e973973109c4d10b5c19277bddd59e0489260055561155d565b346105cc575f3660031901126105cc57602060405160128152f35b346105cc5760803660031901126105cc576116276121de565b6024356064359160038310156105cc57335f9081525f516020612acc5f395f51905f52602052604090205460ff16156117065761166261257e565b6116967f00000000000000000000000000000000000000000000000000000000000000006001600160a01b031615156122ae565b6001600160a01b03165f818152600760209081526040808320858452909152902060443581556001015460ff16600381101561142c5783036116d9575b60018055005b5f52600760205260405f20905f52602052600160405f20019060ff801983541691161790558080806116d3565b63e2517d3f60e01b5f52336004525f516020612aac5f395f51905f5260245260445ffd5b346105cc576117383661220a565b926117449291926124fd565b600280546001600160a01b0319166001600160a01b0383169081179091559061177f9061176f6124fd565b61177a61021e61236b565b612609565b507f0955f82c07229d6a99f48ddd28fe0036270495ad0976e376cd9fa4f18528fdf55f80a2600355600455600555005b346105cc575f3660031901126105cc5760206040515f516020612a4c5f395f51905f528152f35b346105cc5760203660031901126105cc576117ef6121de565b6001600160a01b0381169061180582151561226b565b7f00000000000000000000000000000000000000000000000000000000000000006001600160a01b03169061183b8215156122ae565b60405163432ac92f60e01b815260048101849052925f84602481865afa9384156105c1575f94611adf575b508351611872816123a5565b9161188060405193846122fa565b818352601f1961188f836123a5565b0136602085013761189f826123a5565b936118ad60405195866122fa565b8285526118b9836123a5565b602086019690601f19013688377f00000000000000000000000000000000000000000000000000000000000000006001600160a01b0316915f5b8581106119645761191a8a8a8a60206119278c604051968796606088526060880190612238565b9086820384880152612238565b91848303604086015251918281520191905f5b818110611948575050500390f35b825160ff1684528594506020938401939092019160010161193a565b61196e818b61241a565b5160405163e82ffbb160e01b81526001600160a01b038416600482015260248101829052909190602081604481895afa9081156105c1575f91611aae575b5015611a8d57604051635ad6fb9360e01b81526001600160a01b03841660048201526024810183905261010081604481885afa9283156105c1578a60ff611a1985611a13818f9960019a611a5a995f92611a60575b508192611a0d9161241a565b5261259e565b9361241a565b9116905260ff611a29848d61241a565b511690885f52600760205260405f20905f526020528360405f20019061ff0082549160081b169061ff001916179055565b016118f3565b611a0d919250611a7e906101003d811161082e5761081881836122fa565b50505050509150509190611a01565b600191505f611a9c828a61241a565b525f611aa8828b61241a565b52611a5a565b90506020813d8211611ad7575b81611ac8602093836122fa565b810103126105cc57518c6119ac565b3d9150611abb565b9093503d805f833e611af181836122fa565b81019060a0818303126105cc57805167ffffffffffffffff81116105cc5782611b1b9183016123bd565b91602082015167ffffffffffffffff81116105cc5781611b3c9184016123bd565b50604082015167ffffffffffffffff81116105cc57820181601f820112156105cc57805190602080611b6d846123a5565b611b7a60405191826122fa565b848152019260051b820101908382116105cc57602001915b818310611be357505050606082015167ffffffffffffffff81116105cc5781611bbc9184016123bd565b50608082015167ffffffffffffffff81116105cc57611bdb92016123bd565b509284611866565b825160038110156105cc57815260209283019201611b92565b346105cc575f3660031901126105cc576040517f00000000000000000000000000000000000000000000000000000000000000006001600160a01b03168152602090f35b346105cc5760403660031901126105cc57611c596121f4565b336001600160a01b03821603611c7757611c759060043561297d565b005b63334bd91960e11b5f5260045ffd5b346105cc575f3660031901126105cc576040517f00000000000000000000000000000000000000000000000000000000000000006001600160a01b03168152602090f35b346105cc5760403660031901126105cc57611c75600435611ce96121f4565b90611d0261021e825f525f602052600160405f20015490565b61278e565b346105cc5760203660031901126105cc57611d206121de565b611d286124fd565b611d3361021e61236b565b611d3c81612609565b506001600160a01b03167f0955f82c07229d6a99f48ddd28fe0036270495ad0976e376cd9fa4f18528fdf55f80a2005b346105cc57611d7a3661220a565b335f9081525f516020612a8c5f395f51905f5260205260409020549293919290919060ff1615611e2a5760018060a01b031691825f52600760205260405f20845f52602052600260405f2001551580611e00575b611dd457005b5f90815260076020908152604080832093835292905220600101805463ffff0000191662010000179055005b50805f52600760205260405f20825f52602052600160ff8160405f20015460181c16151514611dce565b63e2517d3f60e01b5f52336004525f516020612a4c5f395f51905f5260245260445ffd5b346105cc5760203660031901126105cc576020611e786004355f525f602052600160405f20015490565b604051908152f35b346105cc5760203660031901126105cc57611e996121de565b611ea16124fd565b5f516020612aac5f395f51905f525f9081526020527f743ba43598e4e97429683c7739c35500cae7b09b5afdf7135b85b54a773e67d354611ee190612546565b611eea81612803565b506001600160a01b03167fd11cd239d414aeccc32b2ad3c990fdd1f7bfd8f2021f18d9161d8bc1f98d5c8b5f80a2005b346105cc5760403660031901126105cc57611f336121de565b6024356001600160a01b038216611f4b81151561226b565b7f00000000000000000000000000000000000000000000000000000000000000006001600160a01b0316611f808115156122ae565b60405163e82ffbb160e01b81526001600160a01b038516600482015260248101849052602081806044810103817f00000000000000000000000000000000000000000000000000000000000000006001600160a01b03165afa9081156105c1575f916120eb575b50156120a657604051635ad6fb9360e01b81526001600160a01b039490941660048501526024840183905261010090849060449082905afa9081156105c1576040935f9261207c575b50819261203e60ff9361259e565b915f526007602052845f20905f5260205261206f816001865f20019061ff0082549160081b169061ff001916179055565b8351928352166020820152f35b60ff9250612098906101003d811161082e5761081881836122fa565b505050505091505091612030565b60405162461bcd60e51b815260206004820152601d60248201527f5573657220646f6573206e6f7420686f6c64207468697320746f6b656e0000006044820152606490fd5b90506020813d602011612115575b81612106602093836122fa565b810103126105cc575185611fe7565b3d91506120f9565b346105cc5760203660031901126105cc576004358015158091036105cc5760207f0806f167d522e72f48fa9392761e3f57b6c2ca4fdf9d6fbe38fc894e82ab8c0e916121676124fd565b61216f61257e565b60ff196006541660ff821617600655604051908152a160018055005b346105cc5760203660031901126105cc576004359063ffffffff60e01b82168092036105cc57602091637965db0b60e01b81149081156121cd575b5015158152f35b6301ffc9a760e01b149050836121c6565b600435906001600160a01b03821682036105cc57565b602435906001600160a01b03821682036105cc57565b60809060031901126105cc576004356001600160a01b03811681036105cc5790602435906044359060643590565b90602080835192838152019201905f5b8181106122555750505090565b8251845260209384019390920191600101612248565b1561227257565b60405162461bcd60e51b8152602060048201526014602482015273496e76616c69642075736572206164647265737360601b6044820152606490fd5b156122b557565b60405162461bcd60e51b815260206004820152601b60248201527f53657420637573746f6469616e206164647265737320666972737400000000006044820152606490fd5b90601f8019910116810190811067ffffffffffffffff82111761231c57604052565b634e487b7160e01b5f52604160045260245ffd5b9190826101009103126105cc5781519160208101519160408201519160608101519160808201519160a08101519160e060c083015192015190565b5f516020612a4c5f395f51905f525f9081526020527ff2d19feb5547524783b7bad00410790cff4bde378a563f400aa879f0e01b51f45490565b67ffffffffffffffff811161231c5760051b60200190565b9080601f830112156105cc5781516123d4816123a5565b926123e260405194856122fa565b81845260208085019260051b8201019283116105cc57602001905b82821061240a5750505090565b81518152602091820191016123fd565b805182101561242e5760209160051b010190565b634e487b7160e01b5f52603260045260245ffd5b8181029291811591840414171561068a57565b801561246857670de0b6b3a76400000490565b634e487b7160e01b5f52601260045260245ffd5b8115612468570490565b9190820180921161068a57565b60809060208152602f60208201527f5468657265206973206e6f206c65667420746f2062652077697468647261776e60408201526e2061667465722070656e616c74792160881b60608201520190565b9190820391821161068a57565b519081151582036105cc57565b335f9081525f516020612a6c5f395f51905f52602052604090205460ff161561252257565b63e2517d3f60e01b5f52336004525f516020612b0c5f395f51905f5260245260445ffd5b5f8181526020818152604080832033845290915290205460ff16156125685750565b63e2517d3f60e01b5f523360045260245260445ffd5b60026001541461258f576002600155565b633ee5aeb560e01b5f5260045ffd5b6004548082116125af575050600490565b60035480831161260257816125c96003936125cf936124e3565b936124e3565b9104908181116125e0575050600390565b8160011b918083046002149015171561068a57116125fd57600290565b600190565b5050505f90565b6001600160a01b0381165f9081525f516020612a8c5f395f51905f52602052604090205460ff16612689576001600160a01b03165f8181525f516020612a8c5f395f51905f5260205260408120805460ff191660011790553391905f516020612a4c5f395f51905f52905f516020612a2c5f395f51905f529080a4600190565b505f90565b6001600160a01b0381165f9081525f516020612a6c5f395f51905f52602052604090205460ff16612689576001600160a01b03165f8181525f516020612a6c5f395f51905f5260205260408120805460ff191660011790553391905f516020612b0c5f395f51905f52905f516020612a2c5f395f51905f529080a4600190565b6001600160a01b0381165f9081525f516020612acc5f395f51905f52602052604090205460ff16612689576001600160a01b03165f8181525f516020612acc5f395f51905f5260205260408120805460ff191660011790553391905f516020612aac5f395f51905f52905f516020612a2c5f395f51905f529080a4600190565b5f818152602081815260408083206001600160a01b038616845290915290205460ff166127fd575f818152602081815260408083206001600160a01b0395909516808452949091528120805460ff19166001179055339291905f516020612a2c5f395f51905f529080a4600190565b50505f90565b6001600160a01b0381165f9081525f516020612acc5f395f51905f52602052604090205460ff1615612689576001600160a01b03165f8181525f516020612acc5f395f51905f5260205260408120805460ff191690553391905f516020612aac5f395f51905f52905f516020612aec5f395f51905f529080a4600190565b6001600160a01b0381165f9081525f516020612a6c5f395f51905f52602052604090205460ff1615612689576001600160a01b03165f8181525f516020612a6c5f395f51905f5260205260408120805460ff191690553391905f516020612b0c5f395f51905f52905f516020612aec5f395f51905f529080a4600190565b6001600160a01b0381165f9081525f516020612a8c5f395f51905f52602052604090205460ff1615612689576001600160a01b03165f8181525f516020612a8c5f395f51905f5260205260408120805460ff191690553391905f516020612a4c5f395f51905f52905f516020612aec5f395f51905f529080a4600190565b5f818152602081815260408083206001600160a01b038616845290915290205460ff16156127fd575f818152602081815260408083206001600160a01b0395909516808452949091528120805460ff19169055339291905f516020612aec5f395f51905f529080a4600190565b5f918015918215612a0b575b5050156105cc57670de0b6b3a7640000900490565b91509150612a23612a1c8383612442565b928361247c565b145f806129f656fe2f8788117e7eff1d82e926ec794901d17c78024a50270940304540a733656f0dc5e2d1653feba496cf5ce3a744b90ea18acf0df3d036aba9b2f85992a14679067d7ffb7a348e1c6a02869081a26547b49160dd3df72d1d75a570eb9b698292ecf2d19feb5547524783b7bad00410790cff4bde378a563f400aa879f0e01b51f3e28434228950b641dbbc0178de89daa359a87c6ee0d8399aeace52a98fe902b9743ba43598e4e97429683c7739c35500cae7b09b5afdf7135b85b54a773e67d2f6391f5c32d9c69d2a47ea670b442974b53935d1edc7fd64eb21e047a839171ba49807205ce4d355092ef5a8a18f56e8913cf4a201fbe287825b095693c21775a26469706673582212207ea4ce3434dc578c847f96105531b9559cba26c4140616649aaf84633d9577f864736f6c634300081c00332f8788117e7eff1d82e926ec794901d17c78024a50270940304540a733656f0d7d7ffb7a348e1c6a02869081a26547b49160dd3df72d1d75a570eb9b698292ec743ba43598e4e97429683c7739c35500cae7b09b5afdf7135b85b54a773e67d2ad3228b676f7d3cd4284a5443f17f1962b36e491b30a40b2405849e597ba5fb5",
  "linkReferences": {},
  "deployedLinkReferences": {},
  "immutableReferences": {
    "14182": [
      {
        "length": 32,
        "start": 697
      },
      {
        "length": 32,
        "start": 6344
      },
      {
        "length": 32,
        "start": 7323
      },
      {
        "length": 32,
        "start": 8111
      }
    ],
    "14185": [
      {
        "length": 32,
        "start": 648
      },
      {
        "length": 32,
        "start": 4379
      },
      {
        "length": 32,
        "start": 4737
      },
      {
        "length": 32,
        "start": 4981
      },
      {
        "length": 32,
        "start": 5735
      },
      {
        "length": 32,
        "start": 6151
      },
      {
        "length": 32,
        "start": 7185
      },
      {
        "length": 32,
        "start": 8013
      }
    ]
  },
  "inputSourceName": "project/contracts/auctions/LiquidationManager.sol",
  "buildInfoId": "solc-0_8_28-02f33b37447d99ad99ab51f6cb052523dda1e246"
}