{
  "_format": "hh3-artifact-1",
  "contractName": "LiquidationManager",
  "sourceName": "contracts/auctions/LiquidationManager.sol",
  "abi": [
    {
      "inputs": [
        {
          "internalType": "address",
          "name": "_leverageToken",
          "type": "address"
        },
        {
          "internalType": "address",
          "name": "_custodian",
          "type": "address"
        }
      ],
      "stateMutability": "nonpayable",
      "type": "constructor"
    },
    {
      "inputs": [],
      "name": "AccessControlBadConfirmation",
      "type": "error"
    },
    {
      "inputs": [
        {
          "internalType": "address",
          "name": "account",
          "type": "address"
        },
        {
          "internalType": "bytes32",
          "name": "neededRole",
          "type": "bytes32"
        }
      ],
      "name": "AccessControlUnauthorizedAccount",
      "type": "error"
    },
    {
      "inputs": [],
      "name": "ReentrancyGuardReentrantCall",
      "type": "error"
    },
    {
      "anonymous": false,
      "inputs": [
        {
          "indexed": true,
          "internalType": "bytes32",
          "name": "parameter",
          "type": "bytes32"
        },
        {
          "indexed": false,
          "internalType": "address",
          "name": "addr",
          "type": "address"
        }
      ],
      "name": "AddressChanged",
      "type": "event"
    },
    {
      "anonymous": false,
      "inputs": [
        {
          "indexed": true,
          "internalType": "address",
          "name": "user",
          "type": "address"
        }
      ],
      "name": "AdminAccessGranted",
      "type": "event"
    },
    {
      "anonymous": false,
      "inputs": [
        {
          "indexed": true,
          "internalType": "address",
          "name": "user",
          "type": "address"
        }
      ],
      "name": "AdminAccessRevoked",
      "type": "event"
    },
    {
      "anonymous": false,
      "inputs": [
        {
          "indexed": true,
          "internalType": "address",
          "name": "user",
          "type": "address"
        }
      ],
      "name": "AuctionAccessGranted",
      "type": "event"
    },
    {
      "anonymous": false,
      "inputs": [
        {
          "indexed": true,
          "internalType": "address",
          "name": "user",
          "type": "address"
        }
      ],
      "name": "AuctionAccessRevoked",
      "type": "event"
    },
    {
      "anonymous": false,
      "inputs": [
        {
          "indexed": true,
          "internalType": "address",
          "name": "user",
          "type": "address"
        }
      ],
      "name": "CustodianAccessGranted",
      "type": "event"
    },
    {
      "anonymous": false,
      "inputs": [
        {
          "indexed": true,
          "internalType": "address",
          "name": "user",
          "type": "address"
        }
      ],
      "name": "CustodianAccessRevoked",
      "type": "event"
    },
    {
      "anonymous": false,
      "inputs": [
        {
          "indexed": false,
          "internalType": "uint256",
          "name": "value",
          "type": "uint256"
        }
      ],
      "name": "DEFICIT",
      "type": "event"
    },
    {
      "anonymous": false,
      "inputs": [
        {
          "indexed": false,
          "internalType": "bool",
          "name": "liquidationSwitch",
          "type": "bool"
        }
      ],
      "name": "LiquidateSwitch",
      "type": "event"
    },
    {
      "anonymous": false,
      "inputs": [
        {
          "indexed": true,
          "internalType": "address",
          "name": "user",
          "type": "address"
        },
        {
          "indexed": true,
          "internalType": "uint256",
          "name": "fromTokenId",
          "type": "uint256"
        },
        {
          "indexed": true,
          "internalType": "uint256",
          "name": "toTokenId",
          "type": "uint256"
        },
        {
          "indexed": false,
          "internalType": "uint256",
          "name": "adjustAmountInWei",
          "type": "uint256"
        },
        {
          "indexed": false,
          "internalType": "uint256",
          "name": "underlyingAmountInWei",
          "type": "uint256"
        }
      ],
      "name": "NetValueAdjusted",
      "type": "event"
    },
    {
      "anonymous": false,
      "inputs": [
        {
          "indexed": false,
          "internalType": "string",
          "name": "message",
          "type": "string"
        }
      ],
      "name": "NoLeftAfterLiquidation",
      "type": "event"
    },
    {
      "anonymous": false,
      "inputs": [
        {
          "indexed": true,
          "internalType": "bytes32",
          "name": "parameter",
          "type": "bytes32"
        },
        {
          "indexed": false,
          "internalType": "uint256",
          "name": "value",
          "type": "uint256"
        }
      ],
      "name": "ParameterChanged",
      "type": "event"
    },
    {
      "anonymous": false,
      "inputs": [
        {
          "indexed": true,
          "internalType": "address",
          "name": "user",
          "type": "address"
        },
        {
          "indexed": true,
          "internalType": "uint256",
          "name": "tokenId",
          "type": "uint256"
        },
        {
          "indexed": false,
          "internalType": "uint8",
          "name": "riskLevel",
          "type": "uint8"
        }
      ],
      "name": "RiskLevelUpdated",
      "type": "event"
    },
    {
      "anonymous": false,
      "inputs": [
        {
          "indexed": true,
          "internalType": "bytes32",
          "name": "role",
          "type": "bytes32"
        },
        {
          "indexed": true,
          "internalType": "bytes32",
          "name": "previousAdminRole",
          "type": "bytes32"
        },
        {
          "indexed": true,
          "internalType": "bytes32",
          "name": "newAdminRole",
          "type": "bytes32"
        }
      ],
      "name": "RoleAdminChanged",
      "type": "event"
    },
    {
      "anonymous": false,
      "inputs": [
        {
          "indexed": true,
          "internalType": "bytes32",
          "name": "role",
          "type": "bytes32"
        },
        {
          "indexed": true,
          "internalType": "address",
          "name": "account",
          "type": "address"
        },
        {
          "indexed": true,
          "internalType": "address",
          "name": "sender",
          "type": "address"
        }
      ],
      "name": "RoleGranted",
      "type": "event"
    },
    {
      "anonymous": false,
      "inputs": [
        {
          "indexed": true,
          "internalType": "bytes32",
          "name": "role",
          "type": "bytes32"
        },
        {
          "indexed": true,
          "internalType": "address",
          "name": "account",
          "type": "address"
        },
        {
          "indexed": true,
          "internalType": "address",
          "name": "sender",
          "type": "address"
        }
      ],
      "name": "RoleRevoked",
      "type": "event"
    },
    {
      "inputs": [],
      "name": "ADMIN_ROLE",
      "outputs": [
        {
          "internalType": "bytes32",
          "name": "",
          "type": "bytes32"
        }
      ],
      "stateMutability": "view",
      "type": "function"
    },
    {
      "inputs": [],
      "name": "AUCTION_ROLE",
      "outputs": [
        {
          "internalType": "bytes32",
          "name": "",
          "type": "bytes32"
        }
      ],
      "stateMutability": "view",
      "type": "function"
    },
    {
      "inputs": [],
      "name": "CUSTODIAN_ROLE",
      "outputs": [
        {
          "internalType": "bytes32",
          "name": "",
          "type": "bytes32"
        }
      ],
      "stateMutability": "view",
      "type": "function"
    },
    {
      "inputs": [],
      "name": "DEFAULT_ADMIN_ROLE",
      "outputs": [
        {
          "internalType": "bytes32",
          "name": "",
          "type": "bytes32"
        }
      ],
      "stateMutability": "view",
      "type": "function"
    },
    {
      "inputs": [
        {
          "internalType": "bool",
          "name": "liquidationSwitch",
          "type": "bool"
        }
      ],
      "name": "LiquidationSwitch",
      "outputs": [],
      "stateMutability": "nonpayable",
      "type": "function"
    },
    {
      "inputs": [],
      "name": "PRECISION_DECIMALS",
      "outputs": [
        {
          "internalType": "uint8",
          "name": "",
          "type": "uint8"
        }
      ],
      "stateMutability": "view",
      "type": "function"
    },
    {
      "inputs": [],
      "name": "PRECISION_UNIT",
      "outputs": [
        {
          "internalType": "uint256",
          "name": "",
          "type": "uint256"
        }
      ],
      "stateMutability": "view",
      "type": "function"
    },
    {
      "inputs": [
        {
          "internalType": "address",
          "name": "usr",
          "type": "address"
        },
        {
          "internalType": "uint256",
          "name": "tokenID",
          "type": "uint256"
        },
        {
          "internalType": "uint256",
          "name": "soldUnderlyingAmount",
          "type": "uint256"
        },
        {
          "internalType": "int256",
          "name": "underlyingAmount",
          "type": "int256"
        }
      ],
      "name": "_afterAuction",
      "outputs": [],
      "stateMutability": "nonpayable",
      "type": "function"
    },
    {
      "inputs": [
        {
          "internalType": "address",
          "name": "user",
          "type": "address"
        },
        {
          "internalType": "uint256",
          "name": "tokenId",
          "type": "uint256"
        },
        {
          "internalType": "uint256",
          "name": "balance",
          "type": "uint256"
        },
        {
          "internalType": "enum LeverageType",
          "name": "leverageType",
          "type": "uint8"
        }
      ],
      "name": "_updateLiquidationStatus",
      "outputs": [],
      "stateMutability": "nonpayable",
      "type": "function"
    },
    {
      "inputs": [],
      "name": "auction",
      "outputs": [
        {
          "internalType": "contract AuctionManager",
          "name": "",
          "type": "address"
        }
      ],
      "stateMutability": "view",
      "type": "function"
    },
    {
      "inputs": [
        {
          "internalType": "address",
          "name": "user",
          "type": "address"
        },
        {
          "internalType": "uint256",
          "name": "tokenId",
          "type": "uint256"
        },
        {
          "internalType": "address",
          "name": "kpr",
          "type": "address"
        }
      ],
      "name": "bark",
      "outputs": [
        {
          "internalType": "uint256",
          "name": "auctionId",
          "type": "uint256"
        }
      ],
      "stateMutability": "nonpayable",
      "type": "function"
    },
    {
      "inputs": [
        {
          "internalType": "address",
          "name": "user",
          "type": "address"
        },
        {
          "internalType": "uint256",
          "name": "tokenId",
          "type": "uint256"
        }
      ],
      "name": "checkFreezeStatus",
      "outputs": [
        {
          "internalType": "bool",
          "name": "isFreezed",
          "type": "bool"
        }
      ],
      "stateMutability": "view",
      "type": "function"
    },
    {
      "inputs": [],
      "name": "custodian",
      "outputs": [
        {
          "internalType": "contract CustodianFixed",
          "name": "",
          "type": "address"
        }
      ],
      "stateMutability": "view",
      "type": "function"
    },
    {
      "inputs": [
        {
          "internalType": "bytes32",
          "name": "role",
          "type": "bytes32"
        }
      ],
      "name": "getRoleAdmin",
      "outputs": [
        {
          "internalType": "bytes32",
          "name": "",
          "type": "bytes32"
        }
      ],
      "stateMutability": "view",
      "type": "function"
    },
    {
      "inputs": [],
      "name": "globalConfig",
      "outputs": [
        {
          "internalType": "uint256",
          "name": "adjustmentThreshold",
          "type": "uint256"
        },
        {
          "internalType": "uint256",
          "name": "liquidationThreshold",
          "type": "uint256"
        },
        {
          "internalType": "uint256",
          "name": "penalty",
          "type": "uint256"
        },
        {
          "internalType": "bool",
          "name": "enabled",
          "type": "bool"
        }
      ],
      "stateMutability": "view",
      "type": "function"
    },
    {
      "inputs": [
        {
          "internalType": "address",
          "name": "account",
          "type": "address"
        }
      ],
      "name": "grantAdminRole",
      "outputs": [],
      "stateMutability": "nonpayable",
      "type": "function"
    },
    {
      "inputs": [
        {
          "internalType": "address",
          "name": "account",
          "type": "address"
        }
      ],
      "name": "grantAuctionRole",
      "outputs": [],
      "stateMutability": "nonpayable",
      "type": "function"
    },
    {
      "inputs": [
        {
          "internalType": "address",
          "name": "account",
          "type": "address"
        }
      ],
      "name": "grantCustodianRole",
      "outputs": [],
      "stateMutability": "nonpayable",
      "type": "function"
    },
    {
      "inputs": [
        {
          "internalType": "bytes32",
          "name": "role",
          "type": "bytes32"
        },
        {
          "internalType": "address",
          "name": "account",
          "type": "address"
        }
      ],
      "name": "grantRole",
      "outputs": [],
      "stateMutability": "nonpayable",
      "type": "function"
    },
    {
      "inputs": [
        {
          "internalType": "bytes32",
          "name": "role",
          "type": "bytes32"
        },
        {
          "internalType": "address",
          "name": "account",
          "type": "address"
        }
      ],
      "name": "hasRole",
      "outputs": [
        {
          "internalType": "bool",
          "name": "",
          "type": "bool"
        }
      ],
      "stateMutability": "view",
      "type": "function"
    },
    {
      "inputs": [
        {
          "internalType": "address",
          "name": "_auction",
          "type": "address"
        },
        {
          "internalType": "uint256",
          "name": "_adjustmentThreshold",
          "type": "uint256"
        },
        {
          "internalType": "uint256",
          "name": "_liquidationThreshold",
          "type": "uint256"
        },
        {
          "internalType": "uint256",
          "name": "_penalty",
          "type": "uint256"
        }
      ],
      "name": "initialize",
      "outputs": [],
      "stateMutability": "nonpayable",
      "type": "function"
    },
    {
      "inputs": [],
      "name": "leverageToken",
      "outputs": [
        {
          "internalType": "contract MultiLeverageToken",
          "name": "",
          "type": "address"
        }
      ],
      "stateMutability": "view",
      "type": "function"
    },
    {
      "inputs": [
        {
          "internalType": "bytes32",
          "name": "role",
          "type": "bytes32"
        },
        {
          "internalType": "address",
          "name": "callerConfirmation",
          "type": "address"
        }
      ],
      "name": "renounceRole",
      "outputs": [],
      "stateMutability": "nonpayable",
      "type": "function"
    },
    {
      "inputs": [
        {
          "internalType": "address",
          "name": "account",
          "type": "address"
        }
      ],
      "name": "revokeAdminRole",
      "outputs": [],
      "stateMutability": "nonpayable",
      "type": "function"
    },
    {
      "inputs": [
        {
          "internalType": "address",
          "name": "account",
          "type": "address"
        }
      ],
      "name": "revokeAuctionRole",
      "outputs": [],
      "stateMutability": "nonpayable",
      "type": "function"
    },
    {
      "inputs": [
        {
          "internalType": "address",
          "name": "account",
          "type": "address"
        }
      ],
      "name": "revokeCustodianRole",
      "outputs": [],
      "stateMutability": "nonpayable",
      "type": "function"
    },
    {
      "inputs": [
        {
          "internalType": "bytes32",
          "name": "role",
          "type": "bytes32"
        },
        {
          "internalType": "address",
          "name": "account",
          "type": "address"
        }
      ],
      "name": "revokeRole",
      "outputs": [],
      "stateMutability": "nonpayable",
      "type": "function"
    },
    {
      "inputs": [
        {
          "internalType": "bytes32",
          "name": "parameter",
          "type": "bytes32"
        },
        {
          "internalType": "address",
          "name": "addr",
          "type": "address"
        }
      ],
      "name": "setAddress",
      "outputs": [],
      "stateMutability": "nonpayable",
      "type": "function"
    },
    {
      "inputs": [
        {
          "internalType": "bytes32",
          "name": "parameter",
          "type": "bytes32"
        },
        {
          "internalType": "uint256",
          "name": "value",
          "type": "uint256"
        }
      ],
      "name": "setParameter",
      "outputs": [],
      "stateMutability": "nonpayable",
      "type": "function"
    },
    {
      "inputs": [
        {
          "internalType": "bytes4",
          "name": "interfaceId",
          "type": "bytes4"
        }
      ],
      "name": "supportsInterface",
      "outputs": [
        {
          "internalType": "bool",
          "name": "",
          "type": "bool"
        }
      ],
      "stateMutability": "view",
      "type": "function"
    },
    {
      "inputs": [
        {
          "internalType": "address",
          "name": "user",
          "type": "address"
        }
      ],
      "name": "updateAllTokensRiskLevel",
      "outputs": [
        {
          "internalType": "uint256[]",
          "name": "tokenIds",
          "type": "uint256[]"
        },
        {
          "internalType": "uint256[]",
          "name": "netValues",
          "type": "uint256[]"
        },
        {
          "internalType": "uint8[]",
          "name": "riskLevels",
          "type": "uint8[]"
        }
      ],
      "stateMutability": "nonpayable",
      "type": "function"
    },
    {
      "inputs": [
        {
          "internalType": "address",
          "name": "user",
          "type": "address"
        },
        {
          "internalType": "uint256",
          "name": "tokenId",
          "type": "uint256"
        }
      ],
      "name": "updateSingleTokensRiskLevel",
      "outputs": [
        {
          "internalType": "uint256",
          "name": "netValue",
          "type": "uint256"
        },
        {
          "internalType": "uint8",
          "name": "riskLevel",
          "type": "uint8"
        }
      ],
      "stateMutability": "nonpayable",
      "type": "function"
    },
    {
      "inputs": [
        {
          "internalType": "address",
          "name": "",
          "type": "address"
        },
        {
          "internalType": "uint256",
          "name": "",
          "type": "uint256"
        }
      ],
      "name": "userLiquidationStatus",
      "outputs": [
        {
          "internalType": "uint256",
          "name": "balance",
          "type": "uint256"
        },
        {
          "internalType": "uint256",
          "name": "auctionId",
          "type": "uint256"
        },
        {
          "internalType": "enum LeverageType",
          "name": "leverageType",
          "type": "uint8"
        },
        {
          "internalType": "uint8",
          "name": "riskLevel",
          "type": "uint8"
        },
        {
          "internalType": "bool",
          "name": "isFreezed",
          "type": "bool"
        }
      ],
      "stateMutability": "view",
      "type": "function"
    }
  ],
  "bytecode": "0x60c06040523461024157604051601f61293d38819003918201601f19168301916001600160401b0383118484101761019857808492604094855283398101031261024157610058602061005183610245565b9201610245565b600180556001600160a01b0381169182156101fd576001600160a01b031680156101ac5761009f9260a05260805261008f33610259565b50610099336102cf565b50610362565b50604051608081016001600160401b03811182821017610198576001916060916040526706f05b59d3b200008152670429d069189e00006020820152666a94d74f430000604082015201526706f05b59d3b20000600355670429d069189e0000600455666a94d74f430000600555600160ff196006541617600655604051337fc36befb96151814c16fe0d20f29a5912794cda96453e57ab00edad0bb21d50fa5f80a26124c790816103f682396080518181816102ad015281816113c10152818161179301526119c5015260a05181818161027c01528181610dfb0152818161113c015281816113000152818161170b01526119630152f35b634e487b7160e01b5f52604160045260245ffd5b60405162461bcd60e51b8152602060048201526024808201527f4c65766572616765546f6b656e2063616e6e6f74206265207a65726f206164646044820152637265737360e01b6064820152608490fd5b606460405162461bcd60e51b815260206004820152602060248201527f437573746f6469616e2063616e6e6f74206265207a65726f20616464726573736044820152fd5b5f80fd5b51906001600160a01b038216820361024157565b6001600160a01b0381165f9081525f51602061291d5f395f51905f52602052604090205460ff166102ca576001600160a01b03165f8181525f51602061291d5f395f51905f5260205260408120805460ff191660011790553391905f5160206128bd5f395f51905f528180a4600190565b505f90565b6001600160a01b0381165f9081525f5160206128dd5f395f51905f52602052604090205460ff166102ca576001600160a01b03165f8181525f5160206128dd5f395f51905f5260205260408120805460ff191660011790553391907fa49807205ce4d355092ef5a8a18f56e8913cf4a201fbe287825b095693c21775905f5160206128bd5f395f51905f529080a4600190565b6001600160a01b0381165f9081525f5160206128fd5f395f51905f52602052604090205460ff166102ca576001600160a01b03165f8181525f5160206128fd5f395f51905f5260205260408120805460ff191660011790553391907fe28434228950b641dbbc0178de89daa359a87c6ee0d8399aeace52a98fe902b9905f5160206128bd5f395f51905f529080a460019056fe6080806040526004361015610012575f80fd5b5f905f3560e01c90816301ffc9a714611ba15750806303c21ce714611b335780630639d4fe146119305780631e5e7d5a14611896578063248a9ca3146118645780632a46018c146117ff5780632f2ff15d146117c2578063355af6071461177e57806336568abe1461173a578063375b74c3146116f65780633d505630146112cf578063430730a3146112a85780634ec81af114611213578063585f75af146110e357806360ebfee6146110c8578063723507be14610fc557806375b238fc14610f9e5780637d9f6db514610f7657806391d1485414610f2e5780639a19c7b014610e94578063a0d9cc7314610d7e578063a217fddf14610d62578063a7c1abe014610d26578063af36053d14610d03578063c634b78e14610c67578063c79445d014610c3f578063c9d1144214610bd8578063ca446dd914610ac0578063ca8a5e1214610a24578063cb846f981461098b578063d1ef003214610222578063d547741f146101db5763ebf94ab014610189575f80fd5b346101d85760403660031901126101d85760209060ff906002906040906001600160a01b036101b6611bf4565b168152600785528181206024358252855220015460101c166040519015158152f35b80fd5b50346101d85760403660031901126101d85761021e6004356101fb611c0a565b90610219610214825f525f602052600160405f20015490565b611e94565b6122cb565b5080f35b50346101d85760603660031901126101d85761023c611bf4565b602435916044356001600160a01b03811692908390036109875760ff600654161561094257610269611ecc565b6002546001600160a01b0316156108fd577f00000000000000000000000000000000000000000000000000000000000000006001600160a01b03169283156108b8577f00000000000000000000000000000000000000000000000000000000000000006001600160a01b0316918215610874576001600160a01b038116926102f2841515611c53565b82156108365760405162491fcf60e11b815260048101889052602081602481855afa9081156105e15786916107fb575b50156107bf5760405163e82ffbb160e01b81526001600160a01b03831660048201526024810188905290602090829060449082905afa9081156106ff57859161078d575b50801561074f5783855260076020526040852087865260205260ff600260408720015460101c1661070a57604051635ad6fb9360e01b81526001600160a01b039290921660048301526024820187905261010082604481895afa9182156106ff5785926106c6575b506004548210156106815783855260076020526040852087865260205260ff6002604087200154168590600381101561066d578061064257505060ff60085b16801561062e5761042890670de0b6b3a76400000482612338565b9182156105fa5781600554918281115f146105f05761044f9261044a91611e2a565b612338565b955b803b156105ec57858091606460405180948193631db18b2760e31b83528a60048401528d60248401528760448401525af180156105e157908692916105c4575b509181602094938660c4945260078652604082208a835286526002604083200161040061ff001982541617905586825260078652604082208a83528652600260408320016201000062ff00001982541617905586825260078652604082208a8352865281604081205561051160018060a01b036002541691600554612338565b94604051998a9687956310112c7160e21b8752600487015260248601528860448601528b6064860152608485015260a48401525af19283156105b957829361057c575b5060408260209560019386955260078752828220908252865220015560018055604051908152f35b939250906020843d6020116105b1575b8161059960209383611ce2565b810103126105ad5792519192906040610554565b5f80fd5b3d915061058c565b6040513d84823e3d90fd5b826105d191939293611ce2565b6105dd5784905f610491565b8480fd5b6040513d88823e3d90fd5b8580fd5b5050508495610451565b60405162461bcd60e51b815260206004820152600c60248201526b273ab6361030bab1ba34b7b760a11b6044820152606490fd5b634e487b7160e01b86526012600452602486fd5b6001810361065557505060ff600461040d565b600214610665575b60ff9061040d565b50600161065d565b634e487b7160e01b87526021600452602487fd5b60405162461bcd60e51b815260206004820152601f60248201527f4e41562061626f7665206c69717569646174696f6e207468726573686f6c64006044820152606490fd5b6106e99192506101003d81116106f8575b6106e18183611ce2565b810190611d18565b5050505050915050905f6103ce565b503d6106d7565b6040513d87823e3d90fd5b60405162461bcd60e51b815260206004820152601e60248201527f54686520746f6b656e20697320756e646572206c69717569646174696f6e00006044820152606490fd5b60405162461bcd60e51b81526020600482015260166024820152754e6f20746f6b656e7320746f206c697175696461746560501b6044820152606490fd5b90506020813d6020116107b7575b816107a860209383611ce2565b810103126105ad57515f610366565b3d915061079b565b60405162461bcd60e51b8152602060048201526014602482015273151bdad95b88191bd95cc81b9bdd08195e1a5cdd60621b6044820152606490fd5b90506020813d60201161082e575b8161081660209383611ce2565b810103126105ec575180151581036105ec575f610322565b3d9150610809565b60405162461bcd60e51b8152602060048201526016602482015275496e76616c6964206b6565706572206164647265737360501b6044820152606490fd5b606460405162461bcd60e51b815260206004820152602060248201527f536574206c65766572616765546f6b656e2061646472657373206669727374216044820152fd5b60405162461bcd60e51b815260206004820152601c60248201527f53657420637573746f6469616e206164647265737320666972737421000000006044820152606490fd5b60405162461bcd60e51b815260206004820152601a60248201527f5365742061756374696f6e2061646472657373206669727374210000000000006044820152606490fd5b60405162461bcd60e51b815260206004820152601760248201527f4c69717569646174696f6e206e6f7420656e61626c65640000000000000000006044820152606490fd5b5080fd5b50346101d85760403660031901126101d8576001600160a01b036109ad611bf4565b168152600760205260408120602435825260205260408120805490600260018201549101549260ff84169160405193845260208401526003821015610a10575060a09260ff916040840152818160081c16606084015260101c1615156080820152f35b634e487b7160e01b81526021600452602490fd5b50346101d85760203660031901126101d857610a3e611bf4565b610a46611e4b565b5f5160206124125f395f51905f525f9081526020527f743ba43598e4e97429683c7739c35500cae7b09b5afdf7135b85b54a773e67d354610a8690611e94565b610a8f8161205c565b506001600160a01b03167fd65bcd4e6f77e2244660b49cfc8c9df567ce817137e8c0ac6558b054dbb339218280a280f35b50346101d85760403660031901126101d857600435610add611c0a565b610ae5611e4b565b610aed611ecc565b6630bab1ba34b7b760c91b8203610b9a57600280546001600160a01b0319166001600160a01b0383169081179091557fce9745511e6b32283e684acf17f26ee2c5d221bf65c95e61c3d6fcfa446462d091602091610b49611e4b565b610b54610214611d53565b610b5d82611f57565b507f0955f82c07229d6a99f48ddd28fe0036270495ad0976e376cd9fa4f18528fdf58680a26040516001600160a01b039091168152a26001805580f35b60405162461bcd60e51b81526020600482015260166024820152752ab73932b1b7b3b734bd32b2103830b930b6b2ba32b960511b6044820152606490fd5b50346101d85760203660031901126101d857610bf2611bf4565b610bfa611e4b565b610c05610214611d53565b610c0e8161224d565b506001600160a01b03167f680982af7bfb8bdbe6297103b9c7b13afd2eda6ed4fe0e4db5138a05fc68a61c8280a280f35b50346101d857806003193601126101d85760206040515f5160206124125f395f51905f528152f35b50346101d85760203660031901126101d857610c81611bf4565b610c89611e4b565b5f5160206124725f395f51905f525f9081526020527f7d7ffb7a348e1c6a02869081a26547b49160dd3df72d1d75a570eb9b698292ed54610cc990611e94565b610cd281611fdc565b506001600160a01b03167fc36befb96151814c16fe0d20f29a5912794cda96453e57ab00edad0bb21d50fa8280a280f35b50346101d857806003193601126101d8576020604051670de0b6b3a76400008152f35b50346101d857806003193601126101d857608060035460045460055460ff60065416916040519384526020840152604083015215156060820152f35b50346101d857806003193601126101d857602090604051908152f35b50346105ad5760803660031901126105ad57610d98611bf4565b335f9081525f5160206123f25f395f51905f526020526040902054602435919060ff1615610e70576001600160a01b039081165f90815260076020908152604080832094835293905291822060028101805462ffff0019169055600101919091557f000000000000000000000000000000000000000000000000000000000000000016803b156105ad575f809160446040518094819363b88acbfd60e01b83528335600484015260643560248401525af18015610e6557610e57575080f35b610e6391505f90611ce2565b005b6040513d5f823e3d90fd5b63e2517d3f60e01b5f52336004525f5160206123b25f395f51905f5260245260445ffd5b346105ad5760203660031901126105ad57610ead611bf4565b610eb5611e4b565b5f5160206124725f395f51905f525f9081526020527f7d7ffb7a348e1c6a02869081a26547b49160dd3df72d1d75a570eb9b698292ed54610ef590611e94565b610efe816121cf565b506001600160a01b03167f998b1c8c2c4e47baeddde4d4152dfae31548fb5e6aa5fc2026808fa365a30e7c5f80a2005b346105ad5760403660031901126105ad57610f47611c0a565b6004355f525f60205260405f209060018060a01b03165f52602052602060ff60405f2054166040519015158152f35b346105ad575f3660031901126105ad576002546040516001600160a01b039091168152602090f35b346105ad575f3660031901126105ad5760206040515f5160206124725f395f51905f528152f35b346105ad5760403660031901126105ad57600435602435610fe4611e4b565b610fec611ecc565b7218591a9d5cdd1b595b9d151a1c995cda1bdb19606a1b820361103f576020817f9b900726daef362ccb7ef4037118922e973973109c4d10b5c19277bddd59e048926003555b604051908152a260018055005b731b1a5c5d5a59185d1a5bdb951a1c995cda1bdb1960621b820361108a576020817f9b900726daef362ccb7ef4037118922e973973109c4d10b5c19277bddd59e04892600455611032565b6670656e616c747960c81b8203610b9a576020817f9b900726daef362ccb7ef4037118922e973973109c4d10b5c19277bddd59e04892600555611032565b346105ad575f3660031901126105ad57602060405160128152f35b346105ad5760803660031901126105ad576110fc611bf4565b6024356064359160038310156105ad57335f9081525f5160206124325f395f51905f52602052604090205460ff16156111ef57611137611ecc565b61116b7f00000000000000000000000000000000000000000000000000000000000000006001600160a01b03161515611c96565b6001600160a01b03165f818152600760209081526040808320858452909152902060443581556002015460ff1660038110156111db5783036111ae575b60018055005b5f52600760205260405f20905f52602052600260405f20019060ff801983541691161790558080806111a8565b634e487b7160e01b5f52602160045260245ffd5b63e2517d3f60e01b5f52336004525f5160206124125f395f51905f5260245260445ffd5b346105ad5760803660031901126105ad5761122c611bf4565b611234611e4b565b600280546001600160a01b0319166001600160a01b0383169081179091559061126f9061125f611e4b565b61126a610214611d53565b611f57565b507f0955f82c07229d6a99f48ddd28fe0036270495ad0976e376cd9fa4f18528fdf55f80a2602435600355604435600455606435600555005b346105ad575f3660031901126105ad5760206040515f5160206123b25f395f51905f528152f35b346105ad5760203660031901126105ad576112e8611bf4565b6001600160a01b038116906112fe821515611c53565b7f00000000000000000000000000000000000000000000000000000000000000006001600160a01b031690611334821515611c96565b60405163432ac92f60e01b815260048101849052925f84602481865afa938415610e65575f946115d9575b50835161136b81611d8d565b916113796040519384611ce2565b818352601f1961138883611d8d565b0136602085013761139882611d8d565b936113a66040519586611ce2565b8285526113b283611d8d565b602086019690601f19013688377f00000000000000000000000000000000000000000000000000000000000000006001600160a01b0316915f5b85811061145d576114138a8a8a60206114208c604051968796606088526060880190611c20565b9086820384880152611c20565b91848303604086015251918281520191905f5b818110611441575050500390f35b825160ff16845285945060209384019390920191600101611433565b611467818b611e02565b5160405163e82ffbb160e01b81526001600160a01b038416600482015260248101829052909190602081604481895afa908115610e65575f916115a8575b501561158757604051635ad6fb9360e01b81526001600160a01b03841660048201526024810183905261010081604481885afa928315610e65578a60ff6115128561150c818f9960019a611554995f9261155a575b50819261150691611e02565b52611eec565b93611e02565b9116905260ff611522848d611e02565b511690885f52600760205260405f20905f52602052600260405f20019061ff0082549160081b169061ff001916179055565b016113ec565b611506919250611578906101003d81116106f8576106e18183611ce2565b505050505091505091906114fa565b600191505f611596828a611e02565b525f6115a2828b611e02565b52611554565b90506020813d82116115d1575b816115c260209383611ce2565b810103126105ad57518c6114a5565b3d91506115b5565b9093503d805f833e6115eb8183611ce2565b81019060a0818303126105ad57805167ffffffffffffffff81116105ad5782611615918301611da5565b91602082015167ffffffffffffffff81116105ad5781611636918401611da5565b50604082015167ffffffffffffffff81116105ad57820181601f820112156105ad5780519060208061166784611d8d565b6116746040519182611ce2565b848152019260051b820101908382116105ad57602001915b8183106116dd57505050606082015167ffffffffffffffff81116105ad57816116b6918401611da5565b50608082015167ffffffffffffffff81116105ad576116d59201611da5565b50928461135f565b825160038110156105ad5781526020928301920161168c565b346105ad575f3660031901126105ad576040517f00000000000000000000000000000000000000000000000000000000000000006001600160a01b03168152602090f35b346105ad5760403660031901126105ad57611753611c0a565b336001600160a01b0382160361176f57610e63906004356122cb565b63334bd91960e11b5f5260045ffd5b346105ad575f3660031901126105ad576040517f00000000000000000000000000000000000000000000000000000000000000006001600160a01b03168152602090f35b346105ad5760403660031901126105ad57610e636004356117e1611c0a565b906117fa610214825f525f602052600160405f20015490565b6120dc565b346105ad5760203660031901126105ad57611818611bf4565b611820611e4b565b61182b610214611d53565b61183481611f57565b506001600160a01b03167f0955f82c07229d6a99f48ddd28fe0036270495ad0976e376cd9fa4f18528fdf55f80a2005b346105ad5760203660031901126105ad57602061188e6004355f525f602052600160405f20015490565b604051908152f35b346105ad5760203660031901126105ad576118af611bf4565b6118b7611e4b565b5f5160206124125f395f51905f525f9081526020527f743ba43598e4e97429683c7739c35500cae7b09b5afdf7135b85b54a773e67d3546118f790611e94565b61190081612151565b506001600160a01b03167fd11cd239d414aeccc32b2ad3c990fdd1f7bfd8f2021f18d9161d8bc1f98d5c8b5f80a2005b346105ad5760403660031901126105ad57611949611bf4565b6024356001600160a01b038216611961811515611c53565b7f00000000000000000000000000000000000000000000000000000000000000006001600160a01b0316611996811515611c96565b60405163e82ffbb160e01b81526001600160a01b038516600482015260248101849052602081806044810103817f00000000000000000000000000000000000000000000000000000000000000006001600160a01b03165afa908115610e65575f91611b01575b5015611abc57604051635ad6fb9360e01b81526001600160a01b039490941660048501526024840183905261010090849060449082905afa908115610e65576040935f92611a92575b508192611a5460ff93611eec565b915f526007602052845f20905f52602052611a85816002865f20019061ff0082549160081b169061ff001916179055565b8351928352166020820152f35b60ff9250611aae906101003d81116106f8576106e18183611ce2565b505050505091505091611a46565b60405162461bcd60e51b815260206004820152601d60248201527f5573657220646f6573206e6f7420686f6c64207468697320746f6b656e0000006044820152606490fd5b90506020813d602011611b2b575b81611b1c60209383611ce2565b810103126105ad5751856119fd565b3d9150611b0f565b346105ad5760203660031901126105ad576004358015158091036105ad5760207f0806f167d522e72f48fa9392761e3f57b6c2ca4fdf9d6fbe38fc894e82ab8c0e91611b7d611e4b565b611b85611ecc565b60ff196006541660ff821617600655604051908152a160018055005b346105ad5760203660031901126105ad576004359063ffffffff60e01b82168092036105ad57602091637965db0b60e01b8114908115611be3575b5015158152f35b6301ffc9a760e01b14905083611bdc565b600435906001600160a01b03821682036105ad57565b602435906001600160a01b03821682036105ad57565b90602080835192838152019201905f5b818110611c3d5750505090565b8251845260209384019390920191600101611c30565b15611c5a57565b60405162461bcd60e51b8152602060048201526014602482015273496e76616c69642075736572206164647265737360601b6044820152606490fd5b15611c9d57565b60405162461bcd60e51b815260206004820152601b60248201527f53657420637573746f6469616e206164647265737320666972737400000000006044820152606490fd5b90601f8019910116810190811067ffffffffffffffff821117611d0457604052565b634e487b7160e01b5f52604160045260245ffd5b9190826101009103126105ad5781519160208101519160408201519160608101519160808201519160a08101519160e060c083015192015190565b5f5160206123b25f395f51905f525f9081526020527ff2d19feb5547524783b7bad00410790cff4bde378a563f400aa879f0e01b51f45490565b67ffffffffffffffff8111611d045760051b60200190565b9080601f830112156105ad578151611dbc81611d8d565b92611dca6040519485611ce2565b81845260208085019260051b8201019283116105ad57602001905b828210611df25750505090565b8151815260209182019101611de5565b8051821015611e165760209160051b010190565b634e487b7160e01b5f52603260045260245ffd5b91908203918211611e3757565b634e487b7160e01b5f52601160045260245ffd5b335f9081525f5160206123d25f395f51905f52602052604090205460ff1615611e7057565b63e2517d3f60e01b5f52336004525f5160206124725f395f51905f5260245260445ffd5b5f8181526020818152604080832033845290915290205460ff1615611eb65750565b63e2517d3f60e01b5f523360045260245260445ffd5b600260015414611edd576002600155565b633ee5aeb560e01b5f5260045ffd5b600454808211611efd575050600490565b600354808311611f505781611f17600393611f1d93611e2a565b93611e2a565b910490818111611f2e575050600390565b8160011b9180830460021490151715611e375711611f4b57600290565b600190565b5050505f90565b6001600160a01b0381165f9081525f5160206123f25f395f51905f52602052604090205460ff16611fd7576001600160a01b03165f8181525f5160206123f25f395f51905f5260205260408120805460ff191660011790553391905f5160206123b25f395f51905f52905f5160206123925f395f51905f529080a4600190565b505f90565b6001600160a01b0381165f9081525f5160206123d25f395f51905f52602052604090205460ff16611fd7576001600160a01b03165f8181525f5160206123d25f395f51905f5260205260408120805460ff191660011790553391905f5160206124725f395f51905f52905f5160206123925f395f51905f529080a4600190565b6001600160a01b0381165f9081525f5160206124325f395f51905f52602052604090205460ff16611fd7576001600160a01b03165f8181525f5160206124325f395f51905f5260205260408120805460ff191660011790553391905f5160206124125f395f51905f52905f5160206123925f395f51905f529080a4600190565b5f818152602081815260408083206001600160a01b038616845290915290205460ff1661214b575f818152602081815260408083206001600160a01b0395909516808452949091528120805460ff19166001179055339291905f5160206123925f395f51905f529080a4600190565b50505f90565b6001600160a01b0381165f9081525f5160206124325f395f51905f52602052604090205460ff1615611fd7576001600160a01b03165f8181525f5160206124325f395f51905f5260205260408120805460ff191690553391905f5160206124125f395f51905f52905f5160206124525f395f51905f529080a4600190565b6001600160a01b0381165f9081525f5160206123d25f395f51905f52602052604090205460ff1615611fd7576001600160a01b03165f8181525f5160206123d25f395f51905f5260205260408120805460ff191690553391905f5160206124725f395f51905f52905f5160206124525f395f51905f529080a4600190565b6001600160a01b0381165f9081525f5160206123f25f395f51905f52602052604090205460ff1615611fd7576001600160a01b03165f8181525f5160206123f25f395f51905f5260205260408120805460ff191690553391905f5160206123b25f395f51905f52905f5160206124525f395f51905f529080a4600190565b5f818152602081815260408083206001600160a01b038616845290915290205460ff161561214b575f818152602081815260408083206001600160a01b0395909516808452949091528120805460ff19169055339291905f5160206124525f395f51905f529080a4600190565b905f91811591821561235a575b5050156105ad57670de0b6b3a7640000900490565b90919250808202828104821483151715611e3757809361237d5704145f80612345565b634e487b7160e01b5f52601260045260245ffdfe2f8788117e7eff1d82e926ec794901d17c78024a50270940304540a733656f0dc5e2d1653feba496cf5ce3a744b90ea18acf0df3d036aba9b2f85992a14679067d7ffb7a348e1c6a02869081a26547b49160dd3df72d1d75a570eb9b698292ecf2d19feb5547524783b7bad00410790cff4bde378a563f400aa879f0e01b51f3e28434228950b641dbbc0178de89daa359a87c6ee0d8399aeace52a98fe902b9743ba43598e4e97429683c7739c35500cae7b09b5afdf7135b85b54a773e67d2f6391f5c32d9c69d2a47ea670b442974b53935d1edc7fd64eb21e047a839171ba49807205ce4d355092ef5a8a18f56e8913cf4a201fbe287825b095693c21775a2646970667358221220b85b1032cd7984840e5fa0fef780b92872bf747ab90339f0ea50b205563239c364736f6c634300081c00332f8788117e7eff1d82e926ec794901d17c78024a50270940304540a733656f0d7d7ffb7a348e1c6a02869081a26547b49160dd3df72d1d75a570eb9b698292ec743ba43598e4e97429683c7739c35500cae7b09b5afdf7135b85b54a773e67d2ad3228b676f7d3cd4284a5443f17f1962b36e491b30a40b2405849e597ba5fb5",
  "linkReferences": {},
  "deployedLinkReferences": {},
  "immutableReferences": {
    "14172": [
      {
        "length": 32,
        "start": 685
      },
      {
        "length": 32,
        "start": 5057
      },
      {
        "length": 32,
        "start": 6035
      },
      {
        "length": 32,
        "start": 6597
      }
    ],
    "14175": [
      {
        "length": 32,
        "start": 636
      },
      {
        "length": 32,
        "start": 3579
      },
      {
        "length": 32,
        "start": 4412
      },
      {
        "length": 32,
        "start": 4864
      },
      {
        "length": 32,
        "start": 5899
      },
      {
        "length": 32,
        "start": 6499
      }
    ]
  },
  "inputSourceName": "project/contracts/auctions/LiquidationManager.sol",
  "buildInfoId": "solc-0_8_28-52ffd542b654ae7ca75e2f683cc6896a21df351a"
}