{
  "_format": "hh-sol-artifact-1",
  "contractName": "LPToken",
  "sourceName": "contracts/tokens/LPToken.sol",
  "abi": [
    {
      "inputs": [
        {
          "internalType": "string",
          "name": "_name",
          "type": "string"
        },
        {
          "internalType": "string",
          "name": "_symbol",
          "type": "string"
        }
      ],
      "stateMutability": "nonpayable",
      "type": "constructor"
    },
    {
      "inputs": [
        {
          "internalType": "address",
          "name": "spender",
          "type": "address"
        },
        {
          "internalType": "uint256",
          "name": "allowance",
          "type": "uint256"
        },
        {
          "internalType": "uint256",
          "name": "needed",
          "type": "uint256"
        }
      ],
      "name": "ERC20InsufficientAllowance",
      "type": "error"
    },
    {
      "inputs": [
        {
          "internalType": "address",
          "name": "sender",
          "type": "address"
        },
        {
          "internalType": "uint256",
          "name": "balance",
          "type": "uint256"
        },
        {
          "internalType": "uint256",
          "name": "needed",
          "type": "uint256"
        }
      ],
      "name": "ERC20InsufficientBalance",
      "type": "error"
    },
    {
      "inputs": [
        {
          "internalType": "address",
          "name": "approver",
          "type": "address"
        }
      ],
      "name": "ERC20InvalidApprover",
      "type": "error"
    },
    {
      "inputs": [
        {
          "internalType": "address",
          "name": "receiver",
          "type": "address"
        }
      ],
      "name": "ERC20InvalidReceiver",
      "type": "error"
    },
    {
      "inputs": [
        {
          "internalType": "address",
          "name": "sender",
          "type": "address"
        }
      ],
      "name": "ERC20InvalidSender",
      "type": "error"
    },
    {
      "inputs": [
        {
          "internalType": "address",
          "name": "spender",
          "type": "address"
        }
      ],
      "name": "ERC20InvalidSpender",
      "type": "error"
    },
    {
      "anonymous": false,
      "inputs": [
        {
          "indexed": true,
          "internalType": "address",
          "name": "owner",
          "type": "address"
        },
        {
          "indexed": true,
          "internalType": "address",
          "name": "spender",
          "type": "address"
        },
        {
          "indexed": false,
          "internalType": "uint256",
          "name": "value",
          "type": "uint256"
        }
      ],
      "name": "Approval",
      "type": "event"
    },
    {
      "anonymous": false,
      "inputs": [
        {
          "indexed": true,
          "internalType": "address",
          "name": "from",
          "type": "address"
        },
        {
          "indexed": false,
          "internalType": "uint256",
          "name": "amount",
          "type": "uint256"
        }
      ],
      "name": "Burned",
      "type": "event"
    },
    {
      "anonymous": false,
      "inputs": [
        {
          "indexed": true,
          "internalType": "address",
          "name": "to",
          "type": "address"
        },
        {
          "indexed": false,
          "internalType": "uint256",
          "name": "amount",
          "type": "uint256"
        }
      ],
      "name": "Minted",
      "type": "event"
    },
    {
      "anonymous": false,
      "inputs": [
        {
          "indexed": true,
          "internalType": "address",
          "name": "from",
          "type": "address"
        },
        {
          "indexed": true,
          "internalType": "address",
          "name": "to",
          "type": "address"
        },
        {
          "indexed": false,
          "internalType": "uint256",
          "name": "value",
          "type": "uint256"
        }
      ],
      "name": "Transfer",
      "type": "event"
    },
    {
      "inputs": [
        {
          "internalType": "address",
          "name": "owner",
          "type": "address"
        },
        {
          "internalType": "address",
          "name": "spender",
          "type": "address"
        }
      ],
      "name": "allowance",
      "outputs": [
        {
          "internalType": "uint256",
          "name": "",
          "type": "uint256"
        }
      ],
      "stateMutability": "view",
      "type": "function"
    },
    {
      "inputs": [
        {
          "internalType": "address",
          "name": "spender",
          "type": "address"
        },
        {
          "internalType": "uint256",
          "name": "value",
          "type": "uint256"
        }
      ],
      "name": "approve",
      "outputs": [
        {
          "internalType": "bool",
          "name": "",
          "type": "bool"
        }
      ],
      "stateMutability": "nonpayable",
      "type": "function"
    },
    {
      "inputs": [
        {
          "internalType": "address",
          "name": "account",
          "type": "address"
        }
      ],
      "name": "balanceOf",
      "outputs": [
        {
          "internalType": "uint256",
          "name": "",
          "type": "uint256"
        }
      ],
      "stateMutability": "view",
      "type": "function"
    },
    {
      "inputs": [
        {
          "internalType": "address",
          "name": "from",
          "type": "address"
        },
        {
          "internalType": "uint256",
          "name": "amount",
          "type": "uint256"
        }
      ],
      "name": "burn",
      "outputs": [],
      "stateMutability": "nonpayable",
      "type": "function"
    },
    {
      "inputs": [],
      "name": "decimals",
      "outputs": [
        {
          "internalType": "uint8",
          "name": "",
          "type": "uint8"
        }
      ],
      "stateMutability": "view",
      "type": "function"
    },
    {
      "inputs": [],
      "name": "getTokenInfo",
      "outputs": [
        {
          "internalType": "string",
          "name": "tokenName",
          "type": "string"
        },
        {
          "internalType": "string",
          "name": "tokenSymbol",
          "type": "string"
        },
        {
          "internalType": "uint8",
          "name": "tokenDecimals",
          "type": "uint8"
        },
        {
          "internalType": "uint256",
          "name": "tokenTotalSupply",
          "type": "uint256"
        },
        {
          "internalType": "address",
          "name": "authorizedPool",
          "type": "address"
        }
      ],
      "stateMutability": "view",
      "type": "function"
    },
    {
      "inputs": [
        {
          "internalType": "address",
          "name": "account",
          "type": "address"
        }
      ],
      "name": "isAuthorizedPool",
      "outputs": [
        {
          "internalType": "bool",
          "name": "",
          "type": "bool"
        }
      ],
      "stateMutability": "view",
      "type": "function"
    },
    {
      "inputs": [
        {
          "internalType": "address",
          "name": "to",
          "type": "address"
        },
        {
          "internalType": "uint256",
          "name": "amount",
          "type": "uint256"
        }
      ],
      "name": "mint",
      "outputs": [],
      "stateMutability": "nonpayable",
      "type": "function"
    },
    {
      "inputs": [],
      "name": "name",
      "outputs": [
        {
          "internalType": "string",
          "name": "",
          "type": "string"
        }
      ],
      "stateMutability": "view",
      "type": "function"
    },
    {
      "inputs": [],
      "name": "pool",
      "outputs": [
        {
          "internalType": "address",
          "name": "",
          "type": "address"
        }
      ],
      "stateMutability": "view",
      "type": "function"
    },
    {
      "inputs": [],
      "name": "symbol",
      "outputs": [
        {
          "internalType": "string",
          "name": "",
          "type": "string"
        }
      ],
      "stateMutability": "view",
      "type": "function"
    },
    {
      "inputs": [],
      "name": "totalSupply",
      "outputs": [
        {
          "internalType": "uint256",
          "name": "",
          "type": "uint256"
        }
      ],
      "stateMutability": "view",
      "type": "function"
    },
    {
      "inputs": [
        {
          "internalType": "address",
          "name": "to",
          "type": "address"
        },
        {
          "internalType": "uint256",
          "name": "value",
          "type": "uint256"
        }
      ],
      "name": "transfer",
      "outputs": [
        {
          "internalType": "bool",
          "name": "",
          "type": "bool"
        }
      ],
      "stateMutability": "nonpayable",
      "type": "function"
    },
    {
      "inputs": [
        {
          "internalType": "address",
          "name": "from",
          "type": "address"
        },
        {
          "internalType": "address",
          "name": "to",
          "type": "address"
        },
        {
          "internalType": "uint256",
          "name": "value",
          "type": "uint256"
        }
      ],
      "name": "transferFrom",
      "outputs": [
        {
          "internalType": "bool",
          "name": "",
          "type": "bool"
        }
      ],
      "stateMutability": "nonpayable",
      "type": "function"
    }
  ],
  "bytecode": "0x60a06040523461034d57610f928038038061001981610352565b92833981019060408183031261034d5780516001600160401b03811161034d5782610045918301610377565b60208201519092906001600160401b03811161034d576100659201610377565b81516001600160401b03811161025857600354600181811c91168015610343575b602082101461023857601f81116102de575b50602092601f8211600114610279579281929360009261026e575b50508160011b916000199060031b1c1916176003555b80516001600160401b03811161025857600454600181811c9116801561024e575b602082101461023857601f81116101d3575b50602091601f821160011461016f57918192600092610164575b50508160011b916000199060031b1c1916176004555b33608052604051610baf90816103e3823960805181818161012c015281816101be01528181610243015281816104ad01526107070152f35b015190503880610116565b601f198216926004600052806000209160005b8581106101bb575083600195106101a2575b505050811b0160045561012c565b015160001960f88460031b161c19169055388080610194565b91926020600181928685015181550194019201610182565b60046000527f8a35acfbc15ff81a39ae7d344fd709f28e8600b4aa8c65c6b64bfe7fe36bd19b601f830160051c8101916020841061022e575b601f0160051c01905b81811061022257506100fc565b60008155600101610215565b909150819061020c565b634e487b7160e01b600052602260045260246000fd5b90607f16906100ea565b634e487b7160e01b600052604160045260246000fd5b0151905038806100b3565b601f198216936003600052806000209160005b8681106102c657508360019596106102ad575b505050811b016003556100c9565b015160001960f88460031b161c1916905538808061029f565b9192602060018192868501518155019401920161028c565b60036000527fc2575a0e9e593c00f959f8c92f12db2869c3395a3b0502d05e2516446f71f85b601f830160051c81019160208410610339575b601f0160051c01905b81811061032d5750610098565b60008155600101610320565b9091508190610317565b90607f1690610086565b600080fd5b6040519190601f01601f191682016001600160401b0381118382101761025857604052565b81601f8201121561034d578051906001600160401b038211610258576103a6601f8301601f1916602001610352565b928284526020838301011161034d5760005b8281106103cd57505060206000918301015290565b806020809284010151828287010152016103b856fe6080604052600436101561001257600080fd5b60003560e01c806306fdde03146107bc578063095ea7b31461073657806316f0115b146106f157806318160ddd146106d357806323b872dd146105e6578063313ce567146105ca57806340c10f191461048a57806370a082311461045057806395d89b411461041c5780639dc29fac14610220578063a9059cbb146101ef578063abb1dc4414610160578063b4a744dd1461010c5763dd62ed3e146100b657600080fd5b34610107576040366003190112610107576100cf610819565b6100d761082f565b6001600160a01b039182166000908152600160209081526040808320949093168252928352819020549051908152f35b600080fd5b34610107576020366003190112610107576020610127610819565b6040517f00000000000000000000000000000000000000000000000000000000000000006001600160a01b039081169216919091148152f35b346101075760003660031901126101075761019f61017c610845565b610184610947565b6101ad6002549160405194859460a0865260a08601906107d8565b9084820360208601526107d8565b6012604084015260608301919091527f00000000000000000000000000000000000000000000000000000000000000006001600160a01b031660808301520390f35b346101075760403660031901126101075761021561020b610819565b6024359033610ab4565b602060405160018152f35b3461010757604036600319011261010757610239610819565b60243590610271337f00000000000000000000000000000000000000000000000000000000000000006001600160a01b031614610a02565b6001600160a01b031680156103d75761028b821515610a69565b8060005260006020528160406000205410610392576000918161032f5760025481810180911161031b577f696de425f79f4a40bc6d2122ca50507f0efbeabbff86a84871b7196ab8ea8df7916020916002555b806002540360025584847fddf252ad1be2c89b69c2b068fc378daa952ba7f163c4a11628f55a4df523b3ef84604051858152a3604051908152a280f35b634e487b7160e01b84526011600452602484fd5b81835282602052604083205481811061037957817f696de425f79f4a40bc6d2122ca50507f0efbeabbff86a84871b7196ab8ea8df7926020928587528684520360408620556102de565b6064939263391434e360e21b8452600452602452604452fd5b60405162461bcd60e51b815260206004820152601d60248201527f4c50546f6b656e3a20696e73756666696369656e742062616c616e63650000006044820152606490fd5b60405162461bcd60e51b815260206004820152601f60248201527f4c50546f6b656e3a206275726e2066726f6d207a65726f2061646472657373006044820152606490fd5b346101075760003660031901126101075761044c610438610947565b6040519182916020835260208301906107d8565b0390f35b34610107576020366003190112610107576001600160a01b03610471610819565b1660005260006020526020604060002054604051908152f35b34610107576040366003190112610107576104a3610819565b602435906104db337f00000000000000000000000000000000000000000000000000000000000000006001600160a01b031614610a02565b6001600160a01b03168015610585576104f5821515610a69565b60009160025481810180911161031b576002557f30385c845b448a36257a6a1716e6ad2e1bc2cbe333cde1e69fe849ad6511adfe90602090836105705780600254036002555b83857fddf252ad1be2c89b69c2b068fc378daa952ba7f163c4a11628f55a4df523b3ef84604051858152a3604051908152a280f35b8385528482526040852081815401905561053b565b60405162461bcd60e51b815260206004820152601d60248201527f4c50546f6b656e3a206d696e7420746f207a65726f20616464726573730000006044820152606490fd5b3461010757600036600319011261010757602060405160128152f35b34610107576060366003190112610107576105ff610819565b61060761082f565b6001600160a01b0382166000818152600160209081526040808320338452909152902054909260443592916000198110610647575b506102159350610ab4565b8381106106b65784156106a057331561068a57610215946000526001602052604060002060018060a01b033316600052602052836040600020910390558461063c565b634a1406b160e11b600052600060045260246000fd5b63e602df0560e01b600052600060045260246000fd5b8390637dc7a0d960e11b6000523360045260245260445260646000fd5b34610107576000366003190112610107576020600254604051908152f35b34610107576000366003190112610107576040517f00000000000000000000000000000000000000000000000000000000000000006001600160a01b03168152602090f35b346101075760403660031901126101075761074f610819565b6024359033156106a0576001600160a01b031690811561068a57336000526001602052604060002082600052602052806040600020556040519081527f8c5be1e5ebec7d5bd14f71427d1e84f3dd0314c0f7b2291e5b200ac8c7c3b92560203392a3602060405160018152f35b346101075760003660031901126101075761044c610438610845565b919082519283825260005b848110610804575050826000602080949584010152601f8019910116010190565b806020809284010151828286010152016107e3565b600435906001600160a01b038216820361010757565b602435906001600160a01b038216820361010757565b6040519060006003548060011c9060018116801561093d575b6020831081146109295782865290811561090d57506001146108b6575b50829003601f01601f1916820167ffffffffffffffff8111838210176108a057604052565b634e487b7160e01b600052604160045260246000fd5b600360009081529091507fc2575a0e9e593c00f959f8c92f12db2869c3395a3b0502d05e2516446f71f85b5b8282106108f75750602091508301013861087b565b60018160209254838589010152019101906108e2565b90506020925060ff191682850152151560051b8301013861087b565b634e487b7160e01b84526022600452602484fd5b91607f169161085e565b6040519060006004548060011c906001811680156109f8575b6020831081146109295782865290811561090d57506001146109a15750829003601f01601f1916820167ffffffffffffffff8111838210176108a057604052565b600460009081529091507f8a35acfbc15ff81a39ae7d344fd709f28e8600b4aa8c65c6b64bfe7fe36bd19b5b8282106109e25750602091508301013861087b565b60018160209254838589010152019101906109cd565b91607f1691610960565b15610a0957565b60405162461bcd60e51b815260206004820152603260248201527f4c50546f6b656e3a204f6e6c7920706f6f6c20636f6e74726163742063616e2060448201527131b0b636103a3434b990333ab731ba34b7b760711b6064820152608490fd5b15610a7057565b606460405162461bcd60e51b815260206004820152602060248201527f4c50546f6b656e3a20616d6f756e74206d75737420626520706f7369746976656044820152fd5b6001600160a01b0316908115610b63576001600160a01b0316918215610b4d576000828152806020526040812054828110610b335791604082827fddf252ad1be2c89b69c2b068fc378daa952ba7f163c4a11628f55a4df523b3ef958760209652828652038282205586815280845220818154019055604051908152a3565b916064928463391434e360e21b8452600452602452604452fd5b63ec442f0560e01b600052600060045260246000fd5b634b637e8f60e11b600052600060045260246000fdfea2646970667358221220d242d3330be026c22b4a2475f423d5aa365568dc298aa0e15645fc13af49057964736f6c634300081c0033",
  "linkReferences": {},
  "deployedLinkReferences": {}
}