{
  "_format": "hh3-artifact-1",
  "contractName": "LTCPriceOracle",
  "sourceName": "contracts/oracles/LTCPriceOracle.sol",
  "abi": [
    {
      "inputs": [
        {
          "internalType": "int256",
          "name": "_initialPrice",
          "type": "int256"
        },
        {
          "internalType": "address[]",
          "name": "_initialFeeders",
          "type": "address[]"
        }
      ],
      "stateMutability": "nonpayable",
      "type": "constructor"
    },
    {
      "inputs": [
        {
          "internalType": "address",
          "name": "owner",
          "type": "address"
        }
      ],
      "name": "OwnableInvalidOwner",
      "type": "error"
    },
    {
      "inputs": [
        {
          "internalType": "address",
          "name": "account",
          "type": "address"
        }
      ],
      "name": "OwnableUnauthorizedAccount",
      "type": "error"
    },
    {
      "inputs": [],
      "name": "ReentrancyGuardReentrantCall",
      "type": "error"
    },
    {
      "anonymous": false,
      "inputs": [
        {
          "indexed": false,
          "internalType": "int256",
          "name": "emergencyPrice",
          "type": "int256"
        }
      ],
      "name": "EmergencyModeActivated",
      "type": "event"
    },
    {
      "anonymous": false,
      "inputs": [],
      "name": "EmergencyModeDeactivated",
      "type": "event"
    },
    {
      "anonymous": false,
      "inputs": [
        {
          "indexed": false,
          "internalType": "int256",
          "name": "price",
          "type": "int256"
        },
        {
          "indexed": true,
          "internalType": "address",
          "name": "submitter",
          "type": "address"
        },
        {
          "indexed": false,
          "internalType": "string",
          "name": "reason",
          "type": "string"
        }
      ],
      "name": "InvalidPriceSubmitted",
      "type": "event"
    },
    {
      "anonymous": false,
      "inputs": [
        {
          "indexed": true,
          "internalType": "address",
          "name": "previousOwner",
          "type": "address"
        },
        {
          "indexed": true,
          "internalType": "address",
          "name": "newOwner",
          "type": "address"
        }
      ],
      "name": "OwnershipTransferred",
      "type": "event"
    },
    {
      "anonymous": false,
      "inputs": [
        {
          "indexed": true,
          "internalType": "address",
          "name": "feeder",
          "type": "address"
        }
      ],
      "name": "PriceFeederAdded",
      "type": "event"
    },
    {
      "anonymous": false,
      "inputs": [
        {
          "indexed": true,
          "internalType": "address",
          "name": "feeder",
          "type": "address"
        }
      ],
      "name": "PriceFeederRemoved",
      "type": "event"
    },
    {
      "anonymous": false,
      "inputs": [
        {
          "indexed": true,
          "internalType": "uint80",
          "name": "roundId",
          "type": "uint80"
        },
        {
          "indexed": false,
          "internalType": "int256",
          "name": "price",
          "type": "int256"
        },
        {
          "indexed": false,
          "internalType": "uint256",
          "name": "timestamp",
          "type": "uint256"
        },
        {
          "indexed": true,
          "internalType": "address",
          "name": "updater",
          "type": "address"
        }
      ],
      "name": "PriceUpdated",
      "type": "event"
    },
    {
      "inputs": [],
      "name": "MAX_PRICE",
      "outputs": [
        {
          "internalType": "uint256",
          "name": "",
          "type": "uint256"
        }
      ],
      "stateMutability": "view",
      "type": "function"
    },
    {
      "inputs": [],
      "name": "MAX_PRICE_AGE",
      "outputs": [
        {
          "internalType": "uint256",
          "name": "",
          "type": "uint256"
        }
      ],
      "stateMutability": "view",
      "type": "function"
    },
    {
      "inputs": [],
      "name": "MIN_PRICE",
      "outputs": [
        {
          "internalType": "uint256",
          "name": "",
          "type": "uint256"
        }
      ],
      "stateMutability": "view",
      "type": "function"
    },
    {
      "inputs": [],
      "name": "PRICE_CHANGE_THRESHOLD",
      "outputs": [
        {
          "internalType": "uint256",
          "name": "",
          "type": "uint256"
        }
      ],
      "stateMutability": "view",
      "type": "function"
    },
    {
      "inputs": [
        {
          "internalType": "int256",
          "name": "_emergencyPrice",
          "type": "int256"
        }
      ],
      "name": "activateEmergencyMode",
      "outputs": [],
      "stateMutability": "nonpayable",
      "type": "function"
    },
    {
      "inputs": [
        {
          "internalType": "address",
          "name": "feeder",
          "type": "address"
        }
      ],
      "name": "addPriceFeeder",
      "outputs": [],
      "stateMutability": "nonpayable",
      "type": "function"
    },
    {
      "inputs": [
        {
          "internalType": "int256[]",
          "name": "prices",
          "type": "int256[]"
        },
        {
          "internalType": "uint256[]",
          "name": "timestamps",
          "type": "uint256[]"
        }
      ],
      "name": "batchUpdatePrices",
      "outputs": [],
      "stateMutability": "nonpayable",
      "type": "function"
    },
    {
      "inputs": [],
      "name": "currentRoundId",
      "outputs": [
        {
          "internalType": "uint80",
          "name": "",
          "type": "uint80"
        }
      ],
      "stateMutability": "view",
      "type": "function"
    },
    {
      "inputs": [],
      "name": "deactivateEmergencyMode",
      "outputs": [],
      "stateMutability": "nonpayable",
      "type": "function"
    },
    {
      "inputs": [],
      "name": "decimals",
      "outputs": [
        {
          "internalType": "uint8",
          "name": "",
          "type": "uint8"
        }
      ],
      "stateMutability": "view",
      "type": "function"
    },
    {
      "inputs": [
        {
          "internalType": "uint256",
          "name": "dollarPrice",
          "type": "uint256"
        },
        {
          "internalType": "uint256",
          "name": "cents",
          "type": "uint256"
        }
      ],
      "name": "dollarToWei",
      "outputs": [
        {
          "internalType": "int256",
          "name": "",
          "type": "int256"
        }
      ],
      "stateMutability": "pure",
      "type": "function"
    },
    {
      "inputs": [],
      "name": "emergencyMode",
      "outputs": [
        {
          "internalType": "bool",
          "name": "",
          "type": "bool"
        }
      ],
      "stateMutability": "view",
      "type": "function"
    },
    {
      "inputs": [],
      "name": "emergencyPrice",
      "outputs": [
        {
          "internalType": "int256",
          "name": "",
          "type": "int256"
        }
      ],
      "stateMutability": "view",
      "type": "function"
    },
    {
      "inputs": [],
      "name": "getFormattedPrice",
      "outputs": [
        {
          "internalType": "string",
          "name": "priceFormatted",
          "type": "string"
        },
        {
          "internalType": "int256",
          "name": "rawPrice",
          "type": "int256"
        }
      ],
      "stateMutability": "view",
      "type": "function"
    },
    {
      "inputs": [
        {
          "internalType": "uint256",
          "name": "count",
          "type": "uint256"
        }
      ],
      "name": "getPriceHistory",
      "outputs": [
        {
          "components": [
            {
              "internalType": "uint80",
              "name": "roundId",
              "type": "uint80"
            },
            {
              "internalType": "int256",
              "name": "answer",
              "type": "int256"
            },
            {
              "internalType": "uint256",
              "name": "startedAt",
              "type": "uint256"
            },
            {
              "internalType": "uint256",
              "name": "updatedAt",
              "type": "uint256"
            },
            {
              "internalType": "uint80",
              "name": "answeredInRound",
              "type": "uint80"
            },
            {
              "internalType": "bool",
              "name": "isValid",
              "type": "bool"
            }
          ],
          "internalType": "struct LTCPriceOracle.RoundData[]",
          "name": "",
          "type": "tuple[]"
        }
      ],
      "stateMutability": "view",
      "type": "function"
    },
    {
      "inputs": [],
      "name": "getPriceStatus",
      "outputs": [
        {
          "internalType": "int256",
          "name": "currentPrice",
          "type": "int256"
        },
        {
          "internalType": "uint256",
          "name": "lastUpdate",
          "type": "uint256"
        },
        {
          "internalType": "uint256",
          "name": "priceAge",
          "type": "uint256"
        },
        {
          "internalType": "bool",
          "name": "isValid",
          "type": "bool"
        },
        {
          "internalType": "bool",
          "name": "inEmergencyMode",
          "type": "bool"
        },
        {
          "internalType": "uint80",
          "name": "totalRounds",
          "type": "uint80"
        }
      ],
      "stateMutability": "view",
      "type": "function"
    },
    {
      "inputs": [
        {
          "internalType": "uint80",
          "name": "_roundId",
          "type": "uint80"
        }
      ],
      "name": "getRoundData",
      "outputs": [
        {
          "internalType": "uint80",
          "name": "roundId",
          "type": "uint80"
        },
        {
          "internalType": "int256",
          "name": "answer",
          "type": "int256"
        },
        {
          "internalType": "uint256",
          "name": "startedAt",
          "type": "uint256"
        },
        {
          "internalType": "uint256",
          "name": "updatedAt",
          "type": "uint256"
        },
        {
          "internalType": "uint80",
          "name": "answeredInRound",
          "type": "uint80"
        }
      ],
      "stateMutability": "view",
      "type": "function"
    },
    {
      "inputs": [],
      "name": "latestRoundData",
      "outputs": [
        {
          "internalType": "uint80",
          "name": "roundId",
          "type": "uint80"
        },
        {
          "internalType": "int256",
          "name": "answer",
          "type": "int256"
        },
        {
          "internalType": "uint256",
          "name": "startedAt",
          "type": "uint256"
        },
        {
          "internalType": "uint256",
          "name": "updatedAt",
          "type": "uint256"
        },
        {
          "internalType": "uint80",
          "name": "answeredInRound",
          "type": "uint80"
        }
      ],
      "stateMutability": "view",
      "type": "function"
    },
    {
      "inputs": [],
      "name": "owner",
      "outputs": [
        {
          "internalType": "address",
          "name": "",
          "type": "address"
        }
      ],
      "stateMutability": "view",
      "type": "function"
    },
    {
      "inputs": [
        {
          "internalType": "address",
          "name": "",
          "type": "address"
        }
      ],
      "name": "priceFeeder",
      "outputs": [
        {
          "internalType": "bool",
          "name": "",
          "type": "bool"
        }
      ],
      "stateMutability": "view",
      "type": "function"
    },
    {
      "inputs": [
        {
          "internalType": "address",
          "name": "feeder",
          "type": "address"
        }
      ],
      "name": "removePriceFeeder",
      "outputs": [],
      "stateMutability": "nonpayable",
      "type": "function"
    },
    {
      "inputs": [],
      "name": "renounceOwnership",
      "outputs": [],
      "stateMutability": "nonpayable",
      "type": "function"
    },
    {
      "inputs": [
        {
          "internalType": "uint80",
          "name": "",
          "type": "uint80"
        }
      ],
      "name": "rounds",
      "outputs": [
        {
          "internalType": "uint80",
          "name": "roundId",
          "type": "uint80"
        },
        {
          "internalType": "int256",
          "name": "answer",
          "type": "int256"
        },
        {
          "internalType": "uint256",
          "name": "startedAt",
          "type": "uint256"
        },
        {
          "internalType": "uint256",
          "name": "updatedAt",
          "type": "uint256"
        },
        {
          "internalType": "uint80",
          "name": "answeredInRound",
          "type": "uint80"
        },
        {
          "internalType": "bool",
          "name": "isValid",
          "type": "bool"
        }
      ],
      "stateMutability": "view",
      "type": "function"
    },
    {
      "inputs": [
        {
          "internalType": "address",
          "name": "newOwner",
          "type": "address"
        }
      ],
      "name": "transferOwnership",
      "outputs": [],
      "stateMutability": "nonpayable",
      "type": "function"
    },
    {
      "inputs": [
        {
          "internalType": "int256",
          "name": "newPrice",
          "type": "int256"
        }
      ],
      "name": "updatePrice",
      "outputs": [],
      "stateMutability": "nonpayable",
      "type": "function"
    },
    {
      "inputs": [
        {
          "internalType": "int256",
          "name": "weiPrice",
          "type": "int256"
        }
      ],
      "name": "weiToDollar",
      "outputs": [
        {
          "internalType": "uint256",
          "name": "dollars",
          "type": "uint256"
        },
        {
          "internalType": "uint256",
          "name": "cents",
          "type": "uint256"
        }
      ],
      "stateMutability": "pure",
      "type": "function"
    }
  ],
  "bytecode": "0x60806040523461043857611d92803803806100198161043c565b9283398101604082820312610438578151602083015190926001600160401b038211610438570181601f82011215610438578051916001600160401b038311610344578260051b9160208061006f81860161043c565b80968152019382010191821161043857602001915b818310610418575050503315610405575f8054336001600160a01b03198216811783556040519290916001600160a01b0316907f8be0079c531659141344cd1fd0a4f28419497f9722a3daafe3b4186f6b6457e09080a36001805560ff19600a5416600a555f8313156103c35750678ac7230489e80000821061038e5769152d02c7e14af6800000821161035857600280546001600160501b031916600117905560405160c081016001600160401b038111828210176103445760409081526001808352602080840186905242848401819052606085018190526080850183905260a0909401829052600580546001600160501b03191690921790915560068590556007839055600892909255600980546001600160581b0319166a01000000000000000000011790556002546001600160501b03165f9081526003909252902060041981016102c3575b505f5b815181101561024c576001906001600160a01b036101f08285610461565b51166101fd575b016101d2565b818060a01b0361020d8285610461565b51165f52600460205260405f208260ff19825416179055818060a01b036102348285610461565b51165f516020611d725f395f51905f525f80a26101f7565b82335f52600460205260405f20600160ff1982541617905560405190335f516020611d725f395f51905f525f80a260018060501b03600254169082524260208301527fc55ba461e0c92000ad10f5e4c13bc371f100bed0e2c38b339e541aaf5ff5239c60403393a36040516118e8908161048a8239f35b60055481546001600160501b039182166001600160501b031991821617835560065460018401556007546002840155600854600384015560098054600490940180549490931691841682178355546aff0000000000000000000060ff605092831c16151590911b166001600160581b0319909316179190911790555f6101cf565b634e487b7160e01b5f52604160045260245ffd5b60405162461bcd60e51b815260206004820152600e60248201526d0a0e4d2c6ca40e8dede40d0d2ced60931b6044820152606490fd5b60405162461bcd60e51b815260206004820152600d60248201526c507269636520746f6f206c6f7760981b6044820152606490fd5b62461bcd60e51b815260206004820152601660248201527f5072696365206d75737420626520706f736974697665000000000000000000006044820152606490fd5b631e4fbdf760e01b5f525f60045260245ffd5b82516001600160a01b038116810361043857815260209283019201610084565b5f80fd5b6040519190601f01601f191682016001600160401b0381118382101761034457604052565b80518210156104755760209160051b010190565b634e487b7160e01b5f52603260045260245ffdfe6080806040526004361015610012575f80fd5b5f3560e01c90816301c11d96146115805750806308db3305146114dc5780630905f560146114ba5780632ede662f14611433578063313ce56714611418578063715018a6146113c157806372f34208146112c757806377d21268146112ab57806379a68c6c146111a85780637f4e8ee81461118b5780638531d6651461114a5780638d367fc014610dc35780638da5cb5b14610d9c57806391ac156414610d2657806399b20eaf14610bdd5780639a6fc8f514610a7a5780639cbe5efd14610a545780639d7f7e8614610a38578063ad9f20a614610a16578063bca5473014610939578063d4c19bda146105b3578063ecef6cff1461051a578063f2fde38b14610491578063fa43bddf14610426578063fd1a98a5146101935763feaf968c1461013a575f80fd5b3461018f575f36600319011261018f5761018b61015561172b565b604080516001600160501b03968716815260208101959095528401929092526060830152909116608082015290819060a0820190565b0390f35b5f80fd5b3461018f57602036600319011261018f5760043580156103e857606481116103b1576002546001600160501b031690818111156103ac5750805b6101d6816116ff565b6040519290601f01601f1916830167ffffffffffffffff81118482101761039857604052818352601f19610209836116ff565b015f5b8181106103615750505f5b8281106102ac57836040518091602082016020835281518091526020604084019201905f5b81811061024a575050500390f35b91935091602060c060019260a087516001600160501b038151168352848101518584015260408101516040840152606081015160608401526001600160501b0360808201511660808401520151151560a082015201940191019184939261023c565b6001600160501b0381168203906001600160501b03821161034d576001600160501b03600192165f52600360205260405f2060ff60046102ea6115d3565b926001600160501b038154168452858101546020850152600281015460408501526003810154606085015201546001600160501b038116608084015260501c16151560a082015261033b8287611717565b526103468186611717565b5001610217565b634e487b7160e01b5f52601160045260245ffd5b60209061036c6115d3565b5f81525f838201525f60408201525f60608201525f60808201525f60a08201528282880101520161020c565b634e487b7160e01b5f52604160045260245ffd5b6101cd565b60405162461bcd60e51b815260206004820152600f60248201526e436f756e7420746f6f206c6172676560881b6044820152606490fd5b60405162461bcd60e51b8152602060048201526016602482015275436f756e74206d75737420626520706f73697469766560501b6044820152606490fd5b3461018f57604036600319011261018f57600435602435670de0b6b3a7640000820291808304670de0b6b3a7640000149015171561034d57662386f26fc10000810290808204662386f26fc10000149015171561034d57810180911161034d57602090604051908152f35b3461018f57602036600319011261018f576004356001600160a01b0381169081900361018f576104bf61180d565b8015610507575f80546001600160a01b03198116831782556001600160a01b0316907f8be0079c531659141344cd1fd0a4f28419497f9722a3daafe3b4186f6b6457e09080a3005b631e4fbdf760e01b5f525f60045260245ffd5b3461018f575f36600319011261018f5760c060ff600a5416805f146105aa57600b54905b6008549061054c8242611634565b60ff60095460501c16908161059d575b81610594575b6001600160501b03600254169360405195865260208601526040850152151560608401521515608083015260a0820152f35b82159150610562565b610e10811115915061055c565b6006549061053e565b3461018f57602036600319011261018f57600435335f52600460205260ff60405f205416156108f4576105e4611833565b6105ef5f8213611641565b610603678ac7230489e80000821015611686565b61061969152d02c7e14af68000008211156116c2565b60ff600a54166108a15760ff60095460501c1680610896575b6107bf575b61077b6002546001600160501b03610650818316611617565b1680916001600160501b0319161760025561075c61066c6115d3565b918083526020830192858452604081014281526060820190428252610737608084019685885260a0850195600187525f52600360205261071b6001600160501b0360048160405f209851169382851683198a541617895551958660018a015551968760028a0155519788600382015501995116966001600160501b0388166001600160501b03198b5416178a5551151580999081549060ff60501b90151560501b169060ff60501b1916179055565b6001600160501b03166001600160501b03196005541617600555565b6006556007556008556001600160501b03166001600160501b03196009541617600955565b6009805460ff60501b191691151560501b60ff60501b16919091179055565b6001600160501b03600254166040519182524260208301527fc55ba461e0c92000ad10f5e4c13bc371f100bed0e2c38b339e541aaf5ff5239c60403393a360018055005b6103e86107ce8260065461186b565b1115610637576040518181526040602082015260166040820152755072696365206368616e676520746f6f206c6172676560501b60608201527f64ce738f6e1c7b6054303111256b0648b90044c5913a474edebff54d83b121d160803392a25f546001600160a01b031633146106375760405162461bcd60e51b815260206004820152602a60248201527f4c61726765207072696365206368616e6765207265717569726573206f776e656044820152691c88185c1c1c9bdd985b60b21b6064820152608490fd5b505f60065413610632565b60405162461bcd60e51b815260206004820152602560248201527f43616e6e6f742075706461746520707269636520696e20656d657267656e6379604482015264206d6f646560d81b6064820152608490fd5b60405162461bcd60e51b815260206004820152601b60248201527f4e6f7420617574686f72697a65642070726963652066656564657200000000006044820152606490fd5b3461018f57602036600319011261018f5760043561095561180d565b6109605f8213611641565b610974678ac7230489e80000821015611686565b61098a69152d02c7e14af68000008211156116c2565b600a5460ff81166109d1577f63a9b5565ea92409b6e53cad850ce5d9539155ae733a799c695eaab82be31a8691600160209260ff191617600a5580600b55604051908152a1005b60405162461bcd60e51b815260206004820152601960248201527f416c726561647920696e20656d657267656e6379206d6f6465000000000000006044820152606490fd5b3461018f575f36600319011261018f576020604051678ac7230489e800008152f35b3461018f575f36600319011261018f576020604051610e108152f35b3461018f575f36600319011261018f5760206001600160501b0360025416604051908152f35b3461018f57602036600319011261018f576004356001600160501b03811680910361018f5780151580610bc8575b15610b91575f52600360205260405f20610ac06115d3565b6001600160501b0382541681526001820154906020810191825260028301549260408201938452600460038201549160608401928352015460ff60808401916001600160501b038116835260501c1615801560a0850152610b575791519251935190519151604080516001600160501b0395861681526020810196909652850191909152606084019190915216608082015260a090f35b60405162461bcd60e51b8152602060048201526012602482015271496e76616c696420726f756e64206461746160701b6044820152606490fd5b60405162461bcd60e51b815260206004820152600f60248201526e149bdd5b99081b9bdd08199bdd5b99608a1b6044820152606490fd5b506001600160501b0360025416811115610aa8565b3461018f575f36600319011261018f57610bf561180d565b600a5460ff811615610ce95760ff60095460501c1615610ca457610e10610c1e60085442611634565b11610c545760ff1916600a555f600b557f70b9dcaceb756943ac1a4f48b8df9ea82fbb012b87e405cba4ed77d1ded0df415f80a1005b60405162461bcd60e51b815260206004820152602260248201527f4c617465737420707269636520746f6f206f6c642c20757064617465206669726044820152611cdd60f21b6064820152608490fd5b60405162461bcd60e51b815260206004820152601d60248201527f4e6f2076616c6964207072696365206461746120746f20726573756d650000006044820152606490fd5b60405162461bcd60e51b81526020600482015260156024820152744e6f7420696e20656d657267656e6379206d6f646560581b6044820152606490fd5b3461018f57602036600319011261018f576004355f8112610d6657604090662386f26fc10000670de0b6b3a7640000835192818104845206046020820152f35b60405162461bcd60e51b815260206004820152600e60248201526d4e6567617469766520707269636560901b6044820152606490fd5b3461018f575f36600319011261018f575f546040516001600160a01b039091168152602090f35b3461018f57604036600319011261018f5760043567ffffffffffffffff811161018f57610df49036906004016115a2565b9060243567ffffffffffffffff811161018f57610e159036906004016115a2565b91610e1e61180d565b610e26611833565b82840361110d5783156110d9575f5b848110610f00576001600160501b03600254165f52600360205260405f2080600503610e62575b60018055005b60ff600482610e946001600160501b03610efa9554166001600160501b03166001600160501b03196005541617600555565b60018101546006556002810154600755600381015460085501610ed76001600160501b038254166001600160501b03166001600160501b03196009541617600955565b5460501c166009549060ff60501b90151560501b169060ff60501b191617600955565b80610e5c565b5f610f0c8287856115f3565b3513156110a45742610f1f8286866115f3565b351161106c576001906110106002546001600160501b03610f41818316611617565b1680916001600160501b03191617600255610f5d8389876115f3565b35906001600160501b03806004610f75878c8c6115f3565b35610f81888d8d6115f3565b35610f8a6115d3565b91868352602083019788526040830190815260608301918252608083019787895260a08401978c89525f526003602052858060405f20955116168619855416178455518b84015551600283015551600382015501935116166001600160501b031983541617825551151581549060ff60501b90151560501b169060ff60501b1916179055565b6001600160501b03600254166110278288866115f3565b35906110348388886115f3565b3560405192835260208301527fc55ba461e0c92000ad10f5e4c13bc371f100bed0e2c38b339e541aaf5ff5239c60403393a301610e35565b60405162461bcd60e51b815260206004820152601060248201526f04675747572652074696d657374616d760841b6044820152606490fd5b60405162461bcd60e51b815260206004820152600d60248201526c496e76616c696420707269636560981b6044820152606490fd5b60405162461bcd60e51b815260206004820152600c60248201526b456d7074792061727261797360a01b6044820152606490fd5b60405162461bcd60e51b8152602060048201526015602482015274082e4e4c2f240d8cadccee8d040dad2e6dac2e8c6d605b1b6044820152606490fd5b3461018f57602036600319011261018f576004356001600160a01b0381169081900361018f575f526004602052602060ff60405f2054166040519015158152f35b3461018f575f36600319011261018f576020600b54604051908152f35b3461018f57602036600319011261018f576004356001600160a01b0381169081900361018f576111d661180d565b805f52600460205260ff60405f20541615611271575f546001600160a01b0316811461123657805f52600460205260405f2060ff1981541690557f4d4e6c140fba47f554ec7a4d922d452ab7324313b6f6d83ca679ee91ee8e7dbb5f80a2005b60405162461bcd60e51b815260206004820152601360248201527221b0b73737ba103932b6b7bb329037bbb732b960691b6044820152606490fd5b60405162461bcd60e51b81526020600482015260126024820152712737ba103090383934b1b2903332b2b232b960711b6044820152606490fd5b3461018f575f36600319011261018f5760206040516103e88152f35b3461018f57602036600319011261018f576004356001600160a01b0381169081900361018f576112f561180d565b801561138a57805f52600460205260ff60405f20541661134c57805f52600460205260405f20600160ff198254161790557f68240862346bd0f2e60d75837b2effa789fa7f0264b6d1a1ab25f33e01616cc65f80a2005b60405162461bcd60e51b815260206004820152601660248201527520b63932b0b23c903090383934b1b2903332b2b232b960511b6044820152606490fd5b60405162461bcd60e51b815260206004820152600f60248201526e496e76616c6964206164647265737360881b6044820152606490fd5b3461018f575f36600319011261018f576113d961180d565b5f80546001600160a01b0319811682556001600160a01b03167f8be0079c531659141344cd1fd0a4f28419497f9722a3daafe3b4186f6b6457e08280a3005b3461018f575f36600319011261018f57602060405160128152f35b3461018f57602036600319011261018f576004356001600160501b03811680910361018f575f52600360205260c060405f2060ff6001600160501b0382541691600181015490600281015460046003830154920154926040519586526020860152604085015260608401526001600160501b038116608084015260501c16151560a0820152f35b3461018f575f36600319011261018f57602060ff600a54166040519015158152f35b3461018f575f36600319011261018f57600a5460ff161561157857600b545b604051604081019080821067ffffffffffffffff8311176103985760609160405260178152602081017f5573652066726f6e74656e6420666f726d617474696e670000000000000000008152604051938492604084525180928160408601528585015e5f8383018501526020830152601f01601f19168101030190f35b6006546114fb565b3461018f575f36600319011261018f578069152d02c7e14af680000060209252f35b9181601f8401121561018f5782359167ffffffffffffffff831161018f576020808501948460051b01011161018f57565b6040519060c0820182811067ffffffffffffffff82111761039857604052565b91908110156116035760051b0190565b634e487b7160e01b5f52603260045260245ffd5b6001600160501b03166001600160501b03811461034d5760010190565b9190820391821161034d57565b1561164857565b60405162461bcd60e51b81526020600482015260166024820152755072696365206d75737420626520706f73697469766560501b6044820152606490fd5b1561168d57565b60405162461bcd60e51b815260206004820152600d60248201526c507269636520746f6f206c6f7760981b6044820152606490fd5b156116c957565b60405162461bcd60e51b815260206004820152600e60248201526d0a0e4d2c6ca40e8dede40d0d2ced60931b6044820152606490fd5b67ffffffffffffffff81116103985760051b60200190565b80518210156116035760209160051b010190565b60ff600a54166117f35760095460ff8160501c16156117b857600854610e106117548242611634565b1161177e576001600160501b036005541691600654936001600160501b0360075494959493921690565b60405162461bcd60e51b8152602060048201526012602482015271141c9a58d94819185d18481d1bdbc81bdb1960721b6044820152606490fd5b60405162461bcd60e51b81526020600482015260136024820152724e6f2076616c6964207072696365206461746160681b6044820152606490fd5b6001600160501b0360025416600b54918192914291429190565b5f546001600160a01b0316330361182057565b63118cdaa760e01b5f523360045260245ffd5b600260015414611844576002600155565b633ee5aeb560e01b5f5260045ffd5b81810392915f13801582851316918412161761034d57565b9081156118ac57818181131561189e579061188591611853565b612710810290808204612710149015171561034d570490565b6118a791611853565b611885565b50505f9056fea264697066735822122036e495053961f8f8cfc46ad1183cc3cb31b3da26b88bd9d73a1665c6bd8df4a364736f6c634300081c003368240862346bd0f2e60d75837b2effa789fa7f0264b6d1a1ab25f33e01616cc6",
  "linkReferences": {},
  "deployedLinkReferences": {},
  "immutableReferences": {},
  "inputSourceName": "project/contracts/oracles/LTCPriceOracle.sol",
  "buildInfoId": "solc-0_8_28-42c5fc6a35699cbb63d32838de3326a4b3d74aad"
}