{
  "_format": "hh3-artifact-1",
  "contractName": "MultiLeverageToken",
  "sourceName": "contracts/tokens/MultiLeverageToken.sol",
  "abi": [
    {
      "inputs": [
        {
          "internalType": "string",
          "name": "staticMetadataURI",
          "type": "string"
        }
      ],
      "stateMutability": "nonpayable",
      "type": "constructor"
    },
    {
      "inputs": [
        {
          "internalType": "address",
          "name": "sender",
          "type": "address"
        },
        {
          "internalType": "uint256",
          "name": "balance",
          "type": "uint256"
        },
        {
          "internalType": "uint256",
          "name": "needed",
          "type": "uint256"
        },
        {
          "internalType": "uint256",
          "name": "tokenId",
          "type": "uint256"
        }
      ],
      "name": "ERC1155InsufficientBalance",
      "type": "error"
    },
    {
      "inputs": [
        {
          "internalType": "address",
          "name": "approver",
          "type": "address"
        }
      ],
      "name": "ERC1155InvalidApprover",
      "type": "error"
    },
    {
      "inputs": [
        {
          "internalType": "uint256",
          "name": "idsLength",
          "type": "uint256"
        },
        {
          "internalType": "uint256",
          "name": "valuesLength",
          "type": "uint256"
        }
      ],
      "name": "ERC1155InvalidArrayLength",
      "type": "error"
    },
    {
      "inputs": [
        {
          "internalType": "address",
          "name": "operator",
          "type": "address"
        }
      ],
      "name": "ERC1155InvalidOperator",
      "type": "error"
    },
    {
      "inputs": [
        {
          "internalType": "address",
          "name": "receiver",
          "type": "address"
        }
      ],
      "name": "ERC1155InvalidReceiver",
      "type": "error"
    },
    {
      "inputs": [
        {
          "internalType": "address",
          "name": "sender",
          "type": "address"
        }
      ],
      "name": "ERC1155InvalidSender",
      "type": "error"
    },
    {
      "inputs": [
        {
          "internalType": "address",
          "name": "operator",
          "type": "address"
        },
        {
          "internalType": "address",
          "name": "owner",
          "type": "address"
        }
      ],
      "name": "ERC1155MissingApprovalForAll",
      "type": "error"
    },
    {
      "inputs": [
        {
          "internalType": "address",
          "name": "owner",
          "type": "address"
        }
      ],
      "name": "OwnableInvalidOwner",
      "type": "error"
    },
    {
      "inputs": [
        {
          "internalType": "address",
          "name": "account",
          "type": "address"
        }
      ],
      "name": "OwnableUnauthorizedAccount",
      "type": "error"
    },
    {
      "anonymous": false,
      "inputs": [
        {
          "indexed": true,
          "internalType": "address",
          "name": "account",
          "type": "address"
        },
        {
          "indexed": true,
          "internalType": "address",
          "name": "operator",
          "type": "address"
        },
        {
          "indexed": false,
          "internalType": "bool",
          "name": "approved",
          "type": "bool"
        }
      ],
      "name": "ApprovalForAll",
      "type": "event"
    },
    {
      "anonymous": false,
      "inputs": [
        {
          "indexed": false,
          "internalType": "string",
          "name": "oldURI",
          "type": "string"
        },
        {
          "indexed": false,
          "internalType": "string",
          "name": "newURI",
          "type": "string"
        }
      ],
      "name": "BaseURIUpdated",
      "type": "event"
    },
    {
      "anonymous": false,
      "inputs": [
        {
          "indexed": true,
          "internalType": "address",
          "name": "oldCustodian",
          "type": "address"
        },
        {
          "indexed": true,
          "internalType": "address",
          "name": "newCustodian",
          "type": "address"
        }
      ],
      "name": "CustodianChanged",
      "type": "event"
    },
    {
      "anonymous": false,
      "inputs": [
        {
          "indexed": true,
          "internalType": "address",
          "name": "previousOwner",
          "type": "address"
        },
        {
          "indexed": true,
          "internalType": "address",
          "name": "newOwner",
          "type": "address"
        }
      ],
      "name": "OwnershipTransferred",
      "type": "event"
    },
    {
      "anonymous": false,
      "inputs": [
        {
          "indexed": true,
          "internalType": "uint256",
          "name": "tokenId",
          "type": "uint256"
        },
        {
          "indexed": false,
          "internalType": "enum LeverageType",
          "name": "leverage",
          "type": "uint8"
        },
        {
          "indexed": false,
          "internalType": "uint256",
          "name": "mintPrice",
          "type": "uint256"
        }
      ],
      "name": "StaticTokenInitialized",
      "type": "event"
    },
    {
      "anonymous": false,
      "inputs": [
        {
          "indexed": true,
          "internalType": "uint256",
          "name": "tokenId",
          "type": "uint256"
        },
        {
          "indexed": false,
          "internalType": "enum LeverageType",
          "name": "leverage",
          "type": "uint8"
        },
        {
          "indexed": false,
          "internalType": "uint256",
          "name": "mintPrice",
          "type": "uint256"
        },
        {
          "indexed": false,
          "internalType": "uint256",
          "name": "timestamp",
          "type": "uint256"
        }
      ],
      "name": "TokenCreated",
      "type": "event"
    },
    {
      "anonymous": false,
      "inputs": [
        {
          "indexed": true,
          "internalType": "address",
          "name": "from",
          "type": "address"
        },
        {
          "indexed": true,
          "internalType": "uint256",
          "name": "tokenId",
          "type": "uint256"
        },
        {
          "indexed": false,
          "internalType": "uint256",
          "name": "amount",
          "type": "uint256"
        }
      ],
      "name": "TokensBurned",
      "type": "event"
    },
    {
      "anonymous": false,
      "inputs": [
        {
          "indexed": true,
          "internalType": "address",
          "name": "to",
          "type": "address"
        },
        {
          "indexed": true,
          "internalType": "uint256",
          "name": "tokenId",
          "type": "uint256"
        },
        {
          "indexed": false,
          "internalType": "uint256",
          "name": "amount",
          "type": "uint256"
        }
      ],
      "name": "TokensMinted",
      "type": "event"
    },
    {
      "anonymous": false,
      "inputs": [
        {
          "indexed": true,
          "internalType": "address",
          "name": "operator",
          "type": "address"
        },
        {
          "indexed": true,
          "internalType": "address",
          "name": "from",
          "type": "address"
        },
        {
          "indexed": true,
          "internalType": "address",
          "name": "to",
          "type": "address"
        },
        {
          "indexed": false,
          "internalType": "uint256[]",
          "name": "ids",
          "type": "uint256[]"
        },
        {
          "indexed": false,
          "internalType": "uint256[]",
          "name": "values",
          "type": "uint256[]"
        }
      ],
      "name": "TransferBatch",
      "type": "event"
    },
    {
      "anonymous": false,
      "inputs": [
        {
          "indexed": true,
          "internalType": "address",
          "name": "operator",
          "type": "address"
        },
        {
          "indexed": true,
          "internalType": "address",
          "name": "from",
          "type": "address"
        },
        {
          "indexed": true,
          "internalType": "address",
          "name": "to",
          "type": "address"
        },
        {
          "indexed": false,
          "internalType": "uint256",
          "name": "id",
          "type": "uint256"
        },
        {
          "indexed": false,
          "internalType": "uint256",
          "name": "value",
          "type": "uint256"
        }
      ],
      "name": "TransferSingle",
      "type": "event"
    },
    {
      "anonymous": false,
      "inputs": [
        {
          "indexed": false,
          "internalType": "string",
          "name": "value",
          "type": "string"
        },
        {
          "indexed": true,
          "internalType": "uint256",
          "name": "id",
          "type": "uint256"
        }
      ],
      "name": "URI",
      "type": "event"
    },
    {
      "inputs": [],
      "name": "MAX_STATIC_TOKEN_ID",
      "outputs": [
        {
          "internalType": "uint256",
          "name": "",
          "type": "uint256"
        }
      ],
      "stateMutability": "view",
      "type": "function"
    },
    {
      "inputs": [],
      "name": "PRECISION_DECIMALS",
      "outputs": [
        {
          "internalType": "uint8",
          "name": "",
          "type": "uint8"
        }
      ],
      "stateMutability": "view",
      "type": "function"
    },
    {
      "inputs": [],
      "name": "PRECISION_UNIT",
      "outputs": [
        {
          "internalType": "uint256",
          "name": "",
          "type": "uint256"
        }
      ],
      "stateMutability": "view",
      "type": "function"
    },
    {
      "inputs": [
        {
          "internalType": "address",
          "name": "account",
          "type": "address"
        },
        {
          "internalType": "uint256",
          "name": "id",
          "type": "uint256"
        }
      ],
      "name": "balanceOf",
      "outputs": [
        {
          "internalType": "uint256",
          "name": "",
          "type": "uint256"
        }
      ],
      "stateMutability": "view",
      "type": "function"
    },
    {
      "inputs": [
        {
          "internalType": "address[]",
          "name": "accounts",
          "type": "address[]"
        },
        {
          "internalType": "uint256[]",
          "name": "ids",
          "type": "uint256[]"
        }
      ],
      "name": "balanceOfBatch",
      "outputs": [
        {
          "internalType": "uint256[]",
          "name": "",
          "type": "uint256[]"
        }
      ],
      "stateMutability": "view",
      "type": "function"
    },
    {
      "inputs": [
        {
          "internalType": "address",
          "name": "account",
          "type": "address"
        },
        {
          "internalType": "uint256",
          "name": "id",
          "type": "uint256"
        }
      ],
      "name": "balanceOfInWei",
      "outputs": [
        {
          "internalType": "uint256",
          "name": "",
          "type": "uint256"
        }
      ],
      "stateMutability": "view",
      "type": "function"
    },
    {
      "inputs": [],
      "name": "baseURI",
      "outputs": [
        {
          "internalType": "string",
          "name": "",
          "type": "string"
        }
      ],
      "stateMutability": "view",
      "type": "function"
    },
    {
      "inputs": [
        {
          "internalType": "address",
          "name": "from",
          "type": "address"
        },
        {
          "internalType": "uint256",
          "name": "tokenId",
          "type": "uint256"
        },
        {
          "internalType": "uint256",
          "name": "amountInWei",
          "type": "uint256"
        }
      ],
      "name": "burn",
      "outputs": [],
      "stateMutability": "nonpayable",
      "type": "function"
    },
    {
      "inputs": [
        {
          "internalType": "uint256",
          "name": "tokenId",
          "type": "uint256"
        },
        {
          "internalType": "uint256",
          "name": "currentPriceInWei",
          "type": "uint256"
        }
      ],
      "name": "calculateTokenValue",
      "outputs": [
        {
          "internalType": "uint256",
          "name": "",
          "type": "uint256"
        }
      ],
      "stateMutability": "view",
      "type": "function"
    },
    {
      "inputs": [
        {
          "internalType": "address",
          "name": "to",
          "type": "address"
        },
        {
          "internalType": "enum LeverageType",
          "name": "leverage",
          "type": "uint8"
        },
        {
          "internalType": "uint256",
          "name": "mintPriceInWei",
          "type": "uint256"
        },
        {
          "internalType": "uint256",
          "name": "amountInWei",
          "type": "uint256"
        }
      ],
      "name": "createAndMintDynamicToken",
      "outputs": [
        {
          "internalType": "uint256",
          "name": "tokenId",
          "type": "uint256"
        }
      ],
      "stateMutability": "nonpayable",
      "type": "function"
    },
    {
      "inputs": [
        {
          "internalType": "enum LeverageType",
          "name": "leverage",
          "type": "uint8"
        },
        {
          "internalType": "uint256",
          "name": "mintPriceInWei",
          "type": "uint256"
        }
      ],
      "name": "createDynamicLeverageToken",
      "outputs": [
        {
          "internalType": "uint256",
          "name": "tokenId",
          "type": "uint256"
        }
      ],
      "stateMutability": "nonpayable",
      "type": "function"
    },
    {
      "inputs": [],
      "name": "custodian",
      "outputs": [
        {
          "internalType": "address",
          "name": "",
          "type": "address"
        }
      ],
      "stateMutability": "view",
      "type": "function"
    },
    {
      "inputs": [
        {
          "internalType": "enum LeverageType",
          "name": "leverage",
          "type": "uint8"
        },
        {
          "internalType": "uint256",
          "name": "mintPriceInWei",
          "type": "uint256"
        }
      ],
      "name": "findDynamicTokenId",
      "outputs": [
        {
          "internalType": "uint256",
          "name": "",
          "type": "uint256"
        }
      ],
      "stateMutability": "view",
      "type": "function"
    },
    {
      "inputs": [
        {
          "internalType": "enum LeverageType",
          "name": "leverage",
          "type": "uint8"
        },
        {
          "internalType": "uint256",
          "name": "mintPriceInWei",
          "type": "uint256"
        }
      ],
      "name": "findStaticTokenId",
      "outputs": [
        {
          "internalType": "uint256",
          "name": "",
          "type": "uint256"
        }
      ],
      "stateMutability": "view",
      "type": "function"
    },
    {
      "inputs": [
        {
          "internalType": "address",
          "name": "account",
          "type": "address"
        },
        {
          "internalType": "uint256",
          "name": "id",
          "type": "uint256"
        }
      ],
      "name": "formatBalance",
      "outputs": [
        {
          "internalType": "string",
          "name": "",
          "type": "string"
        }
      ],
      "stateMutability": "view",
      "type": "function"
    },
    {
      "inputs": [
        {
          "internalType": "enum LeverageType",
          "name": "leverage",
          "type": "uint8"
        },
        {
          "internalType": "uint256",
          "name": "mintPrice",
          "type": "uint256"
        }
      ],
      "name": "generateTokenName",
      "outputs": [
        {
          "internalType": "string",
          "name": "",
          "type": "string"
        }
      ],
      "stateMutability": "pure",
      "type": "function"
    },
    {
      "inputs": [],
      "name": "getAllStaticTokens",
      "outputs": [
        {
          "internalType": "uint256[]",
          "name": "tokenIds",
          "type": "uint256[]"
        },
        {
          "internalType": "enum LeverageType[]",
          "name": "leverageTypes",
          "type": "uint8[]"
        },
        {
          "internalType": "uint256[]",
          "name": "mintPrices",
          "type": "uint256[]"
        }
      ],
      "stateMutability": "view",
      "type": "function"
    },
    {
      "inputs": [
        {
          "internalType": "uint256",
          "name": "tokenId",
          "type": "uint256"
        }
      ],
      "name": "getMintPrice",
      "outputs": [
        {
          "internalType": "uint256",
          "name": "",
          "type": "uint256"
        }
      ],
      "stateMutability": "view",
      "type": "function"
    },
    {
      "inputs": [],
      "name": "getNextTokenId",
      "outputs": [
        {
          "internalType": "uint256",
          "name": "",
          "type": "uint256"
        }
      ],
      "stateMutability": "view",
      "type": "function"
    },
    {
      "inputs": [
        {
          "internalType": "uint256",
          "name": "tokenId",
          "type": "uint256"
        }
      ],
      "name": "getTokenInfo",
      "outputs": [
        {
          "internalType": "enum LeverageType",
          "name": "leverage",
          "type": "uint8"
        },
        {
          "internalType": "uint256",
          "name": "mintPrice",
          "type": "uint256"
        },
        {
          "internalType": "uint256",
          "name": "creationTime",
          "type": "uint256"
        },
        {
          "internalType": "string",
          "name": "tokenName",
          "type": "string"
        },
        {
          "internalType": "bool",
          "name": "isStatic",
          "type": "bool"
        }
      ],
      "stateMutability": "view",
      "type": "function"
    },
    {
      "inputs": [
        {
          "internalType": "uint256",
          "name": "startId",
          "type": "uint256"
        },
        {
          "internalType": "uint256",
          "name": "endId",
          "type": "uint256"
        }
      ],
      "name": "getTokensByRange",
      "outputs": [
        {
          "internalType": "uint256[]",
          "name": "tokenIds",
          "type": "uint256[]"
        },
        {
          "internalType": "enum LeverageType[]",
          "name": "leverages",
          "type": "uint8[]"
        },
        {
          "internalType": "uint256[]",
          "name": "mintPrices",
          "type": "uint256[]"
        },
        {
          "internalType": "bool[]",
          "name": "isStaticFlags",
          "type": "bool[]"
        }
      ],
      "stateMutability": "view",
      "type": "function"
    },
    {
      "inputs": [
        {
          "internalType": "address",
          "name": "account",
          "type": "address"
        },
        {
          "internalType": "address",
          "name": "operator",
          "type": "address"
        }
      ],
      "name": "isApprovedForAll",
      "outputs": [
        {
          "internalType": "bool",
          "name": "",
          "type": "bool"
        }
      ],
      "stateMutability": "view",
      "type": "function"
    },
    {
      "inputs": [
        {
          "internalType": "uint256",
          "name": "tokenId",
          "type": "uint256"
        }
      ],
      "name": "isDynamicToken",
      "outputs": [
        {
          "internalType": "bool",
          "name": "",
          "type": "bool"
        }
      ],
      "stateMutability": "view",
      "type": "function"
    },
    {
      "inputs": [
        {
          "internalType": "uint256",
          "name": "tokenId",
          "type": "uint256"
        }
      ],
      "name": "isStaticToken",
      "outputs": [
        {
          "internalType": "bool",
          "name": "",
          "type": "bool"
        }
      ],
      "stateMutability": "view",
      "type": "function"
    },
    {
      "inputs": [
        {
          "internalType": "address",
          "name": "to",
          "type": "address"
        },
        {
          "internalType": "uint256",
          "name": "tokenId",
          "type": "uint256"
        },
        {
          "internalType": "uint256",
          "name": "amountInWei",
          "type": "uint256"
        }
      ],
      "name": "mintDynamicToken",
      "outputs": [],
      "stateMutability": "nonpayable",
      "type": "function"
    },
    {
      "inputs": [
        {
          "internalType": "address",
          "name": "to",
          "type": "address"
        },
        {
          "internalType": "uint256",
          "name": "tokenId",
          "type": "uint256"
        },
        {
          "internalType": "uint256",
          "name": "amountInWei",
          "type": "uint256"
        }
      ],
      "name": "mintStaticToken",
      "outputs": [],
      "stateMutability": "nonpayable",
      "type": "function"
    },
    {
      "inputs": [
        {
          "internalType": "address",
          "name": "to",
          "type": "address"
        },
        {
          "internalType": "uint256[]",
          "name": "tokenIds",
          "type": "uint256[]"
        },
        {
          "internalType": "uint256[]",
          "name": "amounts",
          "type": "uint256[]"
        }
      ],
      "name": "mintStaticTokenBatch",
      "outputs": [],
      "stateMutability": "nonpayable",
      "type": "function"
    },
    {
      "inputs": [],
      "name": "nextTokenId",
      "outputs": [
        {
          "internalType": "uint256",
          "name": "",
          "type": "uint256"
        }
      ],
      "stateMutability": "view",
      "type": "function"
    },
    {
      "inputs": [],
      "name": "owner",
      "outputs": [
        {
          "internalType": "address",
          "name": "",
          "type": "address"
        }
      ],
      "stateMutability": "view",
      "type": "function"
    },
    {
      "inputs": [],
      "name": "renounceOwnership",
      "outputs": [],
      "stateMutability": "nonpayable",
      "type": "function"
    },
    {
      "inputs": [
        {
          "internalType": "address",
          "name": "from",
          "type": "address"
        },
        {
          "internalType": "address",
          "name": "to",
          "type": "address"
        },
        {
          "internalType": "uint256[]",
          "name": "ids",
          "type": "uint256[]"
        },
        {
          "internalType": "uint256[]",
          "name": "values",
          "type": "uint256[]"
        },
        {
          "internalType": "bytes",
          "name": "data",
          "type": "bytes"
        }
      ],
      "name": "safeBatchTransferFrom",
      "outputs": [],
      "stateMutability": "nonpayable",
      "type": "function"
    },
    {
      "inputs": [
        {
          "internalType": "address",
          "name": "from",
          "type": "address"
        },
        {
          "internalType": "address",
          "name": "to",
          "type": "address"
        },
        {
          "internalType": "uint256",
          "name": "id",
          "type": "uint256"
        },
        {
          "internalType": "uint256",
          "name": "value",
          "type": "uint256"
        },
        {
          "internalType": "bytes",
          "name": "data",
          "type": "bytes"
        }
      ],
      "name": "safeTransferFrom",
      "outputs": [],
      "stateMutability": "nonpayable",
      "type": "function"
    },
    {
      "inputs": [
        {
          "internalType": "address",
          "name": "operator",
          "type": "address"
        },
        {
          "internalType": "bool",
          "name": "approved",
          "type": "bool"
        }
      ],
      "name": "setApprovalForAll",
      "outputs": [],
      "stateMutability": "nonpayable",
      "type": "function"
    },
    {
      "inputs": [
        {
          "internalType": "string",
          "name": "newBaseURI",
          "type": "string"
        }
      ],
      "name": "setBaseURI",
      "outputs": [],
      "stateMutability": "nonpayable",
      "type": "function"
    },
    {
      "inputs": [
        {
          "internalType": "address",
          "name": "_custodian",
          "type": "address"
        }
      ],
      "name": "setCustodian",
      "outputs": [],
      "stateMutability": "nonpayable",
      "type": "function"
    },
    {
      "inputs": [
        {
          "internalType": "string",
          "name": "dynamicURI",
          "type": "string"
        }
      ],
      "name": "setDynamicTokenURI",
      "outputs": [],
      "stateMutability": "nonpayable",
      "type": "function"
    },
    {
      "inputs": [
        {
          "internalType": "bytes4",
          "name": "interfaceId",
          "type": "bytes4"
        }
      ],
      "name": "supportsInterface",
      "outputs": [
        {
          "internalType": "bool",
          "name": "",
          "type": "bool"
        }
      ],
      "stateMutability": "view",
      "type": "function"
    },
    {
      "inputs": [
        {
          "internalType": "uint256",
          "name": "tokenId",
          "type": "uint256"
        }
      ],
      "name": "tokenExists",
      "outputs": [
        {
          "internalType": "bool",
          "name": "",
          "type": "bool"
        }
      ],
      "stateMutability": "view",
      "type": "function"
    },
    {
      "inputs": [
        {
          "internalType": "uint256",
          "name": "",
          "type": "uint256"
        }
      ],
      "name": "tokens",
      "outputs": [
        {
          "internalType": "enum LeverageType",
          "name": "leverage",
          "type": "uint8"
        },
        {
          "internalType": "uint256",
          "name": "mintPrice",
          "type": "uint256"
        },
        {
          "internalType": "uint256",
          "name": "creationTime",
          "type": "uint256"
        },
        {
          "internalType": "bool",
          "name": "exists",
          "type": "bool"
        },
        {
          "internalType": "bool",
          "name": "isStatic",
          "type": "bool"
        }
      ],
      "stateMutability": "view",
      "type": "function"
    },
    {
      "inputs": [
        {
          "internalType": "address",
          "name": "newOwner",
          "type": "address"
        }
      ],
      "name": "transferOwnership",
      "outputs": [],
      "stateMutability": "nonpayable",
      "type": "function"
    },
    {
      "inputs": [
        {
          "internalType": "uint256",
          "name": "tokenId",
          "type": "uint256"
        }
      ],
      "name": "uri",
      "outputs": [
        {
          "internalType": "string",
          "name": "",
          "type": "string"
        }
      ],
      "stateMutability": "view",
      "type": "function"
    }
  ],
  "bytecode": "0x6080604052346108425761380e8038038061001981610865565b928339810190602081830312610842578051906001600160401b038211610842570181601f82011215610842578051906001600160401b0382116107e75761006a601f8301601f1916602001610865565b928284526020838301011161084257815f9260208093018386015e830101526020905f61009683610865565b52600254600181811c91168015610838575b838210146107c957601f811161080e575b505f60025533156107fb5760038054336001600160a01b0319821681179092556001600160a01b03167f8be0079c531659141344cd1fd0a4f28419497f9722a3daafe3b4186f6b6457e05f80a3600a60065580516001600160401b0381116107e757600454600181811c911680156107dd575b848210146107c957601f8111610785575b508291601f8211600114610725579181925f9261071a575b50508160011b915f199060031b1c1916176004555b610172610846565b600281528181016805f68e8131ecf80000815260408201905f825260608301926001845260808101926001845260015f526007865260405f2091519260038410156107065760039360ff8019855416911617835551600183015551600282015501915115159060ff61ff0084549251151560081b1692169061ffff1916171790556101fb610846565b6002815281810168068155a43676e00000815260408201905f825260608301926001845260808101926001845260025f526007865260405f2091519260038410156107065760039360ff8019855416911617835551600183015551600282015501915115159060ff61ff0084549251151560081b1692169061ffff191617179055610284610846565b6002815281810168070c1cc73b00c80000815260408201905f825260608301926001845260808101926001845260035f526007865260405f2091519260038410156107065760039360ff8019855416911617835551600183015551600282015501915115159060ff61ff0084549251151560081b1692169061ffff19161717905561030d610846565b5f81528181016805f68e8131ecf80000815260408201905f825260608301926001845260808101926001845260045f526007865260405f2091519260038410156107065760039360ff8019855416911617835551600183015551600282015501915115159060ff61ff0084549251151560081b1692169061ffff191617179055610395610846565b5f815281810168068155a43676e00000815260408201905f825260608301926001845260808101926001845260055f526007865260405f2091519260038410156107065760039360ff8019855416911617835551600183015551600282015501915115159060ff61ff0084549251151560081b1692169061ffff19161717905561041d610846565b5f815281810168070c1cc73b00c80000815260408201905f825260608301926001845260808101926001845260065f526007865260405f2091519260038410156107065760039360ff8019855416911617835551600183015551600282015501915115159060ff61ff0084549251151560081b1692169061ffff1916171790556104a5610846565b600181528181016805f68e8131ecf80000815260408201905f825260608301926001845260808101926001845260075f526007865260405f2091519260038410156107065760039360ff8019855416911617835551600183015551600282015501915115159060ff61ff0084549251151560081b1692169061ffff19161717905561052e610846565b6001815281810168068155a43676e00000815260408201905f825260608301926001845260808101926001845260085f526007865260405f2091519260038410156107065760039360ff8019855416911617835551600183015551600282015501915115159060ff61ff0084549251151560081b1692169061ffff1916171790556105b7610846565b6001815281810168070c1cc73b00c80000815260408201905f825260608301926001845260808101926001845260095f526007865260405f2091519260038410156107065760039360ff8019855416911617835551600183015551600282015501915115159060ff61ff0084549251151560081b1692169061ffff19161717905560015b600981111561065357604051612f83908161088b8239f35b805f526007825260405f20610666610846565b60ff825416600381101561070657815260ff60036001840154938684019485526002810154604085015201548181161515606084015260081c16151560808201525160038110156107065760407ff0bce87e045e069f11211987a848aa6e2c8d32807187c2b16fc27eedb84019c091849351825191825286820152a25f1981146106f25760010161063b565b634e487b7160e01b5f52601160045260245ffd5b634e487b7160e01b5f52602160045260245ffd5b015190505f80610155565b601f1982169260045f52845f20915f5b8686821061076f5750508360019510610757575b505050811b0160045561016a565b01515f1960f88460031b161c191690555f8080610749565b6001849582939585015181550194019201610735565b60045f52835f20601f830160051c8101918584106107bf575b601f0160051c01905b8181106107b4575061013d565b5f81556001016107a7565b909150819061079e565b634e487b7160e01b5f52602260045260245ffd5b90607f169061012c565b634e487b7160e01b5f52604160045260245ffd5b631e4fbdf760e01b5f525f60045260245ffd5b60025f52601f835f20910160051c8101905b81811061082d57506100b9565b5f8155600101610820565b90607f16906100a8565b5f80fd5b6040519060a082016001600160401b038111838210176107e757604052565b6040519190601f01601f191682016001600160401b038111838210176107e75760405256fe60806040526004361015610011575f80fd5b5f3560e01c8062923f9e1461029d578062fdd58e1461029857806301ffc9a7146102935780630e89341c1461028e578063282dce26146102895780632eb2c2d61461028457806331154c341461027f578063327fe5b51461027a578063375b74c3146102755780633e94b91514610270578063403f37311461026b5780634e1273f4146102665780634f5ed3b5146102615780634f64b2be1461025c578063559e775b1461025757806355f804b3146102525780635b0a931d1461024d57806360ebfee6146102485780636c0360eb14610243578063715018a61461023e57806375794a3c1461020c5780637933decc146102395780638c7a63ae146102345780638da5cb5b1461022f5780639d1dc8591461022a578063a22cb46514610225578063abb12a2314610220578063af36053d1461021b578063b514f33014610216578063c3b9d45f14610211578063caa0f92a1461020c578063d158f08314610207578063d1eb3e7714610202578063d5cf72c0146101fd578063e82ffbb1146101f8578063e985e9c5146101f3578063ed991546146101ee578063f242432a146101e9578063f2fde38b146101e4578063f5298aca146101df5763f959df1d146101da575f80fd5b611a29565b61196c565b6118e6565b6117e0565b611786565b61172a565b6116e6565b611649565b611631565b611616565b610f5f565b61149b565b611444565b611422565b6113f3565b611341565b61121d565b611181565b6110c4565b610f7c565b610f04565b610ee9565b610ece565b610e13565b610cbb565b610bda565b610b73565b610aae565b6109c5565b6108fc565b6108a5565b61087d565b6107c1565b6106c8565b61062d565b61044a565b610413565b61036d565b610313565b346102cf5760203660031901126102cf576004355f526007602052602060ff600360405f200154166040519015158152f35b5f80fd5b600435906001600160a01b03821682036102cf57565b602435906001600160a01b03821682036102cf57565b35906001600160a01b03821682036102cf57565b346102cf5760403660031901126102cf5760206103526103316102d3565b6024355f525f835260405f209060018060a01b03165f5260205260405f2090565b54604051908152f35b6001600160e01b03198116036102cf57565b346102cf5760203660031901126102cf57602060043561038c8161035b565b63ffffffff60e01b16636cdb3d1360e11b81149081156103ca575b81156103b9575b506040519015158152f35b6301ffc9a760e01b1490505f6103ae565b6303a24d0760e21b811491506103a7565b805180835260209291819084018484015e5f828201840152601f01601f1916010190565b9060206104109281815201906103db565b90565b346102cf5760203660031901126102cf57610446610432600435611b6c565b6040519182916020835260208301906103db565b0390f35b346102cf5760203660031901126102cf576004355f52600760205261044660806104c360405f20600360405191610480836104fc565b61048e60ff82541684611abe565b600181015460208401526002810154604084015201549060ff80831615159283606084015260081c1615159384910152151590565b90816104dd575b5060405190151581529081906020820190565b151590505b5f6104ca565b634e487b7160e01b5f52604160045260245ffd5b60a081019081106001600160401b0382111761051757604052565b6104e8565b90601f801991011681019081106001600160401b0382111761051757604052565b6040519061054c60a08361051c565b565b6001600160401b0381116105175760051b60200190565b9291906105718161054e565b9361057f604051958661051c565b602085838152019160051b81019283116102cf57905b8282106105a157505050565b8135815260209182019101610595565b9080601f830112156102cf5781602061041093359101610565565b6001600160401b03811161051757601f01601f191660200190565b81601f820112156102cf578035906105fe826105cc565b9261060c604051948561051c565b828452602083830101116102cf57815f926020809301838601378301015290565b346102cf5760a03660031901126102cf576106466102d3565b61064e6102e9565b906044356001600160401b0381116102cf5761066e9036906004016105b1565b6064356001600160401b0381116102cf5761068d9036906004016105b1565b90608435936001600160401b0385116102cf576106b16106b79536906004016105e7565b93611c3a565b005b6004359060038210156102cf57565b346102cf5760403660031901126102cf576104466104326106e76106b9565b60243590611d54565b90602080835192838152019201905f5b81811061070d5750505090565b8251845260209384019390920191600101610700565b6003111561072d57565b634e487b7160e01b5f52602160045260245ffd5b90600382101561072d5752565b90602080835192838152019201905f5b81811061076b5750505090565b9091926020808261077f6001948851610741565b01940192910161075e565b916107b3906107a561041095936060865260608601906106f0565b90848203602086015261074e565b9160408184039101526106f0565b346102cf575f3660031901126102cf576107d9611e20565b6107e1611e20565b906107ea611e20565b60015b60098111156108075750610446906040519384938461078a565b5f198101908082116108785761084582826108256108739588611eb2565b52825f52600760205261084060ff60405f2054169188611eb2565b611abe565b6001610859825f52600760205260405f2090565b015461086d61086783611e83565b85611eb2565b52611e75565b6107ed565b611d22565b346102cf575f3660031901126102cf576005546040516001600160a01b039091168152602090f35b346102cf5760203660031901126102cf576004355f52600760205261044660806108db60405f20600360405191610480836104fc565b90816108f4575060405190151581529081906020820190565b1590506104e2565b346102cf5760203660031901126102cf576109156102d3565b61091d612787565b6001600160a01b0316801561096f57600580546001600160a01b0319811683179091556001600160a01b03167f2636bd528f7849d282af9abcb3301d319414555b9ce5004ea9d5755c05d97d7e5f80a3005b60405162461bcd60e51b815260206004820152601960248201527f496e76616c696420637573746f6469616e2061646472657373000000000000006044820152606490fd5b9060206104109281815201906106f0565b346102cf5760403660031901126102cf576004356001600160401b0381116102cf57366023820112156102cf57806004013590610a018261054e565b91610a0f604051938461051c565b8083526024602084019160051b830101913683116102cf57602401905b828210610a6c57836024356001600160401b0381116102cf5761044691610a5a610a609236906004016105b1565b90611ecb565b604051918291826109b4565b60208091610a79846102ff565b815201910190610a2c565b60609060031901126102cf576004356001600160a01b03811681036102cf57906024359060443590565b346102cf57610b585f516020612f2e5f395f51905f52610acd36610a84565b9291610ae760018060a09794971b03600554163314611f5a565b600185101580610b68575b610afb90611f97565b845f526007602052610b2b6080610b1e60405f20600360405191610480836104fc565b9081610b5d575b50611fe3565b610b3e610b36611c96565b8587846127ae565b6040519384526001600160a01b0316929081906020820190565b0390a3005b151590505b5f610b25565b506009851115610af2565b346102cf5760203660031901126102cf576004355f52600760205260a060405f2060ff80825416916001810154906003600282015491015491610bb96040518096610741565b602085015260408401528181161515606084015260081c1615156080820152f35b346102cf5760203660031901126102cf576004355f52600760205261044660405f20610c5b610c56604051610c0e816104fc565b610c1c60ff85541682611abe565b60036001850154946020830195865260028101546040840152015490608060ff80841615159384606085015260081c161515910152151590565b611b17565b516040519081529081906020820190565b9060206003198301126102cf576004356001600160401b0381116102cf57826023820112156102cf578060040135926001600160401b0384116102cf57602484830101116102cf576024019190565b346102cf57610cc936610c6c565b90610cd2612787565b610cda612067565b6001600160401b03831161051757610cfc83610cf760045461202f565b61211c565b5f601f8411600114610d6d5783610d4d817f309b29ded109b9e28fb9885757b3e0096eb75c51d23aa4635d68bcd569f6adc196610d5d945f91610d62575b508160011b915f199060031b1c19161790565b6004555b6040519384938461216c565b0390a1005b90508601355f610d3a565b60045f52601f198416907f8a35acfbc15ff81a39ae7d344fd709f28e8600b4aa8c65c6b64bfe7fe36bd19b915f5b818110610dfb57509185917f309b29ded109b9e28fb9885757b3e0096eb75c51d23aa4635d68bcd569f6adc196610d5d9410610de2575b5050600181811b01600455610d51565b8501355f19600384901b60f8161c191690555f80610dd2565b91926020600181928689013581550194019201610d9b565b346102cf57610e2136610a84565b9091610e3860018060a01b03600554163314611f5a565b600a8310610e9057610b585f516020612f2e5f395f51905f5291610b2b610e6f610e6a875f52600760205260405f2090565b611aca565b606081015115159081610e83575b506121a6565b608001511590505f610e7d565b60405162461bcd60e51b8152602060048201526016602482015275139bdd081848191e5b985b5a58c81d1bdad95b88125160521b6044820152606490fd5b346102cf575f3660031901126102cf57602060405160128152f35b346102cf575f3660031901126102cf57610446610432612067565b346102cf575f3660031901126102cf57610f1c612787565b600380546001600160a01b031981169091555f906001600160a01b03167f8be0079c531659141344cd1fd0a4f28419497f9722a3daafe3b4186f6b6457e08280a3005b346102cf575f3660031901126102cf576020600654604051908152f35b346102cf5760403660031901126102cf57610446600435610fab610e6a602435925f52600760205260405f2090565b90610fbc610c566060840151151590565b6020825192610fca84610723565b0151905f92610fd881610723565b8061101c575061100c9250611000610ffb83610ff661100694612257565b611e91565b61220a565b91612268565b90611d36565b6040519081529081906020820190565b61102581610723565b60018103611051575061104c9250611046610ffb83610ff66110069461222e565b9161223f565b61100c565b8061105d600292610723565b1461106a575b505061100c565b6110849250610ffb82610ff661107f936121f2565b611d36565b5f80611063565b9390926110bc926110a186608096999899610741565b6020860152604085015260a0606085015260a08401906103db565b931515910152565b346102cf5760203660031901126102cf576004355f52600760205260405f206040516110ef816104fc565b6110fd60ff83541682611abe565b610446600183015491602081019283526003600285015494604083019586520154611144610c5660ff8316151580606086015260ff608086019460081c1615158452151590565b61117461116d83519561115687610723565b8051975194519061116682610723565b5190611d54565b9151151590565b916040519586958661108b565b346102cf575f3660031901126102cf576003546040516001600160a01b039091168152602090f35b92906111e0926111c46111d2926080875260808701906106f0565b90858203602087015261074e565b9083820360408501526106f0565b906060818303910152602080835192838152019201905f5b8181106112055750505090565b825115158452602093840193909201916001016111f8565b346102cf5760403660031901126102cf5760043560243580821161130c576112488261124d92611e91565b612280565b61125681611e43565b61125f82611e43565b9161126981611e43565b61127282611e43565b915f5b81811061128f5750509061044691604051948594856111a9565b806113066112f560806112a46001958c61228e565b6112b9610e6a825f52600760205260405f2090565b906112c4868c611eb2565b526112de8b610840878451926112d984610723565b611eb2565b60208101516112ed868a611eb2565b520151151590565b6112ff8388611eb2565b9015159052565b01611275565b60405162461bcd60e51b815260206004820152600d60248201526c496e76616c69642072616e676560981b6044820152606490fd5b346102cf5760403660031901126102cf5761135a6102d3565b60243590811515908183036102cf576001600160a01b0381169283156113e1576113a26113b392335f52600160205260405f209060018060a01b03165f5260205260405f2090565b9060ff801983541691151516179055565b6040519081527f17307eab39ab6107e8899845ad3d59bd9653f200f220920489ca2b5937696c3160203392a3005b62ced3e160e81b5f525f60045260245ffd5b346102cf5760403660031901126102cf57602061141a6114116106b9565b6024359061229b565b604051908152f35b346102cf575f3660031901126102cf576020604051670de0b6b3a76400008152f35b346102cf5760403660031901126102cf57602061141a6114626106b9565b60243590612347565b9181601f840112156102cf578235916001600160401b0383116102cf576020808501948460051b0101116102cf57565b346102cf5760603660031901126102cf576114b46102d3565b6024356001600160401b0381116102cf576114d390369060040161146b565b91906044356001600160401b0381116102cf576114f490369060040161146b565b92909161150c60018060a01b03600554163314611f5a565b61151784861461252a565b5f5b8581106115a6575061154961152f368784610565565b61153a368787610565565b611542611c96565b91856127f2565b6001600160a01b03909116905f5b85811061156057005b8061156e600192888561256f565b35845f516020612f2e5f395f51905f5261159d61158c858b8b61256f565b604051903581529081906020820190565b0390a301611557565b806115f56115e2610e6a6115c06001958b889b999b61256f565b35858110158061160b575b6115d490611f97565b5f52600760205260405f2090565b6060810151151590816115fe5750611fe3565b01939193611519565b6080015115159050610b62565b5060098111156115cb565b346102cf575f3660031901126102cf57602060405160098152f35b346102cf5761163f36610c6c565b50506106b7612787565b346102cf5760803660031901126102cf576116626102d3565b60243560038110156102cf57610446916020915f516020612f2e5f395f51905f526116a7604435606435936116a260018060a01b03600554163314611f5a565b612347565b9384936116c56040516116ba848261051c565b5f81528587846127ae565b6040519384526001600160a01b031692a36040519081529081906020820190565b346102cf5760403660031901126102cf57602061141a6117046102d3565b6024355f908152602081815260408083206001600160a01b039094168352929052205490565b346102cf5760403660031901126102cf57602060ff61177a61174a6102d3565b6117526102e9565b6001600160a01b039182165f9081526001865260408082209290931681526020919091522090565b54166040519015158152f35b346102cf5760403660031901126102cf5761179f6106b9565b6117b96117c7602435604051928391602083019586612366565b03601f19810183528261051c565b5190205f526008602052602060405f2054604051908152f35b346102cf5760a03660031901126102cf576117f96102d3565b6118016102e9565b60443590606435926084356001600160401b0381116102cf576118289036906004016105e7565b926001600160a01b03821633811415806118c3575b6118ad576001600160a01b0384161561189a5715611888576106b79461188060405192600184526020840152604083019160018352606084015260808301604052565b929091612ace565b626a0d4560e21b5f525f60045260245ffd5b632bfa23e760e11b5f525f60045260245ffd5b63711bec9160e11b5f523360045260245260445ffd5b505f81815260016020908152604080832033845290915290205460ff161561183d565b346102cf5760203660031901126102cf576118ff6102d3565b611907612787565b6001600160a01b0316801561195957600380546001600160a01b0319811683179091556001600160a01b03167f8be0079c531659141344cd1fd0a4f28419497f9722a3daafe3b4186f6b6457e05f80a3005b631e4fbdf760e01b5f525f60045260245ffd5b346102cf5761197a36610a84565b61199260018060a09594951b03600554163314611f5a565b825f5260076020526119ad60ff600360405f20015416611b17565b6001600160a01b038216918215611888578161100c610b5892611a117fccbea4088a3b7ae9ca2d15fab9a9742a4075b4d7247768a1eecea917565aba0095889160405192600184526020840152604083019160018352606084015260808301604052565b9060405192611a2160208561051c565b5f845261280d565b346102cf5760403660031901126102cf57610446611aa4611ab2611a70611a4e6102d3565b6024355f525f60205260405f209060018060a01b03165f5260205260405f2090565b546117b9611a92670de0b6b3a7640000611a8b8185046125a7565b93066125a7565b60016040519586946020860190611b5a565b601760f91b81520190611b5a565b604051918291826103ff565b600382101561072d5752565b90604051611ad7816104fc565b608060ff60038395611aec8382541686611abe565b600181015460208601526002810154604086015201548181161515606085015260081c161515910152565b15611b1e57565b60405162461bcd60e51b8152602060048201526014602482015273151bdad95b88191bd95cc81b9bdd08195e1a5cdd60621b6044820152606490fd5b805191908290602001825e015f815290565b611b81610e6a825f52600760205260405f2090565b90611b92610c566060840151151590565b608082015115611bf35750610410611bbd826020611bdc945191611bb583610723565b0151906126fd565b6117b9611be2611bcb612067565b926040519586946020860190611b5a565b90611b5a565b64173539b7b760d91b815260050190565b611c269150610410906117b9611be2611c13611c0d612067565b936125a7565b611bdc6040519687956020870190611b5a565b6764796e616d69632f60c01b815260080190565b939291906001600160a01b0385163381141580611c73575b6118ad576001600160a01b0382161561189a57156118885761054c94612ace565b505f81815260016020908152604080832033845290915290205460ff1615611c52565b60405190611ca560208361051c565b5f8252565b60405190611cb960408361051c565b600a8252694167677265737369766560b01b6020830152565b60405190611ce160408361051c565b60088252674d6f64657261746560c01b6020830152565b60405190611d0760408361051c565b600c82526b436f6e73657276617469766560a01b6020830152565b634e487b7160e01b5f52601160045260245ffd5b8115611d40570490565b634e487b7160e01b5f52601260045260245ffd5b611d9e9161041091611d6581610723565b80611dd757506001611dc1611d8c670de0b6b3a7640000611d84611cf8565b945b046125a7565b60166040519687956020870190611b5a565b750813195d995c9859d948151bdad95b880a140c0e880960521b81520190611b5a565b602960f81b81520103601f19810183528261051c565b600190611de381610723565b03611e07576001611dc1611d8c670de0b6b3a7640000611e01611cd2565b94611d86565b6001611dc1611d8c670de0b6b3a7640000611e01611caa565b6040516101409190611e32838261051c565b6009815291601f1901366020840137565b90611e4d8261054e565b611e5a604051918261051c565b8281528092611e6b601f199161054e565b0190602036910137565b5f1981146108785760010190565b5f1981019190821161087857565b9190820391821161087857565b634e487b7160e01b5f52603260045260245ffd5b8051821015611ec65760209160051b010190565b611e9e565b91909180518351808203611f45575050611ee58151611e43565b905f5b8151811015611f3e5780611f2d60019260051b60208082870101519189010151905f918252602082815260408084206001600160a01b03909316845291905290205490565b611f378286611eb2565b5201611ee8565b5090925050565b635b05999160e01b5f5260045260245260445ffd5b15611f6157565b60405162461bcd60e51b815260206004820152600e60248201526d27b7363c9031bab9ba37b234b0b760911b6044820152606490fd5b15611f9e57565b60405162461bcd60e51b815260206004820152601760248201527f496e76616c69642073746174696320746f6b656e2049440000000000000000006044820152606490fd5b15611fea57565b60405162461bcd60e51b815260206004820152601a60248201527f53746174696320746f6b656e206e6f7420617661696c61626c650000000000006044820152606490fd5b90600182811c9216801561205d575b602083101461204957565b634e487b7160e01b5f52602260045260245ffd5b91607f169161203e565b604051905f826004549161207a8361202f565b80835292600181169081156120fd575060011461209e575b61054c9250038361051c565b5060045f90815290917f8a35acfbc15ff81a39ae7d344fd709f28e8600b4aa8c65c6b64bfe7fe36bd19b5b8183106120e157505090602061054c92820101612092565b60209193508060019154838589010152019101909184926120c9565b6020925061054c94915060ff191682840152151560051b820101612092565b601f8111612128575050565b60045f5260205f20906020601f840160051c83019310612162575b601f0160051c01905b818110612157575050565b5f815560010161214c565b9091508190612143565b919260209361218482936040865260408601906103db565b9385818603910152818452848401375f828201840152601f01601f1916010190565b156121ad57565b60405162461bcd60e51b815260206004820152601b60248201527f44796e616d696320746f6b656e206e6f7420617661696c61626c6500000000006044820152606490fd5b600181901b91906001600160ff1b0381160361087857565b90670de0b6b3a7640000820291808304670de0b6b3a7640000149015171561087857565b908160050291600583040361087857565b600281901b91906001600160fe1b0381160361087857565b908160090291600983040361087857565b600381901b91906001600160fd1b0381160361087857565b906001820180921161087857565b9190820180921161087857565b60015b60098111156122ae575050505f90565b805f5260076020526122c260405f20611aca565b836122d06060830151151590565b9182612332575b8261230b575b826122fd575b50506122f7576122f290611e75565b61229e565b91505090565b60200151149050835f6122e3565b915083825161231981610723565b61232282610723565b61232b81610723565b14916122dd565b91506123416080830151151590565b916122d7565b906104109161236160018060a01b03600554163314611f5a565b612412565b9091600383101561072d5760219260f81b825260018201520190565b908051600381101561072d576080600361054c946123df9360ff80198354169116178155602085015160018201556040850151600282015501926123d860608201511515859060ff801983541691151516179055565b0151151590565b815461ff00191690151560081b61ff0016179055565b604091949392612409826060810197610741565b60208201520152565b90604051602081019061242a816117b9858786612366565b51902090612440825f52600860205260405f2090565b5480151580612505575b6124fe57506124e6927fcaa803ae82e7334fe8852e4c2681d1ae2c38f40f6d8dc6253d8bcf650ea2fd24916006548095819561248d61248884611e75565b600655565b6124d861249861053d565b6124a28782611abe565b8560208201524260408201526124bb6060820160019052565b5f60808201526124d3855f52600760205260405f2090565b612382565b5f52600860205260405f2090565b556124f86040519283924291846123f5565b0390a290565b9250505090565b50612525600361251d835f52600760205260405f2090565b015460ff1690565b61244a565b1561253157565b60405162461bcd60e51b8152602060048201526016602482015275082e4e4c2f2e640d8cadccee8d040dad2e6dac2e8c6d60531b6044820152606490fd5b9190811015611ec65760051b0190565b90612589826105cc565b612596604051918261051c565b8281528092611e6b601f19916105cc565b805f9172184f03e93ff9f4daa797ed6e38ed64bf6a1f0160401b8210156126da575b806d04ee2d6d415b85acef8100000000600a9210156126be575b662386f26fc100008110156126a9575b6305f5e100811015612697575b612710811015612687575b6064811015612678575b101561266d575b612658602161262d6001850161257f565b938401015b5f1901916f181899199a1a9b1b9c1cb0b131b232b360811b600a82061a8353600a900490565b8015612668576126589091612632565b505090565b60019091019061261c565b60029060649004930192612615565b600490612710900493019261260b565b6008906305f5e1009004930192612600565b601090662386f26fc1000090049301926125f3565b6020906d04ee2d6d415b85acef810000000090049301926125e3565b506040915072184f03e93ff9f4daa797ed6e38ed64bf6a1f0160401b81046125c9565b611bdc916104109161270e81610723565b8061274257506117b9612732670de0b6b3a764000061272b611cf8565b93046125a7565b6040519485936020850190611b5a565b60019061274e81610723565b03612770576117b9612732670de0b6b3a764000061276a611cd2565b93611d86565b6117b9612732670de0b6b3a764000061276a611caa565b6003546001600160a01b0316330361279b57565b63118cdaa760e01b5f523360045260245ffd5b919291906001600160a01b0382161561189a5761054c936127ec60405192600184526020840152604083019160018352606084015260808301604052565b91612987565b9291906001600160a01b0384161561189a5761054c93612987565b90925082518251908181036129725750506001600160a01b038116801515949093905f5b82518110156128e9578060051b87602080838701015192880101519061285c575b5050600101612831565b61288686612871845f525f60205260405f2090565b9060018060a01b03165f5260205260405f2090565b548181106128b2578661287160019594936128aa9303935f525f60205260405f2090565b55905f612852565b6040516303dee4c560e01b81526001600160a01b038816600482015260248101919091526044810182905260648101839052608490fd5b5094505f939291506001815114841461293f5760209081015191810151604080519384529183015233917fc3d58168c5ae7397731d063d5bbf3d657854427343f4c083240f7aacaa2d0f6291819081015b0390a4565b60405133927f4a39dc06d4c0dbc64b70af90fd698a233a518aa5d07e595d983b8c0526c8f7fb92829161293a9183612ca4565b635b05999160e01b5f5260045260245260445ffd5b9392919080518251908181036129725750506001600160a01b03851693841515935f5b8351811015612a025780868960019360051b602080828a010151918a010151926129d8575b505050016129aa565b6129f8916128716129f0925f525f60205260405f2090565b91825461228e565b90555f89816129cf565b509390959460018351145f14612a93576020838101518582015160408051928352928201525f9133917fc3d58168c5ae7397731d063d5bbf3d657854427343f4c083240f7aacaa2d0f629190a45b612a5b575b50505050565b8051600103612a835790602080612a7a95930151910151915f33612e8f565b5f808080612a55565b612a8e935f33612d60565b612a7a565b5f6040517f4a39dc06d4c0dbc64b70af90fd698a233a518aa5d07e595d983b8c0526c8f7fb339180612ac6898983612ca4565b0390a4612a50565b94939290919384518251908181036129725750506001600160a01b038681169586151595918516801515939192905f5b8451811015612bd7578060051b90898988602080868b010151958c01015192612b56575b93600194612b34575b50505001612afe565b612b4c916128716129f0925f525f60205260405f2090565b90555f8981612b2b565b50509091612b6f8d612871835f525f60205260405f2090565b54828110612ba0578291898f612b97600197968f950391612871855f525f60205260405f2090565b55909450612b22565b6040516303dee4c560e01b81526001600160a01b038f16600482015260248101919091526044810183905260648101829052608490fd5b5091989593929790965060018851145f14612c6a5760208881015186820151604080519283529282015233917fc3d58168c5ae7397731d063d5bbf3d657854427343f4c083240f7aacaa2d0f6291a45b612c33575b5050505050565b8451600103612c5957602080612c4f9601519201519233612e8f565b5f80808080612c2c565b612c6594919233612d60565b612c4f565b6040517f4a39dc06d4c0dbc64b70af90fd698a233a518aa5d07e595d983b8c0526c8f7fb339180612c9c898d83612ca4565b0390a4612c27565b9091612cbb610410936040845260408401906106f0565b9160208184039101526106f0565b908160209103126102cf57516104108161035b565b6001600160a01b0391821681529116602082015260a0604082018190526104109491939192612d239291612d1591908601906106f0565b9084820360608601526106f0565b9160808184039101526103db565b3d15612d5b573d90612d42826105cc565b91612d50604051938461051c565b82523d5f602084013e565b606090565b9091949293853b612d74575b505050505050565b602093612d9691604051968795869563bc197c8160e01b875260048701612cde565b03815f6001600160a01b0387165af15f9181612e25575b50612de75750612dbb612d31565b8051919082612de057632bfa23e760e11b5f526001600160a01b03821660045260245ffd5b6020915001fd5b6001600160e01b0319166343e6837f60e01b01612e0a57505f8080808080612d6c565b632bfa23e760e11b5f526001600160a01b031660045260245ffd5b612e4891925060203d602011612e4f575b612e40818361051c565b810190612cc9565b905f612dad565b503d612e36565b6001600160a01b039182168152911660208201526040810191909152606081019190915260a060808201819052610410929101906103db565b9091949293853b612ea257505050505050565b602093612ec491604051968795869563f23a6e6160e01b875260048701612e56565b03815f6001600160a01b0387165af15f9181612f0c575b50612ee95750612dbb612d31565b6001600160e01b031916630dc5919f60e01b01612e0a57505f8080808080612d6c565b612f2691925060203d602011612e4f57612e40818361051c565b905f612edb56fe2e8ac5177a616f2aec08c3048f5021e4e9743ece034e8d83ba5caf76688bb475a2646970667358221220014da6ba96954283d3f6e12b094042745a9bbd7f4f7e3015af74f119a41bbddd64736f6c634300081c0033",
  "linkReferences": {},
  "deployedLinkReferences": {},
  "immutableReferences": {},
  "inputSourceName": "project/contracts/tokens/MultiLeverageToken.sol",
  "buildInfoId": "solc-0_8_28-52522422e12c742c9697761e5332b9c04d26a625"
}