{
  "_format": "hh3-artifact-1",
  "contractName": "StableToken",
  "sourceName": "contracts/tokens/StableToken.sol",
  "abi": [
    {
      "inputs": [],
      "stateMutability": "nonpayable",
      "type": "constructor"
    },
    {
      "inputs": [
        {
          "internalType": "address",
          "name": "spender",
          "type": "address"
        },
        {
          "internalType": "uint256",
          "name": "allowance",
          "type": "uint256"
        },
        {
          "internalType": "uint256",
          "name": "needed",
          "type": "uint256"
        }
      ],
      "name": "ERC20InsufficientAllowance",
      "type": "error"
    },
    {
      "inputs": [
        {
          "internalType": "address",
          "name": "sender",
          "type": "address"
        },
        {
          "internalType": "uint256",
          "name": "balance",
          "type": "uint256"
        },
        {
          "internalType": "uint256",
          "name": "needed",
          "type": "uint256"
        }
      ],
      "name": "ERC20InsufficientBalance",
      "type": "error"
    },
    {
      "inputs": [
        {
          "internalType": "address",
          "name": "approver",
          "type": "address"
        }
      ],
      "name": "ERC20InvalidApprover",
      "type": "error"
    },
    {
      "inputs": [
        {
          "internalType": "address",
          "name": "receiver",
          "type": "address"
        }
      ],
      "name": "ERC20InvalidReceiver",
      "type": "error"
    },
    {
      "inputs": [
        {
          "internalType": "address",
          "name": "sender",
          "type": "address"
        }
      ],
      "name": "ERC20InvalidSender",
      "type": "error"
    },
    {
      "inputs": [
        {
          "internalType": "address",
          "name": "spender",
          "type": "address"
        }
      ],
      "name": "ERC20InvalidSpender",
      "type": "error"
    },
    {
      "inputs": [
        {
          "internalType": "address",
          "name": "owner",
          "type": "address"
        }
      ],
      "name": "OwnableInvalidOwner",
      "type": "error"
    },
    {
      "inputs": [
        {
          "internalType": "address",
          "name": "account",
          "type": "address"
        }
      ],
      "name": "OwnableUnauthorizedAccount",
      "type": "error"
    },
    {
      "anonymous": false,
      "inputs": [
        {
          "indexed": true,
          "internalType": "address",
          "name": "owner",
          "type": "address"
        },
        {
          "indexed": true,
          "internalType": "address",
          "name": "spender",
          "type": "address"
        },
        {
          "indexed": false,
          "internalType": "uint256",
          "name": "value",
          "type": "uint256"
        }
      ],
      "name": "Approval",
      "type": "event"
    },
    {
      "anonymous": false,
      "inputs": [
        {
          "indexed": true,
          "internalType": "address",
          "name": "from",
          "type": "address"
        },
        {
          "indexed": false,
          "internalType": "uint256",
          "name": "amount",
          "type": "uint256"
        }
      ],
      "name": "Burned",
      "type": "event"
    },
    {
      "anonymous": false,
      "inputs": [
        {
          "indexed": true,
          "internalType": "address",
          "name": "oldCustodian",
          "type": "address"
        },
        {
          "indexed": true,
          "internalType": "address",
          "name": "newCustodian",
          "type": "address"
        }
      ],
      "name": "CustodianChanged",
      "type": "event"
    },
    {
      "anonymous": false,
      "inputs": [
        {
          "indexed": true,
          "internalType": "address",
          "name": "to",
          "type": "address"
        },
        {
          "indexed": false,
          "internalType": "uint256",
          "name": "amount",
          "type": "uint256"
        }
      ],
      "name": "Minted",
      "type": "event"
    },
    {
      "anonymous": false,
      "inputs": [
        {
          "indexed": true,
          "internalType": "address",
          "name": "previousOwner",
          "type": "address"
        },
        {
          "indexed": true,
          "internalType": "address",
          "name": "newOwner",
          "type": "address"
        }
      ],
      "name": "OwnershipTransferred",
      "type": "event"
    },
    {
      "anonymous": false,
      "inputs": [
        {
          "indexed": true,
          "internalType": "address",
          "name": "from",
          "type": "address"
        },
        {
          "indexed": true,
          "internalType": "address",
          "name": "to",
          "type": "address"
        },
        {
          "indexed": false,
          "internalType": "uint256",
          "name": "value",
          "type": "uint256"
        }
      ],
      "name": "Transfer",
      "type": "event"
    },
    {
      "inputs": [
        {
          "internalType": "address",
          "name": "owner",
          "type": "address"
        },
        {
          "internalType": "address",
          "name": "spender",
          "type": "address"
        }
      ],
      "name": "allowance",
      "outputs": [
        {
          "internalType": "uint256",
          "name": "",
          "type": "uint256"
        }
      ],
      "stateMutability": "view",
      "type": "function"
    },
    {
      "inputs": [
        {
          "internalType": "address",
          "name": "spender",
          "type": "address"
        },
        {
          "internalType": "uint256",
          "name": "value",
          "type": "uint256"
        }
      ],
      "name": "approve",
      "outputs": [
        {
          "internalType": "bool",
          "name": "",
          "type": "bool"
        }
      ],
      "stateMutability": "nonpayable",
      "type": "function"
    },
    {
      "inputs": [
        {
          "internalType": "address",
          "name": "account",
          "type": "address"
        }
      ],
      "name": "balanceOf",
      "outputs": [
        {
          "internalType": "uint256",
          "name": "",
          "type": "uint256"
        }
      ],
      "stateMutability": "view",
      "type": "function"
    },
    {
      "inputs": [
        {
          "internalType": "address",
          "name": "from",
          "type": "address"
        },
        {
          "internalType": "uint256",
          "name": "amount",
          "type": "uint256"
        }
      ],
      "name": "burn",
      "outputs": [],
      "stateMutability": "nonpayable",
      "type": "function"
    },
    {
      "inputs": [],
      "name": "custodian",
      "outputs": [
        {
          "internalType": "address",
          "name": "",
          "type": "address"
        }
      ],
      "stateMutability": "view",
      "type": "function"
    },
    {
      "inputs": [],
      "name": "decimals",
      "outputs": [
        {
          "internalType": "uint8",
          "name": "",
          "type": "uint8"
        }
      ],
      "stateMutability": "view",
      "type": "function"
    },
    {
      "inputs": [],
      "name": "getCustodian",
      "outputs": [
        {
          "internalType": "address",
          "name": "",
          "type": "address"
        }
      ],
      "stateMutability": "view",
      "type": "function"
    },
    {
      "inputs": [],
      "name": "isCustodianSet",
      "outputs": [
        {
          "internalType": "bool",
          "name": "",
          "type": "bool"
        }
      ],
      "stateMutability": "view",
      "type": "function"
    },
    {
      "inputs": [
        {
          "internalType": "address",
          "name": "to",
          "type": "address"
        },
        {
          "internalType": "uint256",
          "name": "amount",
          "type": "uint256"
        }
      ],
      "name": "mint",
      "outputs": [],
      "stateMutability": "nonpayable",
      "type": "function"
    },
    {
      "inputs": [],
      "name": "name",
      "outputs": [
        {
          "internalType": "string",
          "name": "",
          "type": "string"
        }
      ],
      "stateMutability": "view",
      "type": "function"
    },
    {
      "inputs": [],
      "name": "owner",
      "outputs": [
        {
          "internalType": "address",
          "name": "",
          "type": "address"
        }
      ],
      "stateMutability": "view",
      "type": "function"
    },
    {
      "inputs": [],
      "name": "renounceOwnership",
      "outputs": [],
      "stateMutability": "nonpayable",
      "type": "function"
    },
    {
      "inputs": [
        {
          "internalType": "address",
          "name": "_custodian",
          "type": "address"
        }
      ],
      "name": "setCustodian",
      "outputs": [],
      "stateMutability": "nonpayable",
      "type": "function"
    },
    {
      "inputs": [],
      "name": "symbol",
      "outputs": [
        {
          "internalType": "string",
          "name": "",
          "type": "string"
        }
      ],
      "stateMutability": "view",
      "type": "function"
    },
    {
      "inputs": [],
      "name": "totalSupply",
      "outputs": [
        {
          "internalType": "uint256",
          "name": "",
          "type": "uint256"
        }
      ],
      "stateMutability": "view",
      "type": "function"
    },
    {
      "inputs": [
        {
          "internalType": "address",
          "name": "to",
          "type": "address"
        },
        {
          "internalType": "uint256",
          "name": "value",
          "type": "uint256"
        }
      ],
      "name": "transfer",
      "outputs": [
        {
          "internalType": "bool",
          "name": "",
          "type": "bool"
        }
      ],
      "stateMutability": "nonpayable",
      "type": "function"
    },
    {
      "inputs": [
        {
          "internalType": "address",
          "name": "from",
          "type": "address"
        },
        {
          "internalType": "address",
          "name": "to",
          "type": "address"
        },
        {
          "internalType": "uint256",
          "name": "value",
          "type": "uint256"
        }
      ],
      "name": "transferFrom",
      "outputs": [
        {
          "internalType": "bool",
          "name": "",
          "type": "bool"
        }
      ],
      "stateMutability": "nonpayable",
      "type": "function"
    },
    {
      "inputs": [
        {
          "internalType": "address",
          "name": "newOwner",
          "type": "address"
        }
      ],
      "name": "transferOwnership",
      "outputs": [],
      "stateMutability": "nonpayable",
      "type": "function"
    }
  ],
  "bytecode": "0x60806040523461037057604080519081016001600160401b03811182821017610283576040908152600c82526b29ba30b13632902a37b5b2b760a11b602083015280519081016001600160401b038111828210176102835760405260018152605360f81b602082015281516001600160401b03811161028357600354600181811c91168015610366575b602082101461026557601f8111610303575b50602092601f82116001146102a257928192935f92610297575b50508160011b915f199060031b1c1916176003555b80516001600160401b03811161028357600454600181811c91168015610279575b602082101461026557601f8111610202575b50602091601f82116001146101a2579181925f92610197575b50508160011b915f199060031b1c1916176004555b33156101845760058054336001600160a01b03198216811790925560405191906001600160a01b03167f8be0079c531659141344cd1fd0a4f28419497f9722a3daafe3b4186f6b6457e05f80a3610c0990816103758239f35b631e4fbdf760e01b5f525f60045260245ffd5b015190505f80610116565b601f1982169260045f52805f20915f5b8581106101ea575083600195106101d2575b505050811b0160045561012b565b01515f1960f88460031b161c191690555f80806101c4565b919260206001819286850151815501940192016101b2565b60045f527f8a35acfbc15ff81a39ae7d344fd709f28e8600b4aa8c65c6b64bfe7fe36bd19b601f830160051c8101916020841061025b575b601f0160051c01905b81811061025057506100fd565b5f8155600101610243565b909150819061023a565b634e487b7160e01b5f52602260045260245ffd5b90607f16906100eb565b634e487b7160e01b5f52604160045260245ffd5b015190505f806100b5565b601f1982169360035f52805f20915f5b8681106102eb57508360019596106102d3575b505050811b016003556100ca565b01515f1960f88460031b161c191690555f80806102c5565b919260206001819286850151815501940192016102b2565b60035f527fc2575a0e9e593c00f959f8c92f12db2869c3395a3b0502d05e2516446f71f85b601f830160051c8101916020841061035c575b601f0160051c01905b818110610351575061009b565b5f8155600101610344565b909150819061033b565b90607f1690610089565b5f80fdfe6080806040526004361015610012575f80fd5b5f3560e01c90816306fdde031461095a57508063095ea7b3146108d857806318160ddd146108bb57806323b872dd146107dc578063313ce567146107c1578063375b74c3146101bc578063403f37311461070957806340c10f19146105eb57806370a08231146105b4578063715018a6146105595780638da5cb5b1461053157806395d89b41146104165780639dc29fac1461023f578063a9059cbb1461020e578063bca0ede6146101e4578063c561d4b7146101bc578063dd62ed3e1461016c5763f2fde38b146100e2575f80fd5b34610168576020366003190112610168576100fb610a53565b610103610bac565b6001600160a01b0316801561015557600580546001600160a01b0319811683179091556001600160a01b03167f8be0079c531659141344cd1fd0a4f28419497f9722a3daafe3b4186f6b6457e05f80a3005b631e4fbdf760e01b5f525f60045260245ffd5b5f80fd5b3461016857604036600319011261016857610185610a53565b61018d610a69565b6001600160a01b039182165f908152600160209081526040808320949093168252928352819020549051908152f35b34610168575f366003190112610168576006546040516001600160a01b039091168152602090f35b34610168575f366003190112610168576006546040516001600160a01b0390911615158152602090f35b346101685760403660031901126101685761023461022a610a53565b6024359033610b08565b602060405160018152f35b3461016857604036600319011261016857610258610a53565b6024359061027160018060a01b03600654163314610a7f565b6001600160a01b03169081156103d15761028c811515610abc565b815f525f6020528060405f20541061038c578161032957600254818101809111610315577f696de425f79f4a40bc6d2122ca50507f0efbeabbff86a84871b7196ab8ea8df7916020916002555b80600254036002555f847fddf252ad1be2c89b69c2b068fc378daa952ba7f163c4a11628f55a4df523b3ef84604051858152a3604051908152a2005b634e487b7160e01b5f52601160045260245ffd5b815f525f60205260405f205481811061037357817f696de425f79f4a40bc6d2122ca50507f0efbeabbff86a84871b7196ab8ea8df792602092855f525f84520360405f20556102d9565b8263391434e360e21b5f5260045260245260445260645ffd5b60405162461bcd60e51b815260206004820152601c60248201527f496e73756666696369656e742062616c616e636520746f206275726e000000006044820152606490fd5b60405162461bcd60e51b815260206004820152601d60248201527f43616e6e6f74206275726e2066726f6d207a65726f20616464726573730000006044820152606490fd5b34610168575f366003190112610168576040515f6004548060011c90600181168015610527575b602083108114610513578285529081156104f757506001146104a2575b50819003601f01601f191681019067ffffffffffffffff82118183101761048e5761048a82918260405282610a29565b0390f35b634e487b7160e01b5f52604160045260245ffd5b905060045f527f8a35acfbc15ff81a39ae7d344fd709f28e8600b4aa8c65c6b64bfe7fe36bd19b5f905b8282106104e15750602091508201018261045a565b60018160209254838588010152019101906104cc565b90506020925060ff191682840152151560051b8201018261045a565b634e487b7160e01b5f52602260045260245ffd5b91607f169161043d565b34610168575f366003190112610168576005546040516001600160a01b039091168152602090f35b34610168575f36600319011261016857610571610bac565b600580546001600160a01b031981169091555f906001600160a01b03167f8be0079c531659141344cd1fd0a4f28419497f9722a3daafe3b4186f6b6457e08280a3005b34610168576020366003190112610168576001600160a01b036105d5610a53565b165f525f602052602060405f2054604051908152f35b3461016857604036600319011261016857610604610a53565b6024359061061d60018060a01b03600654163314610a7f565b6001600160a01b03169081156106c457610638811515610abc565b600254818101809111610315576002557f30385c845b448a36257a6a1716e6ad2e1bc2cbe333cde1e69fe849ad6511adfe90602090836106af5780600254036002555b835f7fddf252ad1be2c89b69c2b068fc378daa952ba7f163c4a11628f55a4df523b3ef84604051858152a3604051908152a2005b835f525f825260405f2081815401905561067b565b60405162461bcd60e51b815260206004820152601b60248201527f43616e6e6f74206d696e7420746f207a65726f206164647265737300000000006044820152606490fd5b3461016857602036600319011261016857610722610a53565b61072a610bac565b6001600160a01b0316801561077c57600680546001600160a01b0319811683179091556001600160a01b03167f2636bd528f7849d282af9abcb3301d319414555b9ce5004ea9d5755c05d97d7e5f80a3005b60405162461bcd60e51b815260206004820152601960248201527f496e76616c696420637573746f6469616e2061646472657373000000000000006044820152606490fd5b34610168575f36600319011261016857602060405160128152f35b34610168576060366003190112610168576107f5610a53565b6107fd610a69565b6001600160a01b0382165f818152600160209081526040808320338452909152902054909260443592915f19811061083b575b506102349350610b08565b8381106108a057841561088d57331561087a57610234945f52600160205260405f2060018060a01b0333165f526020528360405f209103905584610830565b634a1406b160e11b5f525f60045260245ffd5b63e602df0560e01b5f525f60045260245ffd5b8390637dc7a0d960e11b5f523360045260245260445260645ffd5b34610168575f366003190112610168576020600254604051908152f35b34610168576040366003190112610168576108f1610a53565b60243590331561088d576001600160a01b031690811561087a57335f52600160205260405f20825f526020528060405f20556040519081527f8c5be1e5ebec7d5bd14f71427d1e84f3dd0314c0f7b2291e5b200ac8c7c3b92560203392a3602060405160018152f35b34610168575f366003190112610168575f6003548060011c90600181168015610a1f575b602083108114610513578285529081156104f757506001146109ca5750819003601f01601f191681019067ffffffffffffffff82118183101761048e5761048a82918260405282610a29565b905060035f527fc2575a0e9e593c00f959f8c92f12db2869c3395a3b0502d05e2516446f71f85b5f905b828210610a095750602091508201018261045a565b60018160209254838588010152019101906109f4565b91607f169161097e565b602060409281835280519182918282860152018484015e5f828201840152601f01601f1916010190565b600435906001600160a01b038216820361016857565b602435906001600160a01b038216820361016857565b15610a8657565b60405162461bcd60e51b815260206004820152600e60248201526d27b7363c9031bab9ba37b234b0b760911b6044820152606490fd5b15610ac357565b60405162461bcd60e51b815260206004820152601760248201527f416d6f756e74206d75737420626520706f7369746976650000000000000000006044820152606490fd5b6001600160a01b0316908115610b99576001600160a01b0316918215610b8657815f525f60205260405f205481811061037357817fddf252ad1be2c89b69c2b068fc378daa952ba7f163c4a11628f55a4df523b3ef92602092855f525f84520360405f2055845f525f825260405f20818154019055604051908152a3565b63ec442f0560e01b5f525f60045260245ffd5b634b637e8f60e11b5f525f60045260245ffd5b6005546001600160a01b03163303610bc057565b63118cdaa760e01b5f523360045260245ffdfea26469706673582212209c20671353773e2ad1489002aeec56c9c8ce3c40e2a96550bf01eb7be7cd890664736f6c634300081c0033",
  "linkReferences": {},
  "deployedLinkReferences": {},
  "immutableReferences": {},
  "inputSourceName": "project/contracts/tokens/StableToken.sol",
  "buildInfoId": "solc-0_8_28-e29a3541246d39d60083f51dd98f81c08759a24f"
}