{
  "_format": "hh3-artifact-1",
  "contractName": "WLTCMock",
  "sourceName": "contracts/mocks/WLTCMock.sol",
  "abi": [
    {
      "inputs": [],
      "stateMutability": "nonpayable",
      "type": "constructor"
    },
    {
      "inputs": [
        {
          "internalType": "address",
          "name": "spender",
          "type": "address"
        },
        {
          "internalType": "uint256",
          "name": "allowance",
          "type": "uint256"
        },
        {
          "internalType": "uint256",
          "name": "needed",
          "type": "uint256"
        }
      ],
      "name": "ERC20InsufficientAllowance",
      "type": "error"
    },
    {
      "inputs": [
        {
          "internalType": "address",
          "name": "sender",
          "type": "address"
        },
        {
          "internalType": "uint256",
          "name": "balance",
          "type": "uint256"
        },
        {
          "internalType": "uint256",
          "name": "needed",
          "type": "uint256"
        }
      ],
      "name": "ERC20InsufficientBalance",
      "type": "error"
    },
    {
      "inputs": [
        {
          "internalType": "address",
          "name": "approver",
          "type": "address"
        }
      ],
      "name": "ERC20InvalidApprover",
      "type": "error"
    },
    {
      "inputs": [
        {
          "internalType": "address",
          "name": "receiver",
          "type": "address"
        }
      ],
      "name": "ERC20InvalidReceiver",
      "type": "error"
    },
    {
      "inputs": [
        {
          "internalType": "address",
          "name": "sender",
          "type": "address"
        }
      ],
      "name": "ERC20InvalidSender",
      "type": "error"
    },
    {
      "inputs": [
        {
          "internalType": "address",
          "name": "spender",
          "type": "address"
        }
      ],
      "name": "ERC20InvalidSpender",
      "type": "error"
    },
    {
      "inputs": [
        {
          "internalType": "address",
          "name": "owner",
          "type": "address"
        }
      ],
      "name": "OwnableInvalidOwner",
      "type": "error"
    },
    {
      "inputs": [
        {
          "internalType": "address",
          "name": "account",
          "type": "address"
        }
      ],
      "name": "OwnableUnauthorizedAccount",
      "type": "error"
    },
    {
      "anonymous": false,
      "inputs": [
        {
          "indexed": true,
          "internalType": "address",
          "name": "owner",
          "type": "address"
        },
        {
          "indexed": true,
          "internalType": "address",
          "name": "spender",
          "type": "address"
        },
        {
          "indexed": false,
          "internalType": "uint256",
          "name": "value",
          "type": "uint256"
        }
      ],
      "name": "Approval",
      "type": "event"
    },
    {
      "anonymous": false,
      "inputs": [
        {
          "indexed": true,
          "internalType": "address",
          "name": "previousOwner",
          "type": "address"
        },
        {
          "indexed": true,
          "internalType": "address",
          "name": "newOwner",
          "type": "address"
        }
      ],
      "name": "OwnershipTransferred",
      "type": "event"
    },
    {
      "anonymous": false,
      "inputs": [
        {
          "indexed": true,
          "internalType": "address",
          "name": "from",
          "type": "address"
        },
        {
          "indexed": true,
          "internalType": "address",
          "name": "to",
          "type": "address"
        },
        {
          "indexed": false,
          "internalType": "uint256",
          "name": "value",
          "type": "uint256"
        }
      ],
      "name": "Transfer",
      "type": "event"
    },
    {
      "inputs": [
        {
          "internalType": "address",
          "name": "owner",
          "type": "address"
        },
        {
          "internalType": "address",
          "name": "spender",
          "type": "address"
        }
      ],
      "name": "allowance",
      "outputs": [
        {
          "internalType": "uint256",
          "name": "",
          "type": "uint256"
        }
      ],
      "stateMutability": "view",
      "type": "function"
    },
    {
      "inputs": [
        {
          "internalType": "address",
          "name": "spender",
          "type": "address"
        },
        {
          "internalType": "uint256",
          "name": "value",
          "type": "uint256"
        }
      ],
      "name": "approve",
      "outputs": [
        {
          "internalType": "bool",
          "name": "",
          "type": "bool"
        }
      ],
      "stateMutability": "nonpayable",
      "type": "function"
    },
    {
      "inputs": [
        {
          "internalType": "address",
          "name": "account",
          "type": "address"
        }
      ],
      "name": "balanceOf",
      "outputs": [
        {
          "internalType": "uint256",
          "name": "",
          "type": "uint256"
        }
      ],
      "stateMutability": "view",
      "type": "function"
    },
    {
      "inputs": [
        {
          "internalType": "address",
          "name": "from",
          "type": "address"
        },
        {
          "internalType": "uint256",
          "name": "amount",
          "type": "uint256"
        }
      ],
      "name": "burn",
      "outputs": [],
      "stateMutability": "nonpayable",
      "type": "function"
    },
    {
      "inputs": [],
      "name": "decimals",
      "outputs": [
        {
          "internalType": "uint8",
          "name": "",
          "type": "uint8"
        }
      ],
      "stateMutability": "view",
      "type": "function"
    },
    {
      "inputs": [
        {
          "internalType": "address",
          "name": "to",
          "type": "address"
        },
        {
          "internalType": "uint256",
          "name": "amount",
          "type": "uint256"
        }
      ],
      "name": "mint",
      "outputs": [],
      "stateMutability": "nonpayable",
      "type": "function"
    },
    {
      "inputs": [],
      "name": "name",
      "outputs": [
        {
          "internalType": "string",
          "name": "",
          "type": "string"
        }
      ],
      "stateMutability": "view",
      "type": "function"
    },
    {
      "inputs": [],
      "name": "owner",
      "outputs": [
        {
          "internalType": "address",
          "name": "",
          "type": "address"
        }
      ],
      "stateMutability": "view",
      "type": "function"
    },
    {
      "inputs": [],
      "name": "renounceOwnership",
      "outputs": [],
      "stateMutability": "nonpayable",
      "type": "function"
    },
    {
      "inputs": [],
      "name": "symbol",
      "outputs": [
        {
          "internalType": "string",
          "name": "",
          "type": "string"
        }
      ],
      "stateMutability": "view",
      "type": "function"
    },
    {
      "inputs": [],
      "name": "totalSupply",
      "outputs": [
        {
          "internalType": "uint256",
          "name": "",
          "type": "uint256"
        }
      ],
      "stateMutability": "view",
      "type": "function"
    },
    {
      "inputs": [
        {
          "internalType": "address",
          "name": "to",
          "type": "address"
        },
        {
          "internalType": "uint256",
          "name": "value",
          "type": "uint256"
        }
      ],
      "name": "transfer",
      "outputs": [
        {
          "internalType": "bool",
          "name": "",
          "type": "bool"
        }
      ],
      "stateMutability": "nonpayable",
      "type": "function"
    },
    {
      "inputs": [
        {
          "internalType": "address",
          "name": "from",
          "type": "address"
        },
        {
          "internalType": "address",
          "name": "to",
          "type": "address"
        },
        {
          "internalType": "uint256",
          "name": "value",
          "type": "uint256"
        }
      ],
      "name": "transferFrom",
      "outputs": [
        {
          "internalType": "bool",
          "name": "",
          "type": "bool"
        }
      ],
      "stateMutability": "nonpayable",
      "type": "function"
    },
    {
      "inputs": [
        {
          "internalType": "address",
          "name": "newOwner",
          "type": "address"
        }
      ],
      "name": "transferOwnership",
      "outputs": [],
      "stateMutability": "nonpayable",
      "type": "function"
    }
  ],
  "bytecode": "0x60806040523461037257604080519081016001600160401b03811182821017610285576040908152600b82526a57726170706564204c544360a81b602083015280519081016001600160401b03811182821017610285576040526004815263574c544360e01b602082015281516001600160401b03811161028557600354600181811c91168015610368575b602082101461026757601f8111610305575b50602092601f82116001146102a457928192935f92610299575b50508160011b915f199060031b1c1916176003555b80516001600160401b03811161028557600454600181811c9116801561027b575b602082101461026757601f8111610204575b50602091601f82116001146101a4579181925f92610199575b50508160011b915f199060031b1c1916176004555b33156101865760058054336001600160a01b03198216811790925560405191906001600160a01b03167f8be0079c531659141344cd1fd0a4f28419497f9722a3daafe3b4186f6b6457e05f80a36108ab90816103778239f35b631e4fbdf760e01b5f525f60045260245ffd5b015190505f80610118565b601f1982169260045f52805f20915f5b8581106101ec575083600195106101d4575b505050811b0160045561012d565b01515f1960f88460031b161c191690555f80806101c6565b919260206001819286850151815501940192016101b4565b60045f527f8a35acfbc15ff81a39ae7d344fd709f28e8600b4aa8c65c6b64bfe7fe36bd19b601f830160051c8101916020841061025d575b601f0160051c01905b81811061025257506100ff565b5f8155600101610245565b909150819061023c565b634e487b7160e01b5f52602260045260245ffd5b90607f16906100ed565b634e487b7160e01b5f52604160045260245ffd5b015190505f806100b7565b601f1982169360035f52805f20915f5b8681106102ed57508360019596106102d5575b505050811b016003556100cc565b01515f1960f88460031b161c191690555f80806102c7565b919260206001819286850151815501940192016102b4565b60035f527fc2575a0e9e593c00f959f8c92f12db2869c3395a3b0502d05e2516446f71f85b601f830160051c8101916020841061035e575b601f0160051c01905b818110610353575061009d565b5f8155600101610346565b909150819061033d565b90607f169061008b565b5f80fdfe6080806040526004361015610012575f80fd5b5f3560e01c90816306fdde031461069257508063095ea7b31461061057806318160ddd146105f357806323b872dd14610514578063313ce567146104f957806340c10f191461044d57806370a0823114610416578063715018a6146103bb5780638da5cb5b1461039357806395d89b41146102785780639dc29fac146101c1578063a9059cbb14610190578063dd62ed3e146101405763f2fde38b146100b6575f80fd5b3461013c57602036600319011261013c576100cf61078b565b6100d761084e565b6001600160a01b0316801561012957600580546001600160a01b0319811683179091556001600160a01b03167f8be0079c531659141344cd1fd0a4f28419497f9722a3daafe3b4186f6b6457e05f80a3005b631e4fbdf760e01b5f525f60045260245ffd5b5f80fd5b3461013c57604036600319011261013c5761015961078b565b6101616107a1565b6001600160a01b039182165f908152600160209081526040808320949093168252928352819020549051908152f35b3461013c57604036600319011261013c576101b66101ac61078b565b60243590336107b7565b602060405160018152f35b3461013c57604036600319011261013c576101da61078b565b602435906101e661084e565b6001600160a01b0316801561026557805f525f60205260405f205482811061024c576020835f947fddf252ad1be2c89b69c2b068fc378daa952ba7f163c4a11628f55a4df523b3ef938587528684520360408620558060025403600255604051908152a3005b9063391434e360e21b5f5260045260245260445260645ffd5b634b637e8f60e11b5f525f60045260245ffd5b3461013c575f36600319011261013c576040515f6004548060011c90600181168015610389575b602083108114610375578285529081156103595750600114610304575b50819003601f01601f191681019067ffffffffffffffff8211818310176102f0576102ec82918260405282610761565b0390f35b634e487b7160e01b5f52604160045260245ffd5b905060045f527f8a35acfbc15ff81a39ae7d344fd709f28e8600b4aa8c65c6b64bfe7fe36bd19b5f905b828210610343575060209150820101826102bc565b600181602092548385880101520191019061032e565b90506020925060ff191682840152151560051b820101826102bc565b634e487b7160e01b5f52602260045260245ffd5b91607f169161029f565b3461013c575f36600319011261013c576005546040516001600160a01b039091168152602090f35b3461013c575f36600319011261013c576103d361084e565b600580546001600160a01b031981169091555f906001600160a01b03167f8be0079c531659141344cd1fd0a4f28419497f9722a3daafe3b4186f6b6457e08280a3005b3461013c57602036600319011261013c576001600160a01b0361043761078b565b165f525f602052602060405f2054604051908152f35b3461013c57604036600319011261013c5761046661078b565b6024359061047261084e565b6001600160a01b03169081156104e657600254908082018092116104d25760207fddf252ad1be2c89b69c2b068fc378daa952ba7f163c4a11628f55a4df523b3ef915f9360025584845283825260408420818154019055604051908152a3005b634e487b7160e01b5f52601160045260245ffd5b63ec442f0560e01b5f525f60045260245ffd5b3461013c575f36600319011261013c57602060405160128152f35b3461013c57606036600319011261013c5761052d61078b565b6105356107a1565b6001600160a01b0382165f818152600160209081526040808320338452909152902054909260443592915f198110610573575b506101b693506107b7565b8381106105d85784156105c55733156105b2576101b6945f52600160205260405f2060018060a01b0333165f526020528360405f209103905584610568565b634a1406b160e11b5f525f60045260245ffd5b63e602df0560e01b5f525f60045260245ffd5b8390637dc7a0d960e11b5f523360045260245260445260645ffd5b3461013c575f36600319011261013c576020600254604051908152f35b3461013c57604036600319011261013c5761062961078b565b6024359033156105c5576001600160a01b03169081156105b257335f52600160205260405f20825f526020528060405f20556040519081527f8c5be1e5ebec7d5bd14f71427d1e84f3dd0314c0f7b2291e5b200ac8c7c3b92560203392a3602060405160018152f35b3461013c575f36600319011261013c575f6003548060011c90600181168015610757575b6020831081146103755782855290811561035957506001146107025750819003601f01601f191681019067ffffffffffffffff8211818310176102f0576102ec82918260405282610761565b905060035f527fc2575a0e9e593c00f959f8c92f12db2869c3395a3b0502d05e2516446f71f85b5f905b828210610741575060209150820101826102bc565b600181602092548385880101520191019061072c565b91607f16916106b6565b602060409281835280519182918282860152018484015e5f828201840152601f01601f1916010190565b600435906001600160a01b038216820361013c57565b602435906001600160a01b038216820361013c57565b6001600160a01b0316908115610265576001600160a01b03169182156104e657815f525f60205260405f205481811061083557817fddf252ad1be2c89b69c2b068fc378daa952ba7f163c4a11628f55a4df523b3ef92602092855f525f84520360405f2055845f525f825260405f20818154019055604051908152a3565b8263391434e360e21b5f5260045260245260445260645ffd5b6005546001600160a01b0316330361086257565b63118cdaa760e01b5f523360045260245ffdfea2646970667358221220043f6fefaa5bafb4732bc39ab3c0c97914cfadd2dee17d23caf04d837778de2364736f6c634300081c0033",
  "linkReferences": {},
  "deployedLinkReferences": {},
  "immutableReferences": {},
  "inputSourceName": "project/contracts/mocks/WLTCMock.sol",
  "buildInfoId": "solc-0_8_28-29c05c4191d868fd10ef34b6752827e1b232f09e"
}